:1000000012C02BC02AC029C028C027C026C025C0C6
:1000100024C023C022C021C020C01FC01EC01DC0DC
:100020001CC01BC01AC011241FBECFE5D4E0DEBF28
:10003000CDBF10E0A0E6B0E0E6EBF3E002C0059033
:100040000D92A036B107D9F710E0A0E6B0E001C0EC
:100050001D92A23AB107E1F738C1D2CFAC01892B8A
:1000600061F020E030E0E8EBFBE0CF010197F1F731
:100070002F5F3F4F42175307C1F70895282FE09194
:100080006000F0916100309711F00995089584EFB8
:100090009FE1FC01A591B491822FFD01099508957E
:1000A00040E050E0BC0183E0E9DF0895DF92EF9289
:1000B000FF920F931F937B018C01899A9198EE0C0C
:1000C000FF1C001F111FE114F10401051105C9F007
:1000D00081E0E816F1040105110599F082E0D82EBF
:1000E0008CE291E0BBDF82B38D2582BB0894E108EE
:1000F000F1080109110981E0E816F1040105110573
:1001000079F788EE93E0AADF1F910F91FF90EF90AF
:10011000DF900895CF92DF92EF92FF920F931F939B
:10012000CF93DF936C018B01E199FECF07B600FC02
:10013000FDCFC601B5DF07B600FCFDCFEE24FF24DE
:10014000E601F801808141810E5F1F4F5527542F32
:100150004427480F511DBE0181E090DF82E090E00E
:10016000E80EF91E229690E4E916F10451F740E0FA
:1001700050E0B60185E082DFDF91CF911F910F91B2
:10018000FF90EF90DF90CF900895DB0120E030E00A
:10019000FC0184918D932F5F3F4F319620343105C0
:1001A000C1F70895AF92BF92CF92DF92EF92FF9284
:1001B0000F931F93CF93DF93CDB7DEB7C054D040DA
:1001C0000FB6F894DEBF0FBECDBF6C017B018A0174
:1001D0005E010894A11CB11C06C080E490E0C80E2A
:1001E000D91EE80EF91E62E670E0C701CEDFB50148
:1001F000C601CBDF90916200F5018081981749F428
:100200000134110518F00054104039F781E090E0F6
:1002100002C080E090E0C05CDF4F0FB6F894DEBF14
:100220000FBECDBFDF91CF911F910F91FF90EF9047
:10023000DF90CF90BF90AF9008957F928F929F9262
:10024000AF92BF92CF92DF92EF92FF920F931F93E4
:10025000CF93DF934C015B016A0133E0732E74018D
:100260008501E60106C080E490E0E80EF91E005C1E
:100270001F4F62E670E0C80188DF62E670E0C701E8
:1002800049DFC134D10518F0C054D04061F7A60150
:10029000B501C40187DF892B41F47A9401F760E04E
:1002A00070E080E090E002DF02C07720C1F3DF91D0
:1002B000CF911F910F91FF90EF90DF90CF90BF9063
:1002C000AF909F908F907F900895CFE5D4E0DEBFF0
:1002D000CDBFF89461E070E080E090E0E7DE62E698
:1002E00070E080E098E151DF8FEF8093620083EC53
:1002F0008093630062E670E080E098E10BDFC9EC78
:10030000D1E0CC0FDD1F41E050E0BE0180E498E178
:1003100049DF892B31F441E050E0BE0180E498E1EF
:100320008CDF80E29CE0909361008093600040E865
:1003300057E060E878E080E898E17FDF40E051E056
:1003400060E077E080E097E178DF10926100109242
:10035000600040E051E060E478E080E498E16DDF27
:1003600040E450E060E078E080E098E166DF63E040
:1003700070E080E090E09ADE80E090E091DE82EF35
:100380009FE1FC0125913491F901099580E090E00D
:1003900011C00A01FB0180935700E89511248130B8
:1003A00039F007B600FCFDCF81E180935700E89556
:0603B00008950895FFCF3F
:00000001FF
