:100000004AC085C062C061C060C05FC05EC05DC0E4
:100010005CC05BC05AC059C058C057C056C055C01C
:1000200054C053C052C000CDD914F13C28E5A16C96
:1000300078B5509D89441A03540069006C006C0027
:1000400020004800610072006200610075006D00D0
:100050000E037800750031003500340031001201C4
:100060000101FF000008030432C602020102000180
:1000700009021200010100800F0904000000FF00C6
:100080000000040309040008040C1018141C2028A4
:10009000242C3038343C11241FBECFE5D4E0DEBF21
:1000A000CDBF10E0A0E6B0E0E0E3F0E102C00590D3
:1000B0000D92A236B107D9F710E0A2E6B0E001C078
:1000C0001D92A039B107E1F779C29ACFDC019FEF09
:1000D0008FEF660FB9F046E2F0E0229560FF2D91B8
:1000E000E82FE227EF70929582958F70392F307F3D
:1000F000832B9F70E40F35919327317093278327CB
:100100006A9559F7809590958D939D9308950F93D7
:100110001F932F93DF93CF930FB70F939999FECF30
:1001200099990BC0999909C0999907C0999905C0E7
:10013000999903C000E40ABFA8C0C0917600DD27EA
:10014000C958DF4F0BE013E022E0999BE9CF3F93C2
:100150004F936F9363B330E803C063B3432B49936A
:10016000442763702627215023B32370A9F13795C4
:100170003C3FA0F56227615063B3637037953C3F05
:1001800098F526272150379523B323703C3F90F5EF
:100190006227615037953C3F63B36370A0F5262713
:1001A000215037953C3FC8F523B323706227615037
:1001B00037953C3FB0F50A9563B37AF06370262714
:1001C000215037953C3F88F523B323706227615057
:1001D00037953C3F10F22DC031C048C0612723B392
:1001E00023703F774160C6CF3F77426063B363704F
:1001F0002127C7CF3F774460612723B3237062274D
:1002000061503795C8CF3F7748602127316063B38D
:100210006370262721503795C6CF3F77406161270D
:10022000C1CF3F7740622127C4CF3F774064612729
:10023000C9CF3F774068212700C08FCF30E43ABF55
:100240000B500195033090F0C01B2881233C91F1A5
:100250002B3481F119811F7740918D00141731F4EF
:100260002936D9F02D3249F0213E39F04427409308
:1002700062006F914F913F9108C0209362006F918F
:100280004F913F910AB706FD49CF0F910FBFCF9114
:10029000DF912F911F910F91189500916800002315
:1002A000F1F0409175004423D1F440936800C9E611
:1002B000D0E018C0209162002223C1F24091750065
:1002C000442369F400937500209374000091760034
:1002D0004BE0401B40937600C0E6D0E002C0C1E690
:1002E000D0E001E025B32C7F216014B3136025BB5F
:1002F00014BB13E030E830FF212725BB3795479525
:100300004C3FC0F530FF2127379525BB47954C3F23
:10031000A8F530FF21273795000025BB47954C3FB6
:1003200078F530FF21273795000025BB47954C3FD6
:1003300048F530FF2127699125BB379547954C3FFC
:1003400018F530FF2127379525BB47954C3F00F521
:1003500030FF21273795479525BB4C3FD8F430FF18
:1003600021273795362F479525BB4C3FA8F40A9592
:1003700012F614C02127442725BBC2CF2127C5CFA1
:100380002127CBCF2127D1CF2127442725BBD7CF6A
:100390002127DACF2127DFCF2127E5CF2C7F25BBEF
:1003A0006F914F913F9100E40ABFDF91CF9114B359
:1003B000022F216025BB1C7FDFBFDF912F91000042
:1003C00014BB05BB1F910F91189585B7836085BF3E
:1003D0008BB780648BBF789408951F93CF93DF937E
:1003E00060917500662309F477C0809176009927A3
:1003F000CC27DD27C81BD90BCD57DF4F91E0909359
:100400006300809174008D3209F057C01E818F8186
:1004100081111FEF8881807609F03FC08981882390
:1004200021F41882198292E040C0853021F48A813B
:1004300080936700B5C0863031F582E08093630019
:100440008B81813019F4CEE5D0E004C0823021F4F4
:10045000C0E7D0E092E129C0833009F0A1C08A81D1
:10046000882321F4C2E8D0E094E01FC0813021F459
:10047000C6E3D0E09AE119C0823009F091C0C0E52E
:10048000D0E09EE012C0883011F4988304C08A3016
:1004900009F086C0188291E008C0CE01F2D0982FF2
:1004A0008F3F19F483E080936300191708F0192F28
:1004B000D0936600C093650005C0635011F0CE0173
:1004C000A1D010E01093640083EC80936900109237
:1004D00068001092750005C080916800882309F0BB
:1004E00055C040916300442309F44CC080916900D9
:1004F00098E889278093690010916400193010F002
:1005000018E003C0112309F44DC0433031F4612FCA
:100510008AE690E093D0182F23C020916500309197
:100520006600413029F0F90190E0AAE6B0E00FC082
:10053000F90190E0AAE6B0E003C081918D939F5F3E
:100540009117D9F706C0849131968D939F5F9117CB
:10055000D1F7C901810F911D9093660080936500CA
:1005600080916400811B80936400612F8AE690E093
:10057000ADDD1D5F109368001350183038F41092F1
:10058000630004C08091670080938D008AE002C000
:10059000815019F0989BFCCF0DC0109267000AC0E3
:1005A00010E086CF60E08AE690E090DD83E0809303
:1005B0006800E5CFDF91CF911F910895CFE5D4E09A
:1005C000DEBFCDBF88E190E02EE00FB6F894A8958D
:1005D00081BD0FBE21BD899A91988898FCD285B3C0
:1005E0008C7F85BB84B3836084BB80E395E70197F0
:1005F000F1F784B38C7F84BBE8DE7894919AA89558
:10060000ECDEFDCF919820918E00223081F02330D6
:1006100028F4222341F0213079F407C0233049F037
:10062000243051F408C05CD207C0D0D305C033D405
:1006300003C0A3D401C0DFD4919A0895919820916A
:100640008E00223089F0233028F4222349F0213013
:1006500029F408C0233051F0243051F080E009C063
:10066000C4D207C0DED305C040D403C064D401C0E7
:10067000A6D4919A18161CF080E090E0089599276E
:1006800008950F931F93CF93DF93EC01DC01119634
:1006900099819B3009F4ADC09C30C8F4973080F448
:1006A000953008F076C0923009F456C0933008F0C7
:1006B00056C0992309F441C0913009F0F3C047C0F6
:1006C000993009F499C09A3008F08DC06FC092310A
:1006D00009F495C0933198F49F3009F493C0903198
:1006E00038F49D3009F49AC09E3009F0DBC09BC0FD
:1006F000903109F489C0913109F0D4C088C0913299
:1007000009F49DC0923238F4933109F483C09032D9
:1007100009F0C8C08BC0933209F4ABC0933208F41F
:1007200098C09F3F09F0BEC08A8188838B818983EE
:100730008C818A838D818B8307C082E08883898343
:1007400087EF90E09B838A8384E090E0B0C01092B2
:100750008E008A819B81A0C010928E00A3C0DE0112
:1007600012963A813F713A83FE0133968B818F70E6
:100770008B8320E0933011F080E202C021E080E41E
:10078000382B3C9380818066808341E062E0CD011C
:1007900025C0FE013296953011F48FE501C08FE33C
:1007A000808320E041E061E0CF0118C08E010E5F40
:1007B0001F4F8A818F71FE0133962B812F702B83FF
:1007C00080628A838C91873011F480EF01C080EEC3
:1007D000282B208320E041E062E0C801B2D0181647
:1007E000F4F480E01CC080918F008823C1F081E088
:1007F00016C010928F0056C0919A5ED053C06B8184
:100800008A8175D1B1D10BC08A8181D208C08A8119
:10081000C4D205C06B818A8193D201C0B3D18883D1
:1008200081E090E044C08A81C0D13CC08A8181309F
:1008300079F18130B0F08230A9F581E031C08A8150
:10084000813029F08130E8F0823061F529C082E002
:100850001FC08A81813049F0813018F0823011F553
:1008600006C081E088831C920FC083E011C083E042
:1008700017C08A81813059F0813018F0823091F4AC
:100880000EC081E08883198282E090E010C084E08D
:1008900080938E008C819D81892B39F403C084E084
:1008A00080938E0080E090E002C08FEF90E0DF91B7
:1008B000CF911F910F91089584B3837E84BB85B33C
:1008C0008C6185BBAD98A59A23E6E8EBFBE0CF01F0
:1008D0000197F1F72150D8F7A598AD9A21E030E0C3
:1008E000A89584B3837C84BB85B38C6385BB90E07F
:1008F000892F8A95F1F7AC98A49A892F8A95F1F7F8
:100900009B990DC0A498AC9A9A95F1F79B9B07C050
:1009100084B3837C84BB85B38C6385BB089584B327
:10092000837C84BB85B38C6385BB2F5F3F4F83E0A3
:10093000283E380729F088EB9BE00197F1F7D0CFEC
:1009400008950F931F93DC01162F642F022F10922E
:100950008F00A398AB9A85B3442309F4B1C08B7E72
:1009600085BB84B394E1982B94BB90E007C0A89515
:1009700088E28A95F1F79F5F943611F09B99F7CF43
:100980009B99A3C040E070E07FC05C9188EC8A95A1
:10099000F1F79B9977C0A298AA9AE0E0F0E00DC029
:1009A000A89588E28A95F1F72F5F3F4F9B9904C085
:1009B00083E0283E3807A1F731969B9907C081E074
:1009C000E43FF80719F020E030E0F0CF9B9B7DC0BA
:1009D000272F332727FD3095812F992787FD909565
:1009E000019728173907C9F46623B9F490E007C0C6
:1009F000A89588E28A95F1F79F5F943659F09B9904
:100A0000F7CF08C0A89588E28A95F1F79F5F9436E2
:100A100021F001C090E09B9BF5CF88E28A95F1F729
:100A2000AA98A29A90E030E020E5832F8A95F1F70A
:100A300050FD02C0AB98A39AA298AA9A822F8A95D9
:100A4000F1F7AA98A29AA398AB9A9F5F983011F4F5
:100A500020E008C05695E9CF88E28A95F1F72F5F2C
:100A6000283C81F083B38695869586958095982F4E
:100A7000917080FFF1CF992329F07F5F80E08A9504
:100A8000F1F701C04FEF119671171CF4442309F4DC
:100A90007CCF002349F0AB98A39AA498AC9AA29873
:100AA000AA9A9A9B03C0FDCFA498AC9A80E08A953D
:100AB000F1F747FF472F842F992787FD90950DC0A9
:100AC0008B7F85BB84B394E04ECF84B38B7E84BB95
:100AD00085B3846185BB8FEF9FEF1F910F910895C0
:100AE00020E040E02EDF992787FD90950895823021
:100AF00029F0843029F08130A1F504C0E4E003C07E
:100B0000E0E101C0E8E0662311F0FE2F01C0F0E053
:100B100060E070E040E050E012C083E0683E78079B
:100B200048F081E0453F5807E0F44F5F5F4F60E0D9
:100B300070E005C06F5F7F4F88E28A95F1F783B35D
:100B400099272E2F332727FD3095822393232F2F8C
:100B5000332727FD309582179307F9F280E090E064
:100B600008958FEF9FEF089583B3869586958695B8
:100B7000809581709A9B82609C9B8460992787FDF9
:100B80009095089581B3877081BB87B3887F87BBB9
:100B900082B3877082BB88B3887F88BB80B396B3EB
:100BA000887F9770892B9927089591B3986F91BB8F
:100BB00097B3976097BB92B3977092BB98B3987FA7
:100BC00098BB92B3282F287F922B92BB98B3877043
:100BD000982B98BB089584B3837C84BB85B38C63C6
:100BE00085BB80E08A95F1F70895CF93DF93EC0100
:100BF000A0E0B0E590E007C0923309F47EC09F5FAB
:100C00008B2F8A95F1F79A9BF7CFA398AB9A90E038
:100C100028E206C0822F8A95F1F79F5F983219F07B
:100C20009A99F8CF0AC081E080938F00AB98A39A7D
:100C300080E08A95F1F7A398AB9A30E041E050E06C
:100C400070E506C0872F8A95F1F73F5F343661F073
:100C500083B39927969587959695879584279527A9
:100C6000282F217080FFEECFF0E070E026C088E2F0
:100C70008A95F1F79F5F983C19F09A9BF8CF40C096
:100C800020E018C0706830E041E050E0E0E506C0C8
:100C90008E2F8A95F1F73F5F343661F083B3992741
:100CA000969587959695879584279527282F217067
:100CB00080FFEECFFF5FF83021F0222371F090E04B
:100CC000DCCF222351F0AB98A39AFE01EA0FF11D6D
:100CD0007083AF5F88EC8A95F1F7A61738F422236A
:100CE00061F080918F00882319F484CF222329F0AA
:100CF0008A2F992787FD909507C08FEF9FEF04C03B
:100D000076959B99BFCFBFCFDF91CF910895E82F04
:100D1000807F19F08FEF9FEF089595B3FF27E7FDD0
:100D2000F095EA57FF4FE4912E2F3327822F8095BD
:100D3000982395BB84B3822B84BB80E090E0089518
:100D4000E82F807F39F5862F807F21F595B3FF2727
:100D5000E7FDF095EA57FF4FE4912E2F3327822FBE
:100D60008095982395BB84B3822B84BB94B3E62FE4
:100D7000FF27E7FDF095EA57FF4FE4912E2F332729
:100D8000822F8095982394BB85B3822B85BB80E00E
:100D900090E008958FEF9FEF0895E82F807F19F07E
:100DA0008FEF9FEF089594B3FF27E7FDF095EA5783
:100DB000FF4FE4912E2F3327822F8095982394BBE9
:100DC00085B3822B85BB80E090E00895FC0140E074
:100DD00023C0208130E027FF03C0AB98A39A02C054
:100DE000A398AB9AA298AA9A9A99FECF27FF03C01C
:100DF000A398AB9A02C0AB98A39A9A9BFECFA398F4
:100E0000AB9AAA98A29A9B99FECF3F5F383011F017
:100E1000220FE1CF31964F5F4617D9F6862F9927DB
:100E20000895DC0170E02FC09B9BFECFA298AA9A88
:100E300083B3869586958095982F917080FD02C02A
:100E400080E001C080E84695482BAB98A39A292FF3
:100E50003327E1E0F0E083B399279695879596953F
:100E600087958E279F27817090702817390799F3EF
:100E7000A398AB9A9B99FECFAA98A29A515057FF7C
:100E8000D3CF4D937F5F761719F057E040E0CCCF7A
:100E9000862F99270895FC0140E022C0208130E090
:100EA00020FF03C0AB98A39A02C0A398AB9A2695E3
:100EB000A498AC9A9A9BFECF20FF03C0AB98A39A4C
:100EC00002C0A398AB9AAC98A49A9A99FECF3F5FC0
:100ED000343011F02695E4CF3196A398AB9A4F5F4A
:100EE0004617E1F6862F99270895FC0150E01BC0B4
:100EF0009A9BFECF9B9902C070E801C070E0A49855
:100F0000AC9A9A99FECF9B9902C040E801C040E09C
:100F10002695272B2695242BAC98A49A315013168E
:100F20003CF321935F5F561719F020E034E0E0CFE7
:100F3000862F99270895FF920F931F93CF93DF93E6
:100F40008C01F62EEC010DC09B99FECF1BDE888331
:100F5000A298AA9A9B9BFECF15DE8983AA98A29A93
:100F600022969E01201B2F1578F38F2D9927DF9154
:100F7000CF911F910F91FF900895FF920F931F93B0
:100F8000CF93DF938C01F62EEC010DC09B99FECF21
:100F900088810BDEA298AA9A9B9BFECF898105DEF1
:100FA000AA98A29A22969E01201B2F1578F38F2DC6
:100FB0009927DF91CF911F910F91FF9008950F9383
:100FC0001F93CF93DF93EC01062F10E00BC0A29884
:100FD000AA9A9B9BFECFD6DDAA98A29A9B99FECF98
:100FE00089931F5F101799F7802F9927DF91CF9171
:100FF0001F910F9108950F931F93CF93DF93EC01EF
:10100000062F10E00CC08881D0DDA298AA9A9B9B85
:10101000FECFAA98A29A9B99FECF21961F5F101728
:1010200091F7802F9927DF91CF911F910F9108950C
:02103000D25A92
:00000001FF
