:1000000042C0AEC15AC059C058C057C056C055C0F2
:1000100054C053C052C051C050C04FC04EC04DC05C
:100020004CC04BC04AC012010101FF00000803048C
:1000300032C6040101020001090212000101008020
:100040000F090400000000000000040309041A0363
:10005000540069006C006C002000480061007200D0
:100060006200610075006D000E03780075003100BC
:100070003500340031000008040C1018141C20282E
:10008000242C3038343C11241FBECFE5D4E0DEBF31
:10009000CDBF10E0A0E6B0E0E0E6F5E102C00590DB
:1000A0000D92A436B107D9F710E0A4E6B0E001C084
:1000B0001D92A83DB107E1F7FDC2A2CF84E690E012
:1000C0008093CD000B968093CC0085B7836085BF6D
:1000D0008BB780648BBF08950F931F93CF93DF93EB
:1000E0006091D200662301F1635067FD1BC08091CF
:1000F000CC00282F2F5FE9018091CF008D32B1F124
:1001000080917A0087FD34C0CE011CD38F3F09F463
:1001100058C0882309F452C020E030E030937A00C0
:10012000209360001092D200909160009F3F21F0D8
:100130008091610087FD1FC083B3837019F0109216
:100140007B0009C180917B00882309F004C194E6FB
:1001500083B3837009F0FFC09150D1F781E08093A1
:100160007B001092D3001092CE00F5C0683091F160
:1001700020E030E8D3CF692F993008F068E0961B73
:100180009093600080917A0080FF16C003EC8F5F2F
:1001900080937A0087FD53C06623D1F560E082EC3E
:1001A00090E084D294E08FEF80936000892F0093D9
:1001B000C10080936100C0CF0BE4E9CF2FEF30E0A6
:1001C000ADCF8EE18093C10082E0809361002FEF7C
:1001D00030E0A4CF8881807609F06AC01092CA000E
:1001E0008981882309F055C01092CB008AEC90E0F9
:1001F00022E030E89093D1008093D0008F81882353
:1002000009F08CCF8E81821708F088CF282F86CFF7
:1002100082EC90E0BBD2682F7727162F693048F424
:1002200082EC90E043D2912F9C5F183008F0BECF53
:10023000BACF8FEF809360000EE182E0B8CF2091BB
:10024000D0003091D10086FF17C0462F41504F3F5C
:1002500069F0F901942FA2ECB0E084918D9331966E
:100260009150D8F7240F311D2F5F3F4F3093D100AD
:100270002093D0007727D1CF462F41504F3FB1F385
:10028000F901942FA2ECB0E081918D939150E0F7A9
:10029000E9CF8530D1F0863001F1883051F18930D5
:1002A00069F18A3099F18AEC90E020E030E8A2CF41
:1002B000CE0190D2282F8F3F09F05BCF8881882311
:1002C0000CF07DCF2E8130E029CF8A818093D3003E
:1002D0008AEC90E020E030E88DCF8B818130D9F03E
:1002E000823031F18330E1F08AEC90E020E030ECB4
:1002F00081CF85ED90E021E030E87CCF8A8180934A
:10030000D5008AEC90E020E030E874CF8AEC90E0F1
:1003100021E030E86FCF86E290E022E130EC6ACF56
:100320008A81882351F48AE490E024E030EC62CFA3
:1003300088E390E022E130EC5DCF813039F082300B
:1003400099F688E690E02EE030EC54CF8EE490E011
:100350002AE130EC4FCFDF91CF911F910F9108959B
:100360000F930FB70F93989BFECF989B06C0989B57
:1003700004C0989B02C0000000C01F933F932F93BE
:1003800031E012E003B3102710FD32E0102F3A9550
:10039000C9F700FDE5C003B3102717952FE7279590
:1003A000DF9313B3012707952795CF93C091CD0015
:1003B00003B31027179527953BE0D0E04F9313B375
:1003C0000127079527954FEF000055C0989BFECF5A
:1003D000989B06C0989B04C0989B02C0000000C078
:1003E000DF9100C0CDCF13B3137079F1407C2C6F37
:1003F00013C003B3037049F141782C6F15C003702B
:1004000021F1102F2C6F03B319C003B30370E9F06F
:100410004E7F2C6F18C038F303B30370B1F0102770
:1004200017952795243028F313B3012707952795AF
:10043000422749934FEF03B3243008F31027179551
:100440002795243010F313B31370E1F101270795BA
:1004500027952430F0F003B30370A1F1102717950E
:1004600027952430E0F013B30127079527953A9597
:1004700041F12430D0F003B3037021F11027179518
:1004800027952430C0F013B3012707952795243012
:10049000C2CF13B31370B1F04C7F2C6FDCCF03B31A
:1004A000037081F0487F2C6FDECF13B3137051F0CF
:1004B000407F2C6FE0CF03B3037021F0407E2C6FA0
:1004C000E2CF3BC03C2FC091CD003C1B00E4333059
:1004D0000ABF98F108811981412F1F772091CE0022
:1004E0000D3279F1013E69F10936C1F00777033425
:1004F00021F51091D400112301F10091D2000030B8
:10050000C1F53430CAF13093D2001093CF0000917E
:10051000CC00C093CC000093CD002EC0121769F41C
:10052000309161003F3F29F10FEF00936100C1EC72
:10053000D0E025C000270093D4004F91CF91DF91E8
:100540000FC01217B9F70093D4000FEF00936000AB
:10055000009361004F91CF910AB706FD37CFDF912D
:1005600000E40ABF2F913F911F910F910FBF0F9190
:100570001895C3E6D0E002C0C2E6D0E032E05F9357
:1005800005B30C7F016005BB53E014B3136014BBCB
:1005900020E80FC0052710E005BB10C0052710E0BC
:1005A000089405BB13C0052710E015C0052710E00F
:1005B00019C020FF052705BB279517951C3F50F74D
:1005C00020FF0527279505BB17951C3F38F720FF0F
:1005D00005272795179505BB1C3F28F720FF052702
:1005E000279517951C3F05BB08F700C0499120FFD0
:1005F000052705BB279517951C3F80F520FF05278C
:10060000279505BB17951C3F68F520FF0527279503
:10061000179505BB1C3F58F520FF05272795179513
:100620001C3F05BB38F5242F3A9519F60C7F5F91D6
:1006300005BB32E03A95F1F71091D300C556D04092
:1006400011F01093CE00016014B31C7F05BB0C7F2A
:100650004F91CF9114BB05BBDF9182CF052710E0EE
:1006600005BBCACF052710E0089405BBCDCF0527F1
:1006700010E0CFCF052710E0D3CFA82FB92F8FEFF1
:100680009FEF41E050EA615070F02D9138E0722FF9
:10069000782796958795269570FF02C08427952721
:1006A0003A95A9F7F0CF809590950895E6DF8D9360
:1006B0009D930895CFE5D4E0DEBFCDBF88E190E003
:1006C0002EE00FB6F894A89581BD0FBE21BD3FD78F
:1006D00081E021D784B7992783709070892BE9F442
:1006E00004B603FC29C004B602FC20C0899A919884
:1006F000889843D485B38C7F85BB84B3836084BBE7
:1007000080E395E70197F1F784B38C7F84BBD6DC57
:100710007894919AA895E0DCFDCF82E0FCD684B76E
:100720008D7F84BF84B78E7F84BFDACF84E0F3D619
:1007300084B78B7F84BFDACF83E0EDD684B7877F21
:1007400084BFD1CF91982091D600223091F02330F0
:1007500050F02330C9F02430A9F080E0919A1816A7
:1007600064F499270895222359F02130B1F7F0D489
:10077000F5CF87D5919A1816A4F380E090E00895FC
:1007800076D3ECCF9BD6EACF35D6E8CF919820919F
:10079000D600223091F0233050F02330C9F02430BD
:1007A000A9F080E0919A181664F4992708952223FD
:1007B00059F02130B1F719D5F5CFADD5919A18166A
:1007C000A4F380E090E0089511D4ECCF47D6EACFAF
:1007D000DDD5E8CFCF93DF93FC018CE790E09093D9
:1007E000D1008093D00031813D30B1F13E3008F12D
:1007F000333109F465C0343108F451C0323209F4A0
:10080000D4C0333208F49BC03E3F09F406C13F3FD9
:1008100008F0E5C0333209F08FC08281813009F4DD
:100820002DC1813008F4D3C0823009F085C084E046
:1008300093C03730B8F0393009F474C0393008F457
:1008400057C03A3009F49FC03B3009F075C0109290
:10085000D70080E090E01EC150D180937C0081E001
:1008600090E018C13530A0F5323009F483C0333040
:1008700008F47BC0EF01229692819F719283DF0181
:10088000139683818F70838320E0333009F4FFC097
:1008900080E2892B88838C9180668C933AC03031BA
:1008A00009F47CC0313108F442C0313109F4D6C0BA
:1008B000323109F041C06381828148D1DFD2CDCF8E
:1008C00063818281F4D080937C0081E090E0E2C07B
:1008D0003296353009F479C08FE3808320E041E01F
:1008E00061E0CF017DD118160CF0B7CF80E0B5CF15
:1008F000EF01229682818F71DF01139623812F7081
:100900002383806282833730E1F180EE822B8C93E7
:1009100020E041E062E0CE0163D118160CF09DCFDB
:1009200080E09BCF919AC2D280E090E0B3C03E308D
:1009300009F48FC03F3011F280E090E0ABC030325C
:1009400009F475C03132C1F78281813009F48DC05C
:100950008130E8F1823081F78093D60084819581DF
:10096000892B51F38FEF90E095C0332309F446C0F3
:10097000313011F71092D60082819381892B91F743
:10098000DBCF80EFC3CF10927C008091D70088230B
:1009900009F465CF81E080937C0061CF828110D320
:1009A00080937C0081E090E075C08281813029F0E5
:1009B000813068F0823009F0BFCF83E08093D600A9
:1009C00084819581892B71F6B7CF8FE586CF81E041
:1009D00080937C0010927D0082E090E05BC0828179
:1009E00080937C00838180937D00848180937E004E
:1009F000858180937F0084E090E04CC081E080930B
:100A00007C0084E080937D0087EF90E090937F00EE
:100A100080937E0084E090E03DC080E480937C0081
:100A2000828189D580937D0082E090E033C082810D
:100A3000813009F491CF813050F2823009F07CCFBF
:100A400081E08093D60084819581892B09F08ACF3B
:100A500073CF828165D080E090E01CC082819AD201
:100A600080937C0081E090E015C082E08093D60006
:100A700084819581892B09F075CF5ECF84E08093C6
:100A8000D60084819581892B09F06CCF55CF21E068
:100A900080E4FFCEDF91CF910895E82FFF27E7FD97
:100AA000F095EA58FF4FE4918E2F992708950F9300
:100AB0001F93082F807F19F08FEF9FEF1BC0862FA9
:100AC000807FD1F7862FE9DF182F802FE6DF94E0B3
:100AD0009A95F1F795B3282F2095922395BB94B35F
:100AE000982B812F8095892384BB85B3812B85BB6F
:100AF00080E090E01F910F91089581B3877081BBD2
:100B000087B3887F87BB82B3877082BB88B3887FB7
:100B100088BB90B386B38770987F892B99270895F7
:100B200091B3986F91BB97B3976097BB92B397704F
:100B300092BB98B3987F98BB92B3282F287F922BB3
:100B400092BB98B38770982B98BB0895823049F078
:100B5000843009F43DC0813009F43EC08FEF9FEF2F
:100B6000089584E0E4E0F0E0662341F5A0E0B0E021
:100B700040E050E020E030E064E078E2862F8A95A3
:100B8000F1F783B399278E239F23A817B90799F408
:100B900083E0483E580748F081E0253F380798F445
:100BA0002F5F3F4F40E050E0E9CF4F5F5F4F872F0F
:100BB0008A95F1F7E3CF80E090E00895A82FBB2756
:100BC000A7FDB095D5CF8DE0A6D48FEF9FEF089508
:100BD00080E1E0E1F0E0C8CF88E0E8E0F0E0C4CFF9
:100BE000DF92EF92FF920F931F93CF93DF93EC016D
:100BF000062FE42ED22E1092D70084E08A95F1F7CA
:100C0000A398AB9A442309F005C194E02BEF84E04C
:100C10008A95F1F785B3822385BB84B3982B94BB67
:100C200090E024E007C0A89588E28A95F1F79F5FDD
:100C3000943629F0822F8A95F1F79B99F4CF94E0AE
:100C4000892F8A95F1F79B99FEC010160CF0F8C019
:100C5000FF24699188EC8A95F1F794E0892F8A95B1
:100C6000F1F79B99ACC0892F8A95F1F7A298AA9ABF
:100C70009A95F1F79B9925C040E050E094E0892FC8
:100C80008A95F1F79B9912C020E030E006C02F5FF3
:100C90003F4F83E0283E380749F0A89588E28A95BF
:100CA000F1F784E08A95F1F79B9BF1CF84E08A9578
:100CB000F1F79B9906C04F5F5F4F81E0443F5807B3
:100CC000F1F614E0812F8A95F1F79B9BACC02F2D94
:100CD000332727FD3095802F992787FD9095019721
:100CE0002817390709F477C088E28A95F1F784E07C
:100CF0008A95F1F7AA98A29A20E040E094E030E5C6
:100D000001C06695842F8A95F1F760FD05C0892F93
:100D10008A95F1F7AB98A39A892F8A95F1F7A29853
:100D2000AA9A832F8A95F1F7892F8A95F1F7AA98C5
:100D300084B38460877F84BBAB9A2F5F283009F728
:100D400020E084E08A95F1F783B3869586958695B1
:100D50008095982F917080FD36C088E28A95F1F7D2
:100D60002F5F283C71F786E0D6D389E0D4D32FEFEC
:100D7000F0161CF4222309F46CCFDD2009F44DC0D9
:100D800084E0982F9A95F1F7AB98A39A982F9A95AB
:100D9000F1F7A498AC9A8A95F1F7A298AA9A94E0F0
:100DA000892F8A95F1F79A99FBCF80E08A95F1F720
:100DB00027FF2F2D822F992787FD909550C08AE01D
:100DC000AAD32FEFD5CF992381F2F39480E08A95AF
:100DD000F1F720E0CDCFEE2009F086CF90E024E0BF
:100DE000822F8A95F1F79B9B07C0A89588E28A9588
:100DF000F1F79F5F9436A1F790E084E08A95F1F7D0
:100E00009B9972CFA89588E28A95F1F79F5F9436F7
:100E1000A1F76ACF94E12BEEFACE84E08A95F1F740
:100E2000A498AC9AC2CF87E076D31A95F1F784B331
:100E30008B7E84BB85B3846185BB8FEF9FEF0FC032
:100E400020E0FF249ACF9A95F1F784B38B7E84BB80
:100E500085B3846185BB88E05ED38FEF9FEFDF9120
:100E6000CF911F910F91FF90EF90DF90089520E0B8
:100E700040E0B6DE992787FD9095089524E0822F03
:100E80008A95F1F793B3969596959695909591706E
:100E9000822F8A95F1F79A9B92602A95F1F79C9B95
:100EA0009460892F992787FD9095089594E0892F64
:100EB0008A95F1F784B3837E84BB85B38C6185BB4F
:100EC0009A95F1F7AD98A59A23E6E8EBFBE0CF0100
:100ED0000197F1F72150D8F784E08A95F1F7A598AA
:100EE000AD9A41E050E013C02A95F1F784B3837CBA
:100EF00084BB85B38C6385BB4F5F5F4F83E0483E07
:100F0000580709F437C088EB9BE00197F1F7A895E3
:100F100024E0822F8A95F1F784B3837C84BB85B368
:100F20008C6385BB80E0982F9A95F1F7922F9A9564
:100F3000F1F7AC98A49A8A95F1F7822F8A95F1F788
:100F400083B3982F987083FDCFCF822F8A95F1F7C6
:100F5000A498AC9A9A95F1F7822F8A95F1F79B9B0A
:100F6000C3CF2A95F1F784B3837C84BB85B38C63AC
:100F700085BB089585E0CFD2089584E08A95F1F786
:100F800084B3837C84BB85B38C6385BB80E08A9506
:100F9000F1F70895982F807F19F08FEF9FEF089554
:100FA000892F7BDD94E09A95F1F794B3282F209553
:100FB000922394BB95B3982B95BB80E090E0089565
:100FC000982F807F19F08FEF9FEF0895892F65DDAF
:100FD00094E09A95F1F795B3282F2095922395BB2D
:100FE00094B3982B94BB80E090E00895CF93DF9367
:100FF000EC0190E054E0852F8A95F1F79A990EC0A4
:1010000020E004C02F5F283C09F492C080E58A9557
:10101000F1F7852F8A95F1F79A9BF4CF852F8A9562
:10102000F1F7A398AB9A20E034E048E207C0842FA0
:101030008A95F1F72F5F283209F46AC0832F8A95C9
:10104000F1F79A99F4CF20E044E030E507C0832F10
:101050008A95F1F72F5F243609F46FC0842F8A95A3
:10106000F1F79A99F4CFB0E0E0E020E007C088E221
:101070008A95F1F72F5F283C09F436C0852F8A95B1
:10108000F1F79A9BF4CFB695852F8A95F1F79B9946
:10109000B06820E044E071E030E506C0832F8A9517
:1010A000F1F72F5F243659F0842F8A95F1F783B337
:1010B000869586958727A82FA17080FFEFCFEF5FD9
:1010C000E830B1F0AA2389F6961708F038C0AA23B1
:1010D00009F437C08091D700882309F48CCF892F79
:1010E000992787FD909531C0A0E0EF5FE83051F778
:1010F000AA2351F3852F8A95F1F7AB98A39AFE01A5
:10110000E90FF11DB0839F5F88EC8A95F1F7DCCF82
:1011100081E08093D700832F8A95F1F7AB98A39A4B
:1011200080E08A95F1F73A95F1F7A398AB9A8BCFC7
:101130008BE0F1D18FEF9FEF08C0A0E0C5CFAA23CD
:1011400071F68CE0E8D18FEF9FEFDF91CF9108959A
:10115000FC01662309F446C070E044E0319150E0A0
:1011600037FD31C0842F8A95F1F7A398AB9A842F6D
:101170008A95F1F7A298AA9A24E0822F8A95F1F72E
:101180009A99FBCF37FD25C02A95F1F7AB98A39A22
:1011900024E0822F8A95F1F79A9BFACF822F8A95C5
:1011A000F1F7A398AB9A2A95F1F7AA98A29A24E0AE
:1011B000822F8A95F1F79B99FBCF5F5F583071F0D2
:1011C000330F37FFCFCF842F8A95F1F7AB98A39ACF
:1011D000CECF2A95F1F7A398AB9ADACF7F5F671746
:1011E00009F0BCCF862F99270895FC01662309F4E6
:1011F00045C0A0E050E077E024E0822F8A95F1F727
:101200009B9BFACF822F8A95F1F7A298AA9A2A95EA
:10121000F1F783B3869586958095482F417080FDC0
:101220002BC080E05695582B84E08A95F1F7AB9857
:10123000A39A24E031E0822F8A95F1F783B3869553
:101240008695832781704817B1F32A95F1F7A39803
:10125000AB9A24E0822F8A95F1F79B99FBCF2A95D0
:10126000F1F7AA98A29A715077FFC6CF5083AF5F6B
:101270006A1721F03196BECF80E8D4CF862F992708
:101280000895FC01662309F443C070E034E0219125
:1012900050E020FF2AC0832F8A95F1F7AB98A39ADC
:1012A000422F4695832F8A95F1F7A498AC9A24E0B3
:1012B000822F8A95F1F79A9BFBCF40FF1CC02A959D
:1012C000F1F7AB98A39A832F8A95F1F7AC98A49A7B
:1012D00024E0822F8A95F1F79A99FBCF5F5F543013
:1012E00079F0242F269520FDD6CF832F8A95F1F70C
:1012F000A398AB9AD5CF2A95F1F7A398AB9AE3CFF1
:101300002A95F1F7A398AB9A7F5F671709F0BFCFD3
:10131000862F99270895FC01662309F434C070E0F4
:1013200030E044E024E0822F8A95F1F79A9BFACFCF
:101330002A95F1F79B9925C050E884E08A95F1F74A
:10134000A498AC9A24E0822F8A95F1F79A99FBCF62
:101350002A95F1F79B9913C080E83695352B369581
:10136000382B84E08A95F1F7AC98A49A4150141672
:10137000CCF230837F5F671731F03196D1CF80E0B8
:10138000ECCF50E0DACF862F99270895CF92DF92E5
:10139000FF920F931F93CF93DF936C01F62E66237A
:1013A000F9F0EC0104E0802F8A95F1F79B99FBCFCF
:1013B000A4DB8883802F8A95F1F7A298AA9A14E07B
:1013C000812F8A95F1F79B9BFBCF97DB89831A9539
:1013D000F1F7AA98A29A22969E012C192F1518F3BC
:1013E0008F2D9927DF91CF911F910F91FF90DF9063
:1013F000CF900895CF92DF92FF920F931F93CF93D8
:10140000DF936C01F62E6623F9F0EC0104E0802FE7
:101410008A95F1F79B99FBCF888182DB802F8A9593
:10142000F1F7A298AA9A14E0812F8A95F1F79B9B75
:10143000FBCF898175DB1A95F1F7AA98A29A2296BB
:101440009E012C192F1518F38F2D9927DF91CF911D
:101450001F910F91FF90DF90CF900895FF920F930F
:101460001F93CF93DF93EC01F62E6623F9F000E093
:1014700014E0812F8A95F1F7A298AA9A812F8A9574
:10148000F1F79B9BFBCF39DB282F812F8A95F1F752
:10149000AA98A29A94E0892F8A95F1F79B99FBCF9D
:1014A00028830F5FF01611F02196E3CF8F2D992737
:1014B000DF91CF911F910F91FF900895FF920F93AD
:1014C0001F93CF93DF93EC01F62E6623E1F000E04B
:1014D00014E0899125DB812F8A95F1F7A298AA9AC9
:1014E000812F8A95F1F79B9BFBCF812F8A95F1F78E
:1014F000AA98A29A94E0892F8A95F1F79B99FBCF3D
:101500000F5FF01631F78F2D9927DF91CF911F9143
:101510000F91FF9008959091C000E92FFF27E058A8
:10152000FF4F80839F5F9093C000903409F008952F
:101530001092C0000895E091C000E80FF12DF11D58
:10154000EF73F070E058FF4F80819927089580E491
:10155000E0E8F0E011928A95E9F71092C000089552
:04156000FFFFD25A5D
:00000001FF
