:1000000042C1BFC25AC159C158C157C156C155C1D9
:1000100054C153C152C151C150C14FC14EC14DC154
:100020004CC14BC14AC1E6C576C57CC585C584C5F2
:1000300096C595C505C504C569C5C2C5CCC5AEC5BF
:10004000B2C5B7C5BAC51AC514C51EC50FC50EC5FC
:100050000DC50CC50BC50AC509C508C507C506C52C
:1000600005C504C503C518C540C529C533C5FEC4AB
:10007000FDC4FCC4FBC4FAC4F9C4F8C4F7C4F6C494
:10008000F5C4F4C4F3C4F2C4F1C4F0C4EFC4EEC4C4
:10009000EDC4ECC4EBC4EAC4E9C4E8C4E7C4E6C4F4
:1000A000E5C4E4C4E3C4E2C4E1C4E0C4DFC4DEC424
:1000B000DDC4DCC4DBC4DAC4D9C4D8C4D7C4D6C454
:1000C000D5C4D4C4D3C4D2C4D1C4D0C4CFC4CEC484
:1000D000CDC4CCC4CBC4CAC4C9C4C8C4C7C4C6C4B4
:1000E000C5C4C4C4C3C4C2C4C1C4C0C4BFC4BEC4E4
:1000F000BDC4BCC4BBC4BAC4B9C4B8C4B7C4B6C414
:10010000B5C4B4C4B3C4B2C4B1C4B0C4AFC4AEC443
:10011000ADC4ACC4ABC4AAC4A9C4A8C4A7C4A6C473
:10012000A5C4A4C4A3C4A2C4A1C4A0C49FC49EC4A3
:100130009DC49CC49BC49AC499C498C497C496C4D3
:1001400095C494C493C492C491C490C48FC48EC403
:100150008DC48CC48BC48AC489C488C487C486C433
:1001600085C484C483C482C481C480C47FC47EC463
:100170007DC47CC47BC47AC479C478C477C476C493
:1001800075C474C473C472C471C470C46FC46EC4C3
:100190006DC46CC46BC46AC469C468C467C466C4F3
:1001A00065C464C463C462C461C460C45FC45EC423
:1001B0005DC45CC45BC45AC459C458C457C456C453
:1001C00055C454C453C452C451C450C44FC44EC483
:1001D0004DC44CC44BC44AC449C448C447C446C4B3
:1001E00045C444C443C442C441C440C43FC43EC4E3
:1001F0003DC43CC43BC43AC439C438C437C436C413
:1002000035C434C433C432C431C430C42FC42EC442
:100210002DC42CC42BC42AC429C428C427C426C472
:1002200070C4DEC4ABC412010101FF000008030466
:1002300032C608010102000109021200010100801A
:100240000F090400000000000000040309041A0361
:10025000540069006C006C002000480061007200CE
:100260006200610075006D000E03780075003100BA
:100270003500340031000008040C1018141C20282C
:10028000242C3038343C11241FBECFE5D4E0DEBF2F
:10029000CDBF10E0A0E6B0E0ECE7F6E102C00590CB
:1002A0000D92A436B107D9F711E0A4E6B0E001C081
:1002B0001D92AC35B107E1F70EC3A2CE809160006C
:1002C0008F3F19F080E090E0089580916100809563
:1002D000881F8827881F91E089279927089584E639
:1002E00090E08093CE000B968093CD0085B783601D
:1002F00085BF8BB780648BBF08950F931F93CF93F7
:10030000DF936091D300662301F1635067FD1BC04A
:100310008091CD00282F2F5FE9018091D0008D3290
:10032000B1F180917A0087FD34C0CE0125D38F3F93
:1003300009F458C0882309F452C020E030E030931B
:100340007A00209360001092D300909160009F3F4C
:1003500021F08091610087FD1FC083B3837019F085
:1003600010927B0009C180917B00882309F004C1B1
:1003700094E683B3837009F0FFC09150D1F781E018
:1003800080937B001092D4001092CF00F5C06830AB
:1003900091F120E030E8D3CF692F993008F068E080
:1003A000961B9093600080917A0080FF16C003EC4A
:1003B0008F5F80937A0087FD53C06623D1F560E09C
:1003C00083EC90E084D294E08FEF80936000892FDB
:1003D0000093C20080936100C0CF0BE4E9CF2FEF00
:1003E00030E0ADCF8EE18093C20082E08093610067
:1003F0002FEF30E0A4CF8881807609F06AC0109298
:10040000CB008981882309F055C01092CC0022E0EE
:1004100030E88BEC90E09093D2008093D1008F81F4
:10042000882309F08CCF8E81821708F088CF282F7F
:1004300086CF83EC90E0C4D2682F7727162F6930DF
:1004400048F483EC90E043D2912F9C5F183008F081
:10045000BECFBACF8FEF809360000EE182E0B8CFBD
:100460002091D1003091D20086FF17C0462F415015
:100470004F3F69F0F901942FA3ECB0E084918D9384
:1004800031969150D8F7240F311D2F5F3F4F309395
:10049000D2002093D1007727D1CF462F41504F3F34
:1004A000B1F3F901942FA3ECB0E081918D939150B9
:1004B000E0F7E9CF8530D1F0863001F1883051F195
:1004C000893069F18A3099F120E030E88BEC90E0D6
:1004D000A2CFCE0199D2282F8F3F09F05BCF888120
:1004E00088230CF07DCF2E8130E029CF8A81809344
:1004F000D40020E030E88BEC90E08DCF8B81813010
:10050000D9F0823031F18330E1F020E030EC8BEC37
:1005100090E081CF21E030E886ED90E07CCF8A81C9
:100520008093D60020E030E88BEC90E074CF21E09F
:1005300030E88BEC90E06FCF86E292E022E130EC85
:100540006ACF8A81882351F48AE492E024E030EC77
:1005500062CF88E392E022E130EC5DCF813039F068
:10056000823099F688E692E02EE030EC54CF8EE4AB
:1005700092E02AE130EC4FCFDF91CF911F910F91A4
:1005800008950F930FB70F93989BFECF989B06C0CB
:10059000989B04C0989B02C0000000C01F933F932B
:1005A0002F9331E012E003B3102710FD32E0102F3B
:1005B0003A95C9F700FDE5C003B3102717952FE75B
:1005C0002795DF9313B3012707952795CF93C09104
:1005D000CE0003B31027179527953BE0D0E04F934B
:1005E00013B30127079527954FEF000055C0989B3F
:1005F000FECF989B06C0989B04C0989B02C0000049
:1006000000C0DF9100C0CDCF13B3137079F1407CEF
:100610002C6F13C003B3037049F141782C6F15C0E0
:10062000037021F1102F2C6F03B319C003B30370B3
:10063000E9F04E7F2C6F18C038F303B30370B1F0AC
:10064000102717952795243028F313B30127079512
:100650002795422749934FEF03B3243008F310271F
:1006600017952795243010F313B31370E1F1012788
:10067000079527952430F0F003B30370A1F11027FC
:10068000179527952430E0F013B301270795279598
:100690003A9541F12430D0F003B3037021F11027D3
:1006A000179527952430C0F013B301270795279598
:1006B0002430C2CF13B31370B1F04C7F2C6FDCCF5A
:1006C00003B3037081F0487F2C6FDECF13B3137038
:1006D00051F0407F2C6FE0CF03B3037021F0407ED8
:1006E0002C6FE2CF3BC03C2FC091CE003C1B00E4FE
:1006F00033300ABF98F108811981412F1F7720916B
:10070000CF000D3279F1013E69F10936C1F007776A
:10071000033421F51091D500112301F10091D3008C
:100720000030C1F53430CAF13093D3001093D000BB
:100730000091CD00C093CD000093CE002EC01217C3
:1007400069F4309161003F3F29F10FEF00936100A0
:10075000C2ECD0E025C000270093D5004F91CF9187
:10076000DF910FC01217B9F70093D5000FEF009378
:100770006000009361004F91CF910AB706FD37CF1B
:10078000DF9100E40ABF2F913F911F910F910FBF9E
:100790000F911895C3E6D0E002C0C2E6D0E032E087
:1007A0005F9305B30C7F016005BB53E014B3136086
:1007B00014BB20E80FC0052710E005BB10C00527BB
:1007C00010E0089405BB13C0052710E015C00527ED
:1007D00010E019C020FF052705BB279517951C3F82
:1007E00050F720FF0527279505BB17951C3F38F7C5
:1007F00020FF05272795179505BB1C3F28F720FFED
:100800000527279517951C3F05BB08F700C04991A0
:1008100020FF052705BB279517951C3F80F520FF76
:100820000527279505BB17951C3F68F520FF052771
:100830002795179505BB1C3F58F520FF05272795E1
:1008400017951C3F05BB38F5242F3A9519F60C7FF8
:100850005F9105BB32E03A95F1F71091D400C5568F
:10086000D04011F01093CF00016014B31C7F05BB82
:100870000C7F4F91CF9114BB05BBDF9182CF052731
:1008800010E005BBCACF052710E0089405BBCDCF0B
:10089000052710E0CFCF052710E0D3CFA82FB92F21
:1008A0008FEF9FEF41E050EA615070F02D9138E0FA
:1008B000722F782796958795269570FF02C084271A
:1008C00095273A95A9F7F0CF809590950895E6DFA2
:1008D0008D939D930895CFE5D4E0DEBFCDBF88E131
:1008E00090E02EE00FB6F894A89581BD0FBE21BD13
:1008F000B3D681E095D684B7992783709070892B01
:1009000031F504B603FC32C004B602FC29C0899A52
:10091000919888986DD485B38C7F85BB84B38360B0
:1009200084BB80E395E70197F1F784B38C7F84BBA8
:10093000D6DC7894919AA895E0DCC0DC8823D9F3C2
:100940004DD3A895DADCBADC8823A9F3F9CF82E08D
:1009500067D684B78D7F84BF84B78E7F84BFD1CFA5
:1009600084E05ED684B78B7F84BFD1CF83E058D636
:1009700084B7877F84BFC8CF9198209180002230B0
:1009800091F0233050F02330C9F02430A9F080E0FA
:10099000919A181664F499270895222359F021306A
:1009A000B1F7EBD4F5CF6AD5919A1816A4F380E08D
:1009B00090E0089540D4ECCF12D6EACFC3D5E8CF6B
:1009C000919820918000223091F0233050F0233014
:1009D000C9F02430A9F080E0919A181664F49927A0
:1009E0000895222359F02130B1F786D4F5CF05D5EB
:1009F000919A1816A4F380E090E0089546D4ECCFC5
:100A0000C8D5EACF78D5E8CF0F931F93CF93DF9364
:100A1000DC018CE790E09093D2008093D1008D01AF
:100A20000E5F1F4FFD019281ED0121968181E82F1C
:100A3000FF27EF3FF10509F0C8F4ED5EFF4F099481
:100A4000F8018081806280839D012D5F3F4FFD0111
:100A500093818881873009F4E6C080EE892BF90103
:100A6000808320E041E062E0C801CCD380E090E0E8
:100A7000E2C0FD016381F8018081BBD172D1809316
:100A80007C0081E090E0D7C0FD016381F8018081A6
:100A90007AD180E090E0CFC0F8018081813031F0E0
:100AA000813008F4B6C0823009F781E0809380007D
:100AB000FD0184818823D1F28FEF90E0BCC0F80162
:100AC0008081813029F0813008F4A3C0823071F632
:100AD00083E0ECCFF8018081813029F0813008F487
:100AE00098C0823019F684E0E1CFF801808181302E
:100AF00009F49DC0813008F48CC0823009F0B6CF73
:100B0000D5CF892F12D180E090E095C0919A3DD346
:100B100080E090E090C010928000F80180818823EE
:100B200059F6A4CF10928000F80180810AD1F80113
:100B30008081882309F69ACF888120E0833009F4E8
:100B400074C0F8019081222309F06BC080E2892BE8
:100B5000F8018083FD0183818066838383CF888150
:100B6000853009F466C08FE3F801808320E041E01E
:100B700061E0C80147D380E090E05DC0F80180816A
:100B80009181A281B38180937C0090937D00A0939A
:100B90007E00B0937F0084E090E04DC0892FCBD0E1
:100BA00080E090E048C08CE790E0D3D082E090E015
:100BB00042C0F6D080937C0064CF892F04D156CFF9
:100BC00010927C0080915801882309F45ACF81E06B
:100BD00080937C0056CF1092580180E090E02BC0AB
:100BE00080E480937C00892F2BD580937D0082E068
:100BF00090E021C081E080937C0088E080937D00BC
:100C000087EF90E090937F0080937E0084E090E0F7
:100C100012C081E080937C0010927D0082E090E021
:100C20000AC080E494CF80EF19CF21E08ACF82E020
:100C30003DCF8FE599CFDF91CF911F910F9108950F
:100C4000A89582BF88B7816088BF08B600FEFDCF37
:100C5000089592E093BFF4DF089595E093BFF0DF2D
:100C60000895E82FFF27E7FDF095EA58FD4FE4913E
:100C70008E2F9927089581E08A95F1F783B39927FC
:100C8000089591E09A95F1F795B3282F2095922336
:100C900095BB94B3982B94BB089591E09A95F1F786
:100CA00094B3282F2095922394BB95B3982B95BB92
:100CB000089591E09A95F1F795B3282F2095922306
:100CC00095BB94B3982B862F8095892384BB85B3DD
:100CD000862B85BB089591E09A95F1F793B320E0B8
:100CE00030E0982311F421E030E0C90108950F931A
:100CF0001F93182F062F86E085BD83EA84BD88B731
:100D0000806488BF08B606FC04C0B5DF81230817DD
:100D1000C9F3B1DF20E030E01823101711F021E013
:100D200030E0C9011F910F91089595E09093D7008D
:100D30008093D800089580935B0181E08093D70071
:100D4000089593E09093D70010925A0180935B012D
:100D50000895FC018091D70080838091590181839F
:100D600008951F9388DF182F1695169516951095E0
:100D7000117081DF82FF12607EDF84FF1460812F9B
:100D800099271F9108950F931F93182F862F69DFBE
:100D9000082F812F66DF602F8CDF1F910F91089540
:100DA00081B3877081BB87B3887F87BB82B387702D
:100DB00082BB88B3887F88BB90B386B38770987FE7
:100DC000892B9927089591B3986F91BB97B397603A
:100DD00097BB92B3977092BB98B3987F98BB92B32E
:100DE000282F287F922B92BB98B38770982B98BBA3
:100DF0000895EF92FF920F931F93CF93DF93162FD7
:100E000030DFE82E112301F1F82E00E010E0C0E001
:100E1000D0E031DF8E21F81679F483E0083E180720
:100E200070F087E0C13DD80788F4219600E010E01B
:100E300022DF8E21F81689F380E090E00BC00F5F6F
:100E40001F4F81EF06DFE5CFFF24DFCF8DE0E8D332
:100E50008FEF90E0DF91CF911F910F91FF90EF9076
:100E60000895AF92BF92CF92DF92EF92FF920F93CD
:100E70001F93CF93DF936C01F62EB42EA22E109207
:100E8000580188E00ADFBB2009F088C084E0F9DE61
:100E900068E088E02CDF882309F485C0FF2009F48E
:100EA00090C0EF2C85EBD5DE88E015DF882309F4B0
:100EB00043C084E0F2DE00E010E088E00CDF88232D
:100EC000C1F0E7E0003D1E07A1F0C0E0D0E007C0A0
:100ED00083E0C83ED80739F081EFBBDE219688E079
:100EE000FADE8823A9F70F5F1F4F88E0F4DE88231E
:100EF00041F788E0F0DE882309F05CC0F1E0FF16DE
:100F0000E9F181EFA6DE84E0BCDEF60111916F010C
:100F100000E00BC084E0C1DE82EE9BDE68E084E08E
:100F2000C8DE0F5F0830F9F0169587E992DE10FDF4
:100F3000F1CF88E0A6DEEECF8AE072D3EE24FF2068
:100F400019F0EE2009F0AECFAA2051F188E099DE29
:100F500084E1A3DE84E0BFDE8823E1F38AE679DE64
:100F60008E2D992730C068E088E0C1DE882379F0B3
:100F7000882381F489E054D3EE24E1CFBB2009F625
:100F800068E088E0B4DE60E088E0B1DEBACF86E0F9
:100F900047D3F0CFFA948AE65CDED1CF84E177CFF5
:100FA00080E17BDEDBCF84E178DE88E039D380E04E
:100FB00090E009C087E034D384E16FDE80E090E008
:100FC00002C0EE24C1CFDF91CF911F910F91FF900E
:100FD000EF90DF90CF90BF90AF900895EF92FF9287
:100FE0000F931F93CF93DF938091D700853009F43F
:100FF00082C0873009F497C0843009F4AAC08130D8
:1010000009F0BCC010925A019198EE24C0E0D0E0E3
:1010100008C083ECC035D80709F47CC0219682EE65
:1010200018DE84E058DE8823A1F788E036DE83E00E
:1010300085BD14BC88B7806488BF84B5863938F410
:1010400008B606FC04C084E046DE8823B1F384E0E1
:1010500042DE8823D9F1F89464E084E048DE182F5A
:10106000882309F481C000E0FF2405C00F5F083029
:10107000B1F01123A1F060E084E039DE182F88235D
:10108000A9F3F69488E027DE882311F480E8F82A93
:1010900064E084E02CDE182F0F5F083051F778945D
:1010A0001123F1F480915B01E81608F05FC0112371
:1010B00009F45FC080915801882309F4A7CF82E02A
:1010C0008093D700E0925B01919A58C081E08093B1
:1010D000580188E0D6DD87E9BCDD88E0DEDDBBCFE6
:1010E00088E0CFDDEE2DFF27E852FF4FF082E3943A
:1010F00085EBAFDDD7CFF89402C08AEAAEDD8091F0
:10110000D80081508093D8008F3FB9F7789410921F
:10111000D70034C08BE084D282E08093D700109255
:101120005B01919A2BC091982091D9004091D800F1
:1011300060915B018AED90E094DE10925901882362
:1011400019F481E080935901919A86E08093D70049
:1011500015C0919820E040E060915B0188ED90E03F
:1011600080DE80935901F0CFFF2499CF112309F03D
:10117000A6CF8CE055D210925B01A1CFDF91CF9129
:101180001F910F91FF90EF900895CF93DF938CE123
:1011900084DD80E276DD85E560DD80E27EDDC1E034
:1011A000D0E009C08CE379DD219687E0C03DD80707
:1011B000D1F087EF52DDA8958CE36FDD8AE649DD3B
:1011C00080E15FDD8AE645DD88E085DD882351F337
:1011D00080E163DD8AE63DDD88E07DDD882311F76F
:1011E0008CE35BDD02C085E01BD2DF91CF910895D7
:1011F00010925B011092D7008CE34FDD8AE629DD67
:10120000C4DF0895FF920F931F93162F042FF22E21
:1012100027E02093D700462F5527BC018AED90E0A8
:1012200024D210935B010093D800F092D9001F9153
:101230000F91FF9008951F93CF93DF939C01162F7A
:101240008091D700833019F040E050E019C08091C0
:101250005A019927C62FDD27AE01B90188529F4F49
:1012600004D280915A01810F80935A0190915B01C1
:10127000891710F4AE0104C084E08093D700AE015A
:10128000CA01DF91CF911F9108951F93CF93DF93F0
:101290009C018091D700823019F040E050E027C0D7
:1012A00080915B01882329F440E050E01092D70040
:1012B0001EC0182F681708F4162FC12FDD27609164
:1012C0005A01772768527F4FAE01C901CED1809174
:1012D0005A01810F80935A0180915B01811B809399
:1012E0005B01882311F0AE0102C0AE01DFCFCA015D
:1012F000DF91CF911F910895DF92EF92FF920F93AC
:101300001F93CF93DF93EC01D62E662361F1EE2479
:10131000A89587E0F82E00E088E0DDDC8823E1F77F
:1013200084E0BBDC84E0D7DC182F8823D1F480E094
:101330000695082B88E0A5DC84E0CDDC1817E1F3E6
:1013400088E0ABDC88E0C7DC8823E1F384E099DC4B
:10135000FA94F7FEE1CF0883E394DE1421F021969E
:10136000D7CF80E8E5CF8D2D9927DF91CF911F91C1
:101370000F91FF90EF90DF900895EF92FF920F93FF
:101380001F93CF93DF93EC01E62E662369F1FF24D0
:101390001991A89500E017FD1EC088E07EDC84E06E
:1013A0007CDC84E098DC8823E1F317FD17C088E03B
:1013B00068DC84E090DC8823E1F788E06EDC84E080
:1013C00060DC88E088DC8823E1F30F5F083049F0B7
:1013D000110F17FFE2CF88E054DCE1CF88E05DDC3D
:1013E000E8CFF394EF14A1F68E2D9927DF91CF91DA
:1013F0001F910F91FF90EF900895DF92EF92FF926F
:101400000F931F93CF93DF93EC01D62E662361F1E8
:10141000EE24A89510E004E084E05DDC8823E1F789
:1014200088E059DC8823F1F080E8F82E80E135DC93
:1014300084E051DC8823E1F388E04DDC882381F0EF
:1014400080E816951F291695182B80E11ADC0150AB
:10145000101614F31883E394DE1431F02196D9CFDB
:1014600080E0EFCFFF24E2CF8D2D9927DF91CF9140
:101470001F910F91FF90EF90DF900895EF92FF92F0
:101480000F931F93CF93DF93EC01E62E662351F168
:10149000FF241991A89500E010FF19C088E0F1DB46
:1014A000169580E1FADB84E016DC8823E1F710FF73
:1014B00011C088E0E6DB80E1E4DB84E00CDC88231B
:1014C000E1F30F5F043049F0169510FDE7CF88E097
:1014D000E4DBE6CF88E0E1DBEECF88E0DEDBF3940F
:1014E000EF14B9F68E2D9927DF91CF911F910F91AF
:1014F000FF90EF900895EF92FF921F93CF93DF93A9
:101500007C01162F6623B1F0EC0188E0E4DB882330
:10151000E1F346DC888384E0C0DB88E0DCDB882301
:10152000E1F73EDC898384E0ACDB22969E012E1934
:10153000211758F3812F9927DF91CF911F91FF90A9
:10154000EF900895EF92FF921F93CF93DF937C016A
:10155000162F6623B1F0EC0188E0BDDB8823E1F3B0
:10156000888131DC84E099DB88E0B5DB8823E1F712
:10157000898129DC84E085DB22969E012E192117C2
:1015800058F3812F9927DF91CF911F91FF90EF9012
:101590000895FF920F931F93CF93DF93EC01F62EE4
:1015A0006623A9F000E084E078DB88E094DB882300
:1015B000E1F7F6DB182F84E064DB88E08CDB88231E
:1015C000E1F318830F5FF01611F02196ECCF8F2D09
:1015D0009927DF91CF911F910F91FF9008950F935D
:1015E0001F93CF93DF93EC01062F662391F010E059
:1015F0008991E9DB84E051DB88E06DDB8823E1F74A
:1016000084E03FDB88E067DB8823E1F31F5F01179D
:1016100079F7802F9927DF91CF911F910F9108952E
:101620009091C100E92FFF27EF57FF4F80839F5F05
:101630009093C100903409F008951092C10008956C
:10164000E091C100E80FF12DF11DEF73F070EF573D
:10165000FF4F80819927089580E4E1E8F0E011923E
:101660008A95E9F71092C1000895FB01DC0102C0E0
:0C16700001900D9241505040D8F70895B1
:04167C00FFFFD25A40
:00000001FF
