:100000004AC085C062C061C060C05FC05EC05DC0E4
:100010005CC05BC05AC059C058C057C056C055C01C
:1000200054C053C052C000CDD914F13C28E5A16C96
:1000300078B5509D89441A03540069006C006C0027
:1000400020004800610072006200610075006D00D0
:100050000E037800750031003500340031001201C4
:100060000101FF000008030432C60302010200017F
:1000700009021200010100800F0904000000FF00C6
:100080000000040309040008040C1018141C2028A4
:10009000242C3038343C11241FBECFE5D4E0DEBF21
:1000A000CDBF10E0A0E6B0E0EAE0F1E102C00590CB
:1000B0000D92A236B107D9F710E0A2E6B0E001C078
:1000C0001D92A13DB107E1F779C29ACFDC019FEF04
:1000D0008FEF660FB9F046E2F0E0229560FF2D91B8
:1000E000E82FE227EF70929582958F70392F307F3D
:1000F000832B9F70E40F35919327317093278327CB
:100100006A9559F7809590958D939D9308950F93D7
:100110001F932F93DF93CF930FB70F939999FECF30
:1001200099990BC0999909C0999907C0999905C0E7
:10013000999903C000E40ABFA8C0C091B700DD27A9
:10014000C854DF4F0BE013E022E0999BE9CF3F93C7
:100150004F936F9363B330E803C063B3432B49936A
:10016000442763702627215023B32370A9F13795C4
:100170003C3FA0F56227615063B3637037953C3F05
:1001800098F526272150379523B323703C3F90F5EF
:100190006227615037953C3F63B36370A0F5262713
:1001A000215037953C3FC8F523B323706227615037
:1001B00037953C3FB0F50A9563B37AF06370262714
:1001C000215037953C3F88F523B323706227615057
:1001D00037953C3F10F22DC031C048C0612723B392
:1001E00023703F774160C6CF3F77426063B363704F
:1001F0002127C7CF3F774460612723B3237062274D
:1002000061503795C8CF3F7748602127316063B38D
:100210006370262721503795C6CF3F77406161270D
:10022000C1CF3F7740622127C4CF3F774064612729
:10023000C9CF3F774068212700C08FCF30E43ABF55
:100240000B500195033090F0C01B2881233C91F1A5
:100250002B3481F119811F774091CE00141731F4AE
:100260002936D9F02D3249F0213E39F04427409308
:1002700062006F914F913F9108C0209362006F918F
:100280004F913F910AB706FD49CF0F910FBFCF9114
:10029000DF912F911F910F9118950091A9000023D4
:1002A000F1F04091B6004423D1F44093A900CAEA8A
:1002B000D0E018C0209162002223C1F24091B60024
:1002C000442369F40093B6002093B5000091B70071
:1002D0004BE0401B4093B700C0E6D0E002C0C1E64F
:1002E000D0E001E025B32C7F216014B3136025BB5F
:1002F00014BB13E030E830FF212725BB3795479525
:100300004C3FC0F530FF2127379525BB47954C3F23
:10031000A8F530FF21273795000025BB47954C3FB6
:1003200078F530FF21273795000025BB47954C3FD6
:1003300048F530FF2127699125BB379547954C3FFC
:1003400018F530FF2127379525BB47954C3F00F521
:1003500030FF21273795479525BB4C3FD8F430FF18
:1003600021273795362F479525BB4C3FA8F40A9592
:1003700012F614C02127442725BBC2CF2127C5CFA1
:100380002127CBCF2127D1CF2127442725BBD7CF6A
:100390002127DACF2127DFCF2127E5CF2C7F25BBEF
:1003A0006F914F913F9100E40ABFDF91CF9114B359
:1003B000022F216025BB1C7FDFBFDF912F91000042
:1003C00014BB05BB1F910F91189585B7836085BF3E
:1003D0008BB780648BBF789408951F93CF93DF937E
:1003E0006091B600662309F477C08091B700992721
:1003F000CC27DD27C81BD90BCC53DF4F91E090935E
:1004000063008091B5008D3209F057C01E818F8145
:1004100081111FEF8881807609F03FC08981882390
:1004200021F41882198292E040C0853021F48A813B
:1004300080936700B5C0863031F582E08093630019
:100440008B81813019F4CEE5D0E004C0823021F4F4
:10045000C0E7D0E092E129C0833009F0A1C08A81D1
:10046000882321F4C2E8D0E094E01FC0813021F459
:10047000C6E3D0E09AE119C0823009F091C0C0E52E
:10048000D0E09EE012C0883011F4988304C08A3016
:1004900009F086C0188291E008C0CE0113D1982FD0
:1004A0008F3F19F483E080936300191708F0192F28
:1004B000D0936600C093650005C0635011F0CE0173
:1004C000C2D010E01093640083EC8093AA001092D5
:1004D000A9001092B60005C08091A900882309F0F8
:1004E00055C040916300442309F44CC08091AA0098
:1004F00098E889278093AA0010916400193010F0C1
:1005000018E003C0112309F44DC0433031F4612FCA
:100510008BEA90E0B4D0182F23C020916500309171
:100520006600413029F0F90190E0ABEAB0E00FC07D
:10053000F90190E0ABEAB0E003C081918D939F5F39
:100540009117D9F706C0849131968D939F5F9117CB
:10055000D1F7C901810F911D9093660080936500CA
:1005600080916400811B80936400612F8BEA90E08E
:10057000ADDD1D5F1093A9001350183038F41092B0
:10058000630004C0809167008093CE008AE002C0BF
:10059000815019F0989BFCCF0DC0109267000AC0E3
:1005A00010E086CF60E08BEA90E090DD83E08093FE
:1005B000A900E5CFDF91CF911F910895CFE5D4E059
:1005C000DEBFCDBF88E190E02EE00FB6F894A8958D
:1005D00081BD0FBE21BD90D581E073D584B7992729
:1005E00083709070892B41F082E06BD584B78D7F4A
:1005F00084BF84B78E7F84BF04B603FE05C083E04A
:1006000060D584B7877F84BF04B602FE05C084E04E
:1006100058D584B78B7F84BF899A9198889822D3C4
:1006200085B38C7F85BB84B3836084BB80E395E70F
:100630000197F1F784B38C7F84BBC7DE7894919ADD
:10064000A895CBDEFDCF91982091CF00223081F08C
:10065000233028F4222341F0213079F407C02330DD
:1006600049F0243051F408C0AFD207C0F8D305C018
:100670005BD403C0CBD401C007D5919A089591985B
:100680002091CF00223089F0233028F4222349F032
:10069000213029F408C0233051F0243051F080E09B
:1006A00009C0EAD207C006D405C068D403C08CD400
:1006B00001C0CED4919A18161CF080E090E0089505
:1006C00099270895CF93DF93EC01FC01319639818E
:1006D0003D3009F4C9C03E30F8F4373080F435308D
:1006E00008F07FC0323009F462C0333008F062C0D5
:1006F000332309F44CC0313009F0FBC053C039300A
:1007000009F4A0C0393008F479C03A3009F491C036
:100710003B3009F0EEC093C0333109F4A1C034314D
:1007200098F4303109F496C0313138F43E3009F490
:10073000A0C03F3009F0DDC08BC0313109F48DC05D
:10074000323109F0D6C081C0323209F4AFC0333241
:1007500038F4303209F490C0313209F0CAC09CC07C
:100760003E3F79F03F3F20F4333209F0C2C0AAC0C7
:100770008A8188838B8189838C818A838D818B8315
:100780000EC080E488838A81ABD4898380C082E0F4
:10079000888383E0898387EF90E09B838A8384E06A
:1007A00090E0ACC01092CF008A819B819CC01092D7
:1007B000CF009FC0DC0112969A819F719A83FE013F
:1007C00033968B818F708B8320E0333011F080E281
:1007D00002C021E080E4982B9C9380818066808316
:1007E00020C0FC013296353011F48FE501C08FE353
:1007F000808320E041E061E0CF0116C0DC01129669
:100800008A818F71FE0133962B812F702B8380623A
:100810008A83373011F480EF01C080EE282B2083CB
:1008200020E041E062E0CD01E2D01816F4F480E06F
:100830001CC08091D0008823C1F081E016C01092C6
:10084000D00057C0919AC7D154C06B818A8190D093
:1008500058D00BC08A81A4D208C08A81E7D205C0D3
:100860006B818A81B6D201C05AD0888381E090E042
:1008700045C08A8167D03DC08A81813081F1813055
:1008800018F08230B1F506C081E08883198282E0D9
:1008900090E034C081E02BC08A81813029F0813022
:1008A000C8F0823031F523C082E019C08A818130DE
:1008B00029F0813048F38230E1F402C083E00FC0B8
:1008C00083E015C08A81813049F0813018F0823090
:1008D00081F40CC081E088831082D9CF84E08093BA
:1008E000CF008C819D81892B39F403C084E08093F3
:1008F000CF0080E090E002C08FEF90E0DF91CF91D9
:10090000089583B3869586958695809581709A9B88
:1009100082609C9B8460992787FD9095089581B3A0
:10092000877081BB87B3887F87BB82B3877082BBA8
:1009300088B3887F88BB80B396B3887F9770892BF4
:100940009927089591B3986F91BB97B3976097BB20
:1009500092B3977092BB98B3987F98BB92B3282FAD
:10096000287F922B92BB98B38770982B98BB0895E1
:10097000823029F0843029F0813029F01EC0E4E073
:1009800003C0E0E101C0E8E0662311F0FE2F01C0E2
:10099000F0E060E070E040E050E017C083E0683EC7
:1009A000780770F081E0453F580728F44F5F5F4FAC
:1009B00060E070E00AC08DE084D38FEF9FEF089570
:1009C0006F5F7F4F88E28A95F1F783B399272E2FC7
:1009D000332727FD3095822393232F2F332727FD9D
:1009E000309582179307D1F280E090E00895EF925E
:1009F000FF920F931F93CF93DF93EC01F62E042FFA
:100A0000E22E1092D000A398AB9A85B3442309F448
:100A1000CCC08B7E85BB84B394E1982B94BB90E0D3
:100A200007C0A89588E28A95F1F79F5F943611F088
:100A30009B99F7CF9B9903C070E010E09AC084B3F4
:100A40008B7E84BB85B3846185BB88E03AD308C0C4
:100A500087E037D384B38B7E84BB85B3846185BB49
:100A60008FEF9FEFAAC0688188EC8A95F1F79B9978
:100A70007CC0A298AA9A40E050E00EC0A89588E2F7
:100A80008A95F1F72F5F3F4F9B9904C083E0283E82
:100A90003807A1F74F5F5F4F9B9907C081E0443F44
:100AA000580719F020E030E0EFCF9B9BD1CF212FEA
:100AB000332727FD30958F2D992787FD9095019736
:100AC00028173907C9F40023B9F490E007C0A895A6
:100AD00088E28A95F1F79F5F943659F09B99F7CF9A
:100AE00008C0A89588E28A95F1F79F5F943621F0B7
:100AF00001C090E09B9BF5CF88E28A95F1F7AA9818
:100B0000A29A90E030E020E5832F8A95F1F760FD0E
:100B100002C0AB98A39AA298AA9A822F8A95F1F75D
:100B2000AA98A29AA398AB9A9F5F983011F420E0FC
:100B300008C06695E9CF88E28A95F1F72F5F283CD7
:100B400051F083B38695869586958095982F917000
:100B500080FFF1CF2FC086E0B4D205C01F5F80E0D8
:100B60008A95F1F705C089E001C08AE0AAD27FEF3B
:100B700021961F151CF4772309F475CFEE2049F058
:100B8000AB98A39AA498AC9AA298AA9A9A9B03C0ED
:100B9000FDCFA498AC9A80E08A95F1F777FF712F8A
:100BA000872F992787FD909508C08B7F85BB84B3DD
:100BB00094E033CF992391F6D6CFDF91CF911F9157
:100BC0000F91FF90EF90089520E040E010DF99270B
:100BD00087FD9095089584B3837E84BB85B38C6133
:100BE00085BBAD98A59A23E6E8EBFBE0CF01019722
:100BF000F1F72150D8F7A598AD9A21E030E0A895FB
:100C000084B3837C84BB85B38C6385BB90E0892FE0
:100C10008A95F1F7AC98A49A892F8A95F1F79B9958
:100C20000DC0A498AC9A9A95F1F79B9B07C084B32A
:100C3000837C84BB85B38C6385BB089584B3837C3C
:100C400084BB85B38C6385BB2F5F3F4F83E0283E19
:100C5000380719F485E035D2089588EB9BE00197B9
:100C6000F1F7CDCF84B3837C84BB85B38C6385BB24
:100C700080E08A95F1F70895CF93DF93EC01A0E02F
:100C800090E008C0923311F48BE07AC09F5F80E55A
:100C90008A95F1F79A9BF6CFA398AB9A90E028E259
:100CA00006C0822F8A95F1F79F5F983219F09A99C2
:100CB000F8CF0AC081E08093D000AB98A39A80E07F
:100CC0008A95F1F7A398AB9A30E041E050E070E5E7
:100CD00006C0872F8A95F1F73F5F343661F083B302
:100CE0009927969587959695879584279527282FF8
:100CF000217080FFEECFF0E070E026C088E28A9598
:100D0000F1F79F5F983C19F09A9BF8CF42C020E022
:100D100018C0706830E041E050E0E0E506C08E2F7A
:100D20008A95F1F73F5F343661F083B39927969542
:100D300087959695879584279527282F217080FF82
:100D4000EECFFF5FF83021F0222371F090E0DCCF8E
:100D5000222351F0AB98A39AFE01EA0FF11D708394
:100D6000AF5F88EC8A95F1F7A61738F4222339F0A3
:100D70008091D000882341F483CF222329F48CE092
:100D8000A0D18FEF9FEF09C08A2F992787FD9095FB
:100D900004C076959B99BDCFBDCFDF91CF910895CB
:100DA000E82F807F19F08FEF9FEF089595B3FF270D
:100DB000E7FDF095EA57FF4FE4912E2F3327822F5E
:100DC0008095982395BB84B3822B84BB80E090E010
:100DD0000895E82F807F39F5862F807F21F595B320
:100DE000FF27E7FDF095EA57FF4FE4912E2F3327B9
:100DF000822F8095982395BB84B3822B84BB94B3B8
:100E0000E62FFF27E7FDF095EA57FF4FE4912E2FDD
:100E10003327822F8095982394BB85B3822B85BB83
:100E200080E090E008958FEF9FEF0895E82F807F96
:100E300019F08FEF9FEF089594B3FF27E7FDF0952A
:100E4000EA57FF4FE4912E2F3327822F8095982366
:100E500094BB85B3822B85BB80E090E00895FC01B4
:100E600040E023C0208130E027FF03C0AB98A39A65
:100E700002C0A398AB9AA298AA9A9A99FECF27FF8C
:100E800003C0A398AB9A02C0AB98A39A9A9BFECFDB
:100E9000A398AB9AAA98A29A9B99FECF3F5F38304D
:100EA00011F0220FE1CF31964F5F4617D9F6862F0A
:100EB00099270895DC0170E02FC09B9BFECFA2987C
:100EC000AA9A83B3869586958095982F917080FD18
:100ED00002C080E001C080E84695482BAB98A39AF9
:100EE000292F3327E1E0F0E083B399279695879582
:100EF000969587958E279F278170907028173907C0
:100F000099F3A398AB9A9B99FECFAA98A29A5150B5
:100F100057FFD3CF4D937F5F761719F057E040E02E
:100F2000CCCF862F99270895FC0140E022C0208174
:100F300030E020FF03C0AB98A39A02C0A398AB9AFD
:100F40002695A498AC9A9A9BFECF20FF03C0AB983D
:100F5000A39A02C0A398AB9AAC98A49A9A99FECF90
:100F60003F5F343011F02695E4CF3196A398AB9AC9
:100F70004F5F4617E1F6862F99270895FC0150E050
:100F80001BC09A9BFECF9B9902C070E801C070E025
:100F9000A498AC9A9A99FECF9B9902C040E801C0F0
:100FA00040E02695272B2695242BAC98A49A315007
:100FB00013163CF321935F5F561719F020E034E0DD
:100FC000E0CF862F99270895FF920F931F93CF9319
:100FD000DF938C01F62EEC010DC09B99FECF9FDCB8
:100FE0008883A298AA9A9B9BFECF99DC8983AA98B2
:100FF000A29A22969E01201B2F1578F38F2D9927F8
:10100000DF91CF911F910F91FF900895FF920F9361
:101010001F93CF93DF938C01F62EEC010DC09B99AB
:10102000FECF88818FDCA298AA9A9B9BFECF8981F4
:1010300089DCAA98A29A22969E01201B2F1578F38C
:101040008F2D9927DF91CF911F910F91FF900895D8
:101050000F931F93CF93DF93EC01062F10E00BC08B
:10106000A298AA9A9B9BFECF5ADCAA98A29A9B9917
:10107000FECF89931F5F101799F7802F9927DF9173
:10108000CF911F910F9108950F931F93CF93DF93EB
:10109000EC01062F10E00CC0888154DCA298AA9ABB
:1010A0009B9BFECFAA98A29A9B99FECF21961F5F89
:1010B000101791F7802F9927DF91CF911F910F91F2
:1010C00008959091A800E92FFF27E859FF4F8083EA
:1010D0009F5F9093A800903411F41092A800089597
:1010E000E091A800E80FF12DF11DEF73F070E859C1
:1010F000FF4F80819927089580E4E8E6F0E011929F
:0A1100008A95E9F71092A8000895FF
:02110A00D25AB7
:00000001FF
