:100000004AC085C062C061C060C05FC05EC05DC0E4
:100010005CC05BC05AC059C058C057C056C055C01C
:1000200054C053C052C000CDD914F13C28E5A16C96
:1000300078B5509D89441A03540069006C006C0027
:1000400020004800610072006200610075006D00D0
:100050000E037800750031003500340031001201C4
:100060000101FF000008030432C60702010200017B
:1000700009021200010100800F0904000000FF00C6
:100080000000040309040008040C1018141C2028A4
:10009000242C3038343C11241FBECFE5D4E0DEBF21
:1000A000CDBF10E0A0E6B0E0E6EEF2E102C00590C0
:1000B0000D92A236B107D9F711E0A2E6B0E001C077
:1000C0001D92A535B107E1F78EC29ACFDC019FEFF3
:1000D0008FEF660FB9F046E2F0E0229560FF2D91B8
:1000E000E82FE227EF70929582958F70392F307F3D
:1000F000832B9F70E40F35919327317093278327CB
:100100006A9559F7809590958D939D9308950F93D7
:100110001F932F93DF93CF930FB70F939999FECF30
:1001200099990BC0999909C0999907C0999905C0E7
:10013000999903C000E40ABFA8C0C091B800DD27A8
:10014000C754DF4F0BE013E022E0999BE9CF3F93C8
:100150004F936F9363B330E803C063B3432B49936A
:10016000442763702627215023B32370A9F13795C4
:100170003C3FA0F56227615063B3637037953C3F05
:1001800098F526272150379523B323703C3F90F5EF
:100190006227615037953C3F63B36370A0F5262713
:1001A000215037953C3FC8F523B323706227615037
:1001B00037953C3FB0F50A9563B37AF06370262714
:1001C000215037953C3F88F523B323706227615057
:1001D00037953C3F10F22DC031C048C0612723B392
:1001E00023703F774160C6CF3F77426063B363704F
:1001F0002127C7CF3F774460612723B3237062274D
:1002000061503795C8CF3F7748602127316063B38D
:100210006370262721503795C6CF3F77406161270D
:10022000C1CF3F7740622127C4CF3F774064612729
:10023000C9CF3F774068212700C08FCF30E43ABF55
:100240000B500195033090F0C01B2881233C91F1A5
:100250002B3481F119811F774091CF00141731F4AD
:100260002936D9F02D3249F0213E39F04427409308
:1002700062006F914F913F9108C0209362006F918F
:100280004F913F910AB706FD49CF0F910FBFCF9114
:10029000DF912F911F910F9118950091AA000023D3
:1002A000F1F04091B7004423D1F44093AA00CBEA87
:1002B000D0E018C0209162002223C1F24091B70023
:1002C000442369F40093B7002093B6000091B8006E
:1002D0004BE0401B4093B800C0E6D0E002C0C1E64E
:1002E000D0E001E025B32C7F216014B3136025BB5F
:1002F00014BB13E030E830FF212725BB3795479525
:100300004C3FC0F530FF2127379525BB47954C3F23
:10031000A8F530FF21273795000025BB47954C3FB6
:1003200078F530FF21273795000025BB47954C3FD6
:1003300048F530FF2127699125BB379547954C3FFC
:1003400018F530FF2127379525BB47954C3F00F521
:1003500030FF21273795479525BB4C3FD8F430FF18
:1003600021273795362F479525BB4C3FA8F40A9592
:1003700012F614C02127442725BBC2CF2127C5CFA1
:100380002127CBCF2127D1CF2127442725BBD7CF6A
:100390002127DACF2127DFCF2127E5CF2C7F25BBEF
:1003A0006F914F913F9100E40ABFDF91CF9114B359
:1003B000022F216025BB1C7FDFBFDF912F91000042
:1003C00014BB05BB1F910F91189580916300882382
:1003D00071F480916400882351F490E08091AA0028
:1003E000811191E081E09827892F9927089580E075
:1003F00090E0089585B7836085BF8BB780648BBF1D
:10040000789408951F93CF93DF936091B70066238C
:1004100009F477C08091B8009927CC27DD27C81B45
:10042000D90BCB53DF4F91E0909363008091B600DE
:100430008D3209F057C01E818F8181111FEF888195
:10044000807609F03FC08981882321F418821982BF
:1004500092E040C0853021F48A8180936700B5C066
:10046000863031F582E0809363008B81813019F40E
:10047000CEE5D0E004C0823021F4C0E7D0E092E1C4
:1004800029C0833009F0A1C08A81882321F4C2E801
:10049000D0E094E01FC0813021F4C6E3D0E09AE1BF
:1004A00019C0823009F091C0C0E5D0E09EE012C0D2
:1004B000883011F4988304C08A3009F086C018820D
:1004C00091E008C0CE0117D1982F8F3F19F483E037
:1004D00080936300191708F0192FD0936600C0931A
:1004E000650005C0635011F0CE01C6D010E0109336
:1004F000640083EC8093AB001092AA001092B700C6
:1005000005C08091AA00882309F055C0409163007E
:10051000442309F44CC08091AB0098E8892780936C
:10052000AB0010916400193010F018E003C01123E3
:1005300009F44DC0433031F4612F8CEA90E0B8D01B
:10054000182F23C02091650030916600413029F0BA
:10055000F901ACEAB0E090E00FC0F901ACEAB0E01C
:1005600090E003C081918D939F5F9117D9F706C0EA
:10057000849131968D939F5F9117D1F7C901810FB7
:10058000911D909366008093650080916400811BAB
:1005900080936400612F8CEA90E098DD1D5F1093DA
:1005A000AA001350183038F41092630004C08091F0
:1005B00067008093CF008AE002C0815019F0989BB9
:1005C000FCCF0DC0109267000AC010E086CF60E03B
:1005D0008CEA90E07BDD83E08093AA00E5CFDF9199
:1005E000CF911F910895CFE5D4E0DEBFCDBF88E164
:1005F00090E02EE00FB6F894A89581BD0FBE21BD06
:1006000060D681E043D684B7992783709070892B98
:1006100041F082E03BD684B78D7F84BF84B78E7F64
:1006200084BF04B603FE05C083E030D684B7877F5D
:1006300084BF04B602FE05C084E028D684B78B7F51
:1006400084BF899A91988898B5D185B38C7F85BBF2
:1006500084B3836084BB80E395E70197F1F784B3AB
:100660008C7F84BBC7DE7894919AA895CBDEADDEF3
:100670008823D9F3D0D2F9CF919820916800223005
:1006800081F0233028F4222341F0213079F407C08F
:10069000233049F0243051F408C0CCD307C0ADD486
:1006A00005C028D503C088D501C0CFD5919A08953B
:1006B000919820916800223089F0233028F4222379
:1006C00049F0213029F408C0233051F0243051F092
:1006D00080E009C0D7D307C052D405C0CDD403C031
:1006E00045D501C08FD5919A18161CF080E090E096
:1006F000089599270895CF93DF93EC01DC011296BA
:100700004A81FC01319639813C3009F468C03D30A2
:10071000F8F4373080F4353008F07EC0323009F418
:1007200069C0333008F06BC0332309F44DC0313059
:1007300009F057C05BC0393009F493C0393008F470
:1007400075C03A3009F484C03B3009F04AC086C015
:10075000303209F49AC03132A0F43F3009F492C02B
:10076000303130F43D3009F43FC03E30D1F585C022
:10077000313109F479C0313108F479C0323189F569
:1007800078C0333209F4ABC0343230F4313209F47A
:1007900089C0323231F593C03E3F81F03F3F28F4AB
:1007A0003D3FF9F4842F2DD11CC08A819B81AC81FF
:1007B000BD8188839983AA83BB830EC080E488832C
:1007C000842F73D5898396C082E0888387E08983EC
:1007D00087EF90E09B838A8384E090E09BC0842F26
:1007E00016D180E090E096C020D184C010926800BD
:1007F0008A8187C0109268008A810FD1F2CF20E0F1
:10080000333011F080E202C021E080E4482B4C93A9
:100810008B8180668B8317C0353011F48FE501C062
:100820008FE38C9320E041E061E00FC040624A8397
:10083000FC0133968B81373011F490EF01C090EEBC
:10084000892B808320E041E062E0CD01DAD2C9CF7C
:1008500080915101882391F081E010C010925101E4
:10086000C0CF919A9AD2BDCF6B81842F39D3EBD070
:1008700005C06B81842F6FD3B4CFF7D0888381E01C
:1008800090E048C0842F04D1ACCF413031F04130EA
:1008900070F1423009F0A5CF03C04093680030C02A
:1008A00081E033C0413031F0413008F1423009F08D
:1008B00098CF02C082E022C04093680092CF4130BE
:1008C00051F0413020F0423009F08BCF06C081E07A
:1008D000888310820FC083E011C083E016C04130CE
:1008E00061F0413020F0423009F07BCF0DC081E053
:1008F0008883198282E090E00DC084E080936800D4
:100900008C81882329F46DCF84E08093680069CFBF
:100910008FEF90E0DF91CF910895A89582BF88B7BF
:10092000816088BF08B600FEFDCF089592E093BFB6
:10093000F4DF089595E093BFF0DF089581E08A9594
:10094000F1F783B39927089591E09A95F1F795B35C
:10095000282F2095922395BB94B3982B94BB089590
:1009600091E09A95F1F794B3282F2095922394BBA8
:1009700095B3982B95BB089591E09A95F1F795B3AF
:10098000282F2095922395BB94B3982B862F809582
:10099000982394BB85B3862B85BB089591E09A95E7
:1009A000F1F793B320E030E0982311F421E030E038
:1009B000C9010895109254011092D0008CE3D0DF49
:1009C0008AE6B4DF08950F931F93182F062F86E051
:1009D00085BD83EA84BD88B7806488BF08B606FCFD
:1009E00004C0ACDF81238017C9F3A8DF20E030E02A
:1009F0001823101711F021E030E0C9011F910F9169
:100A0000089595E09093D0008093D100089580934D
:100A1000540181E08093D000089593E09093D0003A
:100A200010925301809354010895FC018091D000ED
:100A300080838091520181838091D000863011F4AF
:100A40001092D00008951F9379DF182F16951695F0
:100A500016951095117072DF82FF12606FDF84FFB0
:100A60001460812F99271F91089581B3877081BBEE
:100A700087B3887F87BB82B3877082BB88B3887F48
:100A800088BB80B396B3887F9770892B9927089588
:100A900091B3986F91BB97B3976097BB92B39770E0
:100AA00092BB98B3987F98BB92B3282F287F922B44
:100AB00092BB98B38770982B98BB0895AF92BF9262
:100AC000CF92DF92EF92FF920F931F93CF93DF931A
:100AD0006C01F62EB42EA22E1092510188E040DF58
:100AE000BB2011F484E001C084E12EDF68E088E0DF
:100AF0006ADF882311F0EF2C66C084E131DF88E0E3
:100B0000C5D375C085EB12DF88E048DF882309F480
:100B100057C084E025DF00E010E00DC081EF06DF64
:100B2000219688E03BDF882321F083E0C83ED80788
:100B3000A9F70F5F1F4F88E031DF882339F0E7E026
:100B4000003D1E0719F0C0E0D0E0EBCF88E026DFC3
:100B5000882309F048C0F1E0FF1641F4BB2031F4CE
:100B600068E088E030DF60E088E02DDF81EFDEDEE6
:100B700084E0EADEF60111916F0100E087E9D6DE3C
:100B800010FD02C088E0E0DE84E0EADE82EECEDE28
:100B900068E084E0F1DE0F5F083011F01695EECFCB
:100BA00068E088E010DF882319F486E06FD306C080
:100BB000882321F0FA948AE6B9DE05C089E001C0F5
:100BC0008AE064D3EE24FF2019F0EE2009F09ACFDA
:100BD000AA2081F088E0B8DE84E1C2DE84E0DEDEB7
:100BE000882351F4FBCF87E051D384E1B9DE80E064
:100BF00090E006C080E1B4DE8AE698DE8E2D99276B
:100C0000DF91CF911F910F91FF90EF90DF90CF90E8
:100C1000BF90AF900895EF92FF920F931F93CF93E1
:100C2000DF938091D000853079F4F89402C08AEA8D
:100C300081DE8091D10081508093D1008F3FB9F740
:100C400078941092D000A2C0873081F491982091BE
:100C5000D2004091D1006091540183ED90E02EDFED
:100C600010925201882371F481E00AC0843079F433
:100C7000919820E040E06091540181ED90E01EDF0A
:100C800080935201919A86E08093D0007FC081309A
:100C900009F07CC0109253019198EE24C0E0D0E09E
:100CA00008C083ECC035D80709F45CC0219682EEF9
:100CB0003DDE84E073DE8823A1F788E051DE83E027
:100CC00085BD14BC88B7806488BF84B5863938F484
:100CD00008B606FC04C084E061DE8823B1F384E03A
:100CE0005DDE882349F481E08093510188E02CDEA9
:100CF00087E91CDE88E034DEF89464E084E063DE9B
:100D0000182FFF2400E014C060E084E05CDE182FA0
:100D1000882351F0069588E041DE882309F40068B5
:100D200064E084E050DE182FF39488E0F81611F0A8
:100D3000112351F77894112351F088E005DEEE2D50
:100D4000FF27EF52FF4F0083E39485EBEFDD8091A7
:100D50005401E81678F4112379F080915101882329
:100D600079F49CCF8BE092D282E08093D0001092F5
:100D700054010BC0112321F48CE088D2109254014D
:100D800082E08093D000E0925401919ADF91CF915C
:100D90001F910F91FF90EF900895CF93DF938CE117
:100DA000DFDD80E2D1DD85E5C5DD80E2D9DDC1E0B2
:100DB000D0E0A8958CE3D4DD8AE6B8DD80E1C4DD1F
:100DC0008AE6B4DD88E0EADD882359F080E1C8DDF9
:100DD0008AE6ACDD88E0E2DD882319F48CE3C0DD2F
:100DE0000DC08CE3BDDD219683E0C83ED80719F421
:100DF00085E04CD203C087EF9DDDDBCFDF91CF9143
:100E00000895FF920F931F93162F042FF22E27E0C1
:100E10002093D000462F5527BC0183ED90E05AD295
:100E2000109354010093D100F092D2001F910F91C2
:100E3000FF9008951F93CF93DF939C01162F80910D
:100E4000D000833019F040E050E017C0809153018A
:100E50009927C62FDD27AE01B9018F529F4F3AD295
:100E600080915301810F8093530190915401891710
:100E700018F084E08093D000AE01CA01DF91CF91D9
:100E80001F9108951F939C018091D000823019F02A
:100E900080E090E023C040915401442311F410E01D
:100EA00019C0142F641708F4162F412F552760918D
:100EB000530177276F527F4FC9010CD280915301A4
:100EC000810F8093530180915401811B80935401C1
:100ED000882311F41092D000812F99271F91089533
:100EE000EF92FF920F931F93CF93DF93E82FFF278B
:100EF000E7FDF095EA57FF4FE491FF27EE2E6623BA
:100F000011F0FE2E01C0FF2400E010E0C0E0D0E0B0
:100F100015C083E0083E180768F087E0C13DD80798
:100F200020F4219600E010E009C08DE0AFD18FEFF2
:100F300090E00AC00F5F1F4F81EFF8DCFFDC8E21CD
:100F40008F1539F380E090E0DF91CF911F910F91E1
:100F5000FF90EF900895E62FFF27E7FDF09526E834
:100F600030E0E20FF31F4491992787FD9095820F9F
:100F7000931FFC018491642F7727FEDC0895DF9294
:100F8000EF92FF920F931F93CF93DF93EC01D62E36
:100F9000EE2427C0A89587E0F82E00E088E0FEDC6C
:100FA0008823E1F784E0DCDC84E0F8DC182F882378
:100FB00011F480E001C080E80695082B88E0C4DCCD
:100FC00084E0ECDC1817E1F388E0CADC88E0E6DCBA
:100FD0008823E1F384E0B8DCFA94F7FEDFCF0993CD
:100FE000E394ED14B9F68D2D9927DF91CF911F91E0
:100FF0000F91FF90EF90DF900895EF92FF920F9383
:101000001F93CF93DF93EC01E62EFF242AC01881B3
:10101000A89500E017FF03C088E096DC02C088E0D6
:101020009FDC84E09DDC84E0B9DC8823E1F317FFDA
:1010300003C088E095DC02C088E086DC84E0AEDC9A
:101040008823E1F788E08CDC84E07EDC88E0A6DCA5
:101050008823E1F30F5F083011F0110FDBCF2196E9
:10106000F394FE14A1F68E2D9927DF91CF911F9155
:101070000F91FF90EF900895DF92EF92FF920F9300
:101080001F93CF93DF93EC01D62EFF2427C0A895A2
:1010900010E004E084E082DC8823E1F788E07EDC75
:1010A000882319F080E8E82E01C0EE2480E158DCA6
:1010B00084E074DC8823E1F388E070DC882311F09D
:1010C00080E801C080E016951E291695182B80E156
:1010D0003BDC01501016F4F21993F394FD14B9F6A9
:1010E0008D2D9927DF91CF911F910F91FF90EF9058
:1010F000DF900895EF92FF920F931F93CF93DF93AA
:10110000EC01E62EFF2427C01881A89500E010FF0F
:1011100003C088E019DC02C088E022DC169580E17B
:101120001FDC84E03BDC8823E1F710FF03C088E08C
:101130000BDC02C088E014DC80E106DC84E02EDCFD
:101140008823E1F30F5F043011F01695E0CF21966C
:1011500088E006DCF394FE14B9F68E2D9927DF9112
:10116000CF911F910F91FF90EF900895FF920F93F1
:101170001F93CF93DF938C01F62EEC0111C088E012
:101180000DDC8823E1F371DC888384E0E9DB88E00F
:1011900005DC8823E1F769DC898384E0D5DB2296CE
:1011A0009E01201B2F1558F38F2D9927DF91CF918A
:1011B0001F910F91FF900895FF920F931F93CF936C
:1011C000DF938C01F62EEC0111C088E0E7DB882369
:1011D000E1F388815DDC84E0C3DB88E0DFDB88232A
:1011E000E1F7898155DC84E0AFDB22969E01201B6C
:1011F0002F1558F38F2D9927DF91CF911F910F91C4
:10120000FF900895FF920F931F93CF93DF93EC010C
:10121000F62E00E010C084E0A3DB88E0BFDB88236B
:10122000E1F723DC182F84E08FDB88E0B7DB88232D
:10123000E1F319930F5F0F1571F78F2D9927DF9148
:10124000CF911F910F91FF9008950F931F93CF930C
:10125000DF93EC01062F10E010C0888119DC84E0D8
:101260007FDB88E09BDB8823E1F784E06DDB88E0AF
:1012700095DB8823E1F321961F5F101771F7802F0C
:101280009927DF91CF911F910F9108959091A90017
:10129000E92FFF27E759FF4F80839F5F9093A900B5
:1012A000903411F41092A9000895E091A900E80F7C
:1012B000F12DF11DEF73F070E759FF4F80819927F1
:1012C000089580E4E9E6F0E011928A95E9F710923A
:1012D000A9000895FB01DC0102C001900D9241506C
:0612E0005040D8F708950C
:0212E600D25ADA
:00000001FF
