:100000009BC00000B5C00000B3C00000B1C000003C
:10001000AFC00000ADC00000ABC00000A9C0000030
:10002000A7C00000A5C00000A3C000000C94F80900
:100030000C94C2099DC000009BC0000099C0000044
:1000400097C0000095C0000093C0000091C0000060
:100050008FC000008DC000008BC0000089C0000070
:1000600087C0000085C0000083C0000081C0000080
:100070007FC0000012011001FF000008D016040527
:10008000060001020301090220000101008032097B
:1000900004000002FF0000000705830220000007A3
:1000A000050402200000040309043A034E00610025
:1000B0007400650020004C006100770073006F0041
:1000C0006E00200061006E00640020004F00700090
:1000D00065006E00430042004D0020007400650082
:1000E00061006D0000004003780075006D00310074
:1000F000350034003100200066006C006F00700095
:1001000070007900200061006400610070007400DC
:1001100065007200200028004F004C0049004D008F
:1001200045005800290000000008010980888189E5
:1001300040484149C0C8C1C911241FBECFEFD2E019
:10014000DEBFCDBF11E0A0E0B1E0E2E0FCE102C023
:1001500005900D92A231B107D9F711E0A2E1B1E00B
:1001600001C01D92AA32B107E1F7EED00C94FF0D49
:1001700047CFA9EEB0E09C91977081E080931C017D
:1001800084E08C93EBEEF0E080818062808383E0FA
:100190008C938081806280839C9308952091E900F4
:1001A000E0E0F1E041E050E01BC08093E900BA01DB
:1001B00002C0660F771F8A95E2F76093EA001092FB
:1001C000EA008091EB0088608093EB008091EB0067
:1001D00085FF05C08091EB0080618093EB00319634
:1001E0008081882311F727702093E900089580917A
:1001F0001C01089523E02093E90070E047EF50E0F0
:10020000A8D680911C01882311F080E00895809188
:10021000E800982F9E7F9093E8008F778093E80006
:1002200081E0089524E02093E90070E047EF50E07A
:10023000CFD680911C01882311F080E00895809131
:10024000E800982F9B7F9093E8008F778093E800D9
:1002500081E00895A89580911C01882311F080E029
:1002600008958DD4882311F481E008957ED481E02F
:1002700008951092120110921A0180E062C481E088
:1002800060D410921C0181E08093120108950F93B5
:100290001F93DF93CF93CDB7DEB728970FB6F894AF
:1002A000DEBF0FBECDBF809122018076803291F5F6
:1002B0008E010F5F1F4F88E0F80111928A95E9F7D0
:1002C00080912301B8014ED1682F8F3F19F484E04B
:1002D00038D420C08091E800877F8093E800809127
:1002E000220187FF0AC0772767FD7095C801AFD646
:1002F0008091E800982F9B7F08C08091E80080FFE4
:10030000FCCF8091E800982F9E7F9093E8008F7734
:100310008093E80028960FB6F894DEBF0FBECDBFDD
:10032000CF91DF911F910F91089538DF83E061E84D
:1003300046E25FD584E060E846E25BD582E001D426
:1003400081E080931A010895DF92EF92FF920F935C
:100350001F93DF93CF93CDB7DEB727970FB6F894EF
:10036000DEBF0FBECDBF80E090E020E80FB6F8946E
:1003700020936100809361000FBE2EE088E190E041
:100380000FB6F894A895809360000FBE209360008C
:10039000D9D701C0A895809112018823D9F39DD3A4
:1003A00080E0CFD30E94A30A80E00E943E0B94E03D
:1003B000E92EF12CEC0EFD1E83E0D82E8E010F5F8E
:1003C0001F4FA8952FC080912101843031F5809373
:1003D000E9008091E80085FF20C0C70164E022DFCA
:1003E000882319F484E0ADD318C0F8018D2D119243
:1003F0008A95E9F7C701B8019DD118162CF48983B5
:10040000C80163E0F7DE09C0882339F084E099D39E
:100410008091EB0080628093EB001CDF882311F455
:1004200010921C0180911A01882369F601C0A895D9
:1004300080911201882309F0C4CFF9CF9C0161306B
:1004400011F483E003C0662369F484E08093E9003B
:100450003093150120931401609303018091E8000B
:1004600085FFFCCF08958093F10080911401909155
:100470001501019790931501809314018091E80074
:1004800085FD0DC08091E800982F9E7F9093E80035
:100490008F778093E8008091E80085FFFCCF809102
:1004A0001C0181118FEF0895FC018091E80085FD0A
:1004B0000DC08091E800982F9B7F9093E8008F7784
:1004C0008093E8008091E80085FFFCCF8091F100E7
:1004D00080838091140190911501019790931501EB
:1004E0008093140180911C0181118FEF08958091F8
:1004F0001701882311F40C94850D1092170188E8D8
:100500000895282F80911701882329F01092170150
:1005100020931801089590911301943071F4822F63
:100520008350833020F02B3011F02C3019F481E00F
:10053000809317011092130112C0E92FF0E0E25FDF
:10054000FE4F8081821721F49F5F9093130107C0B3
:1005500010921301222319F481E080931301822F5A
:100560000C94B10DCF93DF93EB01823009F462C09C
:10057000833030F4882309F438C0813031F438C036
:10058000833009F452C0843011F08FEF57C080914E
:10059000E800877F8093E8008091E80080FFFCCF2F
:1005A0008091E800982F9E7F9093E8008F7780934A
:1005B000E80088EE93E028EC30E0F9013197F1F79C
:1005C0000197D9F788E10FB6F894809360001092F4
:1005D00060000FBEA8D6F894109281001092890096
:1005E000109288000C94001C28C0188281E026C05C
:1005F00083E0A7D286E0888383E089838091160117
:10060000882339F08A8181608A8380E00E943E0BD2
:10061000B0DD80911A01882319F48A8182608A836F
:1006200081E08093160188E009C01092160182E0F3
:1006300088D203C080E00E943E0B80E0DF91CF9122
:10064000089580910301813079F48091F20088232C
:1006500031F48091140190911501892BE9F080917A
:10066000E800982F9E7F13C08823B1F48091140175
:1006700090911501009719F067EF70E038D48091E0
:10068000E80085FD09C08091E800982F9B7F90933A
:10069000E8008F778093E8008FE080930301109249
:1006A00015011092140108950F931F93CF93DF93B8
:1006B0008C01EB01CB0161E0C1DE06C0F8010995B8
:1006C000D2DE2197882311F42097C1F7BADF80E0AA
:1006D000DF91CF911F910F910895CF92DF92EF920A
:1006E000FF920F931F93DF93CF930F92CDB7DEB797
:1006F0007C018B01CB0160E0A1DE6E010894C11C7E
:10070000D11C09C0C601D0DE01501040882331F44D
:100710008981F701099501151105A1F792DF80E0A4
:100720000F90CF91DF911F910F91FF90EF90DF908D
:10073000CF900895CF92DF92EF92FF920F931F9385
:10074000DF93CF9300D000D0CDB7DEB78C016B0123
:10075000FC019081E280F38083E09C83F2D19C8154
:100760009A3109F42DC19B3190F4973109F408C1F5
:10077000983130F49830F1F0993009F033C188C0E5
:10078000983109F409C1993109F02CC115C19D3185
:1007900009F40DC19E3138F49B3109F406C19C3136
:1007A00009F020C1FCC09E3109F410C19F3109F04D
:1007B00019C111C1F8018181807F8034E1F0813459
:1007C00040F4803291F0803399F0803109F00AC111
:1007D00009C0803679F1803709F455C0803509F0B9
:1007E00001C125C0C7018FD7FBC088EF9CE04DC079
:1007F00088E39DE04AC0C70161E020DE8E010E5F04
:100800001F4F11C0C8010E94610D8A812CDE882310
:1008100009F0AFC08B8127DE882309F0AAC08EEFD4
:100820009FEFE80EF91EE114F10461F7A2C08BE717
:100830009DE02BC0E114F10409F4D2C0C70161E0CE
:10084000FDDD5B9880E29EE40197F1F70E94850D43
:1008500000E010E06E010894C11CD11C0DC0602F97
:100860006170C6010E94980D87FDBAC08981FBDDC9
:10087000882329F40F5F1F4F0E151F0580F3E1DE5B
:100880000E94850DADC087E792E0B7010DDFA8C0DB
:10089000F8016181862F807F8034F1F0813440F44B
:1008A0008032A1F08033A9F0803109F09BC009C0EB
:1008B0008036A9F1803709F45EC0803509F092C016
:1008C0002BC06F70C701B7D7F60163C088ED9CE0FD
:1008D00054C080E29DE051C0C70160E0AFDD8E01F1
:1008E0000E5F1F4F83E0C82ED12CCC0EDD1E10C032
:1008F000C801DADD882309F03CC0C601D5DD8823B4
:10090000C1F5C8010E94510D8EEF9FEFE80EF91E50
:10091000E114F10469F72DC081E79DE02EC0E114D8
:10092000F10409F45DC0C70160E088DD5B98809147
:1009300018010E94B10D00E010E06E010894C11C86
:10094000D11C0DC0C601B0DD882361F4602F617039
:1009500089810E94CB0D87FD43C00F5F1F4F0E158D
:100960001F0580F3602F617080E00E94CB0D0E9414
:10097000850D67DE35C081E892E0B701AEDE30C09C
:1009800080911B01F60112821182882339F181E0E6
:1009900090E09283818322C010921B011FC0F80156
:1009A000818162814AD68823D9F017D610C0F80118
:1009B00081816281D1D512C014B815B883B107C046
:1009C000F80191818FEF84B995B908C090DDF601E7
:1009D0008183128203C0F801818193DD82E003C02C
:1009E00080E001C08FEF0F900F900F900F90CF918C
:1009F000DF911F910F91FF90EF90DF90CF900895BE
:100A00000F931F93CF93DF938A01E9011882292F57
:100A100033272230310561F02330310571F0213068
:100A2000310509F04DC0E4E7F0E022E130E04CC0D0
:100A3000E6E8F0E020E230E047C0907081309105B8
:100A400071F08130910538F08230910561F00397A3
:100A500009F036C00EC0E6EAF0E0849107C0EAEA89
:100A6000F0E0849103C0E6EEF0E08491282F30E0BE
:100A70002BC080E090E00E94F70D282F30E02095F9
:100A800030953070EAE0F1E00FC0C9016AE070E033
:100A90000E94E30DC09691838083C9016AE070E0F3
:100AA0000E94E30D9B0132972115310571F780916A
:100AB0000401282F30E082E08883E4E0F1E004C004
:100AC000E0E0F0E020E030E0D801ED93FC93C901D4
:100AD000DF91CF911F910F91089584E887B989E53F
:100AE0008AB914B88DE093E09093890080938800D0
:100AF000E1E8F0E080818D608083089529B189B1BB
:100B000049B166B1E6B190E0827090709595879595
:100B100030E02072307035952795822B50E044707C
:100B20005070440F551F842B70E060747070660F16
:100B3000771F862BF0E0E078F070F595E7958E2B27
:100B4000089580931901823051F0833018F488237E
:100B500041F00895833029F0843031F404C0429884
:100B60000895429A0895429A0895809119018350F8
:100B7000823020F488B194E0892788B90895B1992A
:100B800002C080E00895B19A81E008951F93DF9339
:100B9000CF9300D00F92CDB7DEB7E2E2F1E08091C3
:100BA000F100819381E0EA32F807C9F780912201D0
:100BB00030912301353009F486C0363040F43130AD
:100BC000C1F1313070F0333009F0FDC032C038303F
:100BD00009F4CAC0393009F4DDC0363009F0F3C079
:100BE00091C0803821F0823809F0EDC008C09091A2
:100BF0001D0180911E01882391F0926010C08091A8
:100C000026018093E9008091EB0090E025E0969525
:100C100087952A95E1F7982F91701092E9008091BD
:100C2000E800877F8093E8009093F1001092F10034
:100C3000A6C0882319F0823009F0C5C090E08F71FA
:100C40009070009721F0029709F0BEC00CC080910F
:100C50002401813009F0B8C010921E01333069F5CB
:100C600080931E012AC080912401882331F52091B0
:100C70002601277009F4A8C02093E9008091EB00B9
:100C800080FF1BC0333021F48091EB00806213C0E1
:100C90008091EB0080618093EB0081E090E002C0E6
:100CA000880F991F2A95E2F78093EA001092EA00D4
:100CB0008091EB0088608093EB001092E9008091B6
:100CC000E800877F63C0882309F07DC0109124016C
:100CD0008091E800877F8093E800B5D005C08091BF
:100CE0002101882309F470C08091E80080FFF7CFCC
:100CF000912F9F7719F083E0809321019068909362
:100D0000E30062C08058823008F05DC08091240109
:100D10009091250160912601AE014E5F5F4F9E01CB
:100D20002F5F3F4F6DDEBC01009709F44DC08091ED
:100D3000E800877F8093E8002981222321F48A81BB
:100D40009B81E5D107C08A819B81213011F43ED27D
:100D500001C07DD18091E800982F9B7F9093E8009F
:100D60008F778093E80030C0803869F58091E80083
:100D7000877F8093E80080911F018093F10080912C
:100D8000E800982F9E7F9093E8008F778093E8008B
:100D90005AD01AC08823B9F4909124019230A0F45B
:100DA0008091E800877F8093E80090931F014BD0EB
:100DB00080911F01882311F483E001C084E08093B7
:100DC0002101B3DA01C063DA8091E80083FF0AC031
:100DD0008091EB0080628093EB008091E800877F38
:100DE0008093E8000F900F900F90CF91DF911F91AB
:100DF00008958093E9008091EB0081608093EB007F
:100E00001092ED006093EC004093ED008091EE00B5
:100E1000881F8827881F08951092F40090E090930F
:100E2000E9001092F0001092E8008091ED008D7FB3
:100E30008093ED008091EB008E7F8093EB009F5FAD
:100E4000953069F70895809122018823BCF404C08D
:100E5000809121018823F9F08091E80082FFF8CF8A
:100E60008091E800982F9B7F9093E8008F77809384
:100E7000E800089580912101882369F08091E800BD
:100E800080FFF8CF8091E800982F9E7F9093E80034
:100E90008F778093E800089594E68091EC0080FFBE
:100EA00005C08091E80080FF05C01FC08091E80068
:100EB00082FD1BC080912101882311F482E00895F6
:100EC0008091EB0085FF02C081E008958091E100F0
:100ED00082FFE3CF8091E1008B7F8093E100992333
:100EE00011F483E008959150D8CF80E00895FF92E7
:100EF0000F931F93CF93DF93EC018B01CDDFF82E7F
:100F00008823F1F01FC08091E80085FD16C0809114
:100F1000E800982F9B7F9093E8008F778093E800FC
:100F20000115110531F0F8010995813011F484E0C3
:100F30000AC0B2DF882321F006C08091F10021971A
:100F4000209709F78F2DDF91CF911F910F91FF907F
:100F50000895DF92EF92FF920F931F93CF93DF9349
:100F6000182F092FEB017A0197DFD82E882339F546
:100F7000812F902F9C01890120C08091E80085FD80
:100F800016C08091E800982F9E7F9093E8008F779D
:100F90008093E800E114F10431F0F7010995813004
:100FA00011F484E00DC078DF882339F009C0F8011E
:100FB00081918F018093F10021972097F1F68D2D7B
:100FC000DF91CF911F910F91FF90EF90DF900895E7
:100FD000DF92EF92FF920F931F93CF93DF93182F1F
:100FE000092FEB017A0158DFD82E882339F5812F9C
:100FF000902F9C01890120C08091E80085FD16C0DA
:101000008091E800982F9B7F9093E8008F778093E2
:10101000E800E114F10431F0F7010995813011F491
:1010200084E00DC039DF882339F009C08091F100D8
:10103000F80181938F0121972097F1F68D2DDF9193
:10104000CF911F910F91FF90EF90DF9008959C0139
:1010500040912801509129014617570718F4F901CA
:1010600060E043C06115710511F0AB01F8CF8091CC
:10107000E800982F9E7F9093E8008F778093E80098
:1010800040E050E0ECCF8091E80083FF02C081E0B7
:1010900008958091E80082FD32C08091210188236B
:1010A000A1F18091E80080FF20C08091F200282FFC
:1010B00030E007C081918093F100415050402F5F94
:1010C0003F4F4115510519F02830310598F360E084
:1010D0002830310509F461E08091E800982F9E7F67
:1010E0009093E8008F778093E8004115510559F6F9
:1010F000662349F604C080912101882331F0809154
:10110000E80082FFF8CF80E0089582E008959C0116
:1011100040912801509129014617570710F460E0CB
:1011200043C06115710511F0AB01F9CF8091E80062
:10113000982F9E7F9093E8008F778093E80040E09F
:1011400050E0EDCF8091E80083FF02C081E0089578
:101150008091E80082FD32C0809121018823A1F1B5
:101160008091E80080FF20C08091F20090E009C0EB
:10117000F9012F5F3F4FE491E093F100415050405F
:1011800001964115510519F08830910588F360E00A
:10119000089709F461E08091E800982F9E7F909372
:1011A000E8008F778093E8004115510559F66623D2
:1011B00049F604C080912101882331F08091E80034
:1011C00082FFF8CF80E0089582E00895EF92FF92C9
:1011D0000F931F93CF93DF939C01E0902801F09031
:1011E0002901E616F70610F440E047C061157105C5
:1011F00011F07B01F9CF8091E800982F9E7F9093AA
:10120000E8008F778093E800EE24FF24EDCF8091F3
:10121000E80083FF02C081E041C08091E80082FDC8
:1012200036C0809121018823C1F18091E80080FFC0
:1012300024C08091F200C82FD0E00CC089010F5F5C
:101240001F4FC901D4D48093F1000894E108F1083C
:1012500021969801E114F10419F0C830D10570F31A
:1012600040E0289709F441E08091E800982F9E7FA4
:101270009093E8008F778093E800E114F10439F649
:10128000442329F604C080912101882331F0809104
:10129000E80082FFF8CF80E001C082E0DF91CF91CB
:1012A0001F910F91FF90EF90089566D068D0109233
:1012B000210110921F0110921E0110921D0119BCF4
:1012C00089B5826089BD09B400FEFDCF8091D80048
:1012D000982F9F779093D80080688093D800809152
:1012E00063008E7F809363008091D8008F7D809310
:1012F000D8008091E0008E7F8093E0008091E10033
:101300008E7F8093E1008091E20081608093E20013
:101310008091E100877F8093E1008091E200886006
:101320008093E2000895C1DFE0EEF0E0808181600B
:101330008083E8EDF0E080818F77808319BC109284
:1013400020010895B2DF81E0809320017894089510
:1013500008951F9380912101882361F01091E90085
:101360001092E9008091E80083FF01C00FDC177044
:101370001093E9001F9108951092E20008951092D1
:10138000E10008951F920F920FB60F921124EF9271
:10139000FF921F932F933F934F935F936F937F938E
:1013A0008F939F93AF93BF93EF93FF9389EEE82EB4
:1013B000F12CF70110811770CCDFE8EEF0E08081AE
:1013C000877F8083F7011083FF91EF91BF91AF91E9
:1013D0009F918F917F916F915F914F913F912F914D
:1013E0001F91FF90EF900F900FBE0F901F901895D8
:1013F0001F920F920FB60F9211242F933F934F938A
:101400005F936F937F938F939F93AF93BF93EF936C
:10141000FF938091E10080FF1DC08091E20080FF7A
:1014200019C08091E1008E7F8093E1008091E200FD
:101430008E7F8093E2008091E20080618093E200E1
:101440008091D80080628093D80019BC109221014D
:101450000E9439018091E10084FF2AC08091E2005E
:1014600084FF26C019BC89B5826089BD09B400FE1D
:10147000FDCF8091D8008F7D8093D8008091E100CE
:101480008F7E8093E1008091E2008F7E8093E20066
:101490008091E20081608093E20080911F018823A7
:1014A00011F481E001C084E0809321010E943F019A
:1014B0008091E10083FF28C08091E20083FF24C077
:1014C0008091E100877F8093E10082E08093210199
:1014D00010921F018091E1008E7F8093E100809146
:1014E000E2008E7F8093E2008091E2008061809331
:1014F000E20092DC80E060E042E07BDC8091F00082
:1015000088608093F00024DF8091E10082FF0AC0B0
:101510008091E20082FF06C08091E1008B7F809382
:10152000E10016DFFF91EF91BF91AF919F918F91F5
:101530007F916F915F914F913F912F910F900FBECF
:101540000F901F90189547988BB1867B8BB988ECCC
:1015500090E00197F1F70895662379F4E82FF0E021
:10156000E85DFE4FE491E7FF02C0479AEF77EE2374
:1015700099F18BB1E82BEBB90895262F30E0882341
:1015800079F4285D3E4FF901649167FF02C04798E6
:101590006F77662309F18BB1609568236BB9089565
:1015A000E82FF0E0E85DFE4F9491285D3E4FF90191
:1015B000649197FF02C0479A9F77992319F08BB1E6
:1015C000982B9BB967FF02C047986F77662321F07D
:1015D0008BB1609568236BB9089590DA482F282F56
:1015E00030E0C90133E0969587953A95E1F780950B
:1015F000817040FF826047FF84600895EF92FF9200
:101600000F931F93082FF62E18EC4AE1E42E04C026
:1016100011508E2D8A95F1F771DA80238F1511F410
:101620001123B1F76BDA90E008230F1191E0892FB5
:101630001F910F91FF90EF900895FF920F931F93CA
:10164000E82FF0E0E85DFE4F0491662311F410E00E
:101650000AC0102F08C00E942A01882359F08F2D3C
:101660008A95F1F702C05AE1F52E48DA80238117F6
:1016700091F381E01F910F91FF900895EF92FF92F7
:101680000F931F93CF93DF93F82E47988BB1867FEC
:101690008BB95E9A80E69AEE0197F1F75E98C8E9F9
:1016A000DAE365E8E62E08EC10E047988BB1867B1C
:1016B0008BB98E2D8A95F1F74A9B13C08E2D8A9592
:1016C000F1F74A9B0EC0479AC8010197F1F74A9B70
:1016D00002C0479806C04798C8010197F1F74A9998
:1016E0000BC0C8010197F1F70E942A01882321F05D
:1016F0002197D9F6FF20C9F6DF91CF911F910F9165
:10170000FF90EF9008956F927F928F929F92AF9289
:10171000BF92CF92DF92EF92FF920F931F93CF93DE
:10172000DF935C0161E00E941E02EE24FF24A5E32A
:101730006A2EF5E07F2E88248394EAEB9E2E75E8CE
:10174000C72EC0E0D0E00CC083ECC035D80771F0E4
:101750000E942A01882351F02196862D8A95F1F75F
:10176000499BF2CF80911B01882329F00E9421031D
:10177000EE24FF2450C05B9898EC04C09150872D54
:101780008A95F1F7499B02C09923C1F7499B07C08D
:1017900080921B015B9A892D8A95F1F75B98F894EA
:1017A00081E061E02BDF182FDD2400E011C081E033
:1017B00060E024DF182F882339F006954A990068E5
:1017C00081E061E01BDF182FD39488E0D81611F078
:1017D000112369F77894112361F05B9A802F0E949E
:1017E00033028823B1F40894E11CF11C8C2D8A95F6
:1017F000F1F7A895EA14FB0441F0112341F0809120
:101800001B01882309F49DCF04C0112311F4EE2499
:10181000FF240E942103C701DF91CF911F910F91F7
:10182000FF90EF90DF90CF90BF90AF909F908F9000
:101830007F906F9008955F926F927F928F929F92A8
:10184000AF92BF92CF92DF92EF92FF920F931F93CE
:10185000DF93CF930F92CDB7DEB77C01D62E1092D7
:101860001B0160E00E941E0280EC60E0C7DE88235E
:10187000E9F05B9832E0C32ECD20D1FC479A589A0C
:1018800088E068E0BBDE882379F0870125E8522EE6
:101890004E010894811C911C98EC692E85E3782EEA
:1018A000B8ECAB2EB12C45C0479858980E94210344
:1018B00000E010E065C0852D8A95F1F74A9936C0A1
:1018C000589805C00E942A01882309F43AC04A9B0F
:1018D000F9CF68C0CC2031F488E068E08FDE88E082
:1018E00060E08CDE589AC4010E945402882349F5B6
:1018F000298190E0862D8A95F1F720FF5B9A589810
:10190000872D8A95F1F7589A5B989F5F983011F070
:101910002695F0CF88E068E071DE882339F00894DE
:10192000E108F108C5010197F1F702C000E010E0FD
:10193000A895E114F10439F00115110509F0BBCFA8
:1019400002C000E010E00E94210301151105B1F072
:10195000D0FE0EC05B9A4798589807C00E942A0193
:10196000882319F400E010E004C04999F7CF01C0C2
:10197000479888EC90E00197F1F702C04798589893
:10198000C8010F90CF91DF911F910F91FF90EF90C1
:10199000DF90CF90BF90AF909F908F907F906F908F
:1019A0005F90089581E0E816F10409F09BCF92CF93
:1019B00028E032E087FF02C05B9A01C05B9858982C
:1019C000932F9A95F1F74999FECF87FF02C05B9854
:1019D00001C05B9A499BFECF5B98589A932F9A95CA
:1019E000F1F74A99FECF215011F0880FE3CF089507
:1019F00028E090E052E041E04A9BFECF5898852FC6
:101A00008A95F1F789B186958427382F317080FD4A
:101A100002C080E001C080E89695982B5B9A89B15E
:101A20008695842781703817D1F35B98852F8A9526
:101A3000F1F74A99FECF589A2150F1F6892F08956F
:101A400094E080FF02C05B9A01C05B98869547983E
:101A5000499BFECF80FF02C05B9A01C05B98479A0A
:101A60004999FECF915011F08695EBCF5B98089580
:101A700080E024E0499BFECF4A9B02C030E001C0D9
:101A800030E847984999FECF4A9B02C090E001C0D8
:101A900090E88695832B8695892B479A215051F79C
:101AA0000895FC014A99FECF90818FEF84B995B9D2
:101AB00058984A9BFECF91818FEF84B995B9589A77
:101AC0000895FC014A99FECF14B815B883B18083FC
:101AD00058984A9BFECF14B815B883B18183589AA1
:101AE00008959FEF94B985B958984A9BFECF589AAC
:101AF0004A99FECF089558984A9BFECF14B815B85E
:101B000083B1589A4A99FECF0895479A8BB1867F40
:101B10008BB98DE08A95F1F74A9BFECF14B815B8C2
:101B200083B192E09A95F1F747984A99FECF0895CC
:101B3000FC012FEF3FEF91E007C02115310511F4B3
:101B40008FEF08952150304089B186958695892779
:101B50008170861791F714B815B883B1808380E03F
:101B60000895982F479A8BB1867F8BB98DE08A951F
:101B7000F1F74A9BFECF8FEF84B995B982E08A9541
:101B8000F1F747988AE18A95F1F74A99FECF14B8A0
:101B900015B883B10895982F2FEF3FEF41E007C0AC
:101BA0002115310511F48FEF08952150304089B18E
:101BB0008695869584278170861791F78FEF84B973
:101BC00095B980E00895AA1BBB1B51E107C0AA1F6D
:101BD000BB1FA617B70710F0A61BB70B881F991FCE
:101BE0005A95A9F780959095BC01CD010895F99972
:101BF000FECF92BD81BDF89A992780B50895F894DB
:021C0000FFCF14
:101C02000304000F080330003000300000000055CC
:021C1200AAFF27
:00000001FF
