:100000009BC00000B5C00000B3C00000B1C000003C
:10001000AFC00000ADC00000ABC00000A9C0000030
:10002000A7C00000A5C00000A3C000000C94AD0A4A
:100030000C94770A9DC000009BC0000099C000008E
:1000400097C0000095C0000093C0000091C0000060
:100050008FC000008DC000008BC0000089C0000070
:1000600087C0000085C0000083C0000081C0000080
:100070007FC0000012011001FF000008D016040527
:100080000603010203010902200001010080320978
:1000900004000002FF0000000705830220000007A3
:1000A000050402200000040309043A034E00610025
:1000B0007400650020004C006100770073006F0041
:1000C0006E00200061006E00640020004F00700090
:1000D00065006E00430042004D0020007400650082
:1000E00061006D0000004003780075006D00310074
:1000F000350034003100200066006C006F00700095
:1001000070007900200061006400610070007400DC
:1001100065007200200028004F004C0049004D008F
:1001200045005800290000000008010980888189E5
:1001300040484149C0C8C1C911241FBECFEFD2E019
:10014000DEBFCDBF11E0A0E0B1E0EAEDFEE102C00C
:1001500005900D92AE31B107D9F711E0AEE1B1E0F3
:1001600001C01D92AE33B107E1F7EED00C946B0FD6
:1001700047CFA9EEB0E09C91977081E080932E016B
:1001800084E08C93EBEEF0E080818062808383E0FA
:100190008C938081806280839C9308952091E900F4
:1001A000E0E0F1E041E050E01BC08093E900BA01DB
:1001B00002C0660F771F8A95E2F76093EA001092FB
:1001C000EA008091EB0088608093EB008091EB0067
:1001D00085FF05C08091EB0080618093EB00319634
:1001E0008081882311F727702093E900089580917A
:1001F0002E01089523E02093E90070E047EF50E0DE
:100200005DD780912E01882311F080E008958091C0
:10021000E800982F9E7F9093E8008F778093E80006
:1002200081E0089524E02093E90070E047EF50E07A
:1002300084D780912E01882311F080E00895809169
:10024000E800982F9B7F9093E8008F778093E800D9
:1002500081E00895A89580912E01882311F080E017
:10026000089542D5882311F481E0089533D581E0C3
:10027000089510921E0110922C0180E017C581E0B4
:1002800015D510922E0181E080931E0108950F93E1
:100290001F93DF93CF93CDB7DEB728970FB6F894AF
:1002A000DEBF0FBECDBF809136018076803291F5E2
:1002B0008E010F5F1F4F88E0F80111928A95E9F7D0
:1002C00080913701B801ABD3682F8F3F19F484E0D8
:1002D000EDD420C08091E800877F8093E800809172
:1002E000360187FF0AC0772767FD7095C80164D77C
:1002F0008091E800982F9B7F08C08091E80080FFE4
:10030000FCCF8091E800982F9E7F9093E8008F7734
:100310008093E80028960FB6F894DEBF0FBECDBFDD
:10032000CF91DF911F910F91089538DF83E061E84D
:1003300046E214D684E060E846E210D682E0B6D405
:1003400081E080932C010895DF92EF92FF920F934A
:100350001F93DF93CF93CDB7DEB727970FB6F894EF
:10036000DEBF0FBECDBF80E090E020E80FB6F8946E
:1003700020936100809361000FBE2EE088E190E041
:100380000FB6F894A895809360000FBE209360008C
:100390000E94570A01C0A89580911E018823D9F3B5
:1003A0004AD480E083D437D394E0E92EF12CEC0ECC
:1003B000FD1E83E0D82E8E010F5F1F4FA8952FC022
:1003C00080913501843031F58093E9008091E80017
:1003D00085FF20C0C70164E025DF882319F484E08D
:1003E00065D418C0F8018D2D11928A95E9F7C701DF
:1003F000B8013AD118162CF48983C80163E0FADEFB
:1004000009C0882339F084E051D48091EB008062E8
:100410008093EB001FDF882311F410922E0180914E
:100420002C01882369F601C0A89580911E018823BC
:1004300009F0C4CFF9CF9C01613011F483E003C00F
:10044000662369F484E08093E900309321012093CE
:100450002001609303018091E80085FFFCCF08959F
:100460008093F10080912001909121010197909358
:100470002101809320018091E80085FD11C08091C9
:10048000E800982F9E7F9093E8008F778093E80094
:100490008091E80085FD04C080912E018823C1F37E
:1004A00080912E0181118FEF0895FC018091E80069
:1004B00085FD11C08091E800982F9B7F9093E80004
:1004C0008F778093E8008091E80085FD04C08091DB
:1004D0002E018823C1F380912E01882311F08FEF24
:1004E00008958091F10080838091200190912101F5
:1004F0000197909321018093200180E008958091DD
:100500002401882311F088E808950C94020F282F05
:1005100080912401882351F0E0912901F0912A0172
:100520002193F0932A01E0932901089590911F01EE
:10053000943061F4822F8350833010F02B3019F403
:1005400081E08093240110921F0112C0E92FF0E096
:10055000E65EFE4F8081821721F49F5F90931F011A
:1005600007C010921F01222319F481E080931F011C
:10057000822F0C94270F80910301813079F48091B0
:10058000F200882331F48091200190912101892B80
:10059000E9F08091E800982F9E7F13C08823B1F482
:1005A0008091200190912101009719F067EF70E090
:1005B00053D58091E80085FD09C08091E800982F0F
:1005C0009B7F9093E8008F778093E8008FE0809383
:1005D0000301109221011092200108950F931F939F
:1005E000CF93DF938C01EB01CB0161E024DF06C0E8
:1005F000F801099535DF2197882311F42097C1F779
:10060000BADF80E0DF91CF911F910F910895CF92D3
:10061000DF92EF92FF920F931F93DF93CF930F928E
:10062000CDB7DEB77C018B01CB0160E004DF6E014A
:100630000894C11CD11C09C0C60137DF015010400D
:10064000882331F48981F701099501151105A1F776
:1006500092DF80E00F90CF91DF911F910F91FF907B
:10066000EF90DF90CF900895AF92BF92CF92DF923C
:10067000EF92FF920F931F93DF93CF9300D00F92CF
:10068000CDB7DEB76C015B01809122018E7F809334
:100690002201D6011C911296ED90FC90139783E0F5
:1006A00005D31A3109F488C11B3190F4173109F4CC
:1006B00042C1183130F41830F1F0193009F09CC102
:1006C0009FC0183109F444C1193109F095C16CC1BA
:1006D0001D3109F45AC11E3138F41B3109F44CC1E3
:1006E0001C3109F089C137C11E3109F470C11F31B5
:1006F00009F082C175C18091230184FD18C0F60103
:100700008181807F803419F1813440F48032C9F0D6
:100710008033D1F0803109F06FC109C08036B1F16A
:10072000803709F468C0803509F066C12CC0E091BB
:100730002F01F09130010480F581E02DC70109956A
:1007400059C182EA9DE059C085E29EE056C0C701CA
:1007500061E071DE8E010E5F1F4F11C0C8010E9463
:10076000900E8A817DDE882309F0DEC08B8178DEE1
:10077000882309F0D9C08EEF9FEFE80EF91EE1142F
:10078000F10461F7D1C082ED9EE037C09FEFC92E22
:100790009FE7D92ECE20DF20C114D10409F42AC14D
:1007A00010922401C60161E046DE5B9880E29EE47F
:1007B0000197F1F70E94020F00E010E05E0108943B
:1007C000A11CB11C602F6170C5010E94180F87FD2C
:1007D00011C1898145DE882351F4F7FE03C0898168
:1007E000853529F00F5F1F4F0C151D0558F3C3DE2B
:1007F0000E94020FFFC08FE792E0B701EFDEFAC060
:100800008091230184FD1AC0D60111968C91807FBE
:10081000803449F1813440F48032F9F0803301F1C1
:10082000803109F0E9C00AC0803609F440C0803741
:1008300009F47CC0803509F0DFC036C0E0912F019B
:10084000F0913001D60111966C916F700280F381A6
:10085000E02DC7010995F50178C08BEE9DE068C0D9
:100860008CE59EE065C0C70160E0E5DD8E010E5FAE
:100870001F4F83E0C82ED12CCC0EDD1E11C0C80145
:1008800014DE882309F050C0C6010FDE882309F06A
:100890004BC0C8010E94AE0E8EEF9FEFE80EF91E0E
:1008A000E114F10461F740C08BEE9EE041C0E11419
:1008B000F10409F49FC010922401C70160E0BBDD80
:1008C0005B9805E211E005C0D8018D918D010E9471
:1008D000270F8091290190912A0108171907A1F784
:1008E00085E291E090932A018093290100E010E0D5
:1008F0006E010894C11CD11C0DC0C601D6DD882331
:1009000061F4602F617089810E94410F87FD72C080
:100910000F5F1F4F0E151F0580F3602F617080E081
:100920000E94410F0E94020F26DE64C087E892E019
:10093000B7016DDE5FC080912D01F5011282118239
:10094000882309F455C081E090E09283818350C0F0
:1009500010922D014DC0E0912F01F09130010680E1
:10096000F781E02DD60111968C91119712966C911A
:100970000995882309F43EC0E0912F01F0913001E0
:100980000084F185E02D099527C0E0912F01F091B9
:1009900030010284F385E02DD60111968C911197D8
:1009A00012966C91099524C08091230184FD24C086
:1009B00014B815B883B110C08091230184FD1CC008
:1009C000D60111969C918FEF84B995B911C0809191
:1009D000230184FD11C093DDF5018183128208C0DB
:1009E0008091230184FD08C0D60111968C918FDD82
:1009F00082E003C080E001C08FEF0F900F900F9056
:100A0000CF91DF911F910F91FF90EF90DF90CF90EA
:100A1000BF90AF900895109223011CD149C6CF9387
:100A2000DF93EB01823009F486C0833038F48823E9
:100A300009F438C0813009F08DC037C0833009F423
:100A400075C0843009F086C08091E800877F80936C
:100A5000E8008091E80080FFFCCF8091E800982FAB
:100A60009E7F9093E8008F778093E80088EE93E074
:100A700028EC30E0F9013197F1F70197D9F788E1D7
:100A80000FB6F89480936000109260000FBE00D5FE
:100A9000F8941092810010928900109288000C94B2
:100AA000001856C0188281E056C085E291E090930C
:100AB0002A018093290183E0F9D080912F01909140
:100AC0003001892B29F4A7DF9093300180932F0107
:100AD00080912F0190913001892BE1F186E088838C
:100AE00083E08983909123019A8380912201882356
:100AF00079F091609A8381E080932201E0912F0147
:100B0000F09130010190F081E02D80E0099531DB1A
:100B10008091220180688093220180912C0188239A
:100B200019F48A8182608A8388E015C010922201BC
:100B300082E0BCD00DC08091220180FD09C0E0910F
:100B40002F01F09130010190F081E02D80E00995B6
:100B500080E001C08FEFDF91CF9108950F931F9335
:100B6000CF93DF938A01E9011882292F332722309E
:100B7000310561F02330310571F02130310509F084
:100B80004DC0E4E7F0E022E130E04CC0E6E8F0E000
:100B900020E230E047C090708130910571F08130E3
:100BA000910538F08230910561F0039709F036C065
:100BB0000EC0E6EAF0E0849107C0EAEAF0E0849132
:100BC00003C0E6EEF0E08491282F30E02BC080E0F7
:100BD00090E00E94630F282F30E020953095307010
:100BE000EAE0F1E00FC0C9016AE070E00E944F0F37
:100BF000C09691838083C9016AE070E00E944F0F24
:100C00009B0132972115310571F780910401282F3E
:100C100030E082E08883E4E0F1E004C0E0E0F0E06E
:100C200020E030E0D801ED93FC93C901DF91CF9132
:100C30001F910F91089518B884E087B98DE093E073
:100C40009093890080938800E1E8F0E080818D60D6
:100C50008083089518B81BB884E887B989E58AB9F4
:100C600015B814B8089529B189B149B166B1E6B192
:100C700090E0827090709595879530E0207230708A
:100C800035952795822B50E044705070440F551FC6
:100C9000842B70E060747070660F771F862BF0E015
:100CA000E078F070F595E7958E2B089580932B01F1
:100CB000823051F0833018F4882341F00895833056
:100CC00029F0843031F404C042980895429A08957E
:100CD000429A089580912B018350823020F488B18C
:100CE00094E0892788B90895B19902C080E00895F9
:100CF000B19A81E008951F93DF93CF9300D00F92B4
:100D0000CDB7DEB7E6E3F1E08091F100819381E0B9
:100D1000EE33F807C9F7809136013091370135304D
:100D200009F486C0363040F43130C1F1313070F012
:100D3000333009F0FDC032C0383009F4CAC0393050
:100D400009F4DDC0363009F0F3C091C0803821F0DD
:100D5000823809F0EDC008C09091310180913201D4
:100D6000882391F0926010C080913A018093E9004D
:100D70008091EB0090E025E0969587952A95E1F724
:100D8000982F91701092E9008091E800877F8093FE
:100D9000E8009093F1001092F100A6C0882319F0AA
:100DA000823009F0C5C090E08F719070009721F0FB
:100DB000029709F0BEC00CC080913801813009F063
:100DC000B8C010923201333069F5809332012AC0E5
:100DD00080913801882331F520913A01277009F478
:100DE000A8C02093E9008091EB0080FF1BC0333046
:100DF00021F48091EB00806213C08091EB00806150
:100E00008093EB0081E090E002C0880F991F2A9543
:100E1000E2F78093EA001092EA008091EB0088608C
:100E20008093EB001092E9008091E800877F63C017
:100E3000882309F07DC0109138018091E800877FF8
:100E40008093E800B5D005C080913501882309F46E
:100E500070C08091E80080FFF7CF912F9F7719F045
:100E600083E08093350190689093E30062C08058DE
:100E7000823008F05DC08091380190913901609115
:100E80003A01AE014E5F5F4F9E012F5F3F4F66DE1E
:100E9000BC01009709F44DC08091E800877F8093E2
:100EA000E8002981222321F48A819B81E5D107C0B2
:100EB0008A819B81213011F43ED201C07DD1809185
:100EC000E800982F9B7F9093E8008F778093E8004D
:100ED00030C0803869F58091E800877F8093E80012
:100EE000809133018093F1008091E800982F9E7FDC
:100EF0009093E8008F778093E8005AD01AC0882337
:100F0000B9F4909138019230A0F48091E800877F85
:100F10008093E800909333014BD080913301882374
:100F200011F483E001C084E080933501FED901C053
:100F3000AED98091E80083FF0AC08091EB00806207
:100F40008093EB008091E800877F8093E8000F900A
:100F50000F900F90CF91DF911F9108958093E9003A
:100F60008091EB0081608093EB001092ED00609324
:100F7000EC004093ED008091EE00881F8827881FC9
:100F800008951092F40090E09093E9001092F00020
:100F90001092E8008091ED008D7F8093ED008091AC
:100FA000EB008E7F8093EB009F5F953069F708958B
:100FB000809136018823BCF404C0809135018823D8
:100FC000F9F08091E80082FFF8CF8091E800982F37
:100FD0009B7F9093E8008F778093E800089580913D
:100FE0003501882369F08091E80080FFF8CF809177
:100FF000E800982F9E7F9093E8008F778093E80019
:10100000089594E68091EC0080FF05C08091E8008F
:1010100080FF05C01FC08091E80082FD1BC0809149
:101020003501882311F482E008958091EB0085FF5B
:1010300002C081E008958091E10082FFE3CF8091BA
:10104000E1008B7F8093E100992311F483E0089500
:101050009150D8CF80E00895FF920F931F93CF93C4
:10106000DF93EC018B01CDDFF82E8823F1F01FC058
:101070008091E80085FD16C08091E800982F9B7F45
:101080009093E8008F778093E8000115110531F007
:10109000F8010995813011F484E00AC0B2DF882399
:1010A00021F006C08091F1002197209709F78F2D3C
:1010B000DF91CF911F910F91FF900895DF92EF92F2
:1010C000FF920F931F93CF93DF93182F092FEB01FC
:1010D0007A0197DFD82E882339F5812F902F9C0134
:1010E000890120C08091E80085FD16C08091E8004C
:1010F000982F9E7F9093E8008F778093E800E1140B
:10110000F10431F0F7010995813011F484E00DC04C
:1011100078DF882339F009C0F80181918F0180932D
:10112000F10021972097F1F68D2DDF91CF911F913E
:101130000F91FF90EF90DF900895DF92EF92FF9272
:101140000F931F93CF93DF93182F092FEB017A0191
:1011500058DFD82E882339F5812F902F9C018901E3
:1011600020C08091E80085FD16C08091E800982F8E
:101170009B7F9093E8008F778093E800E114F1045F
:1011800031F0F7010995813011F484E00DC039DFA9
:10119000882339F009C08091F100F80181938F0113
:1011A00021972097F1F68D2DDF91CF911F910F910F
:1011B000FF90EF90DF9008959C0140913C01509189
:1011C0003D014617570718F4F90160E043C0611567
:1011D000710511F0AB01F8CF8091E800982F9E7F48
:1011E0009093E8008F778093E80040E050E0ECCFE8
:1011F0008091E80083FF02C081E008958091E800BB
:1012000082FD32C0809135018823A1F18091E800F0
:1012100080FF20C08091F200282F30E007C081912C
:101220008093F100415050402F5F3F4F41155105D1
:1012300019F02830310598F360E02830310509F4C1
:1012400061E08091E800982F9E7F9093E8008F776F
:101250008093E8004115510559F6662349F604C00C
:1012600080913501882331F08091E80082FFF8CF2A
:1012700080E0089582E008959C0140913C015091E6
:101280003D014617570710F460E043C06115710532
:1012900011F0AB01F9CF8091E800982F9E7F9093D9
:1012A000E8008F778093E80040E050E0EDCF809138
:1012B000E80083FF02C081E008958091E80082FD8C
:1012C00032C0809135018823A1F18091E80080FF30
:1012D00020C08091F20090E009C0F9012F5F3F4FDC
:1012E000E491E093F10041505040019641155105C1
:1012F00019F08830910588F360E0089709F461E0FF
:101300008091E800982F9E7F9093E8008F778093DC
:10131000E8004115510559F6662349F604C080914D
:101320003501882331F08091E80082FFF8CF80E01A
:10133000089582E00895EF92FF920F931F93CF9349
:10134000DF939C01E0903C01F0903D01E616F7062A
:1013500010F440E047C06115710511F07B01F9CF31
:101360008091E800982F9E7F9093E8008F7780937C
:10137000E800EE24FF24EDCF8091E80083FF02C057
:1013800081E041C08091E80082FD36C08091350146
:101390008823C1F18091E80080FF24C08091F20091
:1013A000C82FD0E00CC089010F5F1F4FC9018BD53A
:1013B0008093F1000894E108F10821969801E11466
:1013C000F10419F0C830D10570F340E0289709F412
:1013D00041E08091E800982F9E7F9093E8008F77FE
:1013E0008093E800E114F10439F6442329F604C09F
:1013F00080913501882331F08091E80082FFF8CF99
:1014000080E001C082E0DF91CF911F910F91FF90AA
:10141000EF90089566D068D0109235011092330194
:10142000109232011092310119BC89B5826089BDD8
:1014300009B400FEFDCF8091D800982F9F7790933C
:10144000D80080688093D800809163008E7F80935D
:1014500063008091D8008F7D8093D8008091E00058
:101460008E7F8093E0008091E1008E7F8093E10089
:101470008091E20081608093E2008091E100877FAB
:101480008093E1008091E20088608093E2000895FB
:10149000C1DFE0EEF0E0808181608083E8EDF0E084
:1014A00080818F77808319BC109234010895B2DF58
:1014B00081E0809334017894089508951F9380917A
:1014C0003501882361F01091E9001092E9008091C4
:1014D000E80083FF01C00FDC17701093E9001F9133
:1014E00008951092E20008951092E10008951F926D
:1014F0000F920FB60F921124EF92FF921F932F932A
:101500003F934F935F936F937F938F939F93AF938B
:10151000BF93EF93FF9389EEE82EF12CF701108132
:101520001770CCDFE8EEF0E08081877F8083F701E1
:101530001083FF91EF91BF91AF919F918F917F9118
:101540006F915F914F913F912F911F91FF90EF907D
:101550000F900FBE0F901F9018951F920F920FB60D
:101560000F9211242F933F934F935F936F937F9329
:101570008F939F93AF93BF93EF93FF938091E1007D
:1015800080FF1DC08091E20080FF19C08091E100C2
:101590008E7F8093E1008091E2008E7F8093E20055
:1015A0008091E20080618093E2008091D8008062A7
:1015B0008093D80019BC109235010E9439018091A6
:1015C000E10084FF2AC08091E20084FF26C019BC9C
:1015D00089B5826089BD09B400FEFDCF8091D80035
:1015E0008F7D8093D8008091E1008F7E8093E10011
:1015F0008091E2008F7E8093E2008091E200816022
:101600008093E20080913301882311F481E001C0CE
:1016100084E0809335010E943F018091E10083FFC7
:1016200028C08091E20083FF24C08091E100877F81
:101630008093E10082E08093350110923301809124
:10164000E1008E7F8093E1008091E2008E7F8093A5
:10165000E2008091E20080618093E20092DC80E011
:1016600060E042E07BDC8091F00088608093F000D5
:1016700024DF8091E10082FF0AC08091E20082FFB6
:1016800006C08091E1008B7F8093E10016DFFF911F
:10169000EF91BF91AF919F918F917F916F915F91EA
:1016A0004F913F912F910F900FBE0F901F90189563
:1016B00047988BB1867B8BB98AE18A95F1F78EE0EA
:1016C00091E00895662379F4E82FF0E0E85DFE4F9D
:1016D000E491E7FF02C0479AEF77EE2399F18BB1CF
:1016E000E82BEBB90895262F30E0882379F4285DA4
:1016F0003E4FF901649167FF02C047986F776623F8
:1017000009F18BB1609568236BB90895E82FF0E07B
:10171000E85DFE4F9491285D3E4FF901649197FF7B
:1017200002C0479A9F77992319F08BB1982B9BB9E8
:1017300067FF02C047986F77662321F08BB16095F1
:1017400068236BB908958FDA482F282F30E0C9013C
:1017500033E0969587953A95E1F78095817040FF43
:10176000826047FF84600895EF92FF920F931F936A
:10177000082FF62E18EC4AE1E42E04C011508E2DED
:101780008A95F1F770DA80238F1511F41123B1F7E0
:101790006ADA90E008230F1191E0892F1F910F91D1
:1017A000FF90EF900895FF920F931F93E82FF0E0C2
:1017B000E85DFE4F0491662311F410E00AC0102F7B
:1017C00008C00E942A01882359F08F2D8A95F1F7CD
:1017D00002C05AE1F52E47DA8023811791F381E0A8
:1017E0001F910F91FF900895CF92DF92EF92FF9299
:1017F0000F931F93CF93DF93C82E47988BB1867FAB
:101800008BB95E9A88EE93E028EC30E0F9013197CD
:10181000F1F70197D9F75E98CCE4DDE175E8D72EB2
:101820006CE2E62E61E0F62E08EC10E047988BB1F2
:10183000867B8BB98D2D8A95F1F74A9902C0C70135
:1018400006C08D2D8A95F1F74A9904C0C801019709
:10185000F1F70EC0479AC8010197F1F74A9B02C001
:10186000479806C04798C8010197F1F74A9908C000
:101870000E942A01882321F02197C1F6CC20B1F6DD
:10188000DF91CF911F910F91FF90EF90DF90CF905C
:1018900008956F927F928F929F92AF92BF92CF9254
:1018A000DF92EF92FF920F931F93CF93DF935C0130
:1018B00061E00E941B02EE24FF24B5E36B2EA5E03D
:1018C0007A2E88248394FAEB9F2EE5E8CE2EC0E092
:1018D000D0E00CC083ECC035D80771F00E942A011B
:1018E000882351F02196862D8A95F1F7499BF2CFF6
:1018F00080912D01882329F00E94BB02EE24FF2451
:1019000050C05B9898EC04C09150872D8A95F1F7F0
:10191000499B02C09923C1F7499B07C080922D01C2
:101920005B9A892D8A95F1F75B98F89481E061E0E4
:101930001BDF182FDD2400E011C081E060E014DF20
:10194000182F882339F006954A99006881E061E0F4
:101950000BDF182FD39488E0D81611F0112369F704
:101960007894112361F05B9A802F0E9430028823C3
:10197000B1F40894E11CF11C8C2D8A95F1F7A8951F
:10198000EA14FB0441F0112341F080912D018823DA
:1019900009F49DCF04C0112311F4EE24FF240E940A
:1019A000BB02C701DF91CF911F910F91FF90EF9084
:1019B000DF90CF90BF90AF909F908F907F906F906F
:1019C00008955F926F927F928F929F92AF92BF9293
:1019D000CF92DF92EF92FF920F931F93DF93CF93FB
:1019E0000F92CDB7DEB77C01D62E10922D01009755
:1019F00009F48FC060E00E941B0280EC60E0B4DE5E
:101A0000882389F05B9842E0C42ECD20D1FC479A10
:101A1000589A85E08A95F1F788E068E0A5DE88238A
:101A200029F4479858980E94BB0273C08AE68A95A9
:101A3000F1F787014E010894811C911C38EC532E5C
:101A400025E0622E95E3792E88ECA82EB12C4A99D8
:101A50003EC0589805C00E942A01882309F437C067
:101A60004A9BF9CF6AC0CC2031F488E068E07CDE84
:101A700088E060E079DE589AC4010E94550288230C
:101A800031F5298198E0852D8A95F1F720FD04C074
:101A90005B9A862D8A95F1F75898872D8A95F1F7EC
:101AA000589A5B98915011F02695EDCF88E068E048
:101AB0005BDE882361F001501040C5010197F1F70A
:101AC000A8950115110509F0C2CF870102C000E0F9
:101AD00010E00E94BB0201151105A9F0D0FE11C053
:101AE0005B9A479881E08A95F1F7589885E08A9546
:101AF000F1F704C00E942A01882359F04999FACFCE
:101B00000AC0479808C085E38A95F1F74798589826
:101B100002C000E010E0C8010F90CF91DF911F914B
:101B20000F91FF90EF90DF90CF90BF90AF909F907C
:101B30008F907F906F905F9008950130110509F0AC
:101B40009ACF91CFCF92DF92EF92FF920F931F9394
:101B500008E010E095E0C92EDD24D39404C00E9473
:101B60002A01882379F14A9BFACF58988C2D8A95BF
:101B7000F1F789B186958D25FF24F394F82280FD35
:101B800002C0EE2402C080E8E82E5B9A04C00E94E6
:101B90002A018823B9F089B186958D258170F816C0
:101BA000B1F35B988C2D8A95F1F704C00E942A014D
:101BB000882341F04A99FACF16951E29589A015068
:101BC00011F0D1CF1FEF812F1F910F91FF90EF9058
:101BD000DF90CF900895FF920F931F93182F08E086
:101BE00025E0F22E17FF02C05B9A01C05B988F2D93
:101BF0008A95F1F758988F2D8A95F1F704C00E94C5
:101C00002A018823F1F04999FACF17FF02C05B98A7
:101C100006C05B9A04C00E942A01882391F0499B68
:101C2000FACF589A5B988F2D8A95F1F704C00E94DD
:101C30002A01882331F04A99FACF015011F0110F8F
:101C4000D1CF1F910F91FF900895EF92FF920F93C4
:101C50001F9310E004E095E0E92E04C00E942A01E1
:101C6000882319F1499BFACF8E2D8A95F1F74A9B6B
:101C700002C0FF2402C080E8F82E479804C00E94EA
:101C80002A01882391F04999FACF8E2D8A95F1F790
:101C90004A9B02C080E001C080E816951F29169576
:101CA000182B479A015011F0DDCF1FEF812F1F91A4
:101CB0000F91FF90EF900895FF920F931F93182FAD
:101CC00004E025E0F22E10FF02C05B9A01C05B9891
:101CD0008F2D8A95F1F7479804C00E942A01882326
:101CE000D9F0499BFACF169510FF02C05B9A01C04C
:101CF0005B988F2D8A95F1F7479A04C00E942A01BC
:101D0000882351F04999FACF015011F01695DBCF95
:101D10005B9885E08A95F1F71F910F91FF900895E8
:101D2000CF93DF93EC0104C00E942A01882399F02D
:101D30004A99FACF14B815B883B18883589804C06B
:101D40000E942A01882339F04A9BFACF14B815B8AB
:101D500083B18983589ADF91CF910895CF93DF9310
:101D6000EC0104C00E942A018823C9F04A99FACFE5
:101D700098818FEF84B995B981E08A95F1F75898E9
:101D800004C00E942A01882351F04A9BFACF99810E
:101D90008FEF84B995B981E08A95F1F7589ADF9170
:101DA000CF9108951F93589804C00E942A01882358
:101DB00071F04A9BFACF14B815B813B1589A04C001
:101DC0000E942A01882319F04A99FACF01C01FEF17
:101DD000812F1F9108959FEF94B985B981E08A956D
:101DE000F1F7589804C00E942A01882351F04A9BB9
:101DF000FACF589A04C00E942A01882311F04A9908
:101E0000FACF0895479A8BB1867F8BB98DE08A957A
:101E1000F1F74A9BFECF82E08A95F1F714B815B826
:101E200083B147984A99FECF9DE09A95F1F70895BE
:101E3000FC0191E089B18695869589278170861786
:101E4000C9F714B815B883B1808380E00895982F3E
:101E5000479A8BB1867F8BB98DE08A95F1F74A9BC3
:101E6000FECF8FEF84B995B982E08A95F1F7479854
:101E70008AE18A95F1F74A99FECF14B815B883B173
:101E80000895982F21E089B18695869582278170E3
:101E90008617C9F78FEF84B995B980E00895AA1B1A
:101EA000BB1B51E107C0AA1FBB1FA617B70710F045
:101EB000A61BB70B881F991F5A95A9F78095909577
:101EC000BC01CD010895F999FECF92BD81BDF89A6C
:0A1ED000992780B50895F894FFCF1C
:101EDA000304000F08033000300030000000F40B48
:0E1EEA00E10C490CD30BA30B620B0055AAFFB1
:00000001FF
