:10000000ADC00000C9C00000C7C00000C5C00000EE
:10001000C3C00000C1C00000BFC00000BDC00000E0
:10002000BBC00000B9C000000C94260B0C94EC0A75
:10003000B3C00000B1C00000AFC00000ADC0000000
:10004000ABC00000A9C00000A7C00000A5C0000010
:10005000A3C00000A1C000009FC000009DC0000020
:100060009BC0000099C0000097C0000095C0000030
:1000700093C0000091C000008FC000008DC0000040
:100080008BC0000089C0000087C0000085C0000050
:1000900083C0000081C0000012011001FF000008B1
:1000A000D016040506000102030109022000010127
:1000B0000080320904000002FF00000007058302EF
:1000C00040000007050402400000040309043A034D
:1000D0004E0061007400650020004C006100770054
:1000E00073006F006E00200061006E00640020004D
:1000F0004F00700065006E00430042004D0020007C
:100100007400650061006D00000040037800750018
:100110006D003100350034003100200066006C00B5
:100120006F007000700079002000610064006100C1
:100130007000740065007200200028005500530014
:1001400042004B0045005900290000000010041433
:1001500001110515405044544151455511241FBE0D
:10016000CFEFD0E2DEBFCDBF11E0A0E0B1E0E6EE20
:10017000FFE100E00BBF02C007900D92AE31B10766
:10018000D9F711E0AEE1B1E001C01D92AF33B10784
:10019000E1F7EED00C94F10F33CFA9EEB0E09C91D3
:1001A000977081E080932F0184E08C93EBEEF0E078
:1001B00080818062808383E08C93808180628083F1
:1001C0009C9308952091E900E0E0F1E041E050E0E7
:1001D0001BC08093E900BA0102C0660F771F8A95A1
:1001E000E2F76093EA001092EA008091EB008860E9
:1001F0008093EB008091EB0085FF05C08091EB00C0
:1002000080618093EB0031968081882311F72770FD
:100210002093E900089580912F01089523E0209311
:10022000E90070E04BE051E09ED780912F018823D8
:1002300011F080E008958091E800982F9E7F9093C0
:10024000E8008F778093E80081E0089524E0209310
:10025000E90070E04BE051E0C5D780912F01882381
:1002600011F080E008958091E800982F9B7F909393
:10027000E8008F778093E80081E00895A895809149
:100280002F01882311F080E0089549D5882311F4C7
:1002900081E0089535D581E0089510921E011092F5
:1002A0002D0180E001C581E0FFD410922F0181E093
:1002B00080931E0108950F931F93DF93CF93CDB7C3
:1002C000DEB728970FB6F894DEBF0FBECDBF809182
:1002D00037018076803291F58E010F5F1F4F88E0E5
:1002E000F80111928A95E9F780913801B801ADD3F0
:1002F000682F8F3F19F484E0D7D420C08091E800A4
:10030000877F8093E8008091370187FF0AC07727B5
:1003100067FD7095C801A5D78091E800982F9B7F55
:1003200008C08091E80080FFFCCF8091E800982F02
:100330009E7F9093E8008F778093E80028960FB611
:10034000F894DEBF0FBECDBFCF91DF911F910F910B
:10035000089538DF83E061E846E355D684E060E83D
:1003600046E351D682E0A0D481E080932D01089528
:10037000DF92EF92FF920F931F93DF93CF93CDB74E
:10038000DEB727970FB6F894DEBF0FBECDBF80E073
:1003900090E020E80FB6F89420936100809361000C
:1003A0000FBE2EE088E190E00FB6F894A8958093F8
:1003B00060000FBE209360000E94BB0A01C0A89598
:1003C00080911E018823D9F356D480E06DD439D3AF
:1003D00094E0E92EF12CEC0EFD1E83E0D82E8E0168
:1003E0000F5F1F4FA8952FC080913601843031F5E3
:1003F0008093E9008091E80085FF20C0C70164E098
:1004000025DF882319F484E04FD418C0F8018D2D1E
:1004100011928A95E9F7C701B8013CD118162CF45E
:100420008983C80163E0FADE09C0882339F084E0DB
:100430003BD48091EB0080628093EB001FDF882328
:1004400011F410922F0180912D01882369F601C0CB
:10045000A89580911E01882309F0C4CFF9CF9C0193
:10046000613011F483E003C0662369F484E0809373
:10047000E9003093210120932001609303018091D2
:10048000E80085FFFCCF08958093F1008091200162
:1004900090912101019790932101809320018091F7
:1004A000E80085FD11C08091E800982F9E7F909311
:1004B000E8008F778093E8008091E80085FD04C014
:1004C00080912F018823C1F380912F0181118FEF3B
:1004D0000895FC018091E80085FD11C08091E8003D
:1004E000982F9B7F9093E8008F778093E80080910E
:1004F000E80085FD04C080912F018823C1F380911D
:100500002F01882311F08FEF08958091F1008083EF
:100510008091200190912101019790932101809376
:10052000200180E0089580912401882311F088E85B
:1005300008950C94860F282F80912401882351F070
:10054000E0912901F0912A012193F0932A01E0938F
:100550002901089590911F01943061F4822F8350F6
:10056000833010F02B3019F481E080932401109235
:100570001F0112C0E92FF0E0E65EFE4F8081821776
:1005800021F49F5F90931F0107C010921F01222347
:1005900019F481E080931F01822F0C94AC0F80919D
:1005A0000301813089F48091F2009091F300892B4E
:1005B00031F48091200190912101892BE9F0809103
:1005C000E800982F9E7F13C08823B1F4809120010A
:1005D00090912101009719F06BE071E092D5809124
:1005E000E80085FD09C08091E800982F9B7F9093DB
:1005F000E8008F778093E8008FE0809303011092EA
:1006000021011092200108950F931F93CF93DF9340
:100610008C01EB01CB0161E022DF06C0F8010995F6
:1006200033DF2197882311F42097C1F7B8DF80E0EA
:10063000DF91CF911F910F910895CF92DF92EF92AA
:10064000FF920F931F93DF93CF930F92CDB7DEB737
:100650007C018B01CB0160E002DF6E010894C11CBC
:10066000D11C09C0C60135DF01501040882331F488
:100670008981F701099501151105A1F790DF80E047
:100680000F90CF91DF911F910F91FF90EF90DF902E
:10069000CF900895AF92BF92CF92DF92EF92FF92E8
:1006A0000F931F93DF93CF9300D00F92CDB7DEB798
:1006B0006C015B01809122018E7F80932201D60123
:1006C0001C911296ED90FC90139783E0EDD21A31B5
:1006D00009F488C11B3190F4173109F442C1183173
:1006E00030F41830F1F0193009F09CC19FC0183176
:1006F00009F444C1193109F095C16CC11D3109F4E7
:100700005AC11E3138F41B3109F44CC11C3109F0B7
:1007100089C137C11E3109F470C11F3109F082C18E
:1007200075C18091230184FD18C0F6018181807F0D
:10073000803419F1813440F48032C9F08033D1F033
:10074000803109F06FC109C08036B1F1803709F4FA
:1007500068C0803509F066C12CC0E0913001F0918D
:1007600031010480F581E02DC701099559C180E26E
:100770009EE059C089EA9EE056C0C70161E06FDE85
:100780008E010E5F1F4F11C0C8010E94140F8A8195
:100790007BDE882309F0DEC08B8176DE882309F0BA
:1007A000D9C08EEF9FEFE80EF91EE114F10461F756
:1007B000D1C086E59FE037C09FEFC92E9FE7D92EB5
:1007C000CE20DF20C114D10409F42AC110922401E3
:1007D000C60161E044DE149880E29EE40197F1F7DF
:1007E0000E94860F00E010E05E010894A11CB11C7D
:1007F000602F6170C5010E949C0F87FD11C1898126
:1008000043DE882351F4F7FE03C08981853529F042
:100810000F5F1F4F0C151D0558F3C1DE0E94860F98
:10082000FFC083E992E0B701EFDEFAC080912301B7
:1008300084FD1AC0D60111968C91807F803449F1D5
:10084000813440F48032F9F0803301F1803109F0D5
:10085000E9C00AC0803609F440C0803709F47CC082
:10086000803509F0DFC036C0E0913001F0913101F0
:10087000D60111966C916F700280F381E02DC70153
:100880000995F50178C08DE69EE068C080EE9EE097
:1008900065C0C70160E0E3DD8E010E5F1F4F83E09E
:1008A000C82ED12CCC0EDD1E11C0C80112DE88234B
:1008B00009F050C0C6010DDE882309F04BC0C80105
:1008C0000E94320F8EEF9FEFE80EF91EE114F10443
:1008D00061F740C08FE69FE041C0E114F10409F4E4
:1008E0009FC010922401C70160E0B9DD149805E2B1
:1008F00011E005C0D8018D918D010E94AC0F80914F
:10090000290190912A0108171907A1F785E291E0C2
:1009100090932A018093290100E010E06E01089471
:10092000C11CD11C0DC0C601D4DD882361F4602F29
:10093000617089810E94C60F87FD72C00F5F1F4FD3
:100940000E151F0580F3602F617080E00E94C60FB6
:100950000E94860F24DE64C08BE992E0B7016DDE51
:100960005FC080912E01F50112821182882309F463
:1009700055C081E090E09283818350C010922E0197
:100980004DC0E0913001F09131010680F781E02DFA
:10099000D60111968C91119712966C910995882326
:1009A00009F43EC0E0913001F09131010084F185FD
:1009B000E02D099527C0E0913001F09131010284CA
:1009C000F385E02DD60111968C91119712966C91BA
:1009D000099524C08091230184FD24C017B818B85C
:1009E00086B110C08091230184FD1CC0D6011196F0
:1009F0009C918FEF87B998B911C08091230184FD34
:100A000011C091DDF5018183128208C0809123011C
:100A100084FD08C0D60111968C918DDD82E003C063
:100A200080E001C08FEF0F900F900F90CF91DF917A
:100A30001F910F91FF90EF90DF90CF90BF90AF90FC
:100A400008951092230129D1CBC6CF93DF93EB01F8
:100A5000823009F490C0833038F4882309F442C00E
:100A6000813009F097C041C0833009F47FC08430E1
:100A700009F090C08091E800877F8093E800809122
:100A8000E80080FFFCCF8091E800982F9E7F909334
:100A9000E8008F778093E80088EE93E028EC30E060
:100AA000F9013197F1F70197D9F788E10FB6F8947A
:100AB00080936000109260000FBE4BD5F89483E0E5
:100AC00090E020E80FB6F8942093610080936100D5
:100AD0000FBE1092810010928900109288000C9431
:100AE000007856C0188281E056C085E291E090936C
:100AF0002A018093290183E0D7D080913001909121
:100B00003101892B29F49DDF9093310180933001CD
:100B10008091300190913101892BE1F186E0888349
:100B200083E08983909123019A8380912201882315
:100B300079F091609A8381E080932201E091300105
:100B4000F09131010190F081E02D80E0099525DBE5
:100B50008091220180688093220180912D01882359
:100B600019F48A8182608A8388E015C0109222017C
:100B700082E09AD00DC08091220180FD09C0E091F1
:100B80003001F09131010190F081E02D80E0099574
:100B900080E001C08FEFDF91CF9108950F931F93F5
:100BA000CF93DF938A01E9011882292F332722305E
:100BB000310561F02330310571F02130310509F044
:100BC0004DC0E8E9F0E022E130E04CC0EAEAF0E0B4
:100BD00020E230E047C090708130910571F08130A3
:100BE000910538F08230910561F0039709F036C025
:100BF0000EC0EAECF0E0849107C0EEECF0E08491E6
:100C000003C0EAE0F1E08491282F30E02BC080E0BF
:100C100090E00E94E90F282F30E020953095307049
:100C2000EAE0F1E00FC0C9016AE070E00E94D50F70
:100C3000C09691838083C9016AE070E00E94D50F5D
:100C40009B0132972115310571F780910401282FFE
:100C500030E082E08883E4E0F1E004C0E0E0F0E02E
:100C600020E030E0D801ED93FC93C901DF91CF91F2
:100C70001F910F9108958AB1806F8AB98BB18F70DF
:100C80008BB98DE093E09093890080938800E1E830
:100C9000F0E080818D608083089585E581B98AEADE
:100CA00082B918B817B8089580932B018230A1F04B
:100CB000833028F4882341F0813009F509C083305E
:100CC00079F08430E1F414C08BB18F7080680EC06D
:100CD0008BB18F7080640AC08BB18F70806206C048
:100CE00080E680932C018BB18F7080668BB908955C
:100CF00080E980932C018BB18F7080698BB9089546
:100D000080912B018350823048F48BB12BB1807FCE
:100D100090912C0189272F70822B8BB90895B1995E
:100D200002C080E00895B19A81E008951F93DF9397
:100D3000CF93CDB7DEB7AD970FB6F894DEBF0FBE39
:100D4000CDBFE7E3F1E08091F100819321E0EF3343
:100D5000F207C9F78091370130913801353009F435
:100D600086C0363040F43130C1F1313070F033306C
:100D700009F030C132C0383009F4FDC0393009F40F
:100D800010C1363009F026C191C0803821F0823878
:100D900009F020C108C0909132018091330188236D
:100DA00091F0926010C080913B018093E9008091A6
:100DB000EB0090E025E0969587952A95E1F7982F2E
:100DC00091701092E9008091E800877F8093E8009D
:100DD0009093F1001092F100D9C0882319F082306D
:100DE00009F0F8C090E08F719070009721F00297A1
:100DF00009F0F1C00CC080913901813009F0EBC0DD
:100E000010923301333069F5809333012AC0809109
:100E10003901882331F520913B01277009F4DBC0AB
:100E20002093E9008091EB0080FF1BC0333021F458
:100E30008091EB00806213C08091EB008061809311
:100E4000EB0081E090E002C0880F991F2A95E2F73D
:100E50008093EA001092EA008091EB008860809312
:100E6000EB001092E9008091E800877F96C088230C
:100E700009F0B0C0109139018091E800877F80931C
:100E8000E800EBD005C080913601882309F4A3C0A7
:100E90008091E80080FFF7CF912F9F7719F083E0D2
:100EA0008093360190689093E30095C0805882301B
:100EB00008F090C08091390190913A0123E08C3D77
:100EC000920779F5DE0116964EE020E030E051E21F
:100ED000E42FF0E050935700849120FF03C08295E7
:100EE0008F704F5F982F9F70892F805D8A3308F035
:100EF000895F8C9311961C9211972F5F3F4F12962A
:100F00002431310529F78091E800877F8093E8003C
:100F10008AE28C8383E08D83CE0104966AE270E0DE
:100F20001FC060913B01AE014E5F5F4F9E012F5F7E
:100F30003F4F34DEBC01009709F44DC08091E800BA
:100F4000877F8093E8002981222321F48A819B8175
:100F5000E8D107C08A819B81213011F442D201C0BF
:100F600080D18091E800982F9B7F9093E8008F7745
:100F70008093E80030C0803869F58091E800877F71
:100F80008093E800809134018093F1008091E80023
:100F9000982F9E7F9093E8008F778093E8005DD034
:100FA0001AC08823B9F4909139019230A0F480914D
:100FB000E800877F8093E800909334014ED08091C1
:100FC0003401882311F483E001C084E0809336016A
:100FD000C0D901C070D98091E80083FF0AC0809118
:100FE000EB0080628093EB008091E800877F809324
:100FF000E800AD960FB6F894DEBF0FBECDBFCF911F
:10100000DF911F9108958093E9008091EB0081604A
:101010008093EB001092ED006093EC004093ED00A4
:101020008091EE00881F8827881F08951092F40091
:1010300090E09093E9001092F0001092E800809107
:10104000ED008D7F8093ED008091EB008E7F80938B
:10105000EB009F5F973069F70895809137018823EF
:10106000BCF404C0809136018823F9F08091E80037
:1010700082FFF8CF8091E800982F9B7F9093E80043
:101080008F778093E800089580913601882369F076
:101090008091E80080FFF8CF8091E800982F9E7F34
:1010A0009093E8008F778093E800089594E680910C
:1010B000EC0080FF05C08091E80080FF05C01FC0E4
:1010C0008091E80082FD1BC080913601882311F4D5
:1010D00082E008958091EB0085FF02C081E00895D1
:1010E0008091E10082FFE3CF8091E1008B7F8093CC
:1010F000E100992311F483E008959150D8CF80E066
:101100000895FF920F931F93CF93DF93EC018B0110
:10111000CDDFF82E8823F1F01FC08091E80085FD17
:1011200016C08091E800982F9B7F9093E8008F77FE
:101130008093E8000115110531F0F801099581301F
:1011400011F484E00AC0B2DF882321F006C0809148
:10115000F1002197209709F78F2DDF91CF911F91F3
:101160000F91FF900895DF92EF92FF920F931F93DC
:10117000CF93DF93182F092FEB017A0197DFD82E39
:10118000882339F5812F902F9C01890120C08091FF
:10119000E80085FD16C08091E800982F9E7F90930F
:1011A000E8008F778093E800E114F10431F0F70153
:1011B0000995813011F484E00DC078DF882339F07F
:1011C00009C0F80181918F018093F1002197209748
:1011D000F1F68D2DDF91CF911F910F91FF90EF9040
:1011E000DF900895DF92EF92FF920F931F93CF93BA
:1011F000DF93182F092FEB017A0158DFD82E8823AF
:1012000039F5812F902F9C01890120C08091E80041
:1012100085FD16C08091E800982F9B7F9093E80091
:101220008F778093E800E114F10431F0F70109951C
:10123000813011F484E00DC039DF882339F009C012
:101240008091F100F80181938F0121972097F1F6A9
:101250008D2DDF91CF911F910F91FF90EF90DF9037
:1012600008959C0140913D0150913E01461757075A
:1012700018F4F90160E043C06115710511F0AB018C
:10128000F8CF8091E800982F9E7F9093E8008F77A9
:101290008093E80040E050E0ECCF8091E80083FFCD
:1012A00002C081E008958091E80082FD32C0809103
:1012B00036018823A1F18091E80080FF20C02091B1
:1012C000F2003091F30007C081918093F10041500A
:1012D00050402F5F3F4F4115510519F0283031051F
:1012E00098F360E02830310509F461E08091E8006E
:1012F000982F9E7F9093E8008F778093E8004115A8
:10130000510559F6662349F604C0809136018823B9
:1013100031F08091E80082FFF8CF80E0089582E00C
:1013200008959C0140913D0150913E014617570799
:1013300010F460E044C06115710511F0AB01F9CF04
:101340008091E800982F9E7F9093E8008F7780939C
:10135000E80040E050E0EDCF8091E80083FF02C05C
:1013600081E008958091E80082FD33C080913601CC
:101370008823A9F18091E80080FF21C08091F200CC
:101380009091F30009C0F9012F5F3F4FE491E09382
:10139000F1004150504001964115510519F0883037
:1013A000910588F360E0089709F461E08091E80016
:1013B000982F9E7F9093E8008F778093E8004115E7
:1013C000510551F6662341F604C080913601882309
:1013D00031F08091E80082FFF8CF80E0089582E04C
:1013E0000895EF92FF920F931F93CF93DF939C0189
:1013F000E0903D01F0903E01E616F70610F440E063
:1014000047C06115710511F07B01F9CF8091E800AB
:10141000982F9E7F9093E8008F778093E800EE24CA
:10142000FF24EDCF8091E80083FF02C081E041C03E
:101430008091E80082FD36C0809136018823C1F199
:101440008091E80080FF24C0C091F200D091F300A9
:101450000CC089010F5F1F4FC901BBD58093F100FC
:101460000894E108F10821969801E114F10419F0BB
:10147000C830D10570F340E0289709F441E080912D
:10148000E800982F9E7F9093E8008F778093E80084
:10149000E114F10439F6442329F604C080913601A1
:1014A000882331F08091E80082FFF8CF80E001C00E
:1014B00082E0DF91CF911F910F91FF90EF900895FF
:1014C0007ED085D0109236011092340110923301F3
:1014D000109232018CE089BD89B5826089BD09B462
:1014E00000FEFDCF8091D800982F9F779093D80071
:1014F00080688093D8008091D70081608093D70066
:101500008091D8008F7D8093D8008091E0008B7F00
:101510008093E0008091E0008E7F8093E0008091D6
:10152000E1008E7F8093E1008091E20081608093F2
:10153000E2008091E100877F8093E1008091E200EA
:1015400088608093E2008091D80081608093D80009
:101550000895B6DFE0EEF0E0808181608083E8ED01
:10156000F0E080818F77808319BC80818F7E8083BB
:10157000109235010895E7EDF0E080818068808366
:101580009FDFE8EDF0E080818061808381E08093DF
:1015900035017894089508951F938091360188232A
:1015A00061F01091E9001092E9008091E80083FF5A
:1015B00001C0BCDB17701093E9001F910895E8ED9E
:1015C000F0E080818C7F80831092E2000895109279
:1015D000DA001092E10008951F920F920FB60F9259
:1015E0000BB60F921124EF92FF921F932F933F930C
:1015F0004F935F936F937F938F939F93AF93BF931B
:10160000EF93FF9389EEE82EF12CF701108117700C
:10161000C3DFE8EEF0E08081877F8083F7011083ED
:10162000FF91EF91BF91AF919F918F917F916F91BA
:101630005F914F913F912F911F91FF90EF900F90ED
:101640000BBE0F900FBE0F901F9018951F920F9218
:101650000FB60F920BB60F9211242F933F934F9317
:101660005F936F937F938F939F93AF93BF93EF930A
:10167000FF938091DA0080FF17C08091D80080FF2F
:1016800013C08091DA008E7F8093DA008091D900B8
:1016900080FF06C081E0809336010E94530104C0A0
:1016A000109236010E944D018091E10080FF1DC023
:1016B0008091E20080FF19C08091E1008E7F8093CD
:1016C000E1008091E2008E7F8093E2008091E20051
:1016D00080618093E2008091D80080628093D8007E
:1016E00019BC85E08093360156DF8091E10084FFCC
:1016F0002AC08091E20084FF26C08CE089BD89B5B4
:10170000826089BD09B400FEFDCF8091D8008F7D35
:101710008093D8008091E1008F7E8093E1008091DA
:10172000E2008F7E8093E2008091E20081608093EE
:10173000E20080913401882311F483E001C084E049
:101740008093360128DF8091E10083FF28C08091DB
:10175000E20083FF24C08091E100877F8093E10055
:1017600082E080933601109234018091E1008E7FF7
:101770008093E1008091E2008E7F8093E20080916F
:10178000E20080618093E20051DC80E060E042E0B2
:101790003ADC8091F00088608093F000FCDE80915C
:1017A000E10082FF0AC08091E20082FF06C08091C2
:1017B000E1008B7F8093E100EEDEFF91EF91BF911E
:1017C000AF919F918F917F916F915F914F913F91D9
:1017D0002F910F900BBE0F900FBE0F901F9018957A
:1017E00082B18A7A82B98AE18A95F1F78EE091E036
:1017F0000895282F98EC3AE104C09150832F8A95E0
:10180000F1F780B186958223861711F49923A9F701
:1018100080B190E086958223861391E0892F089508
:1018200080B18695282F30E0C90134E096958795E0
:101830003A95E1F78095817022FF826020FF8460F5
:101840000895662349F4E82FF0E0E45BFE4FE4914D
:1018500082B1E82BE2B90895262F30E0882341F4C5
:10186000245B3E4FF901849192B1809589230DC08C
:10187000E82FF0E0E45BFE4F4491245B3E4FF9011A
:10188000849192B180958923842B82B90895FF9227
:101890000F931F93E82FF0E0E45BFE4F0491662363
:1018A00011F410E00AC0102F08C00E943E018823E6
:1018B00061F08F2D8A95F1F702C04AE1F42E80B1D4
:1018C00086958023811789F381E01F910F91FF9006
:1018D0000895CF92DF92EF92FF920F931F93CF93D1
:1018E000DF93C82E82B18A7E82B9169A88EE93E081
:1018F00028EC30E0F9013197F1F70197D9F7169804
:10190000CCE4DDE165E8D62E5CE2E52E51E0F52E73
:1019100008EC10E082B18A7A82B98D2D8A95F1F7B0
:10192000059902C0C70106C08D2D8A95F1F705996A
:1019300004C0C8010197F1F70EC0109AC8010197C1
:10194000F1F7059B02C0109806C01098C8010197D6
:10195000F1F7059908C00E943E01882321F02197E4
:10196000C9F6CC20B9F6DF91CF911F910F91FF906E
:10197000EF90DF90CF9008956F927F928F929F9219
:10198000AF92BF92CF92DF92EF92FF920F931F938D
:10199000CF93DF935C0161E00E942F02EE24FF24CD
:1019A000A5E36A2EF5E07F2E88248394EAEB9E2E31
:1019B00075E8C72EC0E0D0E00CC083ECC035D80776
:1019C00071F00E943E01882351F02196862D8A9560
:1019D000F1F7039BF2CF80912E01882329F00E941A
:1019E000CF02EE24FF2450C0149898EC04C091500C
:1019F000872D8A95F1F7039B02C09923C1F7039BBA
:101A000007C080922E01149A892D8A95F1F71498B7
:101A1000F89484E064E0EDDE182FDD2400E011C0CE
:101A200084E060E0E6DE182F882339F006950599FA
:101A3000006884E064E0DDDE182FD39488E0D816D7
:101A400011F0112369F77894112361F0149A802F13
:101A50000E9444028823B1F40894E11CF11C8C2DEF
:101A60008A95F1F7A895EA14FB0441F0112341F09F
:101A700080912E01882309F49DCF04C0112311F415
:101A8000EE24FF240E94CF02C701DF91CF911F9166
:101A90000F91FF90EF90DF90CF90BF90AF909F900D
:101AA0008F907F906F9008955F926F927F928F9248
:101AB0009F92AF92BF92CF92DF92EF92FF920F93DD
:101AC0001F93DF93CF930F92CDB7DEB77C01D62E55
:101AD00010922E01009709F49AC060E00E942F0234
:101AE00081E460E086DE8823B9F0149832E0C32EEA
:101AF000CD20D1FC02C094E001C095E082B1982BCA
:101B000092B985E08A95F1F780E160E172DE882381
:101B100031F482B18A7F82B90E94CF0278C08AE60E
:101B20008A95F1F787014E010894811C911C28ECDD
:101B3000522E95E0692E85E3782EB8ECAB2EB12CB1
:101B4000059940C0129805C00E943E01882309F4FF
:101B500039C0059BF9CF6FC0CC2031F480E160E142
:101B600048DE80E160E045DE129AC4010E9469020D
:101B7000882341F5298198E0852D8A95F1F720FD8C
:101B800004C0149A862D8A95F1F71298872D8A95AC
:101B9000F1F782B18F7E846082B9915011F0269561
:101BA000EBCF80E160E125DE882361F00150104039
:101BB000C5010197F1F7A8950115110509F0C0CFEE
:101BC000870102C000E010E00E94CF02011511055C
:101BD000B9F0D0FE13C082B18E7F806182B981E0FE
:101BE0008A95F1F7129885E08A95F1F704C00E9472
:101BF0003E01882361F00399FACF0BC0109809C009
:101C000085E38A95F1F782B18A7F82B902C000E04C
:101C100010E0C8010F90CF91DF911F910F91FF90BD
:101C2000EF90DF90CF90BF90AF909F908F907F907C
:101C30006F905F9008950130110509F095CF8CCF1A
:101C4000CF92DF92EF92FF920F931F9308E010E084
:101C500095E0C92EDD24D39404C00E943E01882360
:101C600099F1059BFACF12988C2D8A95F1F780B1E6
:101C70008695869586958D25FF24F394F82280FD20
:101C800002C0EE2402C080E8E82E149A04C00E942C
:101C90003E018823C9F080B18695869586958D256D
:101CA0008170F816A1F314988C2D8A95F1F704C071
:101CB0000E943E01882341F00599FACF16951E290E
:101CC000129A015011F0CDCF1FEF812F1F910F916C
:101CD000FF90EF90DF90CF900895FF920F931F93A6
:101CE000182F08E025E0F22E17FF02C0149A01C059
:101CF00014988F2D8A95F1F712988F2D8A95F1F708
:101D000004C00E943E01882301F10399FACF17FF16
:101D100002C0149806C0149A04C00E943E01882391
:101D2000A1F0039BFACF82B18F7E846082B98F2DA0
:101D30008A95F1F704C00E943E01882331F005998D
:101D4000FACF015011F0110FCFCF1F910F91FF90DB
:101D50000895EF92FF920F931F9310E004E095E037
:101D6000E92E04C00E943E01882319F1039BFACF9B
:101D70008E2D8A95F1F7059B02C0FF2402C080E8F2
:101D8000F82E109804C00E943E01882391F0039918
:101D9000FACF8E2D8A95F1F7059B02C080E001C035
:101DA00080E816951F291695182B109A015011F0EE
:101DB000DDCF1FEF812F1F910F91FF90EF900895BE
:101DC000FF920F931F93182F04E025E0F22E10FFCF
:101DD00002C0149A01C014988F2D8A95F1F71098BB
:101DE00004C00E943E018823D9F0039BFACF1695C8
:101DF00010FF02C0149A01C014988F2D8A95F1F734
:101E0000109A04C00E943E01882351F00399FACF32
:101E1000015011F01695DBCF149885E08A95F1F703
:101E20001F910F91FF900895CF93DF93EC0104C0B1
:101E30000E943E01882399F00599FACF17B818B887
:101E400086B18883129804C00E943E01882339F02D
:101E5000059BFACF17B818B886B18983129ADF911B
:101E6000CF910895CF93DF93EC0104C00E943E010F
:101E70008823C9F00599FACF98818FEF87B998B96F
:101E800081E08A95F1F7129804C00E943E018823F0
:101E900051F0059BFACF99818FEF87B998B981E00E
:101EA0008A95F1F7129ADF91CF9108951F931298B6
:101EB00004C00E943E01882371F0059BFACF17B839
:101EC00018B816B1129A04C00E943E01882319F076
:101ED0000599FACF01C01FEF812F1F9108959FEF41
:101EE00097B988B981E08A95F1F7129804C00E94E9
:101EF0003E01882351F0059BFACF129A04C00E943C
:101F00003E01882311F00599FACF089582B18B7EA6
:101F1000816082B98DE08A95F1F7059BFECF82E062
:101F20008A95F1F717B818B886B110980599FECFC1
:101F30009DE09A95F1F70895FC0191E080B18295BA
:101F400086958770892781708617C1F717B818B8EA
:101F500086B1808380E00895982F82B18B7E816066
:101F600082B98DE08A95F1F7059BFECF8FEF87B997
:101F700098B982E08A95F1F710988AE18A95F1F78D
:101F80000599FECF17B818B886B10895982F21E0AB
:101F900080B1829586958770822781708617C1F7F8
:101FA0008FEF87B998B980E00895AA1BBB1B51E158
:101FB00007C0AA1FBB1FA617B70710F0A61BB70BB9
:101FC000881F991F5A95A9F780959095BC01CD015E
:101FD0000895F999FECF92BD81BDF89A992780B5F1
:061FE0000895F894FFCF04
:101FE6000304000F08033000300030000000690CC5
:0E1FF600540DBC0C470C100C210C0055AAFF1A
:00000001FF
