:10000000B1C00000CBC00000C9C00000C7C00000E4
:10001000C5C00000C3C00000C1C00000BFC00000D8
:10002000BDC00000BBC00000B9C000000C94970D1B
:100030000C94610DB3C00000B1C00000AFC000005F
:10004000ADC00000ABC00000A9C00000A7C0000008
:10005000A5C00000A3C00000A1C000009FC0000018
:100060009DC000009BC0000099C0000097C0000028
:1000700095C0000093C0000091C000008FC0000038
:100080008DC000008BC0000089C0000087C0000048
:1000900085C0000083C0000012011001FF000008AD
:1000A000D016040506020102030109022000010125
:1000B0000080320904000002FF00000007058302EF
:1000C00020000007050402200000040309043A038D
:1000D0004E0061007400650020004C006100770054
:1000E00073006F006E00200061006E00640020004D
:1000F0004F00700065006E00430042004D0020007C
:100100007400650061006D00000048037800750010
:100110006D003100350034003100200066006C00B5
:100120006F007000700079002000610064006100C1
:100130007000740065007200200028005A004F0013
:100140004F004D0046004C004F0050005000590039
:100150002900000000080109808881894048414940
:10016000C0C8C1C911241FBECFEFD4E0DEBFCDBFD0
:1001700011E0A0E0B1E0E6EDF4E202C005900D92DE
:10018000AA32B107D9F711E0AAE2B1E001C01D928D
:10019000A235B107E1F7F3D00C94691231CFA9EE83
:1001A000B0E09C91977081E08093420184E08C9351
:1001B000EBEEF0E080818062808383E08C9380812D
:1001C000806280839C9308952091E900E0E0F1E053
:1001D00041E050E01BC08093E900BA0102C0660F05
:1001E000771F8A95E2F76093EA001092EA00809107
:1001F000EB0088608093EB008091EB0085FF05C0E9
:100200008091EB0080618093EB00319680818823A0
:1002100011F727702093E900089580914201089515
:1002200023E02093E90070E04DE051E00E94470B8D
:1002300080914201882311F080E008958091E800C8
:10024000982F9E7F9093E8008F778093E80081E05D
:10025000089524E02093E90070E04DE051E00E9411
:10026000860B80914201882311F080E008958091EF
:10027000E800982F9B7F9093E8008F778093E800A9
:1002800081E00895A89580914201882311F080E0D3
:1002900008953CD5882311F481E008952DD581E09F
:1002A000089510922A011092400180E011C581E06A
:1002B0000FD51092420181E080932A0108950F9397
:1002C0001F93DF93CF93CDB7DEB728970FB6F8947F
:1002D000DEBF0FBECDBF80914A018076803299F596
:1002E0008E010F5F1F4F88E0F80111928A95E9F7A0
:1002F00080914B01B801AED3682F8F3F19F484E091
:10030000E7D421C08091E800877F8093E800809146
:100310004A0187FF0BC0772767FD7095C8010E94CF
:10032000C50B8091E800982F9B7F08C08091E80062
:1003300080FFFCCF8091E800982F9E7F9093E8008B
:100340008F778093E80028960FB6F894DEBF0FBE33
:10035000CDBFCF91DF911F910F91089535DF83E0DD
:1003600061E846E20E94970A84E060E846E20E9463
:10037000970A82E0ADD481E0809340010895DF9236
:10038000EF92FF920F931F93DF93CF93CDB7DEB71A
:1003900027970FB6F894DEBF0FBECDBF80E090E088
:1003A00020E80FB6F89420936100809361000FBE9F
:1003B0002EE088E190E00FB6F894A8958093600055
:1003C0000FBE209360000E94410D01C0A89580914E
:1003D0002A018823D9F341D480E07AD429D394E048
:1003E000E92EF12CEC0EFD1E83E0D82E8E010F5F5E
:1003F0001F4FA8952FC080914901843031F580931B
:10040000E9008091E80085FF20C0C70164E021DF9A
:10041000882319F484E05CD418C0F8018D2D119262
:100420008A95E9F7C701B8013BD118162CF48983E6
:10043000C80163E0F5DE09C0882339F084E048D4C0
:100440008091EB0080628093EB001CDF882311F425
:100450001092420180914001882369F601C0A8955D
:1004600080912A01882309F0C4CFF9CF9C01613023
:1004700011F483E003C0662369F484E08093E9000B
:1004800030932D0120932C01609303018091E800AB
:1004900085FFFCCF08958093F10080912C0190910D
:1004A0002D01019790932D0180932C018091E800FC
:1004B00085FD11C08091E800982F9E7F9093E80001
:1004C0008F778093E8008091E80085FD04C08091DB
:1004D00042018823C1F38091420181118FEF089579
:1004E000FC018091E80085FD11C08091E800982F03
:1004F0009B7F9093E8008F778093E8008091E800DD
:1005000085FD04C0809142018823C1F3809142019E
:10051000882311F08FEF08958091F10080838091FE
:100520002C0190912D01019790932D0180932C0126
:1005300080E0089580913001882311F088E80895C3
:100540000C940012282F80913001882351F0E09103
:100550003501F09136012193F0933601E093350196
:10056000089590912B01943061F4822F8350833051
:1005700010F02B3019F481E08093300110922B01A0
:1005800012C0E92FF0E0EA5DFE4F8081821721F46E
:100590009F5F90932B0107C010922B01222319F427
:1005A00081E080932B01822F0C942512809103010E
:1005B000813079F48091F200882331F480912C010C
:1005C00090912D01892BF1F08091E800982F9E7F6A
:1005D00014C08823B9F480912C0190912D010097CB
:1005E00021F06DE071E00E94150B8091E80085FD1F
:1005F00009C08091E800982F9B7F9093E8008F7747
:100600008093E8008FE08093030110922D011092F7
:100610002C0108950F931F93CF93DF938C01EB016F
:10062000CB0161E023DF06C0F801099534DF219793
:10063000882311F42097C1F7B9DF80E0DF91CF91D3
:100640001F910F910895CF92DF92EF92FF920F9337
:100650001F93DF93CF930F92CDB7DEB77C018B0151
:10066000CB0160E003DF6E010894C11CD11C09C0FE
:10067000C60136DF01501040882331F48981F7012B
:10068000099501151105A1F791DF80E00F90CF9139
:10069000DF911F910F91FF90EF90DF90CF90089521
:1006A000AF92BF92CF92DF92EF92FF920F931F9380
:1006B000DF93CF9300D00F92CDB7DEB76C015B0113
:1006C000DC011C911296ED90FC90139783E000D30F
:1006D0001A3109F47EC11B3190F4173109F438C185
:1006E000183130F41830F1F0193009F092C195C08A
:1006F000183109F43AC1193109F08BC162C11D31B9
:1007000009F450C11E3138F41B3109F442C11C31C7
:1007100009F07FC12DC11E3109F466C11F3109F0F6
:1007200078C16BC180912F0184FD18C0F6018181D1
:10073000807F803419F1813440F48032C9F08033F5
:10074000D1F0803109F065C109C08036B1F1803740
:1007500009F45EC0803509F05CC12CC0E091430112
:10076000F09144010480F581E02DC70109954FC146
:1007700080EA90E14FC083E291E14CC0C70161E0A3
:1007800075DE8E010E5F1F4F11C0C8010E948E11D1
:100790008A8181DE882309F0D4C08B817CDE8823A6
:1007A00009F0CFC08EEF9FEFE80EF91EE114F104BF
:1007B00061F7C7C080ED91E12DC0E114F10409F4A7
:1007C00026C110923001C70161E050DE5B9880E4E1
:1007D0009CE90197F1F70E94001200E010E06E0121
:1007E0000894C11CD11C0DC0602F6170C6010E940D
:1007F000161287FD0CC189814EDE882329F40F5F14
:100800001F4F0E151F0580F3D1DE0E940012FFC09E
:100810008AE992E0B701FEDEFAC080912F0184FDE3
:100820001AC0D60111968C91807F803449F18134B1
:1008300040F48032F9F0803301F1803109F0E9C0F1
:100840000AC0803609F440C0803709F47CC0803586
:1008500009F0DFC036C0E0914301F0914401D601B8
:1008600011966C916F700280F381E02DC70109959C
:10087000F50178C089EE90E168C08AE591E165C034
:10088000C70160E0F3DD8E010E5F1F4F83E0C82ECD
:10089000D12CCC0EDD1E11C0C80122DE882309F048
:1008A00050C0C6011DDE882309F04BC0C8010E945C
:1008B000AC118EEF9FEFE80EF91EE114F10461F721
:1008C00040C089EE91E141C0E114F10409F49FC0F8
:1008D00010923001C70160E0C9DD5B9801E311E0CF
:1008E00005C0D8018D918D010E942512809135019E
:1008F0009091360108171907A1F781E391E09093D1
:1009000036018093350100E010E06E010894C11CAF
:10091000D11C0DC0C601E4DD882361F4602F617035
:1009200089810E943F1287FD72C00F5F1F4F0E1515
:100930001F0580F3602F617080E00E943F120E94CB
:10094000001234DE64C082EA92E0B7017CDE5FC050
:1009500080914101F50112821182882309F455C06A
:1009600081E090E09283818350C0109241014DC09C
:10097000E0914301F09144010680F781E02DD6011A
:1009800011968C91119712966C910995882309F410
:100990003EC0E0914301F09144010084F185E02DD7
:1009A000099527C0E0914301F09144010284F38549
:1009B000E02DD60111968C91119712966C910995A4
:1009C00024C080912F0184FD24C014B815B883B1D0
:1009D00010C080912F0184FD1CC0D60111969C91FE
:1009E0008FEF84B995B911C080912F0184FD11C09A
:1009F000A1DDF5018183128208C080912F0184FD61
:100A000008C0D60111968C919DDD82E003C080E084
:100A100001C08FEF0F900F900F90CF91DF911F913A
:100A20000F91FF90EF90DF90CF90BF90AF9008951F
:100A300010922F01C2D19C01009731F080912F01BB
:100A4000806180932F0104C017D10E94430E9C0146
:100A5000C9010895CF93DF93EB01823009F482C07E
:100A6000833038F4882309F438C0813009F084C019
:100A700037C0833009F470C0843009F07DC08091A4
:100A8000E800877F8093E8008091E80080FFFCCF3A
:100A90008091E800982F9E7F9093E8008F77809355
:100AA000E80088EE93E020E931E0F9013197F1F7B1
:100AB0000197D9F788E10FB6F894809360001092FF
:100AC00060000FBECFD7F894109281001092890079
:100AD000109288000C94001C43C0188281E04DC025
:100AE00081E391E0909336018093350183E0F0D06B
:100AF0008091430190914401892B29F499DF9093CF
:100B00004401809343018091430190914401892BDA
:100B100099F186E0888383E0898390912F019A83FD
:100B200080912E01882361F091609A83E0914301C6
:100B3000F09144010190F081E02D80E009952FDBD8
:100B400080914001882319F48A8182608A8381E040
:100B500080932E0188E011C010922E0182E0B8D05F
:100B600080E00BC0E0914301F09144010190F081DD
:100B7000E02D80E00995F4CF8FEFDF91CF910895BC
:100B80000F931F93CF93DF938A01E9011882292FD6
:100B900033272230310561F02330310571F02130E7
:100BA000310509F04DC0E8E9F0E022E130E04CC049
:100BB000EAEAF0E020E230E047C090708130910531
:100BC00071F08130910538F08230910561F0039722
:100BD00009F036C00EC0EAECF0E0849107C0EEECFC
:100BE000F0E0849103C0EAE0F1E08491282F30E046
:100BF0002BC080E090E00E946112282F30E0209509
:100C000030953070EAE0F1E00FC0C9016AE070E0B1
:100C10000E944D12C09691838083C9016AE070E002
:100C20000E944D129B0132972115310571F7809179
:100C30000401282F30E082E08883E4E0F1E004C082
:100C4000E0E0F0E020E030E0D801ED93FC93C90152
:100C5000DF91CF911F910F91089518B884E087B963
:100C60008AE196E09093890080938800E1E8F0E0C3
:100C700080818D608083089518B81BB884E887B997
:100C800089E58AB915B814B8089529B189B149B16F
:100C900066B1E6B190E0827090709595879530E0EE
:100CA0002072307035952795822B50E0447050703B
:100CB000440F551F842B70E060747070660F771FAF
:100CC000862BF0E0E078F070F595E7958E2B08958F
:100CD00080933701823051F0833018F4882341F03B
:100CE0000895833029F0843031F404C04298089587
:100CF000429A0895429A0895809137018350823034
:100D000020F488B194E0892788B90895B19902C088
:100D100080E00895B19A81E0089585E38A95F1F71E
:100D2000809138018F5F80933801843688F010926B
:100D3000380180913A0190913B01892B49F08091D3
:100D40003A0190913B01019790933B0180933A01C6
:100D5000A89580913A0190913B0120E0892B09F4FC
:100D600021E0822F089514B88FEF85B947983F9AF4
:100D70003E98469A3C98449A3D98459A5E98569A71
:100D800057985F9A5C98549A55985D9A3A98429A07
:100D90005B98539A52985A9A5898509A5198599ADF
:100DA0001092390110923E0110923F018FEF9FEF98
:100DB00090933D0180933C010895D5DF80E991E057
:100DC000FC013197F1F744983C9A45983D9A3C983C
:100DD00044983D9845980197F1F7349B06C0359BA0
:100DE00004C0C1DF2EE031E002C020E030E0C901E4
:100DF000089589B18695869580958170499B82601A
:100E0000369B84604F9B8860349B8061359B8062F9
:100E1000089581E008950895982F3C98449A499B3D
:100E20000AC04A9B08C080913901806880933901CB
:100E300091E026C0A895499BFDCF14B8892F8095D5
:100E400085B994B98AE18A95F1F744983C9A81E48E
:100E500090E090933B0180933A010AC05EDF8823C3
:100E600039F08091390181608093390191E003C0AC
:100E70004A9BF4CF90E03C98449A14B88FEF85B920
:100E8000892F08951F93182F58985B9880913C01E3
:100E900090913D0197FD0CC045983D9ABDDF3D986E
:100EA000459A8FEF9FEF90933D0180933C0112C0D4
:100EB0008FEF90E090933B0180933A0109C02DDFC2
:100EC000882331F0809139018460809339010CC00E
:100ED000349BF5CF479A88E691E00197F1F7812F8F
:100EE0009BDF882311F0479881E01F91089594DFDC
:100EF000982F882319F481E080933E014798892F29
:100F000008958FE3BFDF4798E8E6F1E03197F1F706
:100F100010923E0108952F923F924F925F926F92EE
:100F20007F928F929F92AF92BF92CF92DF92EF9279
:100F3000FF920F931F93CF93DF93582E14DF5E9A87
:100F400082E390E090933B0180933A01E6DE8823B0
:100F5000E9F35E98CCE4DDE1F5E34F2EE8EC6E2E8C
:100F6000712C78E0872E72E0972E61E0A62EB12CCE
:100F70002224239450E9C52E51E0D52E40EA342E88
:100F800030EDE32E32E0F32E08EF12E0842D8A9547
:100F9000F1F7499B02C04A9902C0C8010AC0479AAA
:100FA000842D8A95F1F7499B07C04A9B05C0479855
:100FB000C7010197F1F723C04798C3010197F1F7E3
:100FC000499B02C04A990BC0C6010197F1F7499BA2
:100FD00002C04A9904C0832D8A95F1F710C0C4015C
:100FE0000197F1F7499B0BC089B190E096958795E1
:100FF000969587958A259B258170821549F442D95B
:10100000882331F0219709F0C1CF552009F0BECFD8
:10101000DF91CF911F910F91FF90EF90DF90CF90D4
:10102000BF90AF909F908F907F906F905F904F9008
:101030003F902F9008959F92AF92BF92CF92DF92F0
:10104000EF92FF920F931F93CF93DF936C0161E0B8
:101050000DDA1092390110924101C0E0D0E005E0B4
:10106000A1E4AA2EB12C99249394EE24FF2410918C
:1010700039011D7F1093390180914101882381F44A
:101080005B9A5898B0923B01A0923A01349B0AC0F7
:1010900044DE8823D9F31260109339015B9A589A81
:1010A00090E017C0802F8A95F1F783B1359905C07C
:1010B00010641093390190924101589A902F9A959B
:1010C000F1F75B9801C0A895349BFDCF982F9095C0
:1010D0005B9A8091390181FF0FC084E1E816F10429
:1010E00019F0D0D8882321F461DAC0E0D0E013C031
:1010F0000894E11CF11CBBCF892FCDD9882351F472
:101100002196A895CC15DD0529F080914101882311
:1011100009F4ABCF4BDACE01DF91CF911F910F9144
:10112000FF90EF90DF90CF90BF90AF909F90089589
:10113000AF92BF92CF92DF92EF92FF920F931F93E5
:10114000DF93CF9300D00F92CDB7DEB76C01162F8F
:10115000109241011092390160E088D911FF7BC0E3
:10116000C114D10409F477C0CE010296B9D98823FD
:1011700009F097C076010894E108F108E114F10440
:1011800021F08A818F718F3181F48A8186FF09C0B5
:101190008FE578DE479888E691E00197F1F71092A5
:1011A0003F018A8185FF70C040C0CE01039698D967
:1011B000882309F076C010FF16C01B818A818F71C9
:1011C000806460DE882361F41F70812F806624DED6
:1011D000882329F4589A5B9A81E080933F014798CD
:1011E000EE24FF2451C00894E108F10883E0E816DA
:1011F000F10408F049C01B81812F90E0807F90703E
:10120000803E910541F0803F910589F0803691053F
:1012100009F03AC015C08A818F71806233DE88235D
:1012200021F41F70812F806E62DE6BDE2DC08A81FB
:101230008F71806227DE882339F5812F806F09C086
:101240008A818F7180621EDE8823F1F41F71812FE5
:1012500080664DDE19C0760117C0C50141D98823CB
:10126000E1F4198180913C0190913D0197FD03C00B
:10127000D3DD882391F410933C0110923D01089432
:10128000E108F108A89504C05E010894A11CB11CF6
:10129000E114F10411F7860102C000E010E086D9E4
:1012A00002C000E010E0C8010F900F900F90CF91A6
:1012B000DF911F910F91FF90EF90DF90CF90BF9043
:1012C000AF9008951F93DF93CF9300D00F92CDB7C7
:1012D000DEB7EAE4F1E08091F100819381E0E2354C
:1012E000F807C9F780914A0130914B01353009F474
:1012F00086C0363040F43130C1F1313070F03330D7
:1013000009F0FEC032C0383009F4CAC0393009F4DF
:10131000DDC0363009F0F4C091C0803821F0823849
:1013200009F0EEC008C090914501809146018823E4
:1013300091F0926010C080914E018093E9008091FD
:10134000EB0090E025E0969587952A95E1F7982F98
:1013500091701092E9008091E800877F8093E80007
:101360009093F1001092F100A6C0882319F082300A
:1013700009F0C6C090E08F719070009721F002973D
:1013800009F0C0C00CC080914C01813009F0BAC096
:1013900010924601333069F5809346012AC080914E
:1013A0004C01882331F520914E01277009F4AAC021
:1013B0002093E9008091EB0080FF1BC0333021F4C3
:1013C0008091EB00806213C08091EB00806180937C
:1013D000EB0081E090E002C0880F991F2A95E2F7A8
:1013E0008093EA001092EA008091EB00886080937D
:1013F000EB001092E9008091E800877F63C08823AA
:1014000009F07EC010914C018091E800877F8093A5
:10141000E800B7D005C080914901882309F472C063
:101420008091E80080FFF7CF912F9F7719F083E03C
:101430008093490190689093E30064C080588230A3
:1014400008F05EC080914C0190914D0160914E0179
:10145000AE014E5F5F4F9E012F5F3F4F91DBBC019E
:10146000009709F44FC08091E800877F8093E800DF
:101470002981222321F48A819B81E7D107C08A81B7
:101480009B81213011F440D201C07FD18091E800CE
:10149000982F9B7F9093E8008F778093E80032C06D
:1014A000803871F58091E800877F8093E800809113
:1014B00047018093F1008091E800982F9E7F9093E0
:1014C000E8008F778093E8005CD01CC08823C1F4CB
:1014D00090914C019230B0F48091E800877F809326
:1014E000E800909347014DD080914701882311F483
:1014F00083E001C084E0809349010E94AE0102C0F4
:101500000E945F018091E80083FF0AC08091EB0098
:1015100080628093EB008091E800877F8093E800F1
:101520000F900F900F90CF91DF911F9108958093AE
:10153000E9008091EB0081608093EB001092ED0058
:101540006093EC004093ED008091EE00881F8827A7
:10155000881F08951092F40090E09093E900109293
:10156000F0001092E8008091ED008D7F8093ED00F7
:101570008091EB008E7F8093EB009F5F953069F741
:10158000089580914A018823BCF404C080914901E8
:101590008823F9F08091E80082FFF8CF8091E8007D
:1015A000982F9B7F9093E8008F778093E8000895B1
:1015B00080914901882369F08091E80080FFF8CF8D
:1015C0008091E800982F9E7F9093E8008F7780931A
:1015D000E800089594E68091EC0080FF05C08091BA
:1015E000E80080FF05C01FC08091E80082FD1BC09D
:1015F00080914901882311F482E008958091EB00E5
:1016000085FF02C081E008958091E10082FFE3CF71
:101610008091E1008B7F8093E100992311F483E0B6
:1016200008959150D8CF80E00895FF920F931F93B3
:10163000CF93DF93EC018B01CDDFF82E8823F1F0FF
:101640001FC08091E80085FD16C08091E800982FAA
:101650009B7F9093E8008F778093E8000115110538
:1016600031F0F8010995813011F484E00AC0B2DF4D
:10167000882321F006C08091F1002197209709F777
:101680008F2DDF91CF911F910F91FF900895DF92E1
:10169000EF92FF920F931F93CF93DF93182F092F91
:1016A000EB017A0197DFD82E882339F5812F902F0F
:1016B0009C01890120C08091E80085FD16C08091C1
:1016C000E800982F9E7F9093E8008F778093E80042
:1016D000E114F10431F0F7010995813011F484E04F
:1016E0000DC078DF882339F009C0F80181918F019E
:1016F0008093F10021972097F1F68D2DDF91CF9106
:101700001F910F91FF90EF90DF900895DF92EF927D
:10171000FF920F931F93CF93DF93182F092FEB01A5
:101720007A0158DFD82E882339F5812F902F9C011C
:10173000890120C08091E80085FD16C08091E800F5
:10174000982F9B7F9093E8008F778093E800E114B7
:10175000F10431F0F7010995813011F484E00DC0F6
:1017600039DF882339F009C08091F100F8018193B5
:101770008F0121972097F1F68D2DDF91CF911F9149
:101780000F91FF90EF90DF9008959C0140915001E0
:10179000509151014617570718F4F90160E043C012
:1017A0006115710511F0AB01F8CF8091E800982F19
:1017B0009E7F9093E8008F778093E80040E050E0B0
:1017C000ECCF8091E80083FF02C081E00895809112
:1017D000E80082FD32C0809149018823A1F1809107
:1017E000E80080FF20C08091F200282F30E007C081
:1017F00081918093F100415050402F5F3F4F411540
:10180000510519F02830310598F360E02830310592
:1018100009F461E08091E800982F9E7F9093E800A2
:101820008F778093E8004115510559F6662349F6F4
:1018300004C080914901882331F08091E80082FF43
:10184000F8CF80E0089582E008959C014091500116
:10185000509151014617570710F460E043C06115DD
:10186000710511F0AB01F9CF8091E800982F9E7FB0
:101870009093E8008F778093E80040E050E0EDCF50
:101880008091E80083FF02C081E008958091E80024
:1018900082FD32C0809149018823A1F18091E80046
:1018A00080FF20C08091F20090E009C0F9012F5F15
:1018B0003F4FE491E093F1004150504001964115B3
:1018C000510519F08830910588F360E0089709F414
:1018D00061E08091E800982F9E7F9093E8008F77D9
:1018E0008093E8004115510559F6662349F604C076
:1018F00080914901882331F08091E80082FFF8CF80
:1019000080E0089582E00895EF92FF920F931F9375
:10191000CF93DF939C01E0905001F0905101E616C7
:10192000F70610F440E047C06115710511F07B0126
:10193000F9CF8091E800982F9E7F9093E8008F77F1
:101940008093E800EE24FF24EDCF8091E80083FF30
:1019500002C081E041C08091E80082FD36C08091E4
:1019600049018823C1F18091E80080FF24C0809163
:10197000F200C82FD0E00CC089010F5F1F4FC901D2
:10198000A0D58093F1000894E108F1082196980110
:10199000E114F10419F0C830D10570F340E0289744
:1019A00009F441E08091E800982F9E7F9093E80031
:1019B0008F778093E800E114F10439F6442329F687
:1019C00004C080914901882331F08091E80082FFB2
:1019D000F8CF80E001C082E0DF91CF911F910F919D
:1019E000FF90EF90089567D069D01092490110924E
:1019F0004701109246011092450184E089BD89B5E6
:101A0000826089BD09B400FEFDCF8091D800982F77
:101A10009F779093D80080688093D800809163006E
:101A20008E7F809363008091D8008F7D8093D80053
:101A30008091E0008E7F8093E0008091E1008E7FB6
:101A40008093E1008091E20081608093E2008091C8
:101A5000E100877F8093E1008091E20088608093BD
:101A6000E2000895C0DFE0EEF0E0808181608083D5
:101A7000E8EDF0E080818F77808319BC10924801F7
:101A80000895B1DF81E08093480178940895089526
:101A90001F9380914901882361F01091E900109211
:101AA000E9008091E80083FF01C00CDC17701093FF
:101AB000E9001F9108951092E20008951092E1004C
:101AC00008951F920F920FB60F921124EF92FF927A
:101AD0001F932F933F934F935F936F937F938F93B6
:101AE0009F93AF93BF93EF93FF9389EEE82EF12C72
:101AF000F70110811770CCDFE8EEF0E08081877F7E
:101B00008083F7011083FF91EF91BF91AF919F9177
:101B10008F917F916F915F914F913F912F911F9185
:101B2000FF90EF900F900FBE0F901F9018951F928F
:101B30000F920FB60F9211242F933F934F935F9301
:101B40006F937F938F939F93AF93BF93EF93FF9385
:101B50008091E10080FF1DC08091E20080FF19C0EC
:101B60008091E1008E7F8093E1008091E2008E7F82
:101B70008093E2008091E20080618093E200809196
:101B8000D80080628093D80019BC109249010E944D
:101B900051018091E10084FF2BC08091E20084FF1D
:101BA00027C084E089BD89B5826089BD09B400FE83
:101BB000FDCF8091D8008F7D8093D8008091E10087
:101BC0008F7E8093E1008091E2008F7E8093E2001F
:101BD0008091E20081608093E20080914701882338
:101BE00011F481E001C084E0809349010E94570113
:101BF0008091E10083FF28C08091E20083FF24C030
:101C00008091E100877F8093E10082E08093490129
:101C1000109247018091E1008E7F8093E1008091D6
:101C2000E2008E7F8093E2008091E20080618093E9
:101C3000E20090DC80E060E042E079DC8091F0003E
:101C400088608093F00023DF8091E10082FF0AC06A
:101C50008091E20082FF06C08091E1008B7F80933B
:101C6000E10015DFFF91EF91BF91AF919F918F91AF
:101C70007F916F915F914F913F912F910F900FBE88
:101C80000F901F90189547988BB1867B8BB985E391
:101C90008A95F1F78AE191E00895662379F4E82FB7
:101CA000F0E0EC5AFE4FE491E7FF02C0479AEF776D
:101CB000EE2399F18BB1E82BEBB90895262F30E094
:101CC000882379F42C5A3E4FF901649167FF02C0D2
:101CD00047986F77662309F18BB1609568236BB9DC
:101CE0000895E82FF0E0EC5AFE4F94912C5A3E4FA5
:101CF000F901649197FF02C0479A9F77992319F0E1
:101D00008BB1982B9BB967FF02C047986F7766230A
:101D100021F08BB1609568236BB908950E94450648
:101D2000482F282F30E0C90133E0969587953A95E2
:101D3000E1F78095817040FF826047FF84600895DD
:101D4000EF92FF920F931F93082FF62E18EC45E3A6
:101D5000E42E04C011508E2D8A95F1F70E9445069D
:101D600080238F1511F41123A9F70E94450690E0F6
:101D700008230F1191E0892F1F910F91FF90EF9091
:101D80000895FF920F931F93E82FF0E0EC5AFE4F57
:101D90000491662311F410E00AC0102F08C00E94BD
:101DA0004201882361F08F2D8A95F1F702C055E337
:101DB000F52E0E9445068023811789F381E01F914B
:101DC0000F91FF900895BF92CF92DF92EF92FF9212
:101DD0000F931F93CF93DF93B82E47988BB1867FD5
:101DE0008BB95E9A8CE291E020E931E0F9013197FC
:101DF000F1F70197D9F75E98CCE4DDE178ECE72EB6
:101E0000F12C68E5C62E62E0D62E00E911E0479875
:101E10008BB1867B8BB9C7010197F1F74A9902C054
:101E2000C60106C0C7010197F1F74A9904C0C8016D
:101E30000197F1F70EC0479AC8010197F1F74A9B45
:101E400002C0479806C04798C8010197F1F74A9920
:101E500008C00E944201882321F02197C1F6BB20CF
:101E6000B1F6DF91CF911F910F91FF90EF90DF902E
:101E7000CF90BF9008954F925F926F927F928F9212
:101E80009F92AF92BF92CF92DF92EF92FF920F9309
:101E90001F93CF93DF935C0161E00E943602EE2432
:101EA000FF24BAE64B2EAAE05A2ECC24C394F8E1C4
:101EB0006F2EF1E07F2EE8EC8E2E912CC0E0D0E06A
:101EC0000CC083ECC035D80771F00E944201882312
:101ED00051F02196842D8A95F1F7499BF2CF80919C
:101EE0004101882329F00E94D602EE24FF2450C02D
:101EF0005B9898EC04C09150852D8A95F1F7499B29
:101F000002C09923C1F7499B07C0C09241015B9A67
:101F1000C3010197F1F75B98F89481E061E010DF6D
:101F2000182FDD2400E011C081E060E009DF182FE8
:101F3000882339F006954A99006881E061E000DF66
:101F4000182FD39488E0D81611F0112369F77894EC
:101F5000112361F05B9A802F0E944B028823B1F419
:101F60000894E11CF11CC4010197F1F7A895EA144B
:101F7000FB0441F0112341F080914101882309F4D1
:101F80009DCF04C0112311F4EE24FF240E94D60239
:101F9000C701DF91CF911F910F91FF90EF90DF90DC
:101FA000CF90BF90AF909F908F907F906F905F90F9
:101FB0004F9008954F925F926F927F928F929F926F
:101FC000AF92BF92CF92DF92EF92FF920F931F9347
:101FD000DF93CF930F92CDB7DEB77C01D62E109250
:101FE0004101009709F492C060E00E94360280EC43
:101FF00060E0A6DE882389F05B9842E0C42ECD2005
:10200000D1FC479A589A8AE08A95F1F788E068E00F
:1020100097DE882329F4479858980E94D60276C004
:1020200085ED8A95F1F787013E010894611C711CCA
:102030003CE2832E31E0932E2AE0422E9AE6592E7E
:1020400080E9A82E81E0B82E4A993EC0589805C074
:102050000E944201882309F437C04A9BF9CF6BC024
:10206000CC2031F488E068E06BDE88E060E068DE78
:10207000589AC3010E947002882331F5398128E003
:10208000C4010197F1F730FD04C05B9A842D8A9555
:10209000F1F75898852D8A95F1F7589A5B98215059
:1020A00011F03695EDCF88E068E04ADE882361F0D4
:1020B00001501040C5010197F1F7A89501151105D0
:1020C00009F0C2CF870102C000E010E00E94D602F2
:1020D00001151105A9F0D0FE11C05B9A479881E067
:1020E0008A95F1F758988AE08A95F1F704C00E9422
:1020F0004201882359F04999FACF0AC0479808C08D
:102100008AE68A95F1F74798589802C000E010E0F7
:10211000C8010F90CF91DF911F910F91FF90EF9029
:10212000DF90CF90BF90AF909F908F907F906F90F7
:102130005F904F9008950130110509F099CF90CF2D
:10214000CF92DF92EF92FF920F931F9308E010E07F
:102150009AE0C92EDD24D39404C00E944201882352
:1021600079F14A9BFACF58988C2D8A95F1F789B16D
:1021700086958D25FF24F394F82280FD02C0EE247D
:1021800002C080E8E82E5B9A04C00E9442018823C6
:10219000B9F089B186958D258170F816B1F35B98F9
:1021A0008C2D8A95F1F704C00E944201882341F0EA
:1021B0004A99FACF16951E29589A015011F0D1CF9D
:1021C0001FEF812F1F910F91FF90EF90DF90CF9025
:1021D0000895FF920F931F93182F08E02AE0F22E24
:1021E00017FF02C05B9A01C05B988F2D8A95F1F7AB
:1021F00058988F2D8A95F1F704C00E9442018823D8
:10220000F1F04999FACF17FF02C05B9806C05B9ABC
:1022100004C00E944201882391F0499BFACF589A4A
:102220005B988F2D8A95F1F704C00E9442018823A4
:1022300031F04A99FACF015011F0110FD1CF1F910F
:102240000F91FF900895EF92FF920F931F9310E06C
:1022500004E09AE0E92E04C00E944201882319F1AB
:10226000499BFACF8E2D8A95F1F74A9B02C0FF2435
:1022700002C080E8F82E479804C00E9442018823DB
:1022800091F04999FACF8E2D8A95F1F74A9B02C0B9
:1022900080E001C080E816951F291695182B479AF3
:1022A000015011F0DDCF1FEF812F1F910F91FF9093
:1022B000EF900895FF920F931F93182F04E02AE0E8
:1022C000F22E10FF02C05B9A01C05B988F2D8A9599
:1022D000F1F7479804C00E9442018823D9F0499B36
:1022E000FACF169510FF02C05B9A01C05B988F2D44
:1022F0008A95F1F7479A04C00E944201882351F061
:102300004999FACF015011F01695DBCF5B988AE01E
:102310008A95F1F71F910F91FF900895CF93DF9366
:10232000EC0104C00E944201882399F04A99FACF37
:1023300014B815B883B18883589804C00E9442012C
:10234000882339F04A9BFACF14B815B883B1898332
:10235000589ADF91CF910895CF93DF93EC0104C099
:102360000E9442018823C9F04A99FACF98818FEFE1
:1023700084B995B982E08A95F1F7589804C00E9413
:102380004201882351F04A9BFACF99818FEF84B99B
:1023900095B982E08A95F1F7589ADF91CF91089527
:1023A0001F93589804C00E944201882371F04A9BF1
:1023B000FACF14B815B813B1589A04C00E9442015C
:1023C000882319F04A99FACF01C01FEF812F1F917E
:1023D00008959FEF94B985B982E08A95F1F75898EE
:1023E00004C00E944201882351F04A9BFACF589AB8
:1023F00004C00E944201882311F04A99FACF08953F
:10240000479A8BB1867F8BB98AE18A95F1F74A9B0F
:10241000FECF85E08A95F1F714B815B883B14798D7
:102420004A99FECF9AE19A95F1F70895FC0191E05F
:1024300089B186958695892781708617C9F714B862
:1024400015B883B1808380E00895982F479A8BB1A7
:10245000867F8BB98AE18A95F1F74A9BFECF8FEF91
:1024600084B995B985E08A95F1F7479885E38A950F
:10247000F1F74A99FECF14B815B883B10895982F93
:1024800021E089B186958695822781708617C9F7E4
:102490008FEF84B995B980E00895AA1BBB1B51E169
:1024A00007C0AA1FBB1FA617B70710F0A61BB70BC4
:1024B000881F991F5A95A9F780959095BC01CD0169
:1024C0000895F999FECF92BD81BDF89A992780B5FC
:0624D0000895F894FFCF0F
:1024D6000304000F080330003000300000008B07B3
:1024E60098081B080907F9060B07E30EDA0F3B0FDE
:0A24F600C10E8E0E4D0E0055AAFF18
:00000001FF
