:10000000B2C00000CEC00000CCC00000CAC00000DA
:10001000C8C00000C6C00000C4C00000C2C00000CC
:10002000C0C00000BEC000000C94CC090C94920922
:10003000B8C00000B6C00000B4C00000B2C00000EC
:10004000B0C00000AEC00000ACC00000AAC00000FC
:10005000A8C00000A6C00000A4C00000A2C000000C
:10006000A0C000009EC000009CC000009AC000001C
:1000700098C0000096C0000094C0000092C000002C
:1000800090C000008EC000008CC000008AC000003C
:1000900088C0000086C0000012011001FF000008A7
:1000A000D016040506000102030109022000010127
:1000B0000080320904000002FF00000007058302EF
:1000C00040000007050402400000040309043A034D
:1000D0004E0061007400650020004C006100770054
:1000E00073006F006E00200061006E00640020004D
:1000F0004F00700065006E00430042004D0020007C
:100100007400650061006D000000080330003000DD
:10011000300000004003780075006D0031003500AC
:1001200034003100200066006C006F007000700029
:1001300079002000610064006100700074006500B7
:100140007200200028005500530042004B0045007B
:100150005900290000000010041401110515405039
:1001600044544151455511241FBECFEFD0E2DEBFAC
:10017000CDBF11E0A0E0B1E0EEE6FBE100E00BBF97
:1001800002C007900D92A830B107D9F711E0A8E09E
:10019000B1E001C01D92A132B107E1F7EED00C949D
:1001A000B50D2ECFA9EEB0E09C91977081E08093C1
:1001B000130184E08C93EBEEF0E080818062808319
:1001C00083E08C938081806280839C93089520914A
:1001D000E900E0E0F1E041E050E01BC08093E9007D
:1001E000BA0102C0660F771F8A95E2F76093EA00B2
:1001F0001092EA008091EB0088608093EB00809180
:10020000EB0085FF05C08091EB0080618093EB00DF
:1002100031968081882311F727702093E900089593
:1002200080911301089523E02093E90070E040E1FC
:1002300051E0AED680911301882311F080E008953B
:100240008091E800982F9E7F9093E8008F778093AD
:10025000E80081E0089524E02093E90070E040E1A7
:1002600051E0D5D680911301882311F080E00895E4
:100270008091E800982F9B7F9093E8008F77809380
:10028000E80081E00895A89580911301882311F07A
:1002900080E0089566D4882311F481E0089552D453
:1002A00081E00895109208011092110180E01EC4AF
:1002B00081E01CD41092130181E08093080108951D
:1002C0000F931F93DF93CF93CDB7DEB728970FB669
:1002D000F894DEBF0FBECDBF8091190180768032C9
:1002E00091F58E010F5F1F4F88E0F80111928A95FA
:1002F000E9F780911A01B8014ED1682F8F3F19F4A8
:1003000084E0F4D320C08091E800877F8093E800E8
:100310008091190187FF0AC0772767FD7095C80192
:10032000B5D68091E800982F9B7F08C08091E800A7
:1003300080FFFCCF8091E800982F9E7F9093E8008B
:100340008F778093E80028960FB6F894DEBF0FBE33
:10035000CDBFCF91DF911F910F91089538DF83E0DA
:1003600061E846E365D584E060E846E361D582E074
:10037000BDD381E0809311010895DF92EF92FF9247
:100380000F931F93DF93CF93CDB7DEB727970FB6A9
:10039000F894DEBF0FBECDBF80E090E020E80FB63E
:1003A000F89420936100809361000FBE2EE088E1F5
:1003B00090E00FB6F894A895809360000FBE20934C
:1003C00060007FD701C0A895809108018823D9F3E8
:1003D00077D380E08BD30E94960A80E00E940E0BB8
:1003E00094E0E92EF12CEC0EFD1E83E0D82E8E0158
:1003F0000F5F1F4FA8952FC080911801843031F5F1
:100400008093E9008091E80085FF20C0C70164E087
:1004100022DF882319F484E069D318C0F8018D2DF8
:1004200011928A95E9F7C701B801A7D118162CF4E3
:100430008983C80163E0F7DE09C0882339F084E0CE
:1004400055D38091EB0080628093EB001CDF882302
:1004500011F41092130180911101882369F601C0F3
:10046000A89580910801882309F0C4CFF9CF9C0199
:10047000613011F483E003C0662369F484E0809363
:10048000E90030930B0120930A01609303018091EE
:10049000E80085FFFCCF08958093F10080910A0168
:1004A00090910B01019790930B0180930A01809129
:1004B000E80085FD0DC08091E800982F9E7F909305
:1004C000E8008F778093E8008091E80085FFFCCFFB
:1004D0008091130181118FEF0895FC018091E80054
:1004E00085FD0DC08091E800982F9B7F9093E800D8
:1004F0008F778093E8008091E80085FFFCCF8091A2
:10050000F100808380910A0190910B0101979093F3
:100510000B0180930A018091130181118FEF0895DF
:1005200080910D01882311F40C94550D10920D014A
:1005300088E80895282F80910D01882329F01092D2
:100540000D0120930E01089590910901943071F4EA
:10055000822F8350833020F02B3011F02C3019F48F
:1005600081E080930D011092090112C0E92FF0E0A3
:10057000EC5FFE4F8081821721F49F5F9093090109
:1005800007C010920901222319F481E08093090128
:10059000822F0C94820DCF93DF93EB01823009F40C
:1005A0006BC0833030F4882309F442C0813031F4C9
:1005B00042C0833009F45BC0843011F08FEF5FC01C
:1005C0008091E800877F8093E8008091E80080FFB9
:1005D000FCCF8091E800982F9E7F9093E8008F7762
:1005E0008093E80088EE93E028EC30E0F901319741
:1005F000F1F70197D9F788E10FB6F894809360007E
:10060000109260000FBE4BD6F89483E090E020E893
:100610000FB6F89420936100809361000FBE109292
:10062000810010928900109288000C94007826C0F6
:10063000188281E024C083E059D286E0888383E079
:10064000898380910C01882331F08A8181608A83BB
:1006500080E0E4D7A7DD80911101882319F48A8115
:1006600082608A8381E080930C0188E008C0109248
:100670000C0182E03BD202C080E0D0D780E0DF9165
:10068000CF91089580910301813089F48091F20027
:100690009091F300892B31F480910A0190910B0124
:1006A000892BE9F08091E800982F9E7F13C0882362
:1006B000B1F480910A0190910B01009719F060E16B
:1006C00071E034D48091E80085FD09C08091E80094
:1006D000982F9B7F9093E8008F778093E8008FE0BE
:1006E0008093030110920B0110920A0108950F9359
:1006F0001F93CF93DF938C01EB01CB0161E0B7DE59
:1007000006C0F8010995C8DE2197882311F42097C7
:10071000C1F7B8DF80E0DF91CF911F910F9108956D
:10072000CF92DF92EF92FF920F931F93DF93CF93BD
:100730000F92CDB7DEB77C018B01CB0160E097DE75
:100740006E010894C11CD11C09C0C601C6DE01504F
:100750001040882331F48981F701099501151105AD
:10076000A1F790DF80E00F90CF91DF911F910F9163
:10077000FF90EF90DF90CF900895CF92DF92EF92AD
:10078000FF920F931F93DF93CF9300D000D0CDB78C
:10079000DEB78C016B01FC019081E280F38083E085
:1007A0009C83A4D19C819A3109F42DC19B3190F492
:1007B000973109F408C1983130F49830F1F099304C
:1007C00009F033C188C0983109F409C1993109F0A1
:1007D0002CC115C19D3109F40DC19E3138F49B31F6
:1007E00009F406C19C3109F020C1FCC09E3109F416
:1007F00010C19F3109F019C111C1F8018181807FB9
:100800008034E1F0813440F4803291F0803399F00B
:10081000803109F00AC109C0803679F1803709F4C6
:1008200055C0803509F001C125C0C7013AD7FBC0CA
:100830008AEC9CE04DC088E09DE04AC0C70161E0C1
:1008400016DE8E010E5F1F4F11C0C8010E94310DD0
:100850008A8122DE882309F0AFC08B811DDE8823C8
:1008600009F0AAC08EEF9FEFE80EF91EE114F10423
:1008700061F7A2C08BE49DE02BC0E114F10409F400
:10088000D2C0C70161E0F3DD149880E29EE40197D5
:10089000F1F70E94550D00E010E06E010894C11CB4
:1008A000D11C0DC0602F6170C6010E94680D87FDCC
:1008B000BAC08981F1DD882329F40F5F1F4F0E151F
:1008C0001F0580F3DFDE0E94550DADC080E992E088
:1008D000B7010DDFA8C0F8016181862F807F8034C9
:1008E000F1F0813440F48032A1F08033A9F08031FE
:1008F00009F09BC009C08036A9F1803709F45EC0B9
:10090000803509F092C02BC06F70C70162D7F60125
:1009100063C080EB9CE054C08FEE9CE051C0C701E7
:1009200060E0A5DD8E010E5F1F4F83E0C82ED12C45
:10093000CC0EDD1E10C0C801D0DD882309F03CC0FC
:10094000C601CBDD8823C1F5C8010E94210D8EEFC1
:100950009FEFE80EF91EE114F10469F72DC081E460
:100960009DE02EC0E114F10409F45DC0C70160E010
:100970007EDD149880910E010E94820D00E010E04F
:100980006E010894C11CD11C0DC0C601A6DD8823D0
:1009900061F4602F617089810E949C0D87FD43C0C6
:1009A0000F5F1F4F0E151F0580F3602F617080E0F1
:1009B0000E949C0D0E94550D65DE35C08AE992E0CB
:1009C000B701AEDE30C080911201F60112821182B1
:1009D000882339F181E090E09283818322C01092D4
:1009E00012011FC0F80181816281F6D58823D9F0F8
:1009F000BCD510C0F80181816281C8D512C017B87A
:100A000018B886B107C0F80191818FEF87B998B9FE
:100A100008C086DDF6018183128203C0F80181815E
:100A200089DD82E003C080E001C08FEF0F900F905E
:100A30000F900F90CF91DF911F910F91FF90EF904A
:100A4000DF90CF900895DA01292F33272230310526
:100A500059F02330310569F02130310549F5E8E9D5
:100A6000F0E022E130E028C0EAEAF0E020E230E005
:100A700023C090708130910569F08130910530F08C
:100A80008230910559F0039799F40CC0EAECF0E03C
:100A900084910BC0EEECF0E0849107C0E4E1F1E05A
:100AA000849103C0EAE0F1E08491282F30E004C093
:100AB000E0E0F0E020E030E0ED93FC93C901089520
:100AC00085E581B98AEA82B98AB1806F8AB98BB12A
:100AD0008F708BB98DE093E09093890080938800AC
:100AE000E1E8F0E080818D608083089580930F01BC
:100AF0008230A1F0833028F4882341F0813009F559
:100B000009C0833079F08430E1F414C08BB18F7068
:100B100080680EC08BB18F7080640AC08BB18F70FB
:100B2000806206C080E6809310018BB18F70806672
:100B30008BB9089580E9809310018BB18F70806923
:100B40008BB9089580910F018350823048F48BB1A6
:100B50002BB1807F9091100189272F70822B8BB948
:100B60000895B19902C080E00895B19A81E0089596
:100B70001F93DF93CF93CDB7DEB7AC970FB6F89442
:100B8000DEBF0FBECDBFE9E1F1E08091F1008193BE
:100B900021E0E132F207C9F78091190130911A0181
:100BA000353009F486C0363040F43130C1F131308F
:100BB00070F0333009F023C132C0383009F4F0C08E
:100BC000393009F403C1363009F019C191C08038B9
:100BD00021F0823809F013C108C09091140180916E
:100BE0001501882391F0926010C080911D018093BF
:100BF000E9008091EB0090E025E0969587952A9595
:100C0000E1F7982F91701092E9008091E800877FBA
:100C10008093E8009093F1001092F100CCC08823FB
:100C200019F0823009F0EBC090E08F71907000975E
:100C300021F0029709F0E4C00CC080911B018130C3
:100C400009F0DEC010921501333069F5809315016B
:100C50002AC080911B01882331F520911D01277046
:100C600009F4CEC02093E9008091EB0080FF1BC007
:100C7000333021F48091EB00806213C08091EB004F
:100C800080618093EB0081E090E002C0880F991FA3
:100C90002A95E2F78093EA001092EA008091EB0037
:100CA00088608093EB001092E9008091E800877FD4
:100CB00089C0882309F0A3C010911B018091E8002E
:100CC000877F8093E800DED005C0809118018823DB
:100CD00009F496C08091E80080FFF7CF912F9F77AD
:100CE00019F083E08093180190689093E30088C026
:100CF0008058823008F083C080911B0190911C01C4
:100D000023E08C3D920781F5DE0115964EE020E050
:100D100030E051E2E42FF0E050935700849120FF3F
:100D200003C082958F704F5F982F9F70892F805DD1
:100D30008A3308F0895F8C9311961C9211972F5F6C
:100D40003F4F12962431310529F78091E800877FC3
:100D50008093E8008AE28B8383E08C83CE01039644
:100D60006AE270E093D112C060911D01AE014F5F45
:100D70005F4F69DEBC01009709F442C08091E80032
:100D8000877F8093E80089819A81E0D18091E80093
:100D9000982F9B7F9093E8008F778093E80030C076
:100DA000803869F58091E800877F8093E800809122
:100DB00016018093F1008091E800982F9E7F909318
:100DC000E8008F778093E8005DD01AC08823B9F4DB
:100DD00090911B019230A0F48091E800877F80936E
:100DE000E800909316014ED080911601882311F4EB
:100DF00083E001C084E080931801B0DA01C060DABA
:100E00008091E80083FF0AC08091EB0080628093AC
:100E1000EB008091E800877F8093E800AC960FB6E6
:100E2000F894DEBF0FBECDBFCF91DF911F91089523
:100E30008093E9008091EB0081608093EB00109239
:100E4000ED006093EC004093ED008091EE00881F70
:100E50008827881F08951092F40090E09093E9008D
:100E60001092F0001092E8008091ED008D7F809349
:100E7000ED008091EB008E7F8093EB009F5F9730B9
:100E800069F70895809119018823BCF404C080910A
:100E900018018823F9F08091E80082FFF8CF809153
:100EA000E800982F9B7F9093E8008F778093E8006D
:100EB000089580911801882369F08091E80080FFEF
:100EC000F8CF8091E800982F9E7F9093E8008F776D
:100ED0008093E800089594E68091EC0080FF05C0BF
:100EE0008091E80080FF05C01FC08091E80082FD6E
:100EF0001BC080911801882311F482E0089580912D
:100F0000EB0085FF02C081E008958091E10082FF3F
:100F1000E3CF8091E1008B7F8093E100992311F46E
:100F200083E008959150D8CF80E00895FF920F9309
:100F30001F93CF93DF93EC018B01CDDFF82E882335
:100F4000F1F01FC08091E80085FD16C08091E80097
:100F5000982F9B7F9093E8008F778093E80001158E
:100F6000110531F0F8010995813011F484E00AC0CF
:100F7000B2DF882321F006C08091F10021972097ED
:100F800009F78F2DDF91CF911F910F91FF90089559
:100F9000DF92EF92FF920F931F93CF93DF93182F5F
:100FA000092FEB017A0197DFD82E882339F5812F9D
:100FB000902F9C01890120C08091E80085FD16C01A
:100FC0008091E800982F9E7F9093E8008F77809320
:100FD000E800E114F10431F0F7010995813011F4D2
:100FE00084E00DC078DF882339F009C0F8018191D1
:100FF0008F018093F10021972097F1F68D2DDF91DD
:10100000CF911F910F91FF90EF90DF900895DF92A5
:10101000EF92FF920F931F93CF93DF93182F092F17
:10102000EB017A0158DFD82E882339F5812F902FD4
:101030009C01890120C08091E80085FD16C0809147
:10104000E800982F9B7F9093E8008F778093E800CB
:10105000E114F10431F0F7010995813011F484E0D5
:101060000DC039DF882339F009C08091F100F80103
:1010700081938F0121972097F1F68D2DDF91CF91EC
:101080001F910F91FF90EF90DF9008959C01409188
:101090001F01509120014617570718F4F90160E02D
:1010A00043C06115710511F0AB01F8CF8091E800E4
:1010B000982F9E7F9093E8008F778093E80040E020
:1010C00050E0ECCF8091E80083FF02C081E00895FA
:1010D0008091E80082FD32C0809118018823A1F13F
:1010E0008091E80080FF20C02091F2003091F30051
:1010F00007C081918093F100415050402F5F3F4FD6
:101100004115510519F02830310598F360E0283079
:10111000310509F461E08091E800982F9E7F90935B
:10112000E8008F778093E8004115510559F6662352
:1011300049F604C080911801882331F08091E800BD
:1011400082FFF8CF80E0089582E008959C014091ED
:101150001F01509120014617570710F460E044C06A
:101160006115710511F0AB01F9CF8091E800982F5E
:101170009E7F9093E8008F778093E80040E050E0F6
:10118000EDCF8091E80083FF02C081E00895809157
:10119000E80082FD33C0809118018823A9F1809175
:1011A000E80080FF21C08091F2009091F30009C017
:1011B000F9012F5F3F4FE491E093F100415050401F
:1011C00001964115510519F08830910588F360E0CA
:1011D000089709F461E08091E800982F9E7F909332
:1011E000E8008F778093E8004115510551F666239A
:1011F00041F604C080911801882331F08091E80005
:1012000082FFF8CF80E0089582E008957ED085D0F7
:1012100010921801109216011092150110921401EB
:101220008CE089BD89B5826089BD09B400FEFDCF1F
:101230008091D800982F9F779093D80080688093F2
:10124000D8008091D70081608093D7008091D8002A
:101250008F7D8093D8008091E0008B7F8093E000A9
:101260008091E0008E7F8093E0008091E1008E7F8E
:101270008093E1008091E20081608093E2008091A0
:10128000E100877F8093E1008091E2008860809395
:10129000E2008091D80081608093D8000895B6DF85
:1012A000E0EEF0E0808181608083E8EDF0E0808115
:1012B0008F77808319BC80818F7E80831092170185
:1012C0000895E7EDF0E08081806880839FDFE8ED9E
:1012D000F0E080818061808381E0809317017894C1
:1012E000089508951F9380911801882361F010914B
:1012F000E9001092E9008091E80083FF01C038DC2A
:1013000017701093E9001F910895E8EDF0E08081D7
:101310008C7F80831092E20008951092DA00109280
:10132000E10008951F920F920FB60F920BB60F9225
:101330001124EF92FF921F932F933F934F935F934C
:101340006F937F938F939F93AF93BF93EF93FF938D
:1013500089EEE82EF12CF70110811770C3DFE8EE5B
:10136000F0E08081877F8083F7011083FF91EF9108
:10137000BF91AF919F918F917F916F915F914F91AD
:101380003F912F911F91FF90EF900F900BBE0F9008
:101390000FBE0F901F9018951F920F920FB60F92CD
:1013A0000BB60F9211242F933F934F935F936F933C
:1013B0007F938F939F93AF93BF93EF93FF9380910E
:1013C000DA0080FF17C08091D80080FF13C08091A1
:1013D000DA008E7F8093DA008091D90080FF06C00A
:1013E00081E0809318010E94580104C010921801F6
:1013F0000E9452018091E10080FF1DC08091E200B7
:1014000080FF19C08091E1008E7F8093E100809180
:10141000E2008E7F8093E2008091E2008061809301
:10142000E2008091D80080628093D80019BC85E0EA
:101430008093180156DF8091E10084FF2AC08091DB
:10144000E20084FF26C08CE089BD89B5826089BD39
:1014500009B400FEFDCF8091D8008F7D8093D80025
:101460008091E1008F7E8093E1008091E2008F7E89
:101470008093E2008091E20081608093E20080919D
:101480001601882311F483E001C084E080931801E1
:1014900028DF8091E10083FF28C08091E20083FF74
:1014A00024C08091E100877F8093E10082E08093F7
:1014B0001801109216018091E1008E7F8093E10067
:1014C0008091E2008E7F8093E2008091E200806153
:1014D0008093E200C0DC80E060E042E0A9DC809123
:1014E000F00088608093F000FCDE8091E10082FFD4
:1014F0000AC08091E20082FF06C08091E1008B7FEC
:101500008093E100EEDEFF91EF91BF91AF919F914B
:101510008F917F916F915F914F913F912F910F909C
:101520000BBE0F900FBE0F901F90189582B18A7A54
:1015300082B988EC90E00197F1F70895282F98EC94
:101540003AE104C09150832F8A95F1F780B18695D6
:101550008223861711F49923A9F780B190E086952C
:101560008223861391E0892F089580B18695282FD4
:1015700030E0C90134E0969587953A95E1F780957A
:10158000817022FF826020FF84600895662349F401
:10159000E82FF0E0EA5AFE4FE49182B1E82BE2B97D
:1015A0000895262F30E0882341F42A5A3E4FF9014E
:1015B000849192B1809589230DC0E82FF0E0EA5A1A
:1015C000FE4F44912A5A3E4FF901849192B1809581
:1015D0008923842B82B90895FF920F931F93E82FDC
:1015E000F0E0EA5AFE4F0491662311F410E00AC0BD
:1015F000102F08C00E944301882361F08F2D8A9527
:10160000F1F702C04AE1F42E80B18695802381175C
:1016100089F381E01F910F91FF900895EF92FF925F
:101620000F931F93CF93DF93F82E82B18A7E82B9F6
:10163000169A80E69AEE0197F1F71698C8E9DAE370
:1016400055E8E52E08EC10E082B18A7A82B98E2D39
:101650008A95F1F7059B13C08E2D8A95F1F7059BAE
:101660000EC0109AC8010197F1F7059B02C01098AF
:1016700006C01098C8010197F1F705990BC0C80181
:101680000197F1F70E944301882321F02197E1F6A9
:10169000FF20D1F6DF91CF911F910F91FF90EF9036
:1016A00008956F927F928F929F92AF92BF92CF9246
:1016B000DF92EF92FF920F931F93CF93DF935C0122
:1016C00061E00E943702EE24FF24F5E36F2EE5E08F
:1016D0007E2E882483947AEB972E65E8C62EC0E090
:1016E000D0E00CC083ECC035D80771F00E944301F4
:1016F000882351F02196862D8A95F1F7039BF2CF2E
:1017000080911201882329F00E944203EE24FF24D5
:1017100050C0149898EC04C09150872D8A95F1F729
:10172000039B02C09923C1F7039B07C0809212015B
:10173000149A892D8A95F1F71498F89484E064E05E
:10174000FDDE182FDD2400E011C084E060E0F6DE4D
:10175000182F882339F006950599006884E064E025
:10176000EDDE182FD39488E0D81611F0112369F715
:101770007894112361F0149A802F0E944C028823E0
:10178000B1F40894E11CF11C8C2D8A95F1F7A89511
:10179000EA14FB0441F0112341F0809112018823E7
:1017A00009F49DCF04C0112311F4EE24FF240E94FC
:1017B0004203C701DF91CF911F910F91FF90EF90EE
:1017C000DF90CF90BF90AF909F908F907F906F9061
:1017D00008955F926F927F928F929F92AF92BF9285
:1017E000CF92DF92EF92FF920F931F93DF93CF93ED
:1017F0000F92CDB7DEB77C01D62E1092120160E0B9
:101800000E94370281E460E099DE882319F1149880
:1018100022E0C22ECD20D1FC02C094E001C095E0B0
:1018200082B1982B92B980E160E188DE882379F05B
:10183000870195E8592E4E010894811C911C88EC73
:10184000682EB5E37B2EA8ECAA2EB12C48C082B13D
:101850008A7F82B90E94420300E010E069C0852DB2
:101860008A95F1F7059938C0129805C00E94430186
:10187000882309F43CC0059BF9CF6CC0CC2031F41F
:1018800080E160E15BDE80E160E058DE129AC40135
:101890000E946D02882359F5298190E0862D8A9552
:1018A000F1F720FF149A1298872D8A95F1F782B1EB
:1018B0008F7E846082B99F5F983011F02695EECFBD
:1018C00080E160E13BDE882339F00894E108F1080B
:1018D000C5010197F1F702C000E010E0A895E114FE
:1018E000F10439F00115110509F0B9CF02C000E08B
:1018F00010E00E94420301151105B9F0D0FE0FC09F
:10190000149A82B18A7F82B907C00E94430188235A
:1019100019F400E010E004C00399F7CF01C010985B
:1019200088EC90E00197F1F703C082B18A7F82B919
:10193000C8010F90CF91DF911F910F91FF90EF9011
:10194000DF90CF90BF90AF909F908F907F906F90DF
:101950005F90089581E0E816F10409F097CF8ECFEB
:1019600090E087FF02C0149A01C01498129803995E
:10197000FECF87FF02C0149801C0149A039BFECFCC
:101980001498129A0599FECF9F5F983011F0880F36
:10199000E8CF089527E090E041E0059BFECF129844
:1019A00080B18695869586958427382F317080FD85
:1019B00002C080E001C080E89695982B149A80B10F
:1019C000869586958695842781703817C1F314987B
:1019D0000599FECF129A215000F7892F089590E0C3
:1019E00080FF02C0149A01C0149886951098039B3A
:1019F000FECF80FF02C0149A01C01498109A039978
:101A0000FECF9F5F943011F08695EACF1498089529
:101A100080E024E0039BFECF059B02C030E001C0C4
:101A200030E810980399FECF059B02C090E001C0FA
:101A300090E88695832B8695892B109A215051F733
:101A40000895FC010599FECF90818FEF87B998B971
:101A50001298059BFECF91818FEF87B998B9129AA2
:101A60000895FC010599FECF17B818B886B1808398
:101A70001298059BFECF17B818B886B18183129AC9
:101A800008959FEF97B988B91298059BFECF129AD7
:101A90000599FECF08951298059BFECF17B818B888
:101AA00086B1129A0599FECF089582B18B7E81602E
:101AB00082B98DE08A95F1F7059BFECF17B818B86B
:101AC00086B192E09A95F1F710980599FECF0895A6
:101AD000FC012FEF3FEF91E007C02115310511F414
:101AE0008FEF08952150304080B1829586958770A0
:101AF00089278170861789F717B818B886B180834F
:101B000080E00895982F82B18B7E816082B98DE04C
:101B10008A95F1F7059BFECF8FEF87B998B982E0E0
:101B20008A95F1F710988AE18A95F1F70599FECF29
:101B300017B818B886B10895982F2FEF3FEF41E0FE
:101B400007C02115310511F48FEF08952150304061
:101B500080B182958695877084278170861789F772
:0E1B60008FEF87B998B980E00895F894FFCF11
:081B6E000304000F0055AAFF5B
:00000001FF
