:100000000C94B7000C94D4000C94D4000C94D4003D
:100010000C94D4000C94D4000C94D4000C94D40010
:100020000C94D4000C94D4000C94D4000C94CC0EFA
:100030000C94950E0C94D4000C94D4000C94D40021
:100040000C94D4000C94D4000C94D4000C94D400E0
:100050000C94D4000C94D4000C94D4000C94D400D0
:100060000C94D4000C94D4000C94D4000C94D400C0
:100070000C94D4000C94D4000C94D4000C94D400B0
:100080000C94D4000C94D4000C94D4000C94D400A0
:100090000C94D4000C94D40012011001FF0000084D
:1000A000D016040506000102030109022000010127
:1000B0000080320904000002FF00000007058302EF
:1000C00020000007050402200000040309043A038D
:1000D0004E0061007400650020004C006100770054
:1000E00073006F006E00200061006E00640020004D
:1000F0004F00700065006E00430042004D0020007C
:100100007400650061006D000000080330003000DD
:10011000300000004803780075006D0031003500A4
:1001200034003100200066006C006F007000700029
:1001300079002000610064006100700074006500B7
:100140007200200028005A004F004F004D0046006A
:100150004C004F00500050005900290000000008DA
:1001600001098088818940484149C0C8C1C911241A
:100170001FBECFEFD4E0DEBFCDBF11E0A0E0B1E005
:10018000E6EDF5E202C005900D92A830B107D9F76F
:1001900011E0A8E0B1E001C01D92A032B107E1F783
:1001A0000E94CF010C94E9120C940000A9EEB0E07B
:1001B0009C91977081E08093120184E08C93EBEE28
:1001C000F0E080818062808383E08C938081806214
:1001D00080839C9308952091E900E0E0F1E041E004
:1001E00050E01BC08093E900BA0102C0660F771F80
:1001F0008A95E2F76093EA001092EA008091EB00A2
:1002000088608093EB008091EB0085FF05C08091B2
:10021000EB0080618093EB0031968081882311F799
:1002200027702093E900089580911201089523E03A
:100230002093E90070E044E151E00E94DA078091E8
:100240001201882311F080E008958091E800982F32
:100250009E7F9093E8008F778093E80081E0089577
:1002600024E02093E90070E044E151E00E94E408BA
:1002700080911201882311F080E008958091E800B8
:10028000982F9B7F9093E8008F778093E80081E020
:100290000895A89580911201882311F080E00895B7
:1002A0000E94E905882311F481E008950E94DF058A
:1002B00081E00895109208011092100180E00E94E0
:1002C000CB05089581E00E94CB051092120181E0D8
:1002D0008093080108950F931F93DF93CF93CDB7B9
:1002E000DEB728970FB6F894DEBF0FBECDBF809162
:1002F000180180768032A9F58E010F5F1F4F88E0CC
:10030000F80111928A95E9F780911901B8010E94CC
:10031000E802682F8F3F21F484E00E94CB0521C0C2
:100320008091E800877F8093E8008091180187FF23
:100330000BC0772767FD7095C8010E946609809100
:10034000E800982F9B7F08C08091E80080FFFCCFD9
:100350008091E800982F9E7F9093E8008F7780939C
:10036000E80028960FB6F894DEBF0FBECDBFCF9140
:10037000DF911F910F9108950E94EB0083E061E8E7
:1003800046E20E94280784E060E846E20E942807CF
:1003900082E00E94CB0581E0809310010895DF92F6
:1003A000EF92FF920F931F93DF93CF93CDB7DEB7FA
:1003B00027970FB6F894DEBF0FBECDBF80E090E068
:1003C00020E80FB6F89420936100809361000FBE7F
:1003D0002EE088E190E00FB6F894A8958093600035
:1003E0000FBE209360000E94730E01C0A8958091FB
:1003F00008018823D9F30E94940580E00E94CB0570
:100400000E947C0F80E00E941B1094E0E92EF12CEA
:10041000EC0EFD1E83E0D82E8E010F5F1F4FA895B6
:1004200035C080911701843059F58093E90080919F
:10043000E80085FF25C0C70164E00E9430018823E1
:1004400021F484E00E94CB051BC0F8018D2D119290
:100450008A95E9F7C701B8010E94DB03181634F446
:100460008983C80163E00E9417010AC0882341F014
:1004700084E00E94CB058091EB0080628093EB00CA
:100480000E944901882311F41092120180911001F9
:10049000882339F601C0A89580910801882309F0C6
:1004A000BECFF9CF9C01613011F483E003C0662315
:1004B00069F484E08093E90030930B0120930A01F2
:1004C000609303018091E80085FFFCCF089580933D
:1004D000F10080910A0190910B01019790930B011B
:1004E00080930A018091E80085FD0DC08091E800AD
:1004F000982F9E7F9093E8008F778093E8008091FB
:10050000E80085FFFCCF8091120181118FEF0895E3
:10051000FC018091E80085FD0DC08091E800982FD6
:100520009B7F9093E8008F778093E8008091E800AC
:1005300085FFFCCF8091F100808380910A0190912A
:100540000B01019790930B0180930A018091120196
:1005500081118FEF089580910D01882319F40E9475
:100560007512089510920D0188E80895282F809142
:100570000D01882329F010920D0120930E0108959A
:1005800090910901943071F4822F8350833020F0D0
:100590002B3011F02C3019F481E080930D01109272
:1005A000090112C0E92FF0E0EC5FFE4F8081821755
:1005B00021F49F5F9093090107C010920901222343
:1005C00019F481E080930901822F0E94A1120895FD
:1005D000CF93DF93EB01823009F466C0833030F4AF
:1005E000882309F439C0813031F439C0833009F4EB
:1005F00055C0843011F08FEF5BC08091E800877F99
:100600008093E8008091E80080FFFCCF8091E800B3
:10061000982F9E7F9093E8008F778093E80088EE74
:1006200093E020E931E0F9013197F1F70197D9F72B
:1006300088E10FB6F89480936000109260000FBEBE
:100640000E94630EF894109281001092890010921B
:1006500088000C94001C2BC0188281E029C083E024
:100660000E94CB0586E0888383E0898380910C011A
:10067000882341F08A8181608A8380E00E941B1078
:100680000E94D60080911001882319F48A8182602B
:100690008A8381E080930C0188E00AC010920C01EB
:1006A00082E00E94CB0503C080E00E941B1080E026
:1006B000DF91CF91089580910301813079F4809189
:1006C000F200882331F480910A0190910B01892B6B
:1006D000F1F08091E800982F9E7F14C08823B9F430
:1006E00080910A0190910B01009721F064E171E083
:1006F0000E94A6078091E80085FD09C08091E8006E
:10070000982F9B7F9093E8008F778093E8008FE08D
:100710008093030110920B0110920A0108950F9328
:100720001F93CF93DF938C01EB01CB0161E00E941B
:10073000520207C0F80109950E9467022197882399
:1007400011F42097B9F70E945B0380E0DF91CF910D
:100750001F910F910895CF92DF92EF92FF920F9326
:100760001F93DF93CF930F92CDB7DEB77C018B0140
:10077000CB0160E00E9452026E010894C11CD11CA2
:100780000AC0C6010E94880201501040882331F43B
:100790008981F70109950115110599F70E945B03FD
:1007A00080E00F90CF91DF911F910F91FF90EF901C
:1007B000DF90CF900895CF92DF92EF92FF920F9348
:1007C0001F93DF93CF9300D000D0CDB7DEB78C015D
:1007D0006B01FC019081E280F38083E09C830E94A6
:1007E000CB059C819A3109F440C19B3190F497313B
:1007F00009F418C1983130F49830F1F0993009F0CB
:1008000048C190C0983109F419C1993109F041C12A
:1008100028C19D3109F41FC19E3138F49B3109F480
:1008200017C19C3109F035C10CC19E3109F423C1B7
:100830009F3109F02EC125C1F8018181807F80346C
:10084000E9F0813440F4803299F08033A1F08031B6
:1008500009F01FC109C0803699F1803709F45CC0E6
:10086000803509F016C129C0C7010E9468100FC168
:100870008EEE91E153C088E292E150C0C70161E081
:100880000E9452028E010E5F1F4F13C0C8010E94CA
:1008900051128A810E946702882309F0BAC08B81B5
:1008A0000E946702882309F0B4C08EEF9FEFE80E24
:1008B000F91EE114F10451F7ACC08BE692E12EC0B1
:1008C000E114F10409F4E3C0C70161E00E9452029F
:1008D0005B9880E49CE90197F1F70E94751200E0B3
:1008E00010E06E010894C11CD11C0EC0602F617015
:1008F000C6010E94881287FDCAC089810E946702D2
:10090000882329F40F5F1F4F0E151F0578F30E94EF
:100910005B030E947512BBC08BEA92E0B7010E9494
:100920008F03B5C0F8016181862F807F8034F9F094
:10093000813440F48032A9F08033B1F0803109F085
:10094000A8C009C08036C9F1803709F465C0803578
:1009500009F09FC02FC06F70C7010E940A11F601F5
:100960006AC084ED91E15AC08FE092E157C0C7019F
:1009700060E00E9452028E010E5F1F4F83E0C82E7E
:10098000D12CCC0EDD1E12C0C8010E948802882323
:1009900009F03FC0C6010E9488028823D1F5C80132
:1009A0000E9441128EEF9FEFE80EF91EE114F10450
:1009B00059F72FC081E692E131C0E114F10409F446
:1009C00066C0C70160E00E9452025B9880910E01F0
:1009D0000E94A11200E010E06E010894C11CD11C1D
:1009E0000EC0C6010E948802882361F4602F6170E6
:1009F00089810E94BB1287FD4AC00F5F1F4F0E15F1
:100A00001F0578F3602F617080E00E94BB120E9486
:100A100075120E945B033BC086EB92E0B7010E9417
:100A2000AB0335C080911101F60112821182882337
:100A300061F181E090E09283818327C010921101DF
:100A400024C0F801818162810E94F90F8823F9F0A6
:100A50000E94C60F12C0F801818162810E94850F39
:100A600014C014B815B883B108C0F80191818FEF94
:100A700084B995B90AC00E94AB02F6018183128243
:100A800004C0F80181810E94B60282E003C080E0C8
:100A900001C08FEF0F900F900F900F90CF91DF91CB
:100AA0001F910F91FF90EF90DF90CF900895DA01A2
:100AB000292F33272230310559F02330310569F0D1
:100AC0002130310549F5E8E9F0E022E130E028C0C5
:100AD000EAEAF0E020E230E023C090708130910536
:100AE00069F08130910530F08230910559F003971B
:100AF00099F40CC0EAECF0E084910BC0EEECF0E06D
:100B0000849107C0E4E1F1E0849103C0EAE0F1E000
:100B10008491282F30E004C0E0E0F0E020E030E0F5
:100B2000ED93FC93C901089584E887B989E58AB9F2
:100B300014B88AE196E09093890080938800E1E8F8
:100B4000F0E080818D608083089529B189B149B139
:100B500066B1E6B190E0827090709595879530E02F
:100B60002072307035952795822B50E0447050707C
:100B7000440F551F842B70E060747070660F771FF0
:100B8000862BF0E0E078F070F595E7958E2B0895D0
:100B900080910F01089580930F01823051F08330CE
:100BA00018F4882341F00895833029F0843031F41B
:100BB00004C042980895429A0895429A08958091F7
:100BC0000F018350823020F488B194E0892788B9DE
:100BD0000895B19902C080E00895B19A81E0089526
:100BE0001F93DF93CF9300D0CDB7DEB7E8E1F1E0FC
:100BF0008091F100819381E0E032F807C9F780919C
:100C0000180130911901353009F486C0363040F4AE
:100C10003130C1F1313070F0333009F0F5C032C0FD
:100C2000383009F4BFC0393009F4D3C0363009F088
:100C3000EBC092C0803821F0823809F0E5C008C0CE
:100C40009091130180911401882391F0926010C05B
:100C500080911C018093E9008091EB0090E025E0F9
:100C6000969587952A95E1F7982F91701092E90053
:100C70008091E800877F8093E8009093F1001092C4
:100C8000F1009BC0882319F0823009F0BDC090E0CC
:100C90008F719070009721F0029709F0B7C00CC0D7
:100CA00080911A01813009F0B1C0109214013330E3
:100CB00069F5809314012AC080911A01882331F5C7
:100CC00020911C01277009F4A1C02093E9008091B4
:100CD000EB0080FF1BC0333021F48091EB00806279
:100CE00013C08091EB0080618093EB0081E090E085
:100CF00002C0880F991F2A95E2F78093EA001092AC
:100D0000EA008091EB0088608093EB001092E9008C
:100D10008091E800877F58C0882309F075C0109142
:100D20001A018091E800877F8093E8000E945207B3
:100D300005C080911701882309F468C08091E800FC
:100D400080FFF7CF912F9F7719F083E080931701F1
:100D500090689093E3005AC08058823008F054C0E5
:100D600080911A0190911B0160911C01AE014F5FAF
:100D70005F4F0E945705BC01009709F447C080915E
:100D8000E800877F8093E80089819A810E94C609E4
:100D90008091E800982F9B7F9093E8008F77809355
:100DA000E80034C0803881F58091E800877F809327
:100DB000E800809115018093F1008091E800982F60
:100DC0009E7F9093E8008F778093E8000E945207FF
:100DD0001DC08823C9F490911A019230B8F4809113
:100DE000E800877F8093E800909315010E945207E6
:100DF00080911501882311F483E001C084E0809381
:100E000017010E94BC0102C00E946B018091E800A2
:100E100083FF0AC08091EB0080628093EB00809199
:100E2000E800877F8093E8000F900F90CF91DF91CB
:100E30001F91089528E030E040E003C04F5F220F8B
:100E4000331F28173907D0F3842F8295807F0895A8
:100E50008093E9008091EB0081608093EB00109219
:100E6000ED006093EC004093ED008091EE00881F50
:100E70008827881F08951092F40090E09093E9006D
:100E80001092F0001092E8008091ED008D7F809329
:100E9000ED008091EB008E7F8093EB009F5F95309B
:100EA00069F70895809118018823BCF404C08091EB
:100EB00017018823F9F08091E80082FFF8CF809134
:100EC000E800982F9B7F9093E8008F778093E8004D
:100ED000089580911701882369F08091E80080FFD0
:100EE000F8CF8091E800982F9E7F9093E8008F774D
:100EF0008093E800089594E68091EC0080FF05C09F
:100F00008091E80080FF05C01FC08091E80082FD4D
:100F10001BC080911701882311F482E0089580910D
:100F2000EB0085FF02C081E008958091E10082FF1F
:100F3000E3CF8091E1008B7F8093E100992311F44E
:100F400083E008959150D8CF80E00895FF920F93E9
:100F50001F93CF93DF93EC018B010E947B07F82E48
:100F60008823F9F020C08091E80085FD17C08091AA
:100F7000E800982F9B7F9093E8008F778093E8009C
:100F80000115110531F0F8010995813011F484E063
:100F90000BC00E947B07882321F006C08091F100DE
:100FA0002197209701F78F2DDF91CF911F910F91FE
:100FB000FF900895DF92EF92FF920F931F93CF93CC
:100FC000DF93182F092FEB017A010E947B07D82E9F
:100FD000882341F5812F902F9C01890121C08091A8
:100FE000E80085FD17C08091E800982F9E7F9093C0
:100FF000E8008F778093E800E114F10431F0F70105
:101000000995813011F484E00EC00E947B0788238B
:1010100039F009C0F80181918F018093F100219787
:101020002097E9F68D2DDF91CF911F910F91FF90C1
:10103000EF90DF900895BF92CF92DF92EF92FF92F0
:101040000F931F93CF93DF93F82EE92E8B016A0144
:101050000E947B07B82E882351F58F2D9E2D9C0171
:10106000E90122C08091E80085FD17C08091E80069
:10107000982F9E7F9093E8008F778093E800C114AB
:10108000D10431F0F6010995813011F484E010C0EB
:101090000E947B07882341F00BC0FE012196E4915A
:1010A000E093F1000150104001151105D9F68B2D88
:1010B000DF91CF911F910F91FF90EF90DF90CF9034
:1010C000BF900895DF92EF92FF920F931F93CF93FB
:1010D000DF938C01EB017A010E947B07D82E8823D5
:1010E00049F521970C0F1D1F219622C08091E80021
:1010F00085FD17C08091E800982F9E7F9093E800AF
:101100008F778093E800E114F10431F0F70109953D
:10111000813011F484E00FC00E947B07882341F0E6
:101120000AC0F8018081015010408093F10021979E
:101130002097E1F68D2DDF91CF911F910F91FF90B8
:10114000EF90DF900895DF92EF92FF920F931F933D
:10115000CF93DF938C01EB017A010E947B07D82E9D
:10116000882349F521970C0F1D1F219622C08091DD
:10117000E80085FD17C08091E800982F9E7F90932E
:10118000E8008F778093E800E114F10431F0F70173
:101190000995813011F484E00FC00E947B078823F9
:1011A00041F00AC0F80101501040E491E093F100D1
:1011B00021972097E1F68D2DDF91CF911F910F910F
:1011C000FF90EF90DF900895DF92EF92FF920F93E0
:1011D0001F93CF93DF93182F092FEB017A010E9401
:1011E0007B07D82E882341F5812F902F9C01890100
:1011F00021C08091E80085FD17C08091E800982FFC
:101200009B7F9093E8008F778093E800E114F104CE
:1012100031F0F7010995813011F484E00EC00E948D
:101220007B07882339F009C08091F100F801819390
:101230008F0121972097E9F68D2DDF91CF911F9196
:101240000F91FF90EF90DF900895DF92EF92FF9261
:101250000F931F93CF93DF938C01EB017A010E94D0
:101260007B07D82E882349F521970C0F1D1F219647
:1012700022C08091E80085FD17C08091E800982F7A
:101280009B7F9093E8008F778093E800E114F1044E
:1012900031F0F7010995813011F484E00FC00E940C
:1012A0007B07882341F00AC08091F100F801808318
:1012B0000150104021972097E1F68D2DDF91CF91BD
:1012C0001F910F91FF90EF90DF9008959C01409146
:1012D0001E0150911F014617570718F4F90160E0ED
:1012E00043C06115710511F0AB01F8CF8091E800A2
:1012F000982F9E7F9093E8008F778093E80040E0DE
:1013000050E0ECCF8091E80083FF02C081E00895B7
:101310008091E80082FD32C0809117018823A1F1FD
:101320008091E80080FF20C08091F200282F30E0FB
:1013300007C081918093F100415050402F5F3F4F93
:101340004115510519F02830310598F360E0283037
:10135000310509F461E08091E800982F9E7F909319
:10136000E8008F778093E8004115510559F6662310
:1013700049F604C080911701882331F08091E8007C
:1013800082FFF8CF80E0089582E008959C014091AB
:101390001E0150911F014617570710F460E043C02B
:1013A0006115710511F0AB01F9CF8091E800982F1C
:1013B0009E7F9093E8008F778093E80040E050E0B4
:1013C000EDCF8091E80083FF02C081E00895809115
:1013D000E80082FD32C0809117018823A1F180913D
:1013E000E80080FF20C08091F20090E009C0F90180
:1013F0002F5F3F4FE491E093F10041505040019640
:101400004115510519F08830910588F360E008977F
:1014100009F461E08091E800982F9E7F9093E800A6
:101420008F778093E8004115510559F6662349F6F8
:1014300004C080911701882331F08091E80082FF79
:10144000F8CF80E0089582E008959C0140911E014C
:1014500050911F014617570730F4FB013197E20FF7
:10146000F31F60E044C06115710511F0AB01F5CFC9
:101470008091E800982F9E7F9093E8008F7780936B
:10148000E80040E050E0E9CF8091E80083FF02C02F
:1014900081E008958091E80082FD33C080911701BA
:1014A0008823A9F18091E80080FF21C08091F2009B
:1014B000282F30E008C0808131978093F10041509F
:1014C00050402F5F3F4F4115510519F0283031052D
:1014D00090F360E02830310509F461E08091E80084
:1014E000982F9E7F9093E8008F778093E8004115B6
:1014F000510551F6662341F604C0809117018823F7
:1015000031F08091E80082FFF8CF80E0089582E01A
:101510000895AC0120911E0130911F012617370755
:1015200030F461507040640F751F40E043C0611596
:10153000710511F09B01F5CF8091E800982F9E7FF7
:101540009093E8008F778093E80020E030E0E9CFC7
:101550008091E80083FF02C081E008958091E80057
:1015600082FD32C0809117018823A1F18091E800AB
:1015700080FF20C08091F20090E009C0FB01615023
:101580007040E491E093F100215030400196211524
:10159000310519F08830910588F340E0089709F487
:1015A00041E08091E800982F9E7F9093E8008F772C
:1015B0008093E8002115310559F6442349F604C00B
:1015C00080911701882331F08091E80082FFF8CFE5
:1015D00080E0089582E008959C016115710549F449
:1015E0008091E800982F9B7F9093E8008F778093FD
:1015F000E800F90122C08091E80083FF02C081E089
:10160000089580911701882331F18091E80082FFCD
:10161000F2CF06C08091F10081936150704021F0BB
:101620008091F2008823B1F78091E800982F9B7F8A
:101630009093E8008F778093E80061157105D9F6E3
:1016400004C080911701882331F08091E80080FF69
:10165000F8CF80E0089582E00895AC01611571052E
:1016600011F09B010BC08091E800982F9B7F909315
:10167000E8008F778093E80020E030E0FB013197AD
:10168000E40FF51F23C08091E80083FF02C081E0D2
:10169000089580911701882339F18091E80082FF35
:1016A000F2CF07C08091F100808331972150304004
:1016B00021F08091F2008823A9F78091E800982F0B
:1016C0009B7F9093E8008F778093E8002115310588
:1016D000D1F604C080911701882331F08091E80091
:1016E00080FFF8CF80E0089582E008950F931F9364
:1016F000CF93DF93AC016115710511F08B010BC025
:101700008091E800982F9B7F9093E8008F778093DB
:10171000E80000E010E09B0121503040240F351F0D
:1017200029C08091E80083FF02C081E032C080912F
:101730001701882369F18091E80082FFF2CF0BC086
:10174000E90121976091F100C9010E94DB1201506B
:10175000104031F09E018091F200882389F7E90161
:101760008091E800982F9B7F9093E8008F7780937B
:10177000E8009E0101151105A1F604C08091170132
:10178000882331F08091E80080FFF8CF80E001C02D
:1017900082E0DF91CF911F910F9108950F931F93D6
:1017A000CF93DF939C018B016115710599F58091B1
:1017B000E800982F9B7F9093E8008F778093E80054
:1017C00029C08091E80083FF02C081E032C080918F
:1017D0001701882369F18091E80082FFF2CF0BC0E6
:1017E000E90121966091F100C9010E94DB120150CC
:1017F000104031F09E018091F200882389F7E901C1
:101800008091E800982F9B7F9093E8008F778093DA
:10181000E8009E0101151105A1F604C08091170191
:10182000882331F08091E80080FFF8CF80E001C08C
:1018300082E0DF91CF911F910F910895BF92CF92D7
:10184000DF92EF92FF920F931F93CF93DF937C0170
:10185000EB016A010E947B07B82E882361F521976E
:10186000EC0EFD1E219625C08091E80085FD17C075
:101870008091E800982F9B7F9093E8008F7780936A
:10188000E800C114D10431F0F6010995813011F45A
:1018900084E012C00E947B07882359F00DC08701A5
:1018A000015010406091F100C7010E94DB122197A6
:1018B00078012097C9F68B2DDF91CF911F910F9161
:1018C000FF90EF90DF90CF90BF900895BF92CF929E
:1018D000DF92EF92FF920F931F93CF93DF938C01D0
:1018E0007B016A010E947B07B82E882361F5E8011D
:1018F00027C08091E80085FD17C08091E800982FEF
:101900009B7F9093E8008F778093E800C114D10407
:1019100031F0F6010995813011F484E015C00E9480
:101920007B07882369F010C08E010F5F1F4F609105
:10193000F100CE010E94DB120894E108F108E801F1
:10194000E114F104B1F68B2DDF91CF911F910F912E
:10195000FF90EF90DF90CF90BF900895EF92FF92AD
:101960000F931F93CF93DF939C01E0901E01F090A3
:101970001F01E616F70630F461507040620F731FC6
:1019800020E048C06115710511F07B01F5CF809111
:10199000E800982F9E7F9093E8008F778093E8006F
:1019A000EE24FF24E9CF8091E80083FF02C081E0AC
:1019B00042C08091E80082FD37C0809117018823E2
:1019C000C9F18091E80080FF25C08091F200C82F06
:1019D000D0E00DC08B0101501040CB010E94D3120A
:1019E0008093F1000894E108F1082196B801E11410
:1019F000F10419F0C830D10568F320E0289709F404
:101A000021E08091E800982F9E7F9093E8008F77E7
:101A10008093E800E114F10431F6222321F604C09A
:101A200080911701882331F08091E80082FFF8CF80
:101A300080E001C082E0DF91CF911F910F91FF9074
:101A4000EF900895EF92FF920F931F93CF93DF9340
:101A50009C01E0901E01F0901F01E616F70610F4BD
:101A600040E048C06115710511F07B01F9CF80910C
:101A7000E800982F9E7F9093E8008F778093E8008E
:101A8000EE24FF24EDCF8091E80083FF02C081E0C7
:101A900042C08091E80082FD37C080911701882301
:101AA000C9F18091E80080FF25C08091F200C82F25
:101AB000D0E00DC089010F5F1F4FC9010E94D312F2
:101AC0008093F1000894E108F10821969801E1144F
:101AD000F10419F0C830D10568F340E0289709F403
:101AE00041E08091E800982F9E7F9093E8008F77E7
:101AF0008093E800E114F10431F6442321F604C098
:101B000080911701882331F08091E80082FFF8CF9F
:101B100080E001C082E0DF91CF911F910F91FF9093
:101B2000EF900895BF92CF92DF92EF92FF920F93C2
:101B30001F93CF93DF937C01EB016A010E947B0727
:101B4000B82E882361F52197EC0EFD1E219625C045
:101B50008091E80085FD17C08091E800982F9E7F56
:101B60009093E8008F778093E800C114D10431F09E
:101B7000F6010995813011F484E012C00E947B07C0
:101B8000882359F00DC0870101501040C7010E9401
:101B9000D3128093F100219778012097C9F68B2DFD
:101BA000DF91CF911F910F91FF90EF90DF90CF9039
:101BB000BF900895BF92CF92DF92EF92FF920F9362
:101BC0001F93CF93DF938C017B016A010E947B07F7
:101BD000B82E882361F5E80127C08091E80085FDD3
:101BE00017C08091E800982F9E7F9093E8008F7730
:101BF0008093E800C114D10431F0F60109958130D9
:101C000011F484E015C00E947B07882369F010C09E
:101C10008E010F5F1F4FCE010E94D3128093F100FF
:101C20000894E108F108E801E114F104B1F68B2D04
:101C3000DF91CF911F910F91FF90EF90DF90CF90A8
:101C4000BF9008950E948F0E0E94920E109217016D
:101C500010921501109214011092130184E089BDB5
:101C600089B5826089BD09B400FEFDCF8091D8009E
:101C7000982F9F779093D80080688093D8008091A8
:101C800063008E7F809363008091D8008F7D809366
:101C9000D8008091E0008E7F8093E0008091E10089
:101CA0008E7F8093E1008091E20081608093E2006A
:101CB0008091E100877F8093E1008091E20088605D
:101CC0008093E20008950E94220EE0EEF0E0808111
:101CD00081608083E8EDF0E080818F77808319BC9C
:101CE0001092160108950E94220E81E08093160141
:101CF0007894089508951F9380911701882369F0BF
:101D00001091E9001092E9008091E80083FF02C081
:101D10000E94F00517701093E9001F91089510922A
:101D2000E20008951092E10008951F920F920FB6FD
:101D30000F921124EF92FF921F932F933F934F9393
:101D40005F936F937F938F939F93AF93BF93EF9323
:101D5000FF9389EEE82EF12CF701108117700E9495
:101D60007B0EE8EEF0E08081877F8083F7011083AF
:101D7000FF91EF91BF91AF919F918F917F916F9163
:101D80005F914F913F912F911F91FF90EF900F9096
:101D90000FBE0F901F9018951F920F920FB60F92C3
:101DA00011242F933F934F935F936F937F938F9360
:101DB0009F93AF93BF93EF93FF938091E10080FFD8
:101DC0001DC08091E20080FF19C08091E1008E7FEC
:101DD0008093E1008091E2008E7F8093E200809109
:101DE000E20080618093E2008091D800806280935D
:101DF000D80019BC109217010E945A018091E1008D
:101E000084FF2BC08091E20084FF27C084E089BD5D
:101E100089B5826089BD09B400FEFDCF8091D800EC
:101E20008F7D8093D8008091E1008F7E8093E100C8
:101E30008091E2008F7E8093E2008091E2008160D9
:101E40008093E20080911501882311F481E001C0A4
:101E500084E0809317010E9462018091E10083FF7A
:101E60002BC08091E20083FF27C08091E100877F33
:101E70008093E10082E08093170110921501809118
:101E8000E1008E7F8093E1008091E2008E7F80935D
:101E9000E2008091E20080618093E2000E943B07B3
:101EA00080E060E042E00E9428078091F0008860B6
:101EB0008093F0000E947A0E8091E10082FF0BC0B7
:101EC0008091E20082FF07C08091E1008B7F8093C8
:101ED000E1000E947A0EFF91EF91BF91AF919F9127
:101EE0008F917F916F915F914F913F912F910F90C3
:101EF0000FBE0F901F90189547988BB1867B8BB9BA
:101F000080E991E00197F1F70895662379F4E82FCD
:101F1000F0E0E25AFE4FE491E7FF02C0479AEF7704
:101F2000EE2399F18BB1E82BEBB90895262F30E021
:101F3000882379F4225A3E4FF901649167FF02C069
:101F400047986F77662309F18BB1609568236BB969
:101F50000895E82FF0E0E25AFE4F9491225A3E4F46
:101F6000F901649197FF02C0479A9F77992319F06E
:101F70008BB1982B9BB967FF02C047986F77662398
:101F800021F08BB1609568236BB908950E94A50577
:101F9000482F282F30E0C90133E0969587953A9570
:101FA000E1F78095817040FF826047FF846008956B
:101FB000EF92FF920F931F93082FF62E18EC45E334
:101FC000E42E04C011508E2D8A95F1F70E94A505CC
:101FD00080238F1511F41123A9F70E94A50590E025
:101FE00008230F1191E0892F1F910F91FF90EF901F
:101FF0000895FF920F931F93E82FF0E0E25AFE4FEF
:102000000491662311F410E00AC0102F08C00E944A
:102010004901882361F08F2D8A95F1F702C055E3BD
:10202000F52E0E94A5058023811789F381E01F9179
:102030000F91FF900895DF92EF92FF920F931F93FD
:10204000CF93DF93D82E47988BB1867F8BB95E9A5A
:102050008CE291E020E931E0F9013197F1F7019745
:10206000D9F75E98C8E9DAE368ECE62EF12C00E9CE
:1020700011E047988BB1867B8BB9C7010197F1F7C7
:102080004A9B13C0C7010197F1F74A9B0EC0479ABC
:10209000C8010197F1F74A9B02C0479806C04798CC
:1020A000C8010197F1F74A990BC0C8010197F1F7F0
:1020B0000E944901882321F02197D9F6DD20C9F635
:1020C000DF91CF911F910F91FF90EF90DF900895D6
:1020D0004F925F926F927F928F929F92AF92BF9238
:1020E000CF92DF92EF92FF920F931F93CF93DF93E4
:1020F0005C0161E00E945202EE24FF24AAE64A2E0F
:10210000FAE05F2ECC24C394E8E16E2EE1E07E2E4F
:1021100078EC872E912CC0E0D0E00CC083ECC03569
:10212000D80771F00E944901882351F02196842D2F
:102130008A95F1F7499BF2CF80911101882329F00C
:102140000E945B03EE24FF2453C05B9898EC04C00C
:102150009150852D8A95F1F7499B02C09923C1F7CB
:10216000499B07C0C09211015B9AC3010197F1F727
:102170005B98F89481E061E00E94D80F182FDD246D
:1021800000E013C081E060E00E94D80F182F882380
:1021900041F006954A99006881E061E00E94D80FFD
:1021A000182FD39488E0D81611F0112359F778949A
:1021B000112361F05B9A802F0E9467028823B1F49B
:1021C0000894E11CF11CC4010197F1F7A895EA14E9
:1021D000FB0441F0112341F080911101882309F49F
:1021E0009ACF04C0112311F4EE24FF240E945B0354
:1021F000C701DF91CF911F910F91FF90EF90DF907A
:10220000CF90BF90AF909F908F907F906F905F9096
:102210004F9008953F924F925F926F927F928F926C
:102220009F92AF92BF92CF92DF92EF92FF920F9365
:102230001F93DF93CF930F92CDB7DEB77C01D62EDD
:102240001092110160E00E94520280EC60E00E9456
:10225000D80F882311F15B9832E0C32ECD20D1FC3A
:10226000479A589A88E068E00E94D80F882399F02E
:10227000870128EC422E512C3E010894611C711CF0
:102280009CE2892E91E0992E8AE6382EB0E9AB2E99
:10229000B1E0BB2E48C0479858980E945B0300E00D
:1022A00010E068C0C2010197F1F74A9939C0589807
:1022B00005C00E944901882309F43DC04A9BF9CF1B
:1022C0006DC0CC2041F488E068E00E94D80F88E01F
:1022D00060E00E94D80F589AC3010E9488028823A8
:1022E00051F5398120E0C4010197F1F730FF5B9A85
:1022F0005898832D8A95F1F7589A5B982F5F28306C
:1023000011F03695F0CF88E068E00E94D80F88235E
:1023100039F00894E108F108C5010197F1F702C00E
:1023200000E010E0A895E114F10439F00115110561
:1023300009F0B8CF02C000E010E00E945B03011575
:102340001105B1F0D0FE0EC05B9A4798589807C0AF
:102350000E944901882319F400E010E004C0499963
:10236000F7CF01C0479880E991E00197F1F702C0EB
:1023700047985898C8010F90CF91DF911F910F9106
:10238000FF90EF90DF90CF90BF90AF909F908F9095
:102390007F906F905F904F903F90089581E0E81696
:1023A000F10409F098CF8DCF90E087FF02C05B9ACF
:1023B00001C05B9858984999FECF87FF02C05B988F
:1023C00001C05B9A499BFECF5B98589A4A99FECF11
:1023D0009F5F983011F0880FE8CF089527E090E0D4
:1023E00041E04A9BFECF589889B186958427382FC3
:1023F000317080FD02C080E001C080E89695982B86
:102400005B9A89B18695842781703817D1F35B98E0
:102410004A99FECF589A215020F7892F089590E0CD
:1024200080FF02C05B9A01C05B9886954798499BE4
:10243000FECF80FF02C05B9A01C05B98479A499922
:10244000FECF9F5F943011F08695EACF5B98089598
:1024500080E024E0499BFECF4A9B02C030E001C0EF
:1024600030E847984999FECF4A9B02C090E001C0EE
:1024700090E88695832B8695892B479A215051F7B2
:102480000895FC014A99FECF90818FEF84B995B9E8
:1024900058984A9BFECF91818FEF84B995B9589A8D
:1024A0000895FC014A99FECF14B815B883B1808312
:1024B00058984A9BFECF14B815B883B18183589AB7
:1024C00008959FEF94B985B958984A9BFECF589AC2
:1024D0004A99FECF089558984A9BFECF14B815B874
:1024E00083B1589A4A99FECF0895479A8BB1867F57
:1024F0008BB98AE18A95F1F74A9BFECF14B815B8DB
:1025000083B195E09A95F1F747984A99FECF0895DF
:10251000FC012FEF3FEF91E007C02115310511F4C9
:102520008FEF08952150304089B18695869589278F
:102530008170861791F714B815B883B1808380E055
:102540000895982F479A8BB1867F8BB98AE18A9537
:10255000F1F74A9BFECF8FEF84B995B985E08A9554
:10256000F1F7479885E38A95F1F74A99FECF14B8B9
:1025700015B883B10895982F2FEF3FEF41E007C0C2
:102580002115310511F48FEF08952150304089B1A4
:102590008695869584278170861791F78FEF84B989
:1025A00095B980E00895F999FECF92BD81BDF89A62
:1025B000992780B50895262FF999FECF1FBA92BDAD
:1025C00081BD20BD0FB6F894FA9AF99A0FBE019614
:0625D0000895F894FFCF0E
:0825D6000304000F0055AAFFE9
:00000001FF
