:100000009CC00000B6C00000B4C00000B2C0000038
:10001000B0C00000AEC00000ACC00000AAC000002C
:10002000A8C00000A6C00000A4C000000C94F809FD
:100030000C94C2099EC000009CC000009AC0000041
:1000400098C0000096C0000094C0000092C000005C
:1000500090C000008EC000008CC000008AC000006C
:1000600088C0000086C0000084C0000082C000007C
:1000700080C0000012011001FF000008D016040526
:10008000060001020301090220000101008032097B
:1000900004000002FF0000000705830220000007A3
:1000A000050402200000040309043A034E00610025
:1000B0007400650020004C006100770073006F0041
:1000C0006E00200061006E00640020004F00700090
:1000D00065006E00430042004D0020007400650082
:1000E00061006D0000004203780075006D00310072
:1000F000350034003100200066006C006F00700095
:1001000070007900200061006400610070007400DC
:100110006500720020002800420055004D0042009A
:100120004C004500420029000000000801098088B9
:10013000818940484149C0C8C1C911241FBECFEFC1
:10014000D2E0DEBFCDBF11E0A0E0B1E0E2E6FCE12D
:1001500002C005900D92A231B107D9F711E0A2E1DA
:10016000B1E001C01D92AA32B107E1F7EED00C94C4
:100170002F0E46CFA9EEB0E09C91977081E080935E
:100180001C0184E08C93EBEEF0E080818062808340
:1001900083E08C938081806280839C93089520917A
:1001A000E900E0E0F1E041E050E01BC08093E900AD
:1001B000BA0102C0660F771F8A95E2F76093EA00E2
:1001C0001092EA008091EB0088608093EB008091B0
:1001D000EB0085FF05C08091EB0080618093EB0010
:1001E00031968081882311F727702093E9000895C4
:1001F00080911C01089523E02093E90070E048EF0E
:1002000050E0A6D680911C01882311F080E008956B
:100210008091E800982F9E7F9093E8008F778093DD
:10022000E80081E0089524E02093E90070E048EFC1
:1002300050E0CDD680911C01882311F080E0089514
:100240008091E800982F9B7F9093E8008F778093B0
:10025000E80081E00895A89580911C01882311F0A1
:1002600080E008958BD4882311F481E008957CD434
:1002700081E008951092120110921A0180E060C48A
:1002800081E05ED410921C0181E0809312010895F8
:100290000F931F93DF93CF93CDB7DEB728970FB699
:1002A000F894DEBF0FBECDBF8091220180768032F0
:1002B00091F58E010F5F1F4F88E0F80111928A952A
:1002C000E9F780912301B8014CD1682F8F3F19F4D1
:1002D00084E036D420C08091E800877F8093E800D6
:1002E0008091220187FF0AC0772767FD7095C801BA
:1002F000ADD68091E800982F9B7F08C08091E800E0
:1003000080FFFCCF8091E800982F9E7F9093E800BB
:100310008F778093E80028960FB6F894DEBF0FBE63
:10032000CDBFCF91DF911F910F91089538DF83E00A
:1003300061E846E25DD584E060E846E259D582E0B6
:10034000FFD381E080931A010895DF92EF92FF922C
:100350000F931F93DF93CF93CDB7DEB727970FB6D9
:10036000F894DEBF0FBECDBF80E090E020E80FB66E
:10037000F89420936100809361000FBE2EE088E125
:1003800090E00FB6F894A895809360000FBE20937C
:100390006000D8D701C0A895809112018823D9F3B5
:1003A0009BD380E0CDD30E94A40A80E00E943F0B43
:1003B00094E0E92EF12CEC0EFD1E83E0D82E8E0188
:1003C0000F5F1F4FA8952FC080912101843031F518
:1003D0008093E9008091E80085FF20C0C70164E0B8
:1003E00022DF882319F484E0ABD318C0F8018D2DE7
:1003F00011928A95E9F7C701B8019BD118162CF420
:100400008983C80163E0F7DE09C0882339F084E0FE
:1004100097D38091EB0080628093EB001CDF8823F0
:1004200011F410921C0180911A01882369F601C011
:10043000A89580911201882309F0C4CFF9CF9C01BF
:10044000613011F483E003C0662369F484E0809393
:10045000E90030931501209314016093030180910A
:10046000E80085FFFCCF08958093F100809114018E
:10047000909115010197909315018093140180913B
:10048000E80085FD0DC08091E800982F9E7F909335
:10049000E8008F778093E8008091E80085FFFCCF2B
:1004A00080911C0181118FEF0895FC018091E8007B
:1004B00085FD0DC08091E800982F9B7F9093E80008
:1004C0008F778093E8008091E80085FFFCCF8091D2
:1004D000F100808380911401909115010197909310
:1004E00015018093140180911C0181118FEF0895F3
:1004F00080911701882311F40C94C60D10921701F6
:1005000088E80895282F80911701882329F01092F8
:10051000170120931801089590911301943061F40C
:10052000822F8350833010F02B3019F481E08093B8
:1005300017011092130112C0E92FF0E0E25FFE4FA5
:100540008081821721F49F5F9093130107C010925E
:100550001301222319F481E080931301822F0C945C
:10056000EB0DCF93DF93EB01823009F462C083304F
:1005700030F4882309F438C0813031F438C0833036
:1005800009F452C0843011F08FEF57C08091E80019
:10059000877F8093E8008091E80080FFFCCF809106
:1005A000E800982F9E7F9093E8008F778093E80073
:1005B00088EE93E020E931E0F9013197F1F70197F6
:1005C000D9F788E10FB6F89480936000109260002C
:1005D0000FBEA9D6F8941092810010928900109253
:1005E00088000C94001828C0188281E026C083E09F
:1005F000A7D286E0888383E08983809116018823CF
:1006000039F08A8181608A8380E00E943F0BB2DDED
:1006100080911A01882319F48A8182608A8381E09B
:100620008093160188E009C01092160182E088D2FA
:1006300003C080E00E943F0B80E0DF91CF910895DE
:1006400080910301813079F48091F200882331F4A4
:100650008091140190911501892BE9F08091E800B7
:10066000982F9E7F13C08823B1F48091140190913C
:100670001501009719F068EF70E038D48091E80018
:1006800085FD09C08091E800982F9B7F9093E8003A
:100690008F778093E8008FE080930301109215011B
:1006A0001092140108950F931F93CF93DF938C0141
:1006B000EB01CB0161E0C3DE06C0F8010995D4DE91
:1006C0002197882311F42097C1F7BADF80E0DF91EA
:1006D000CF911F910F910895CF92DF92EF92FF92E9
:1006E0000F931F93DF93CF930F92CDB7DEB77C01AB
:1006F0008B01CB0160E0A3DE6E010894C11CD11C0C
:1007000009C0C601D2DE01501040882331F489812E
:10071000F701099501151105A1F792DF80E00F900F
:10072000CF91DF911F910F91FF90EF90DF90CF90CD
:100730000895CF92DF92EF92FF920F931F93DF9372
:10074000CF9300D000D0CDB7DEB78C016B01FC0198
:100750009081E280F38083E09C83F2D19C819A3186
:1007600009F42DC19B3190F4973109F408C19831F7
:1007700030F49830F1F0993009F033C188C09831E5
:1007800009F409C1993109F02CC115C19D3109F451
:100790000DC19E3138F49B3109F406C19C3109F03A
:1007A00020C1FCC09E3109F410C19F3109F019C16C
:1007B00011C1F8018181807F8034E1F0813440F4FF
:1007C000803291F0803399F0803109F00AC109C07C
:1007D000803679F1803709F455C0803509F001C1C0
:1007E00025C0C701A4D7FBC08FE19DE04DC089E6BD
:1007F0009DE04AC0C70161E022DE8E010E5F1F4FFF
:1008000011C0C8010E949F0D8A812EDE882309F045
:10081000AFC08B8129DE882309F0AAC08EEF9FEF3D
:10082000E80EF91EE114F10461F7A2C08CEB9DE023
:100830002BC0E114F10409F4D2C0C70161E0FFDD6F
:100840005B9880E49CE90197F1F70E94C60D00E0F7
:1008500010E06E010894C11CD11C0DC0602F6170A6
:10086000C6010E94DC0D87FDBAC08981FDDD8823A9
:1008700029F40F5F1F4F0E151F0580F3E1DE0E9464
:10088000C60DADC088E792E0B7010DDFA8C0F80142
:100890006181862F807F8034F1F0813440F4803292
:1008A000A1F08033A9F0803109F09BC009C08036E7
:1008B000A9F1803709F45EC0803509F092C02BC0E1
:1008C0006F70C701D3D7F60163C08CEF9CE054C0B2
:1008D00087E49DE051C0C70160E0B1DD8E010E5F8D
:1008E0001F4F83E0C82ED12CCC0EDD1E10C0C801D6
:1008F000DCDD882309F03CC0C601D7DD8823C1F5C3
:10090000C8010E94890D8EEF9FEFE80EF91EE114D9
:10091000F10469F72DC08FEA9DE02EC0E114F104C7
:1009200009F45DC0C70160E08ADD5B988091180121
:100930000E94EB0D00E010E06E010894C11CD11C78
:100940000DC0C601B2DD882361F4602F617089811A
:100950000E94050E87FD43C00F5F1F4F0E151F0538
:1009600080F3602F617080E00E94050E0E94C60D2A
:1009700067DE35C082E892E0B701AEDE30C080911C
:100980001B01F60112821182882339F181E090E087
:100990009283818322C010921B011FC0F8018181C4
:1009A00062814CD68823D9F019D610C0F801818114
:1009B0006281D3D512C014B815B883B107C0F8014D
:1009C00091818FEF84B995B908C092DDF6018183DA
:1009D000128203C0F801818195DD82E003C080E0CE
:1009E00001C08FEF0F900F900F900F90CF91DF917C
:1009F0001F910F91FF90EF90DF90CF9008950F938C
:100A00001F93CF93DF938A01E9011882292F33279F
:100A10002230310561F02330310571F0213031058C
:100A200009F04DC0E4E7F0E022E130E04CC0E6E838
:100A3000F0E020E230E047C090708130910571F025
:100A40008130910538F08230910561F0039709F00B
:100A500036C00EC0E6EAF0E0849107C0EAEAF0E0B2
:100A6000849103C0E6EEF0E08491282F30E02BC0A3
:100A700080E090E00E94270E282F30E020953095EE
:100A80003070EAE0F1E00FC0C9016AE070E00E9456
:100A9000130EC09691838083C9016AE070E00E94C2
:100AA000130E9B0132972115310571F780910401D6
:100AB000282F30E082E08883E4E0F1E004C0E0E049
:100AC000F0E020E030E0D801ED93FC93C901DF9124
:100AD000CF911F910F91089584E887B989E58AB96C
:100AE00014B88AE196E09093890080938800E1E849
:100AF000F0E080818D608083089529B189B149B18A
:100B000066B1E6B190E0827090709595879530E07F
:100B10002072307035952795822B50E044705070CC
:100B2000440F551F842B70E060747070660F771F40
:100B3000862BF0E0E078F070F595E7958E2B089520
:100B400080931901823051F0833018F4882341F0EA
:100B50000895833029F0843031F404C04298089518
:100B6000429A0895429A08958091190183508230E3
:100B700020F488B194E0892788B90895B19902C01A
:100B800080E00895B19A81E008951F93DF93CF9399
:100B900000D00F92CDB7DEB7E2E2F1E08091F10034
:100BA000819381E0EA32F807C9F780912201309100
:100BB0002301353009F486C0363040F43130C1F1BC
:100BC000313070F0333009F0FDC032C0383009F4F4
:100BD000CAC0393009F4DDC0363009F0F3C091C025
:100BE000803821F0823809F0EDC008C090911D01D5
:100BF00080911E01882391F0926010C0809126019F
:100C00008093E9008091EB0090E025E09695879530
:100C10002A95E1F7982F91701092E9008091E800F1
:100C2000877F8093E8009093F1001092F100A6C0B6
:100C3000882319F0823009F0C5C090E08F71907060
:100C4000009721F0029709F0BEC00CC080912401EA
:100C5000813009F0B8C010921E01333069F58093DD
:100C60001E012AC080912401882331F5209126019C
:100C7000277009F4A8C02093E9008091EB0080FF61
:100C80001BC0333021F48091EB00806213C080914F
:100C9000EB0080618093EB0081E090E002C0880F60
:100CA000991F2A95E2F78093EA001092EA0080915A
:100CB000EB0088608093EB001092E9008091E800DF
:100CC000877F63C0882309F07DC010912401809143
:100CD000E800877F8093E800B5D005C080912101AE
:100CE000882309F470C08091E80080FFF7CF912F2E
:100CF0009F7719F083E08093210190689093E3003F
:100D000062C08058823008F05DC0809124019091CB
:100D1000250160912601AE014E5F5F4F9E012F5F5E
:100D20003F4F6DDEBC01009709F44DC08091E80093
:100D3000877F8093E8002981222321F48A819B8187
:100D4000E5D107C08A819B81213011F43ED201C0D8
:100D50007DD18091E800982F9B7F9093E8008F775A
:100D60008093E80030C0803869F58091E800877F83
:100D70008093E80080911F018093F1008091E8004A
:100D8000982F9E7F9093E8008F778093E8005AD049
:100D90001AC08823B9F4909124019230A0F4809174
:100DA000E800877F8093E80090931F014BD08091EB
:100DB0001F01882311F483E001C084E080932101A6
:100DC000B5DA01C065DA8091E80083FF0AC080913E
:100DD000EB0080628093EB008091E800877F809336
:100DE000E8000F900F900F90CF91DF911F91089521
:100DF0008093E9008091EB0081608093EB0010927A
:100E0000ED006093EC004093ED008091EE00881FB0
:100E10008827881F08951092F40090E09093E900CD
:100E20001092F0001092E8008091ED008D7F809389
:100E3000ED008091EB008E7F8093EB009F5F9530FB
:100E400069F70895809122018823BCF404C0809141
:100E500021018823F9F08091E80082FFF8CF80918A
:100E6000E800982F9B7F9093E8008F778093E800AD
:100E7000089580912101882369F08091E80080FF26
:100E8000F8CF8091E800982F9E7F9093E8008F77AD
:100E90008093E800089594E68091EC0080FF05C0FF
:100EA0008091E80080FF05C01FC08091E80082FDAE
:100EB0001BC080912101882311F482E00895809164
:100EC000EB0085FF02C081E008958091E10082FF80
:100ED000E3CF8091E1008B7F8093E100992311F4AF
:100EE00083E008959150D8CF80E00895FF920F934A
:100EF0001F93CF93DF93EC018B01CDDFF82E882376
:100F0000F1F01FC08091E80085FD16C08091E800D7
:100F1000982F9B7F9093E8008F778093E8000115CE
:100F2000110531F0F8010995813011F484E00AC00F
:100F3000B2DF882321F006C08091F100219720972D
:100F400009F78F2DDF91CF911F910F91FF90089599
:100F5000DF92EF92FF920F931F93CF93DF93182F9F
:100F6000092FEB017A0197DFD82E882339F5812FDD
:100F7000902F9C01890120C08091E80085FD16C05A
:100F80008091E800982F9E7F9093E8008F77809360
:100F9000E800E114F10431F0F7010995813011F412
:100FA00084E00DC078DF882339F009C0F801819111
:100FB0008F018093F10021972097F1F68D2DDF911D
:100FC000CF911F910F91FF90EF90DF900895DF92E6
:100FD000EF92FF920F931F93CF93DF93182F092F58
:100FE000EB017A0158DFD82E882339F5812F902F15
:100FF0009C01890120C08091E80085FD16C0809188
:10100000E800982F9B7F9093E8008F778093E8000B
:10101000E114F10431F0F7010995813011F484E015
:101020000DC039DF882339F009C08091F100F80143
:1010300081938F0121972097F1F68D2DDF91CF912C
:101040001F910F91FF90EF90DF9008959C014091C8
:101050002801509129014617570718F4F90160E05B
:1010600043C06115710511F0AB01F8CF8091E80024
:10107000982F9E7F9093E8008F778093E80040E060
:1010800050E0ECCF8091E80083FF02C081E008953A
:101090008091E80082FD32C0809121018823A1F176
:1010A0008091E80080FF20C08091F200282F30E07E
:1010B00007C081918093F100415050402F5F3F4F16
:1010C0004115510519F02830310598F360E02830BA
:1010D000310509F461E08091E800982F9E7F90939C
:1010E000E8008F778093E8004115510559F6662393
:1010F00049F604C080912101882331F08091E800F5
:1011000082FFF8CF80E0089582E008959C0140912D
:101110002801509129014617570710F460E043C099
:101120006115710511F0AB01F9CF8091E800982F9E
:101130009E7F9093E8008F778093E80040E050E036
:10114000EDCF8091E80083FF02C081E00895809197
:10115000E80082FD32C0809121018823A1F18091B5
:10116000E80080FF20C08091F20090E009C0F90102
:101170002F5F3F4FE491E093F100415050400196C2
:101180004115510519F08830910588F360E0089702
:1011900009F461E08091E800982F9E7F9093E80029
:1011A0008F778093E8004115510559F6662349F67B
:1011B00004C080912101882331F08091E80082FFF2
:1011C000F8CF80E0089582E00895EF92FF920F93A8
:1011D0001F93CF93DF939C01E0902801F0902901A9
:1011E000E616F70610F440E047C06115710511F0EE
:1011F0007B01F9CF8091E800982F9E7F9093E800C3
:101200008F778093E800EE24FF24EDCF8091E800F3
:1012100083FF02C081E041C08091E80082FD36C0BA
:10122000809121018823C1F18091E80080FF24C0D2
:101230008091F200C82FD0E00CC089010F5F1F4FD2
:10124000C90105D58093F1000894E108F1082196C1
:101250009801E114F10419F0C830D10570F340E0B1
:10126000289709F441E08091E800982F9E7F9093A1
:10127000E8008F778093E800E114F10439F6442305
:1012800029F604C080912101882331F08091E80083
:1012900082FFF8CF80E001C082E0DF91CF911F9103
:1012A0000F91FF90EF90089567D069D010922101BF
:1012B00010921F0110921E0110921D0184E089BD41
:1012C00089B5826089BD09B400FEFDCF8091D80048
:1012D000982F9F779093D80080688093D800809152
:1012E00063008E7F809363008091D8008F7D809310
:1012F000D8008091E0008E7F8093E0008091E10033
:101300008E7F8093E1008091E20081608093E20013
:101310008091E100877F8093E1008091E200886006
:101320008093E2000895C0DFE0EEF0E0808181600C
:101330008083E8EDF0E080818F77808319BC109284
:1013400020010895B1DF81E0809320017894089511
:1013500008951F9380912101882361F01091E90085
:101360001092E9008091E80083FF01C00EDC177045
:101370001093E9001F9108951092E20008951092D1
:10138000E10008951F920F920FB60F921124EF9271
:10139000FF921F932F933F934F935F936F937F938E
:1013A0008F939F93AF93BF93EF93FF9389EEE82EB4
:1013B000F12CF70110811770CCDFE8EEF0E08081AE
:1013C000877F8083F7011083FF91EF91BF91AF91E9
:1013D0009F918F917F916F915F914F913F912F914D
:1013E0001F91FF90EF900F900FBE0F901F901895D8
:1013F0001F920F920FB60F9211242F933F934F938A
:101400005F936F937F938F939F93AF93BF93EF936C
:10141000FF938091E10080FF1DC08091E20080FF7A
:1014200019C08091E1008E7F8093E1008091E200FD
:101430008E7F8093E2008091E20080618093E200E1
:101440008091D80080628093D80019BC109221014D
:101450000E943A018091E10084FF2BC08091E2005C
:1014600084FF27C084E089BD89B5826089BD09B445
:1014700000FEFDCF8091D8008F7D8093D8008091B1
:10148000E1008F7E8093E1008091E2008F7E809367
:10149000E2008091E20081608093E20080911F0170
:1014A000882311F481E001C084E0809321010E942F
:1014B00040018091E10083FF28C08091E20083FF1A
:1014C00024C08091E100877F8093E10082E08093D7
:1014D000210110921F018091E1008E7F8093E10035
:1014E0008091E2008E7F8093E2008091E200806133
:1014F0008093E20090DC80E060E042E079DC809163
:10150000F00088608093F00023DF8091E10082FF8B
:101510000AC08091E20082FF06C08091E1008B7FCB
:101520008093E10015DFFF91EF91BF91AF919F9103
:101530008F917F916F915F914F913F912F910F907C
:101540000FBE0F901F90189547988BB1867B8BB973
:1015500080E991E00197F1F70895662379F4E82F87
:10156000F0E0E65DFE4FE491E7FF02C0479AEF77B7
:10157000EE2399F18BB1E82BEBB90895262F30E0DB
:10158000882379F4265D3E4FF901649167FF02C01C
:1015900047986F77662309F18BB1609568236BB923
:1015A0000895E82FF0E0E65DFE4F9491265D3E4FF2
:1015B000F901649197FF02C0479A9F77992319F028
:1015C0008BB1982B9BB967FF02C047986F77662352
:1015D00021F08BB1609568236BB908958EDA482F9E
:1015E000282F30E0C90133E0969587953A95E1F7C9
:1015F0008095817040FF826047FF84600895EF927C
:10160000FF920F931F93082FF62E18EC45E3E42E5C
:1016100004C011508E2D8A95F1F76FDA80238F1553
:1016200011F41123B1F769DA90E008230F1191E06A
:10163000892F1F910F91FF90EF900895FF920F93C4
:101640001F93E82FF0E0E65DFE4F0491662311F44E
:1016500010E00AC0102F08C00E942B01882359F007
:101660008F2D8A95F1F702C055E3F52E46DA8023D7
:10167000811791F381E01F910F91FF900895BF9220
:10168000CF92DF92EF92FF920F931F93CF93DF934E
:10169000B82E47988BB1867F8BB95E9A8CE291E029
:1016A00020E931E0F9013197F1F70197D9F75E9818
:1016B000CCE4DDE178ECE72EF12C68E5C62E62E0A3
:1016C000D62E00E911E047988BB1867B8BB9C70114
:1016D0000197F1F74A9902C0C60106C0C7010197F8
:1016E000F1F74A9904C0C8010197F1F70EC0479A73
:1016F000C8010197F1F74A9B02C0479806C0479876
:10170000C8010197F1F74A9908C00E942B0188236C
:1017100021F02197C1F6BB20B1F6DF91CF911F9147
:101720000F91FF90EF90DF90CF90BF9008954F9270
:101730005F926F927F928F929F92AF92BF92CF9261
:10174000DF92EF92FF920F931F93CF93DF935C0191
:1017500061E00E941F02EE24FF24BAE64B2EAAE0AD
:101760005A2ECC24C394F8E16F2EF1E07F2EE8ECE2
:101770008E2E912CC0E0D0E00CC083ECC035D80791
:1017800071F00E942B01882351F02196842D8A95B7
:10179000F1F7499BF2CF80911B01882329F00E9429
:1017A0002003EE24FF2450C05B9898EC04C09150B5
:1017B000852D8A95F1F7499B02C09923C1F7499B72
:1017C00007C0C0921B015B9AC3010197F1F75B98B8
:1017D000F89481E061E013DF182FDD2400E011C0F0
:1017E00081E060E00CDF182F882339F006954A99D4
:1017F000006881E061E003DF182FD39488E0D816F9
:1018000011F0112369F77894112361F05B9A802F0E
:101810000E9434028823B1F40894E11CF11CC40135
:101820000197F1F7A895EA14FB0441F0112341F068
:1018300080911B01882309F49DCF04C0112311F46A
:10184000EE24FF240E942003C701DF91CF911F9156
:101850000F91FF90EF90DF90CF90BF90AF909F904F
:101860008F907F906F905F904F9008954F925F920E
:101870006F927F928F929F92AF92BF92CF92DF92A0
:10188000EF92FF920F931F93DF93CF930F92CDB7F9
:10189000DEB77C01D62E10921B01009709F492C08E
:1018A00060E00E941F0280EC60E0A9DE882389F0DE
:1018B0005B9842E0C42ECD20D1FC479A589A8AE02A
:1018C0008A95F1F788E068E09ADE882329F4479842
:1018D00058980E94200376C085ED8A95F1F787011C
:1018E0003E010894611C711C3CE2832E31E0932E72
:1018F0002AE0422E9AE6592E80E9A82E81E0B82EE1
:101900004A993EC0589805C00E942B01882309F4CB
:1019100037C04A9BF9CF6BC0CC2031F488E068E037
:101920006EDE88E060E06BDE589AC3010E945502CB
:10193000882331F5398128E0C4010197F1F730FDA2
:1019400004C05B9A842D8A95F1F75898852D8A9565
:10195000F1F7589A5B98215011F03695EDCF88E059
:1019600068E04DDE882361F001501040C501019709
:10197000F1F7A8950115110509F0C2CF870102C042
:1019800000E010E00E94200301151105A9F0D0FE2F
:1019900011C05B9A479881E08A95F1F758988AE0E0
:1019A0008A95F1F704C00E942B01882359F04999C8
:1019B000FACF0AC0479808C08AE68A95F1F7479897
:1019C000589802C000E010E0C8010F90CF91DF915D
:1019D0001F910F91FF90EF90DF90CF90BF90AF904D
:1019E0009F908F907F906F905F904F9008950130FF
:1019F000110509F099CF90CF28E03AE087FF02C0A7
:101A00005B9A01C05B98932F9A95F1F75898932FA2
:101A10009A95F1F74999FECF87FF02C05B9801C004
:101A20005B9A499BFECF589A5B98932F9A95F1F752
:101A30004A99FECF215011F0880FE0CF089528E099
:101A400090E05AE041E04A9BFECF5898852F8A9556
:101A5000F1F789B186958427382F317080FD02C057
:101A600080E001C080E89695982B5B9A89B18695B5
:101A7000842781703817D1F35B98852F8A95F1F709
:101A80004A99FECF589A2150F1F6892F089524E003
:101A90003AE080FF02C05B9A01C05B98932F9A9551
:101AA000F1F786954798499BFECF80FF02C05B9A6D
:101AB00001C05B98932F9A95F1F7479A4999FECF09
:101AC000215011F08695E5CF5B988AE08A95F1F771
:101AD000089580E024E04AE0499BFECF942F9A9538
:101AE000F1F74A9B02C030E001C030E847984999BD
:101AF000FECF942F9A95F1F74A9B02C090E001C067
:101B000090E88695832B8695892B479A215021F75B
:101B10000895FC014A99FECF90818FEF84B995B961
:101B200082E08A95F1F758984A9BFECF91818FEF1A
:101B300084B995B982E08A95F1F7589A0895FC0125
:101B40004A99FECF14B815B883B1808358984A9B40
:101B5000FECF14B815B883B18183589A08959FEFCA
:101B600094B985B982E08A95F1F758984A9BFECFDF
:101B7000589A4A99FECF089558984A9BFECF14B8B8
:101B800015B883B1589A4A99FECF0895479A8BB1F8
:101B9000867F8BB98AE18A95F1F74A9BFECF85E073
:101BA0008A95F1F714B815B883B147984A99FECFD2
:101BB0009AE19A95F1F70895FC0191E089B1869533
:101BC0008695892781708617C9F714B815B883B12F
:101BD000808380E00895982F479A8BB1867F8BB9D8
:101BE0008AE18A95F1F74A9BFECF8FEF84B995B9C8
:101BF00085E08A95F1F7479885E38A95F1F74A9948
:101C0000FECF14B815B883B10895982F21E089B19B
:101C100086958695822781708617C9F78FEF84B9DC
:101C200095B980E00895AA1BBB1B51E107C0AA1F0C
:101C3000BB1FA617B70710F0A61BB70B881F991F6D
:101C40005A95A9F780959095BC01CD010895F99911
:101C5000FECF92BD81BDF89A992780B50895F8947A
:021C6000FFCFB4
:101C62000304000F0803300030003000000000556C
:021C7200AAFFC7
:00000001FF
