:100000009BC00000B5C00000B3C00000B1C000003C
:10001000AFC00000ADC00000ABC00000A9C0000030
:10002000A7C00000A5C00000A3C000000C94C80930
:100030000C94720A9DC000009BC0000099C0000093
:1000400097C0000095C0000093C0000091C0000060
:100050008FC000008DC000008BC0000089C0000070
:1000600087C0000085C0000083C0000081C0000080
:100070007FC000004003780075006D00310035003E
:1000800034003100200066006C006F0070007000CA
:100090007900200061006400610070007400650058
:1000A0007200200028004F004C0049004D00450020
:1000B0005800290000003A034E00610074006500FA
:1000C00020004C006100770073006F006E0020007C
:1000D00061006E00640020004F00700065006E003B
:1000E000430042004D0020007400650061006D0077
:1000F0000000040309040902200001010080320904
:1001000004000002FF000000070583022000000732
:1001100005040220000012011001FF000008D016A3
:100120000405080301020301000801098088818990
:1001300040484149C0C8C1C911241FBECFEFD2E019
:10014000DEBFCDBF11E0A0E0B1E0E8E1FDE102C01B
:1001500005900D92AE31B107D9F721E0AEE1B1E0E3
:1001600001C01D92AE33B207E1F7EED00C94680ED9
:1001700047CF80912E01089581E021D510922E0164
:1001800081E080931E01089510921E0110922C01AF
:1001900080E015C50F931F93CF93DF93CDB7DEB7E4
:1001A00028970FB6F894DEBF0FBECDBF8091360101
:1001B0008076803289F48E010F5F1F4F88E0F8014E
:1001C00011928A95E9F7B8018091370138D2682FEA
:1001D0008F3F69F484E0F3D428960FB6F894DEBF1D
:1001E0000FBECDBFDF91CF911F910F9108958091E8
:1001F000E800877F8093E8008091360187FF0FC079
:10020000062E000C770BC80139D78091E800982F93
:100210009B7F9093E8008F778093E800DDCF8091FB
:10022000E80080FFFCCF8091E800982F9E7FF1CFFF
:10023000E9EEF0E08081877091E090932E0194E0E8
:100240009083ABEEB0E09C9190629C9393E090839E
:100250009C9190629C9380830895CF93A895809100
:100260002E01C0E0811105C0C5D4C82F882321F01C
:10027000B7D48C2FCF910895C1E0FBCF8091E900D6
:100280008770E0E0F1E021E030E09191911103C04E
:100290008093E90008959093E900A90101C0440FFB
:1002A0009A95EAF74093EA001092EA009091EB00E9
:1002B00098609093EB009091EB0095FFE6CF9091C2
:1002C000EB0090619093EB00E0CFD8DF46E261E86D
:1002D00083E0AAD546E260E884E0A6D582E06FD448
:1002E00081E080932C01089524E02093E90070E0E0
:1002F00049EB50E084D680912E0181110BC0809192
:10030000E800982F9B7F9093E8008F778093E80018
:1003100081E0089580E0089523E02093E90070E0F3
:1003200049EB50E02DD680912E0181110BC08091B8
:10033000E800982F9E7F9093E8008F778093E800E5
:1003400081E0089580E0089500D000D000D00F92A1
:10035000CDB7DEB780E890E00FB6F89480936100E7
:10036000909361000FBE88E19EE00FB6F894A895C7
:10037000809360000FBE90936000DCD780911E01D7
:100380008823A1F0F0D380E01AD482D08E010B5FD5
:100390001F4F83E0F82EA89580912C01811108C091
:1003A00080911E018111F7CFA895FACFA895E6CFCD
:1003B00080913501843071F48093E9008091E800E8
:1003C00085FF08C064E0CE0101968EDF811108C070
:1003D00084E0F5D342DF8111DFCF10922E01DCCF14
:1003E000F8018F2D11928A95E9F7B801CE01019697
:1003F000BFD118162CF48D8363E0C8018DDFEACFDE
:10040000882341F384E0DBD38091EB00806280930A
:10041000EB00E0CF80912601811102C00C94F50D14
:1004200088E8089590912601992369F0E0912001D0
:10043000F09121019F012F5F3F4F309321012093C5
:1004400020018083089590911F01943099F49DEFCD
:10045000980F933040F08B3031F09DEE980F923032
:1004600010F0863119F491E09093260110921F014B
:100470000C941D0EE92FF0E0E65EFE4F20819F5F99
:10048000821719F08111F2CF91E090931F01F0CF04
:100490001092270177D30C94A00C23E0613019F05F
:1004A00061110DC024E02093E9008093290190930D
:1004B0002A01609303018091E80085FFFCCF089535
:1004C000809103018130D9F48091F200811106C03E
:1004D0008091290190912A01892B49F08091E800AF
:1004E000982F9E7F9093E8008F778093E8008FE0AD
:1004F0008093030110922A0110922901089581111D
:10050000F6CF8091290190912A01009719F069EBAB
:1005100070E002D58091E80085FDE9CF8091E80088
:10052000982F9B7FDFCF8093F100809129019091DC
:100530002A01019790932A01809329018091E80074
:1005400085FD11C08091E800982F9E7F9093E80070
:100550008F778093E8008091E80085FD04C080914A
:100560002E018823C1F380912E01819508950F9368
:100570001F93CF93DF938C01EB0161E0CE018DDF00
:10058000209731F0F8010995CEDF21978823C1F338
:1005900097DF80E0DF91CF911F910F910895FC01CB
:1005A0008091E80085FD11C08091E800982F9B7F25
:1005B0009093E8008F778093E8008091E80085FDB4
:1005C00004C080912E018823C1F380912E018111F6
:1005D0000EC08091F10080838091290190912A01C1
:1005E000019790932A018093290180E008958FEF6D
:1005F0000895EF92FF920F931F93CF93DF930F9283
:10060000CDB7DEB77C018B0160E0C80146DF011584
:10061000110551F455DF80E00F90DF91CF911F91CC
:100620000F91FF90EF900895CE010196B8DF015031
:1006300011098111EFCF8981F7010995E8CFCF9397
:10064000DF93EB01823009F485C038F481113DC09D
:10065000188281E0DF91CF910895833009F475C04D
:10066000843009F060C08091E800877F8093E800C3
:100670008091E80080FFFCCF8091E800982F9E7F5A
:100680009093E8008F778093E8002FEF80E792E067
:10069000215080409040E1F700C000000FB6F89470
:1006A000A89580916000886180936000109260003E
:1006B0000FBE46D6F89410928100109289001092D5
:1006C00088000C94001880E0C5CF82E291E09093FE
:1006D00021018093200183E072D280912F019091BB
:1006E0003001892BC9F088E0888383E08983809179
:1006F00027018A8390912801911117C080912801C8
:1007000080688093280180912C01811103C08A8127
:1007100082608A8388E09ECFBBDE90933001809315
:100720002F01892B01F78FEF95CF81608A8381E0BC
:1007300080932801E0912F01F09130010190F08128
:10074000E02D80E0099574DDD9CF1092280182E078
:1007500036D2B9CF8091280180FDB5CFE0912F012D
:10076000F09130010190F081E02D80E00995ABCF50
:10077000BF92CF92DF92EF92FF920F931F93CF938E
:10078000DF9300D0CDB7DEB77C016B0180912801EB
:100790008E7F80932801D701BC9012960D911C91F9
:1007A00083E00DD2E8EFEB0DE831A8F4F0E0E65974
:1007B000F14F0C945A0E8091270184FD19C0F70166
:1007C0008181807F803441F140F48032E1F08033D8
:1007D000F9F0803169F08FEF0AC18036A1F18037DE
:1007E00009F462C08035B9F7B8018EED9DE00EC006
:1007F000E0912F01F09130010480F581E02DC801D6
:10080000099580E0F4C0B80183EE9CE0B0DEF9CF3A
:10081000B80186E59DE0FACF61E0C8013EDE011532
:10082000110541F0CE0101960E94AB0D89817BDE5E
:10083000882311F045DEE5CF8A8175DE8111FACF7C
:1008400002501109ECCF6801E894D7F8C114D10423
:10085000C1F21092260161E0C6011FDE5B988FE1B4
:100860009EE40197F1F700C000000E94F50DF12C05
:10087000E12C6E2D6170CE0101960E940E0E87FD57
:10088000C0CF898150DE81110BC017FF03C0898161
:10089000853531F09FEFE91AF90ACE14DF0449F7E4
:1008A0000FDE0E94F50DADCFB8018AE092E0AECF29
:1008B000D70111966C918091270184FD0CC0862F81
:1008C000807F803459F1A8F48032F9F0803311F13F
:1008D000803109F080CF6F70E0912F01F0913001ED
:1008E0000280F381E02DC8010995F601928381838E
:1008F0007DC0803659F1803709F467C0803509F032
:100900006ACFB80189EC9DE003C0B8018BEA9CE096
:1009100070DE77CFB80184E29DE0FACF60E0C801D5
:10092000BCDD0115110509F485CFCE01019637DE36
:10093000811180CFCE01029632DE81117BCFCE01B4
:1009400001960E94890D02501109EBCF0115110586
:1009500009F457CF1092260160E0C8019EDD5B9834
:1009600082E2E82E81E0F82E809120019091210111
:10097000E816F906D1F482E291E090932101809388
:100980002001F12CE12CEE2DE170DE2E0E151F055D
:1009900029F0CE01019603DE882369F06D2D80E0F9
:1009A0000E94390E0E94F50D45CFD7018D917D0132
:1009B0000E941D0ED9CF6D2D89810E94390E87FDB1
:1009C00020CFBFEFEB1AFB0ADECFB80182E192E045
:1009D0009FCF20912D0181E090E0211102C090E095
:1009E00080E0D60112969C938E93119782E00F902F
:1009F0000F90DF91CF911F910F91FF90EF90DF90BB
:100A0000CF90BF90089510922D01F0CFE0912F016B
:100A1000F09130010680F781E02DD70112966C919C
:100A2000129711968C910995882309F4EACEE091EA
:100A30002F01F09130010084F185E02D099590E0BF
:100A400054CFE0912F01F09130010284F385E02D25
:100A5000D70112966C91129711968C910995C6CF79
:100A60008091270184FDB7CE14B815B883B1E7CFC4
:100A70008091270184FDAFCED70111968C919FEF15
:100A800094B985B9B3CF8091270184FDA4CEC2DC8F
:100A9000D6CF8091270184FD9ECED70111968C91EF
:100AA000C1DCA4CF0F931F93CF93DF93BC01EA0166
:100AB0008901F9011082872F99278230910509F465
:100AC0004DC08330910569F00197C1F482E190E057
:100AD00026E131E039832883DF91CF911F910F9177
:100AE0000895CB019927623069F18330910558F45C
:100AF000009711F1E6EBF0E0019701F190E080E062
:100B000030E020E0E7CF0397C9F790E080E00E9453
:100B1000600E90E0809590959927EAE0F1E02AE058
:100B200030E0009791F48091040190E022E0F80118
:100B3000208324E031E0CECFE2EFF0E0849190E03A
:100B40009F01C8CFE4E7F0E0F9CFB9010E94460E5B
:100B5000C09691838083CB013297E3CF80E290E00F
:100B600026EF30E0B7CF18B884E087B98DE093E086
:100B70009093890080938800E1E8F0E080818D60A7
:100B80008083089518B81BB884E887B989E58AB9C5
:100B900015B814B8089599B149B139B126B186B1E3
:100BA0009695907146954170942B330F3870932B26
:100BB000220F2078922B86958074892B089580933C
:100BC0002B01833059F028F4882341F0823021F042
:100BD0000895843019F0089542980895429A08952E
:100BE00080912B018350823020F488B194E08927D2
:100BF00088B90895B19B03C0B19A81E0089580E05F
:100C000008951F93CF93DF9300D00F92CDB7DEB737
:100C100086E391E0FC0101962091F100208321E020
:100C20008E339207B9F780913601909137019A304F
:100C300008F0E4C0E92FF0E0EE57F14F0C945A0EA3
:100C4000803879F0823809F0D9C080913A018093D8
:100C5000E9008091EB0085FB882780F91092E9007C
:100C600006C0809131019091320191118260909182
:100C7000E800977F9093E8008093F1001092F100D4
:100C80008091E800982F9E7F9093E8008F77C8C0EE
:100C9000882309F4B5C0823009F0B0C080913801D2
:100CA0008111B9C080913A01877009F43DC08093E9
:100CB000E9002091EB0020FFAEC0933031F4809129
:100CC000EB0080628093EB00A6C09091EB009061F6
:100CD0009093EB0021E030E001C0220F8A95EAF703
:100CE0002093EA001092EA008091EB008860EACF3E
:100CF000811184C0109138018091E800877F809332
:100D0000E800BCD08091E80080FF0AC0812F8F7777
:100D100019F093E09093350180688093E30004C05C
:100D2000809135018111EECF8091E80083FF0AC0E8
:100D30008091EB0080628093EB008091E800877FD8
:100D40008093E8000F900F900F90DF91CF911F914B
:100D500008958058823008F051C09E012D5F3F4FAA
:100D6000AE014F5F5F4F60913A01809138019091E1
:100D7000390198DEBC01892BB9F28091E800877FA8
:100D80008093E8002B8189819A8121110BC0D1D1F8
:100D90008091E800982F9B7F9093E8008F77809355
:100DA000E800C2CF213011F420D2F2CF67D1F0CFCA
:100DB000803821F58091E800877F8093E80080915A
:100DC00033018093F1005CCF811118C090913801FC
:100DD000923008F0A9CF8091E800877F8093E800E7
:100DE000909333014BD080913301811105C083E092
:100DF000809335016ADA98CF84E0FACFCBD994CFCB
:100E000080913801813009F08FCF81E0933009F073
:100E100080E0809332011092E9008091E800877FA2
:100E20008093E8002BD080CF8093E900EBEEF0E0D8
:100E3000808181608083EDEEF0E010826093EC00B1
:100E400040838091EE00881F8827881F08951092A4
:100E5000F40080E08093E9001092F0001092E80026
:100E60009091ED009D7F9093ED009091EB009E7F1F
:100E70009093EB008F5F853069F70895809136017C
:100E800087FF17C08091E80082FF0AC08091E800C8
:100E9000982F9B7F9093E8008F778093E80004C0A1
:100EA000809135018111EECF08958091350188231D
:100EB000D9F38091E80080FFF8CF8091E800982F67
:100EC0009E7FE8CF95E62091EC00822F817020FF75
:100ED00006C08091E80080FF06C080E00895209160
:100EE000E80022FD18C080913501882389F08091A7
:100EF000EB0085FD0FC08091E10082FFE4CF80917F
:100F0000E1008B7F8093E1009150E9F683E0089542
:100F100082E0089581E00895EF92FF920F931F936E
:100F2000CF938C017B01CEDFC82F882389F08C2FD3
:100F3000CF911F910F91FF90EF900895F7010995C0
:100F40008130C9F4C4E0F3CF8091F1000150110960
:100F50000115110561F38091E80085FDF5CF8091C1
:100F6000E800982F9B7F9093E8008F778093E800AC
:100F7000E114F10419F7A6DF882351F3C82FD7CF66
:100F8000DF92EF92FF920F931F93CF93DF93D82FAF
:100F9000D92E8B017A0196DFC82F8823C1F08C2FC0
:100FA000DF91CF911F910F91FF90EF90DF90089507
:100FB000F70109958130F1F4C4E0F1CFED2FFD2D5B
:100FC00081918093F10001501109DE2FDF2E011570
:100FD000110529F38091E80085FDF0CF8091E800AC
:100FE000982F9E7F9093E8008F778093E800E1141C
:100FF000F104F1F667DF882351F3C82FD0CFDF92D9
:10100000EF92FF920F931F93CF93DF93D82FD92E98
:101010008B017A0157DFC82F8823C1F08C2FDF9115
:10102000CF911F910F91FF90EF90DF900895F701FE
:1010300009958130F1F4C4E0F1CFED2FFD2D8091C1
:10104000F100819301501109DE2FDF2E01151105EA
:1010500029F38091E80085FDF0CF8091E800982F7A
:101060009B7F9093E8008F778093E800E114F10470
:10107000F1F628DF882351F3C82FD0CF9B01409190
:101080003C0150913D0146175707B8F0672B49F4D2
:101090004091E800542F5E7F5093E8004F774093D3
:1010A000E80060E02115310551F4611108C080911C
:1010B000E80082FF36C080E008959A01F2CF4091A7
:1010C000E80043FD34C04091E80042FDF0CF40917C
:1010D0003501442351F14091E80040FFE3CF4091B6
:1010E000F20050E02115310519F04830510578F033
:1010F00061E04830510509F060E04091E800542F6C
:101100005E7F5093E8004F774093E800CBCFFC011F
:1011100081918093F100215031094F5F5F4FCF01E2
:10112000E1CF809135018111C2CF82E0089581E045
:1011300008959B0140913C0150913D01461757078E
:10114000B8F0672B49F44091E800542F5E7F50932C
:10115000E8004F774093E80060E02115310551F435
:10116000611108C08091E80082FF37C080E00895D7
:101170009A01F2CF4091E80043FD35C04091E8006C
:1011800042FDF0CF40913501442359F14091E800F0
:1011900040FFE3CF4091F20050E0FC01CF01211568
:1011A000310519F04830510578F061E048305105BB
:1011B00009F060E04091E800542F5E7F5093E80012
:1011C0004F774093E800C9CF84918093F10021507C
:1011D00031094F5F5F4F3196E1CF80913501811129
:1011E000C1CF82E0089581E00895EF92FF920F93BE
:1011F0001F93CF93DF93EB0120913C0130913D0190
:1012000026173707E0F0209749F42091E800322FA5
:101210003E7F3093E8002F772093E80030E020975E
:1012200081F431110EC08091E80082FF3DC080E062
:10123000DF91CF911F910F91FF90EF900895E901F9
:10124000EDCF2091E80023FD35C02091E80022FD7C
:10125000EACF20913501222359F12091E80020FFA7
:10126000DECF0091F20010E0209719F00830110550
:1012700078F031E00830110509F030E02091E80005
:10128000422F4E7F4093E8002F772093E800C7CF8E
:101290007C012FEFE21AF20A13D58093F100219717
:1012A0000F5F1F4FC701E0CF809135018111BBCF88
:1012B00082E0BECF81E0BCCF65D067D0109235010F
:1012C00010923301109232011092310119BC89B58C
:1012D000826089BD09B400FEFDCF8091D800982FAF
:1012E0009F779093D80080688093D80080916300A6
:1012F0008E7F809363008091D8008F7D8093D8008B
:101300008091E0008E7F8093E0008091E1008E7FED
:101310008093E1008091E20081608093E2008091FF
:10132000E100877F8093E1008091E20088608093F4
:10133000E2000895C1DF81E080933401789408953C
:10134000BBDFE0EEF0E0808181608083E8EDF0E0DB
:1013500080818F77808319BC10923401089508959D
:10136000CF9380913501882359F0C091E900C7706F
:101370001092E9008091E80083FD43DCC093E9000E
:10138000CF9108951092E20008951092E10008951F
:101390001F920F920FB60F9211242F933F934F93EA
:1013A0005F936F937F938F939F93AF93BF93EF93CD
:1013B000FF938091E10080FF1DC08091E20080FFDB
:1013C00019C08091E1008E7F8093E1008091E2005E
:1013D0008E7F8093E2008091E20080618093E20042
:1013E0008091D80080628093D80019BC109235019A
:1013F0000E94C4008091E10084FF29C08091E20036
:1014000084FF25C019BC89B5826089BD89B5982F34
:10141000917080FFFBCF8091D8008F7D8093D800A2
:101420008091E1008F7E8093E1008091E2008F7EC9
:101430008093E2008091E20081608093E2008091DD
:101440003301811194E0909335010E94BC0080919A
:10145000E10083FF28C08091E20083FF24C08091D7
:10146000E100877F8093E10082E080933501109254
:1014700033018091E1008E7F8093E1008091E20052
:101480008E7F8093E2008091E20080618093E20091
:10149000DEDC42E060E080E0C7DC8091F000886044
:1014A0008093F0005CDF8091E10082FF0AC08091B0
:1014B000E20082FF06C08091E1008B7F8093E10013
:1014C0004EDFFF91EF91BF91AF919F918F917F91EF
:1014D0006F915F914F913F912F910F900FBE0F90A1
:1014E0001F9018951F920F920FB60F9211240F9311
:1014F0001F932F933F934F935F936F937F938F939C
:101500009F93AF93BF93CF93EF93FF9309EE10E0B8
:10151000F801C081C77024DFE8EEF0E08081877FAA
:101520008083F801C083FF91EF91CF91BF91AF917C
:101530009F918F917F916F915F914F913F912F91EB
:101540001F910F910F900FBE0F901F90189523DBE6
:10155000982F83FB882780F921E0822790FF826003
:1015600097FF846008951F93CF93DF93D82FC62FE2
:1015700019EC11DB8D238C1302C0115051F40BDBDD
:10158000D82381E0DC1301C080E0DF91CF911F916F
:1015900008958AE18A95F1F700C0EBCFCF93DF93EE
:1015A000D62FE82FF0E0E85DFE4FC4916111DC2FEB
:1015B000F2DA8C238D1721F081E0DF91CF9108952D
:1015C0000E942D018823C9F38AE18A95F1F700C0B2
:1015D000EFCF0F931F93CF93C82F47988BB1867F80
:1015E0008BB95E9A2FEF80E792E0215080409040C7
:1015F000E1F700C000005E980CE41DE147988BB154
:10160000867B8BB925E82A95F1F700004A9910C02E
:101610008BE291E00197F1F700C000000E942D01DC
:10162000882329F10150110949F7C111E7CF1FC0E3
:1016300095E89A95F1F700004A9905C087EC90E08B
:101640000197F1F7E9CF479A87EC90E00197F1F71E
:1016500000C000004A9B02C04798E0CF479887EC43
:1016600090E00197F1F700C000004A9BD7CFCF91DF
:101670001F910F910895CF92DF92EF92FF920F93F7
:101680001F93CF93DF937C0161E00E944D0210E035
:1016900000E0CC24C394C1E5D3EC499B4BC0D0916E
:1016A0002D01D1114DC05B9889EC499B03C081503D
:1016B00009F059C0499B08C0C0922D015B9A8AEB82
:1016C0008A95F1F700C05B98F89461E081E04BDF08
:1016D000C82F88E0D82ECC2381F060E081E043DF82
:1016E000C82F882339F0D6954A99D06861E081E007
:1016F0003ADFC82FDA94D110EECF7894CC2361F082
:101700005B9A8D2F0E949302811111C00F5F1F4FB2
:1017100095E89A95F1F70000A8950E151F0541F17F
:10172000CC2341F180912D01882309F4B4CF0E948C
:1017300060020AC0219721F00E942D0181110EC084
:101740000E94600210E000E0C801DF91CF911F917C
:101750000F91FF90EF90DF90CF90089585E38A95E9
:10176000F1F700009ACF95E09A95F1F700009DCF30
:10177000C111DDCF10E000E0DACFCF92DF92EF921F
:10178000FF920F931F93CF93DF930F92CDB7DEB7E6
:101790008C01F62E10922D01009769F410E000E004
:1017A000C8010F90DF91CF911F910F91FF90EF90A3
:1017B000DF90CF90089560E00E944D0260E080ECE1
:1017C000D2DE811103C00E946002E8CF5B982F2D0A
:1017D0002270E22EF1FC78C0589A85E08A95F1F7E4
:1017E000000068E088E0BFDE811103C04798589888
:1017F000EACF9AE69A95F1F700C068014A9959C074
:1018000058984A9B52C091E0C916D10441F4E110A6
:1018100006C068E088E0A7DE60E088E0A4DE589AB1
:10182000CE0101960E94CF02811143C0998188E0C8
:1018300028EC2A95F1F790FD05C05B9A25E02A95E2
:10184000F1F70000589825E32A95F1F70000589A1F
:101850005B989695815061F768E088E084DE882384
:1018600041F181E0C81AD10887EC90E00197F1F7C7
:1018700000C00000A895C114D10409F0BFCF0E9498
:101880006002F0FE1FC05B9A479822E02A95F1F7AC
:1018900000C0589885E08A95F1F70000499B80CFF9
:1018A0000E942D018111FACF79CF0E942D01811163
:1018B000A8CF0E94600295E39A95F1F7000047983F
:1018C00058986CCF47986CCF479A86CF61110FC05C
:1018D000E82FF0E0E85DFE4FE491E7FF02C0479A91
:1018E000EF77EE2319F08BB1E82BEBB90895E62FD3
:1018F000F0E0E85DFE4F81110BC0E491E7FF02C00C
:101900004798EF77EE2391F38BB1E095E823EDCF85
:101910006491E82FF0E0E85DFE4FE491E7FF02C03C
:10192000479AEF77EE2319F08BB1E82BEBB967FFFD
:1019300002C047986F776623C9F28BB1E62FE5CFD7
:1019400047988BB1867B8BB98AE18A95F1F700C005
:101950008EE091E00895CF93DF93C82FD8E0C7FFC2
:101960001DC05B9A85E08A95F1F70000589885E0E4
:101970008A95F1F70000499913C0C7FF18C05B981A
:10198000499B17C0589A5B9885E08A95F1F700004B
:101990004A9914C0CC0FD15039F0E1CF5B98E2CF17
:1019A0000E942D018111E7CFDF91CF9108955B9ABD
:1019B000E7CF0E942D018111E3CFF6CF0E942D01C8
:1019C0008111E6CFF1CFFF920F931F93CF93DF9357
:1019D000D8E0C0E0FF24F3944A9B24C0589885E0E7
:1019E0008A95F1F7000001E0499B22C000E010E079
:1019F0005B9A89B1869581708F250817D9F05B981D
:101A000085E08A95F1F700004A9919C0C695C12B67
:101A1000589AD15009F78C2FDF91CF911F910F91D8
:101A2000FF9008950E942D018111D6CFCFEFF3CF03
:101A300010E8DECF0E942D018111DBCFF7CF0E948D
:101A40002D018111E1CFF2CFCF93DF93C82FD4E0E6
:101A5000C0FF1CC05B9A85E08A95F1F700004798AB
:101A6000499B16C0C1FF1BC05B9A85E08A95F1F7C0
:101A70000000C695C695479A499913C0D15041F7C1
:101A80005B9885E08A95F1F7000006C05B98E3CF8C
:101A90000E942D018111E4CFDF91CF9108955B98D1
:101AA000E4CF0E942D018111E7CFF6CF1F93CF9392
:101AB000DF93D4E0C0E0499B1DC085E08A95F1F733
:101AC00000004A9B1DC010E0479849991BC085E063
:101AD0008A95F1F70000C695C12BC6954A9B17C0A1
:101AE00080E0C82B479AD15031F78C2FDF91CF91EE
:101AF0001F9108950E942D018111DDCFCFEFF5CF09
:101B000010E8E2CF0E942D018111DFCFF7CF80E8EE
:101B1000E8CFCF93DF93EC014A9911C088819FEF02
:101B200094B985B900C000C058984A9B0FC08981FC
:101B30009FEF94B985B900C000C0589A04C00E94B4
:101B40002D018111E9CFDF91CF9108950E942D01E0
:101B50008111EBCFF8CFCF93DF93EC014A990DC001
:101B600014B815B883B1888358984A9B0DC014B82F
:101B700015B883B18983589A04C00E942D01811140
:101B8000EDCFDF91CF9108950E942D018111EDCF0E
:101B9000F8CF9FEF94B985B900C000C058984A9B10
:101BA00008C0589A4A9B09C00E942D018111FACFA2
:101BB00004C00E942D018111F2CF0895CF9358984F
:101BC0004A9B0BC014B815B8C3B1589A4A9B0AC0B7
:101BD0000E942D018111FACF04C00E942D018111B4
:101BE000EFCFCFEF8C2FCF910895479A8BB1867F9F
:101BF0008BB98DE08A95F1F700004A9BFECF92E009
:101C00009A95F1F700C014B815B883B147984A996E
:101C1000FECF9DE09A95F1F700000895FC0191E058
:101C200089B182FB882780F989276813F9CF14B816
:101C300015B883B1808380E00895479A9BB1967F61
:101C40009BB99DE09A95F1F700004A9BFECF9FEF6C
:101C500094B985B982E08A95F1F700C047989AE176
:101C60009A95F1F700C04A99FECF14B815B883B120
:101C7000089521E099B192FB992790F99227691371
:101C8000F9CF9FEF94B985B980E00895AA1BBB1BDB
:101C900051E107C0AA1FBB1FA617B70710F0A61B6C
:101CA000B70B881F991F5A95A9F780959095BC018D
:101CB000CD010895EE0FFF1F0590F491E02D0994DA
:101CC000F999FECF92BD81BDF89A992780B5089504
:101CD000F894FFCFDB035804EB03EB03EB03EB03B8
:101CE000EB03EB03EB03EB03EB03EB03EB03EB0384
:101CF000EB03E90403053005380517050605210542
:101D00004305490520064806FE064806FE067806F5
:081D1000A906FE06D806E40650
:101D18000304000F08033000300030000000E90A17
:0E1D2800BD0B3B0BCE0AA70A660C0055AAFFA6
:00000001FF
