:10000000ADC00000C9C00000C7C00000C5C00000EE
:10001000C3C00000C1C00000BFC00000BDC00000E0
:10002000BBC00000B9C000000C94750A0C943B0AD8
:10003000B3C00000B1C00000AFC00000ADC0000000
:10004000ABC00000A9C00000A7C00000A5C0000010
:10005000A3C00000A1C000009FC000009DC0000020
:100060009BC0000099C0000097C0000095C0000030
:1000700093C0000091C000008FC000008DC0000040
:100080008BC0000089C0000087C0000085C0000050
:1000900083C0000081C0000012011001FF000008B1
:1000A000D016040506000102030109022000010127
:1000B0000080320904000002FF00000007058302EF
:1000C00040000007050402400000040309043A034D
:1000D0004E0061007400650020004C006100770054
:1000E00073006F006E00200061006E00640020004D
:1000F0004F00700065006E00430042004D0020007C
:100100007400650061006D00000040037800750018
:100110006D003100350034003100200066006C00B5
:100120006F007000700079002000610064006100C1
:100130007000740065007200200028005500530014
:1001400042004B0045005900290000000010041433
:1001500001110515405044544151455511241FBE0D
:10016000CFEFD0E2DEBFCDBF11E0A0E0B1E0EEE422
:10017000FDE100E00BBF02C007900D92A231B10774
:10018000D9F711E0A2E1B1E001C01D92AB32B10795
:10019000E1F7EED00C94A50E33CFA9EEB0E09C9120
:1001A000977081E080931D0184E08C93EBEEF0E08A
:1001B00080818062808383E08C93808180628083F1
:1001C0009C9308952091E900E0E0F1E041E050E0E7
:1001D0001BC08093E900BA0102C0660F771F8A95A1
:1001E000E2F76093EA001092EA008091EB008860E9
:1001F0008093EB008091EB0085FF05C08091EB00C0
:1002000080618093EB0031968081882311F72770FD
:100210002093E900089580911D01089523E0209323
:10022000E90070E04BE051E0EDD680911D0188239C
:1002300011F080E008958091E800982F9E7F9093C0
:10024000E8008F778093E80081E0089524E0209310
:10025000E90070E04BE051E014D780911D01882344
:1002600011F080E008958091E800982F9B7F909393
:10027000E8008F778093E80081E00895A895809149
:100280001D01882311F080E0089598D4882311F48B
:1002900081E0089584D481E00895109212011092B3
:1002A0001B0180E050C481E04ED410921D0181E01A
:1002B0008093120108950F931F93DF93CF93CDB7CF
:1002C000DEB728970FB6F894DEBF0FBECDBF809182
:1002D00023018076803291F58E010F5F1F4F88E0F9
:1002E000F80111928A95E9F780912401B8014DD166
:1002F000682F8F3F19F484E026D420C08091E80055
:10030000877F8093E8008091230187FF0AC07727C9
:1003100067FD7095C801F4D68091E800982F9B7F07
:1003200008C08091E80080FFFCCF8091E800982F02
:100330009E7F9093E8008F778093E80028960FB611
:10034000F894DEBF0FBECDBFCF91DF911F910F910B
:10035000089538DF83E061E846E3A4D584E060E8EF
:1003600046E3A0D582E0EFD381E080931B0108959E
:10037000DF92EF92FF920F931F93DF93CF93CDB74E
:10038000DEB727970FB6F894DEBF0FBECDBF80E073
:1003900090E020E80FB6F89420936100809361000C
:1003A0000FBE2EE088E190E00FB6F894A8958093F8
:1003B00060000FBE209360000E940A0A01C0A89549
:1003C000809112018823D9F3A8D380E0BCD30E9486
:1003D0003F0B80E00E94B70B94E0E92EF12CEC0E6D
:1003E000FD1E83E0D82E8E010F5F1F4FA8952FC0F2
:1003F00080912201843031F58093E9008091E800FA
:1004000085FF20C0C70164E021DF882319F484E060
:100410009AD318C0F8018D2D11928A95E9F7C7017A
:10042000B801A7D118162CF48983C80163E0F6DE61
:1004300009C0882339F084E086D38091EB00806284
:100440008093EB001BDF882311F410921D01809133
:100450001B01882369F601C0A895809112018823A9
:1004600009F0C4CFF9CF9C01613011F483E003C0DF
:10047000662369F484E08093E900309315012093AA
:100480001401609303018091E80085FFFCCF08957B
:100490008093F10080911401909115010197909340
:1004A0001501809314018091E80085FD0DC08091B5
:1004B000E800982F9E7F9093E8008F778093E80064
:1004C0008091E80085FFFCCF80911D0181118FEFA5
:1004D0000895FC018091E80085FD0DC08091E80041
:1004E000982F9B7F9093E8008F778093E80080910E
:1004F000E80085FFFCCF8091F1008083809114019A
:1005000090911501019790931501809314018091AA
:100510001D0181118FEF089580911701882311F437
:100520000C943A0E1092170188E80895282F8091B4
:100530001701882329F010921701209318010895BC
:1005400090911301943061F4822F8350833010F026
:100550002B3019F481E0809317011092130112C01F
:10056000E92FF0E0E25FFE4F8081821721F49F5F68
:100570009093130107C010921301222319F481E014
:1005800080931301822F0C94600ECF93DF93EB01C5
:10059000823009F46CC0833030F4882309F442C0FF
:1005A000813031F442C0833009F45CC0843011F0F2
:1005B0008FEF61C08091E800877F8093E800809191
:1005C000E80080FFFCCF8091E800982F9E7F9093F9
:1005D000E8008F778093E80088EE93E028EC30E025
:1005E000F9013197F1F70197D9F788E10FB6F8943F
:1005F00080936000109260000FBEFAD6F89483E0FA
:1006000090E020E80FB6F894209361008093610099
:100610000FBE1092810010928900109288000C94F5
:10062000007828C0188281E026C083E08CD286E062
:10063000888383E0898380911601882339F08A8139
:1006400081608A8380E00E94B70BA7DD80911B0147
:10065000882319F48A8182608A8381E0809316015D
:1006600088E009C01092160182E06DD203C080E0DC
:100670000E94B70B80E0DF91CF9108958091030134
:10068000813089F48091F2009091F300892B31F44C
:100690008091140190911501892BE9F08091E80077
:1006A000982F9E7F13C08823B1F4809114019091FC
:1006B0001501009719F06BE071E072D48091E800A9
:1006C00085FD09C08091E800982F9B7F9093E800FA
:1006D0008F778093E8008FE08093030110921501DB
:1006E0001092140108950F931F93CF93DF938C0101
:1006F000EB01CB0161E0B7DE06C0F8010995C8DE69
:100700002197882311F42097C1F7B8DF80E0DF91AB
:10071000CF911F910F910895CF92DF92EF92FF92A8
:100720000F931F93DF93CF930F92CDB7DEB77C016A
:100730008B01CB0160E097DE6E010894C11CD11CD7
:1007400009C0C601C6DE01501040882331F48981FA
:10075000F701099501151105A1F790DF80E00F90D1
:10076000CF91DF911F910F91FF90EF90DF90CF908D
:100770000895CF92DF92EF92FF920F931F93DF9332
:10078000CF9300D000D0CDB7DEB78C016B01FC0158
:100790009081E280F38083E09C83D5D19C819A3163
:1007A00009F42EC19B3190F4973109F409C19831B5
:1007B00030F49830F1F0993009F034C188C09831A4
:1007C00009F40AC1993109F02DC116C19D3109F40E
:1007D0000EC19E3138F49B3109F407C19C3109F0F8
:1007E00021C1FDC09E3109F411C19F3109F01AC128
:1007F00012C1F8018181807F8034E1F0813440F4BE
:10080000803291F0803399F0803109F00BC109C03A
:10081000803679F1803709F455C0803509F002C17E
:1008200025C0C701F2D7FCC08FE89DE04DC08DED1B
:100830009DE04AC0C70161E016DE8E010E5F1F4FCA
:1008400011C0C8010E94130E8A8122DE882309F09C
:10085000B0C08B811DDE882309F0ABC08EEF9FEF07
:10086000E80EF91EE114F10461F7A3C080E39EE0F5
:100870002BC0E114F10409F4D3C0C70161E0F3DD3A
:10088000149880E29EE40197F1F70E943A0E00E08E
:1008900010E06E010894C11CD11C0DC0602F617066
:1008A000C6010E94500E87FDBBC08981F1DD8823FF
:1008B00029F40F5F1F4F0E151F0580F3DFDE0E9426
:1008C0003A0EAEC08CE892E0B7010DDFA9C0F80186
:1008D0006181862F807F8034F9F0813440F480324A
:1008E000A9F08033B1F0803109F09CC009C0803696
:1008F000B1F1803709F45FC0803509F093C02CC096
:100900006F70C7010E949D0CF60163C089E69DE0EF
:1009100054C08BEB9DE051C0C70160E0A4DD8E01A7
:100920000E5F1F4F83E0C82ED12CCC0EDD1E10C0F1
:10093000C801CFDD882309F03CC0C601CADD882389
:10094000C1F5C8010E94FD0D8EEF9FEFE80EF91E64
:10095000E114F10469F72DC083E29EE02EC0E1149A
:10096000F10409F45DC0C70160E07DDD1498809159
:1009700018010E94600E00E010E06E010894C11C96
:10098000D11C0DC0C601A5DD882361F4602F617004
:1009900089810E947A0E87FD43C00F5F1F4F0E159D
:1009A0001F0580F3602F617080E00E947A0E0E9424
:1009B0003A0E64DE35C086E992E0B701ADDE30C0A4
:1009C00080911C01F60112821182882339F181E0A5
:1009D00090E09283818322C010921C011FC0F80115
:1009E00081816281A2D68823D9F068D610C0F8012F
:1009F0008181628174D612C017B818B886B107C059
:100A0000F80191818FEF87B998B908C085DDF601AB
:100A10008183128203C0F801818188DD82E003C0F6
:100A200080E001C08FEF0F900F900F900F90CF914B
:100A3000DF911F910F91FF90EF90DF90CF9008957D
:100A40000F931F93CF93DF938A01E9011882292F17
:100A500033272230310561F02330310571F0213028
:100A6000310509F04DC0E8E9F0E022E130E04CC08A
:100A7000EAEAF0E020E230E047C090708130910572
:100A800071F08130910538F08230910561F0039763
:100A900009F036C00EC0EAECF0E0849107C0EEEC3D
:100AA000F0E0849103C0EAE0F1E08491282F30E087
:100AB0002BC080E090E00E949D0E282F30E0209512
:100AC00030953070EAE0F1E00FC0C9016AE070E0F3
:100AD0000E94890EC09691838083C9016AE070E00C
:100AE0000E94890E9B0132972115310571F7809183
:100AF0000401282F30E082E08883E4E0F1E004C0C4
:100B0000E0E0F0E020E030E0D801ED93FC93C90193
:100B1000DF91CF911F910F91089585E581B98AEA00
:100B200082B98AB1806F8AB98BB18F708BB98DE031
:100B300093E09093890080938800E1E8F0E0808161
:100B40008D6080830895809319018230A1F08330F5
:100B500028F4882341F0813009F509C0833079F009
:100B60008430E1F414C08BB18F7080680EC08BB1FB
:100B70008F7080640AC08BB18F70806206C080E67F
:100B800080931A018BB18F7080668BB9089580E9CC
:100B900080931A018BB18F7080698BB90895809111
:100BA00019018350823048F48BB12BB1807F909132
:100BB0001A0189272F70822B8BB90895B19902C031
:100BC00080E00895B19A81E008951F93DF93CF9359
:100BD000CDB7DEB7AD970FB6F894DEBF0FBECDBF71
:100BE000E3E2F1E08091F100819321E0EB32F20742
:100BF000C9F78091230130912401353009F486C072
:100C0000363040F43130C1F1313070F0333009F01A
:100C100030C132C0383009F4FDC0393009F410C198
:100C2000363009F026C191C0803821F0823809F0B1
:100C300020C108C090911E0180911F01882391F06E
:100C4000926010C0809127018093E9008091EB00B1
:100C500090E025E0969587952A95E1F7982F917079
:100C60001092E9008091E800877F8093E8009093DC
:100C7000F1001092F100D9C0882319F0823009F0F8
:100C8000F8C090E08F719070009721F0029709F002
:100C9000F1C00CC080912501813009F0EBC01092A9
:100CA0001F01333069F580931F012AC0809125010F
:100CB000882331F520912701277009F4DBC02093A8
:100CC000E9008091EB0080FF1BC0333021F480915C
:100CD000EB00806213C08091EB0080618093EB0099
:100CE00081E090E002C0880F991F2A95E2F7809377
:100CF000EA001092EA008091EB0088608093EB009C
:100D00001092E9008091E800877F96C0882309F05F
:100D1000B0C0109125018091E800877F8093E800A2
:100D2000EBD005C080912201882309F4A3C08091F3
:100D3000E80080FFF7CF912F9F7719F083E0809331
:100D4000220190689093E30095C08058823008F0AB
:100D500090C0809125019091260123E08C3D92075F
:100D600079F5DE0116964EE020E030E051E2E42F06
:100D7000F0E050935700849120FF03C082958F705C
:100D80004F5F982F9F70892F805D8A3308F0895FAD
:100D90008C9311961C9211972F5F3F4F129624311E
:100DA000310529F78091E800877F8093E8008AE287
:100DB0008C8383E08D83CE0104966AE270E01FC0CD
:100DC00060912701AE014E5F5F4F9E012F5F3F4F45
:100DD00037DEBC01009709F44DC08091E800877FA1
:100DE0008093E8002981222321F48A819B81E8D124
:100DF00007C08A819B81213011F442D201C080D189
:100E00008091E800982F9B7F9093E8008F778093E4
:100E1000E80030C0803869F58091E800877F8093D2
:100E2000E800809120018093F1008091E800982FE4
:100E30009E7F9093E8008F778093E8005DD01AC082
:100E40008823B9F4909125019230A0F48091E800B4
:100E5000877F8093E800909320014ED080912001FD
:100E6000882311F483E001C084E08093220171DAC9
:100E700001C021DA8091E80083FF0AC08091EB0075
:100E800080628093EB008091E800877F8093E80088
:100E9000AD960FB6F894DEBF0FBECDBFCF91DF91F8
:100EA0001F9108958093E9008091EB008160809309
:100EB000EB001092ED006093EC004093ED00809108
:100EC000EE00881F8827881F08951092F40090E094
:100ED0009093E9001092F0001092E8008091ED00EC
:100EE0008D7F8093ED008091EB008E7F8093EB00EF
:100EF0009F5F973069F70895809123018823BCF4A0
:100F000004C0809122018823F9F08091E80082FFDB
:100F1000F8CF8091E800982F9B7F9093E8008F771F
:100F20008093E800089580912201882369F08091E0
:100F3000E80080FFF8CF8091E800982F9E7F909383
:100F4000E8008F778093E800089594E68091EC00A4
:100F500080FF05C08091E80080FF05C01FC0809120
:100F6000E80082FD1BC080912201882311F482E0F9
:100F700008958091EB0085FF02C081E00895809183
:100F8000E10082FFE3CF8091E1008B7F8093E1005D
:100F9000992311F483E008959150D8CF80E008950B
:100FA000FF920F931F93CF93DF93EC018B01CDDF63
:100FB000F82E8823F1F01FC08091E80085FD16C04F
:100FC0008091E800982F9B7F9093E8008F77809323
:100FD000E8000115110531F0F8010995813011F48F
:100FE00084E00AC0B2DF882321F006C08091F100BE
:100FF0002197209709F78F2DDF91CF911F910F91A6
:10100000FF900895DF92EF92FF920F931F93CF937B
:10101000DF93182F092FEB017A0197DFD82E882351
:1010200039F5812F902F9C01890120C08091E80023
:1010300085FD16C08091E800982F9E7F9093E80070
:101040008F778093E800E114F10431F0F7010995FE
:10105000813011F484E00DC078DF882339F009C0B5
:10106000F80181918F018093F10021972097F1F68B
:101070008D2DDF91CF911F910F91FF90EF90DF9019
:101080000895DF92EF92FF920F931F93CF93DF9318
:10109000182F092FEB017A0158DFD82E882339F554
:1010A000812F902F9C01890120C08091E80085FD4F
:1010B00016C08091E800982F9B7F9093E8008F776F
:1010C0008093E800E114F10431F0F70109958130D3
:1010D00011F484E00DC039DF882339F009C0809114
:1010E000F100F80181938F0121972097F1F68D2D62
:1010F000DF91CF911F910F91FF90EF90DF900895B6
:101100009C014091290150912A014617570718F474
:10111000F90160E043C06115710511F0AB01F8CF32
:101120008091E800982F9E7F9093E8008F778093BE
:10113000E80040E050E0ECCF8091E80083FF02C07F
:1011400081E008958091E80082FD32C08091220103
:101150008823A1F18091E80080FF20C02091F20057
:101160003091F30007C081918093F10041505040CD
:101170002F5F3F4F4115510519F02830310598F385
:1011800060E02830310509F461E08091E800982F93
:101190009E7F9093E8008F778093E800411551057A
:1011A00059F6662349F604C080912201882331F064
:1011B0008091E80082FFF8CF80E0089582E00895F2
:1011C0009C014091290150912A014617570710F4BC
:1011D00060E044C06115710511F0AB01F9CF809159
:1011E000E800982F9E7F9093E8008F778093E80027
:1011F00040E050E0EDCF8091E80083FF02C081E045
:1012000008958091E80082FD33C0809122018823F7
:10121000A9F18091E80080FF21C08091F2009091B7
:10122000F30009C0F9012F5F3F4FE491E093F10013
:101230004150504001964115510519F088309105F3
:1012400088F360E0089709F461E08091E800982F46
:101250009E7F9093E8008F778093E80041155105B9
:1012600051F6662341F604C080912201882331F0B3
:101270008091E80082FFF8CF80E0089582E0089531
:10128000EF92FF920F931F93CF93DF939C01E09017
:101290002901F0902A01E616F70610F440E047C055
:1012A0006115710511F07B01F9CF8091E800982F4D
:1012B0009E7F9093E8008F778093E800EE24FF24D0
:1012C000EDCF8091E80083FF02C081E041C08091B2
:1012D000E80082FD36C0809122018823C1F180910F
:1012E000E80080FF24C0C091F200D091F3000CC050
:1012F00089010F5F1F4FC90120D58093F100089429
:10130000E108F10821969801E114F10419F0C830C0
:10131000D10570F340E0289709F441E08091E8009E
:10132000982F9E7F9093E8008F778093E800E114D8
:10133000F10439F6442329F604C080912201882360
:1013400031F08091E80082FFF8CF80E001C082E0B8
:10135000DF91CF911F910F91FF90EF9008957ED074
:1013600085D0109222011092200110921F0110923C
:101370001E018CE089BD89B5826089BD09B400FE7B
:10138000FDCF8091D800982F9F779093D8008068E8
:101390008093D8008091D70081608093D70080919E
:1013A000D8008F7D8093D8008091E0008B7F809360
:1013B000E0008091E0008E7F8093E0008091E1006A
:1013C0008E7F8093E1008091E20081608093E20053
:1013D0008091E100877F8093E1008091E200886046
:1013E0008093E2008091D80081608093D8000895B6
:1013F000B6DFE0EEF0E0808181608083E8EDF0E030
:1014000080818F77808319BC80818F7E808310924A
:1014100021010895E7EDF0E08081806880839FDFFF
:10142000E8EDF0E080818061808381E0809321019C
:101430007894089508951F9380912201882361F084
:101440001091E9001092E9008091E80083FF01C04B
:10145000BCDB17701093E9001F910895E8EDF0E0F0
:1014600080818C7F80831092E20008951092DA00D0
:101470001092E10008951F920F920FB60F920BB6D3
:101480000F921124EF92FF921F932F933F934F934C
:101490005F936F937F938F939F93AF93BF93EF93DC
:1014A000FF9389EEE82EF12CF70110811770C3DF4E
:1014B000E8EEF0E08081877F8083F7011083FF9161
:1014C000EF91BF91AF919F918F917F916F915F91BC
:1014D0004F913F912F911F91FF90EF900F900BBE76
:1014E0000F900FBE0F901F9018951F920F920FB67E
:1014F0000F920BB60F9211242F933F934F935F934C
:101500006F937F938F939F93AF93BF93EF93FF93CB
:101510008091DA0080FF17C08091D80080FF13C04F
:101520008091DA008E7F8093DA008091D90080FF6D
:1015300006C081E0809322010E94530104C01092F2
:1015400022010E944D018091E10080FF1DC0809129
:10155000E20080FF19C08091E1008E7F8093E1005E
:101560008091E2008E7F8093E2008091E2008061B2
:101570008093E2008091D80080628093D80019BCEB
:1015800085E08093220156DF8091E10084FF2AC02C
:101590008091E20084FF26C08CE089BD89B582601D
:1015A00089BD09B400FEFDCF8091D8008F7D809366
:1015B000D8008091E1008F7E8093E1008091E2006D
:1015C0008F7E8093E2008091E20081608093E20050
:1015D00080912001882311F483E001C084E080938E
:1015E000220128DF8091E10083FF28C08091E20082
:1015F00083FF24C08091E100877F8093E10082E037
:1016000080932201109220018091E1008E7F8093CF
:10161000E1008091E2008E7F8093E2008091E20001
:1016200080618093E20051DC80E060E042E03ADCDF
:101630008091F00088608093F000FCDE8091E100F2
:1016400082FF0AC08091E20082FF06C08091E10023
:101650008B7F8093E100EEDEFF91EF91BF91AF9120
:101660009F918F917F916F915F914F913F912F91BA
:101670000F900BBE0F900FBE0F901F90189582B168
:101680008A7A82B988EC90E00197F1F70895282FC3
:1016900098EC3AE104C09150832F8A95F1F780B11C
:1016A00086958223861711F49923A9F780B190E0DB
:1016B00086958223861391E0892F089580B18695BF
:1016C000282F30E0C90134E0969587953A95E1F7E7
:1016D0008095817022FF826020FF846008956623D8
:1016E00049F4E82FF0E0E45BFE4FE49182B1E82B8F
:1016F000E2B90895262F30E0882341F4245B3E4F61
:10170000F901849192B1809589230DC0E82FF0E012
:10171000E45BFE4F4491245B3E4FF901849192B10A
:1017200080958923842B82B90895FF920F931F938C
:10173000E82FF0E0E45BFE4F0491662311F410E023
:101740000AC0102F08C00E943E01882361F08F2D2F
:101750008A95F1F702C04AE1F42E80B18695802384
:10176000811789F381E01F910F91FF900895CF9227
:10177000DF92EF92FF920F931F93CF93DF93D82EB8
:1017800082B18A7E82B9169A80E69AEE0197F1F7C5
:101790001698CCE4DDE165E8C62E5CE2E52E51E06A
:1017A000F52E08EC10E082B18A7A82B98C2D8A95E8
:1017B000F1F7059902C0C70106C08C2D8A95F1F793
:1017C000059904C0C8010197F1F70EC0109AC8012D
:1017D0000197F1F7059B02C0109806C01098C80148
:1017E0000197F1F7059908C00E943E01882321F076
:1017F0002197C9F6DD20B9F6DF91CF911F910F91A6
:10180000FF90EF90DF90CF9008956F927F928F922C
:101810009F92AF92BF92CF92DF92EF92FF920F937F
:101820001F93CF93DF935C0161E00E943302EE24AB
:10183000FF24A5E36A2EF5E07F2E88248394EAEB4B
:101840009E2E75E8C72EC0E0D0E00CC083ECC035FA
:10185000D80771F00E943E01882351F02196862D11
:101860008A95F1F7039BF2CF80911C01882329F020
:101870000E943E03EE24FF2450C0149898EC04C04C
:101880009150872D8A95F1F7039B02C09923C1F7E8
:10189000039B07C080921C01149A892D8A95F1F749
:1018A0001498F89484E064E0F2DE182FDD2400E060
:1018B00011C084E060E0EBDE182F882339F0069534
:1018C0000599006884E064E0E2DE182FD39488E094
:1018D000D81611F0112369F77894112361F0149A46
:1018E000802F0E9448028823B1F40894E11CF11C67
:1018F0008C2D8A95F1F7A895EA14FB0441F0112389
:1019000041F080911C01882309F49DCF04C011236C
:1019100011F4EE24FF240E943E03C701DF91CF9112
:101920001F910F91FF90EF90DF90CF90BF90AF90FD
:101930009F908F907F906F9008955F926F927F92AB
:101940008F929F92AF92BF92CF92DF92EF92FF92CF
:101950000F931F93DF93CF930F92CDB7DEB77C0128
:10196000D62E10921C01009709F49AC060E00E94E4
:10197000330281E460E08BDE8823B9F0149832E012
:10198000C32ECD20D1FC02C094E001C095E082B10D
:10199000982B92B985E08A95F1F780E160E177DED6
:1019A000882331F482B18A7F82B90E943E0378C0D5
:1019B0008AE68A95F1F787014E010894811C911CF3
:1019C00028EC522E95E0692E85E3782EB8ECAB2EEC
:1019D000B12C059940C0129805C00E943E01882391
:1019E00009F439C0059BF9CF6FC0CC2031F480E1F8
:1019F00060E14DDE80E160E04ADE129AC4010E949F
:101A00006902882341F5298198E0852D8A95F1F7AF
:101A100020FD04C0149A862D8A95F1F71298872D1F
:101A20008A95F1F782B18F7E846082B9915011F06E
:101A30002695EBCF80E160E12ADE882361F001503A
:101A40001040C5010197F1F7A8950115110509F09E
:101A5000C0CF870102C000E010E00E943E030115E4
:101A60001105B9F0D0FE13C082B18E7F806182B9BA
:101A700081E08A95F1F7129885E08A95F1F704C024
:101A80000E943E01882361F00399FACF0BC01098A1
:101A900009C085E38A95F1F782B18A7F82B902C0D5
:101AA00000E010E0C8010F90CF91DF911F910F91DE
:101AB000FF90EF90DF90CF90BF90AF909F908F906E
:101AC0007F906F905F9008950130110509F095CFD8
:101AD0008CCF982F28E035E097FF02C0149A01C000
:101AE0001498832F8A95F1F71298832F8A95F1F72E
:101AF0000399FECF97FF02C0149801C0149A039B6C
:101B0000FECF82B18F7E846082B9832F8A95F1F7F0
:101B10000599FECF215011F0990FDECF089528E0EE
:101B200090E055E041E0059BFECF1298852F8A9505
:101B3000F1F780B18695869586958427382F317088
:101B400080FD02C080E001C080E89695982B149A31
:101B500080B1869586958695842781703817C1F364
:101B60001498852F8A95F1F70599FECF129A215086
:101B7000D1F6892F089524E035E080FF02C0149A41
:101B800001C01498932F9A95F1F786951098039BAE
:101B9000FECF80FF02C0149A01C01498932F9A952B
:101BA000F1F7109A0399FECF215011F08695E5CFF9
:101BB000149885E08A95F1F7089580E024E045E0E7
:101BC000039BFECF942F9A95F1F7059B02C030E05E
:101BD00001C030E810980399FECF942F9A95F1F741
:101BE000059B02C090E001C090E88695832B869506
:101BF000892B109A215021F70895FC010599FECFF9
:101C000090818FEF87B998B981E08A95F1F71298A2
:101C1000059BFECF91818FEF87B998B981E08A95B6
:101C2000F1F7129A0895FC010599FECF17B818B87C
:101C300086B180831298059BFECF17B818B886B17D
:101C40008183129A08959FEF97B988B981E08A95A8
:101C5000F1F71298059BFECF129A0599FECF0895D1
:101C60001298059BFECF17B818B886B1129A05993D
:101C7000FECF089582B18B7E816082B98DE08A9516
:101C8000F1F7059BFECF82E08A95F1F717B818B8F7
:101C900086B110980599FECF9DE09A95F1F70895C9
:101CA000FC0191E080B182958695877089278170CB
:101CB0008617C1F717B818B886B1808380E00895F9
:101CC000982F82B18B7E816082B98DE08A95F1F781
:101CD000059BFECF8FEF87B998B982E08A95F1F71F
:101CE00010988AE18A95F1F70599FECF17B818B8D0
:101CF00086B10895982F21E080B1829586958770EE
:101D0000822781708617C1F78FEF87B998B980E075
:101D10000895AA1BBB1B51E107C0AA1FBB1FA61732
:101D2000B70710F0A61BB70B881F991F5A95A9F784
:101D300080959095BC01CD010895F999FECF92BD93
:0E1D400081BDF89A992780B50895F894FFCFD9
:101D4E000304000F0803300030003000000000557F
:021D5E00AAFFDA
:00000001FF
