:100000009EC00000B8C00000B6C00000B4C0000030
:10001000B2C00000B0C00000AEC00000ACC0000024
:10002000AAC00000A8C00000A6C000000C94AB0A43
:100030000C94560BA0C000009EC000009CC00000A5
:100040009AC0000098C0000096C0000094C0000054
:1000500092C0000090C000008EC000008CC0000064
:100060008AC0000088C0000086C0000084C0000074
:1000700082C000004603780075006D003100350035
:1000800034003100200066006C006F0070007000CA
:100090007900200061006400610070007400650058
:1000A0007200200028004D0049004E0049004D001C
:1000B0005500530033003200290000003A034E007F
:1000C00061007400650020004C006100770073003F
:1000D0006F006E00200061006E00640020004F0081
:1000E000700065006E00430042004D002000740067
:1000F000650061006D00000004030904090220008E
:1001000001010080320904000002FF000000070521
:1001100083022000000705040220000012011001E4
:10012000FF000008D01604050808010203010004BE
:10013000080C1014181C4044484C5054585C1124AE
:100140001FBECFEFD4E0DEBFCDBF11E0A0E0B1E035
:10015000E2E2F1E202C005900D92AE31B107D9F7AB
:1001600021E0AEE1B1E001C01D92AE33B207E1F78C
:10017000EFD00C946B1044CF80912101089581E061
:1001800000D61092210181E080931E010895109203
:100190001E0110921F0180E0F4C50F931F93CF93AF
:1001A000DF93CDB7DEB728970FB6F894DEBF0FBE4A
:1001B000CDBF809135018076803289F48E010F5F4A
:1001C0001F4F88E0F80111928A95E9F7B8018091F4
:1001D000360162D2682F8F3F69F484E0D2D5289629
:1001E0000FB6F894DEBF0FBECDBFDF91CF911F9148
:1001F0000F9108958091E800877F8093E8008091B7
:10020000350187FF10C0062E000C770BC8010E9435
:1002100020098091E800982F9B7F9093E8008F77CA
:100220008093E800DCCF8091E80080FFFCCF8091D4
:10023000E800982F9E7FF1CFE9EEF0E08081877093
:1002400091E09093210194E09083ABEEB0E09C911B
:1002500090629C9393E090839C9190629C938083A6
:100260000895CF93A89580912101C0E0811105C028
:10027000A3D5C82F882321F095D58C2FCF91089531
:10028000C1E0FBCF8091E9008770E0E0F1E021E080
:1002900030E09191911103C08093E900089590930B
:1002A000E900A90101C0440F9A95EAF74093EA00DA
:1002B0001092EA009091EB0098609093EB0090917F
:1002C000EB0095FFE6CF9091EB0090619093EB00EF
:1002D000E0CFD8DF46E261E883E088D646E260E816
:1002E00084E084D682E04DD581E080931F0108959B
:1002F00024E02093E90070E04CEB50E062D780915D
:10030000210181110BC08091E800982F9B7F909371
:10031000E8008F778093E80081E0089580E00895F9
:1003200023E02093E90070E04CEB50E00BD7809184
:10033000210181110BC08091E800982F9E7F90933E
:10034000E8008F778093E80081E0089580E00895C9
:1003500000D000D000D00F92CDB7DEB780E890E09B
:100360000FB6F89480936100909361000FBE88E10E
:100370009EE00FB6F894A895809360000FBE90930E
:1003800060000E947D0A80911E018823D1F0D8D49C
:1003900080E0F7D4AED0CE0101968E010B5F1F4FE7
:1003A00023E0B22EF82EE92ED02EC12EA8958091F2
:1003B0001F01811108C080911E018111F7CFA895FE
:1003C000FACFA895E0CF80913401843071F4809306
:1003D000E9008091E80085FF08C064E08F2D9E2D24
:1003E00087DF811108C084E0CCD43BDF8111DFCFEF
:1003F00010922101DCCFF8018B2D11928A95E9F73B
:100400006D2D7C2D8F2D9E2DE0D1181634F48D830B
:1004100063E08D2D9C2D84DFE8CF882331F384E0C9
:10042000B0D48091EB0080628093EB00DECF8091AE
:100430002B01811102C00C943F0F88E80895809130
:100440002B01811102C00C94DB0F88E80895909174
:100450002B01992379F0E0912501F09126019F016C
:100460002F5F3F4F3093260120932501808390E03A
:1004700080E0089590912201943091F49DEF980FBF
:10048000933040F08B3031F09DEE980F923010F0A9
:10049000863119F481E080932B01109222010AC069
:1004A000E92FF0E0E65EFE4F2081281306C09F5F33
:1004B0009093220181E090E008958111EECF81E0D8
:1004C00080932201F7CFCF93C82FC1DF892B21F072
:1004D0008C2FCF910C94830FCF910895CF93C82F79
:1004E000B6DF892B21F08C2FCF910C94F80FCF9190
:1004F000089510922C0133D40C947A0D23E06130CE
:1005000019F061110DC024E02093E90080932E01C1
:1005100090932F01609303018091E80085FFFCCF49
:100520000895809103018130D9F48091F200811106
:1005300006C080912E0190912F01892B49F0809166
:10054000E800982F9E7F9093E8008F778093E800D3
:100550008FE08093030110922F0110922E010895D5
:100560008111F6CF80912E0190912F01009719F003
:100570006CEB70E0B3D58091E80085FDE9CF809108
:10058000E800982F9B7FDFCF8093F10080912E01B0
:1005900090912F01019790932F0180932E018091CC
:1005A000E80085FD11C08091E800982F9E7F909310
:1005B000E8008F778093E8008091E80085FD04C013
:1005C000809121018823C1F38091210181950895B3
:1005D0000F931F93CF93DF938C01EB0161E0CE016A
:1005E0008DDF209731F0F8010995CEDF2197882320
:1005F000C1F3DF91CF911F910F9193CFFC018091B7
:10060000E80085FD11C08091E800982F9B7F9093B2
:10061000E8008F778093E8008091E80085FD04C0B2
:10062000809121018823C1F38091210181110EC0A5
:100630008091F100808380912E0190912F0101978C
:1006400090932F0180932E0180E008958FEF0895FD
:10065000EF92FF920F931F93CF93DF930F92CDB73B
:10066000DEB77C018B0160E0C80148DF0115110590
:1006700039F0CE010196C2DF01501109882341F003
:100680000F90DF91CF911F910F91FF90EF9049CF85
:100690008981F7010995EACFCF93DF93EB0182308F
:1006A00009F485C038F481113DC0188281E0DF91E2
:1006B000CF910895833009F475C0843009F060C08B
:1006C0008091E800877F8093E8008091E80080FFB8
:1006D000FCCF8091E800982F9E7F9093E8008F7761
:1006E0008093E8002FEF81EE94E02150804090400D
:1006F000E1F700C000000FB6F894A8958091600063
:10070000886180936000109260000FBEFCD6F89460
:100710001092810010928900109288000C94001CA5
:1007200080E0C5CF87E291E0909326018093250178
:1007300083E027D38091230190912401892BC9F074
:1007400088E0888383E0898380912C018A8390915B
:100750002D01911117C080912D01806880932D018A
:1007600080911F01811103C08A8182608A8388E0A1
:100770009ECFBFDE9093240180932301892B01F744
:100780008FEF95CF81608A8381E080932D01E09186
:100790002301F09124010190F081E02D80E0099582
:1007A0004BDDD9CF10922D0182E0EBD2B9CF8091F1
:1007B0002D0180FDB5CFE0912301F091240101903E
:1007C000F081E02D80E00995ABCFBF92CF92DF9210
:1007D000EF92FF920F931F93CF93DF9300D0CDB78B
:1007E000DEB77C016B0180912D018E7F80932D01FE
:1007F000D701BC9012960D911C9183E0C2D2E8EF14
:10080000EB0DEA31C8F4F0E0E359FF4E0C945D10B3
:1008100080912C0184FD36C0F7018181807F803575
:1008200009F456C0E8F4803309F447C038F4803145
:1008300049F1803209F43CC08FEF2EC08034E1F7DB
:1008400061E0C8015BDE0115110541F0CE010196A2
:100850000E94B40E898198DE882399F162DE1BC064
:10086000803809F46AC040F48036B1F1803721F74E
:10087000B80187E192E01FC08039F1F6B8018FE13D
:1008800092E019C0E0912301F09124010480F581E8
:10089000E02DC801099580E00F900F90DF91CF9176
:1008A0001F910F91FF90EF90DF90CF90BF90089530
:1008B000B8018CEB9DE08CDEEECFB8018EE29EE0BD
:1008C000FACF8A8161DE8111C9CF02501109BBCFF5
:1008D000B80187E19FE0EFCF6801E894D7F8C11431
:1008E000D104C9F210922B0161E0C60107DE229803
:1008F0008FE39CE90197F1F700C000000E943F0FD1
:10090000F12CE12C6E2D6170CE0101960E94660FD4
:1009100087FDC1CF898138DE81110BC017FF03C06D
:100920008981853531F09FEFE91AF90ACE14DF0489
:1009300049F7F7DD0E943F0FAECF0115110509F40D
:10094000AACF10922B0161E0C801D8DD84B1837C6D
:1009500084B9AFE3BCE91197F1F700C000000E9431
:10096000DB0F239AF12CE12C6801B2E0CB1AD108FD
:100970009B2D80E01D99FECF1D9BFECFE2E0EA9506
:10098000F1F723B122FB222720F9880F822B915007
:1009900089F7CE14DF0409F42398F6DD811106C02F
:1009A000FFEFEF1AFF0A0E151F0511F7BADD0E94BF
:1009B000DB0F71CFD70111966C9180912C0184FDD2
:1009C00043C0862F807F803509F450C048F58033BE
:1009D00009F448C050F48031B9F1803209F02CCFCD
:1009E000B80184E89DE034DE56CF803409F024CF8E
:1009F00060E0C80183DD0115110509F42FCFCE0198
:100A00000196FCDD81112ACFCE010296F7DD81111E
:100A100025CFCE0101960E946A0E02501109EBCF3C
:100A2000803809F464C048F4803621F1803709F039
:100A300003CFB80183E692E0D6CF803909F0FCCE2F
:100A4000B8018EE692E0CFCF6F70E0912301F09174
:100A500024010280F381E02DC8010995F6019283FB
:100A600081838DC0B8018CEF9DE0BDCFB8018EEEC3
:100A70009EE0B9CF0115110509F40DCF10922B019D
:100A800060E0C8013BDD229897E2E92E91E0F92E63
:100A90008091250190912601E816F90611F587E26B
:100AA00091E09093260180932501F12CE12CCE0159
:100AB0000196A4DD6E2D617081110BC089810E94A9
:100AC000BC0F87FDE8CEBFEFEB1AFB0A0E151F0522
:100AD00071F76E2D617080E00E94BC0F0E943F0F85
:100AE000BDCED7018D917D010E94830FD1CF01151D
:100AF000110509F4D0CE10922B0160E0C801FEDC94
:100B000084B1837C84B987E2E82E81E0F82E80915D
:100B1000250190912601E816F90681F487E291E01B
:100B20009093260180932501F12CE12CCE010196B2
:100B300065DD882349F00E94DB0F90CEF70181919B
:100B40007F010E94F80FE3CF6E2D617089810E94B2
:100B500021108111A0CEFFEFEF1AFF0A0E151F051D
:100B600029F7E9CF2091200181E090E0211102C016
:100B700090E080E0D60112969C938E93119782E0CC
:100B80008BCE10922001FBCFE0912301F091240144
:100B90000680F781E02DD70112966C91129711967D
:100BA0008C910995882309F476CEE0912301F09188
:100BB00024010084F185E02D099590E04FCFE0916C
:100BC0002301F09124010284F385E02DD7011296D0
:100BD0006C91129711968C910995D1CF80912C012F
:100BE00084FD2ACE87B18F7087B98AB1807F8AB998
:100BF00088B18F7088B98BB1807F8BB986B199B17C
:100C0000807F9F70892BD9CF80912C0184FD14CED9
:100C1000D70111968C9197B1906F97B99AB19F6057
:100C20009AB998B19F7098B99BB1907F9BB928B140
:100C3000982F907F922B98B99BB18F70892B8BB98D
:100C40009ECF80912C0184FDF7CDF1DBB6CF809152
:100C50002C0184FDF1CDD70111968C9134DC8FCF1E
:100C600080912C0184FDE8CDEADBA7CF80912C0197
:100C700084FDE2CDD70111968C9130DC80CF0F93AB
:100C80001F93CF93DF93BC01EA018901F901108220
:100C9000872F99278230910509F44DC08330910543
:100CA00069F00197C1F482E190E02CE131E03983F1
:100CB0002883DF91CF911F910F910895CB01992740
:100CC000623069F18330910558F4009711F1ECEB33
:100CD000F0E0019701F190E080E030E020E0E7CF24
:100CE0000397C9F790E080E00E94631090E0809540
:100CF00090959927EAE0F1E02AE030E0009791F43E
:100D00008091040190E022E0F801208324E031E0AA
:100D1000CECFE8EFF0E0849190E09F01C8CFE4E708
:100D2000F0E0F9CFB9010E944910C0969183808309
:100D3000CB013297E3CF80E290E02CEF30E0B7CFE9
:100D400080E28AB98BB98AE196E09093890080931A
:100D50008800E1E8F0E080818D608083089514B818
:100D600015B887B18F7087B98AB1807F8AB988B189
:100D70008F7088B98BB1807F8BB9089583B18C77E0
:100D8000089580933001833059F028F4882341F08E
:100D9000823021F00895843019F008955D98089507
:100DA0005D9A0895809130018350823020F48BB198
:100DB00090E289278BB90895B19B03C0B19A81E075
:100DC000089580E008951F93CF93DF9300D00F9292
:100DD000CDB7DEB785E391E0FC0101962091F100EB
:100DE000208321E08D339207B9F7809135019091EE
:100DF00036019A3008F0E4C0E92FF0E0E957FF4EE1
:100E00000C945D10803879F0823809F0D9C0809157
:100E100039018093E9008091EB0085FB882780F9F8
:100E20001092E90006C08091320190913101911138
:100E300082609091E800977F9093E8008093F100A2
:100E40001092F1008091E800982F9E7F9093E80027
:100E50008F77C8C0882309F4B5C0823009F0B0C0CC
:100E6000809137018111B9C080913901877009F4EF
:100E70003DC08093E9002091EB0020FFAEC093308D
:100E800031F48091EB0080628093EB00A6C09091DA
:100E9000EB0090619093EB0021E030E001C0220F65
:100EA0008A95EAF72093EA001092EA008091EB001D
:100EB0008860EACF811184C0109137018091E800E9
:100EC000877F8093E800BCD08091E80080FF0AC053
:100ED000812F8F7719F093E090933401806880938D
:100EE000E30004C0809134018111EECF8091E800CD
:100EF00083FF0AC08091EB0080628093EB008091B9
:100F0000E800877F8093E8000F900F900F90DF91AB
:100F1000CF911F9108958058823008F051C09E01F2
:100F20002D5F3F4FAE014F5F5F4F60913901809160
:100F3000370190913801A3DEBC01892BB9F2809171
:100F4000E800877F8093E8002B8189819A812111B5
:100F50000BC0D1D18091E800982F9B7F9093E8003F
:100F60008F778093E800C2CF213011F420D2F2CFE6
:100F700067D1F0CF803821F58091E800877F80939A
:100F8000E800809133018093F1005CCF811118C09B
:100F900090913701923008F0A9CF8091E800877FC7
:100FA0008093E800909333014BD0809133018111FD
:100FB00005C083E0809334018CD998CF84E0FACFC8
:100FC000ECD894CF80913701813009F08FCF81E048
:100FD000933009F080E0809331011092E900809114
:100FE000E800877F8093E8002BD080CF8093E900D2
:100FF000EBEEF0E0808181608083EDEEF0E0108226
:101000006093EC0040838091EE00881F8827881F42
:1010100008951092F40080E08093E9001092F000AF
:101020001092E8009091ED009D7F9093ED009091DB
:10103000EB009E7F9093EB008F5F853069F70895FA
:101040008091350187FF17C08091E80082FF0AC0B8
:101050008091E800982F9B7F9093E8008F77809392
:10106000E80004C0809134018111EECF0895809191
:1010700034018823D9F38091E80080FFF8CF809174
:10108000E800982F9E7FE8CF95E62091EC00822F14
:10109000817020FF06C08091E80080FF06C080E0DC
:1010A00008952091E80022FD18C080913401882322
:1010B00089F08091EB0085FD0FC08091E10082FFF7
:1010C000E4CF8091E1008B7F8093E1009150E9F6BD
:1010D00083E0089582E0089581E00895EF92FF9201
:1010E0000F931F93CF938C017B01CEDFC82F8823F2
:1010F00089F08C2FCF911F910F91FF90EF90089561
:10110000F70109958130C9F4C4E0F3CF8091F10073
:10111000015011090115110561F38091E80085FD69
:10112000F5CF8091E800982F9B7F9093E8008F7710
:101130008093E800E114F10419F7A6DF882351F346
:10114000C82FD7CFDF92EF92FF920F931F93CF93C9
:10115000DF93D82FD92E8B017A0196DFC82F8823F1
:10116000C1F08C2FDF91CF911F910F91FF90EF90E5
:10117000DF900895F70109958130F1F4C4E0F1CFD3
:10118000ED2FFD2D81918093F10001501109DE2F8B
:10119000DF2E0115110529F38091E80085FDF0CFC0
:1011A0008091E800982F9E7F9093E8008F7780933E
:1011B000E800E114F104F1F667DF882351F3C82F4A
:1011C000D0CFDF92EF92FF920F931F93CF93DF93D5
:1011D000D82FD92E8B017A0157DFC82F8823C1F071
:1011E0008C2FDF91CF911F910F91FF90EF90DF90A7
:1011F0000895F70109958130F1F4C4E0F1CFED2FA6
:10120000FD2D8091F100819301501109DE2FDF2E19
:101210000115110529F38091E80085FDF0CF80913B
:10122000E800982F9B7F9093E8008F778093E800E9
:10123000E114F104F1F628DF882351F3C82FD0CF51
:101240009B0140913B0150913C0146175707B8F074
:10125000672B49F44091E800542F5E7F5093E800DB
:101260004F774093E80060E02115310551F461119A
:1012700008C08091E80082FF36C080E008959A019E
:10128000F2CF4091E80043FD34C04091E80042FDB8
:10129000F0CF40913401442351F14091E80040FFE8
:1012A000E3CF4091F20050E02115310519F04830AC
:1012B000510578F061E04830510509F060E0409157
:1012C000E800542F5E7F5093E8004F774093E8008A
:1012D000CBCFFC0181918093F100215031094F5F08
:1012E0005F4FCF01E1CF809134018111C2CF82E005
:1012F000089581E008959B0140913B0150913C018C
:1013000046175707B8F0672B49F44091E800542F6F
:101310005E7F5093E8004F774093E80060E021152E
:10132000310551F4611108C08091E80082FF37C097
:1013300080E008959A01F2CF4091E80043FD35C066
:101340004091E80042FDF0CF40913401442359F12F
:101350004091E80040FFE3CF4091F20050E0FC01F3
:10136000CF012115310519F04830510578F061E0C1
:101370004830510509F060E04091E800542F5E7F4D
:101380005093E8004F774093E800C9CF8491809351
:10139000F100215031094F5F5F4F3196E1CF8091CD
:1013A00034018111C1CF82E0089581E00895EF9268
:1013B000FF920F931F93CF93DF93EB0120913B019B
:1013C00030913C0126173707E0F0209749F420912F
:1013D000E800322F3E7F3093E8002F772093E8001B
:1013E00030E0209781F431110EC08091E80082FF37
:1013F0003DC080E0DF91CF911F910F91FF90EF9062
:101400000895E901EDCF2091E80023FD35C020913A
:10141000E80022FDEACF20913401222359F12091E6
:10142000E80020FFDECF0091F20010E0209719F0D5
:101430000830110578F031E00830110509F030E08E
:101440002091E800422F4E7F4093E8002F772093B1
:10145000E800C7CF7C012FEFE21AF20A34D680935E
:10146000F10021970F5F1F4FC701E0CF809134013A
:101470008111BBCF82E0BECF81E0BCCF66D068D007
:101480001092340110923301109231011092320106
:1014900084E089BD89B5826089BD09B400FEFDCFB5
:1014A0008091D800982F9F779093D8008068809380
:1014B000D800809163008E7F809363008091D80074
:1014C0008F7D8093D8008091E0008E7F8093E00034
:1014D0008091E1008E7F8093E1008091E200816045
:1014E0008093E2008091E100877F8093E10080910A
:1014F000E20088608093E2000895C0DF81E080937D
:101500003D0178940895BADFE0EEF0E080818160DB
:101510008083E8EDF0E080818F77808319BC1092A2
:101520003D0108950895CF9380913401882359F0A7
:10153000C091E900C7701092E9008091E80083FD36
:1015400042DCC093E900CF9108951092E200089523
:101550001092E10008951F920F920FB60F9211247E
:101560002F933F934F935F936F937F938F939F93AB
:10157000AF93BF93EF93FF938091E10080FF1DC075
:101580008091E20080FF19C08091E1008E7F8093FE
:10159000E1008091E2008E7F8093E2008091E20082
:1015A00080618093E2008091D80080628093D800AF
:1015B00019BC109234010E94C7008091E10084FFA1
:1015C0002AC08091E20084FF26C084E089BD89B5ED
:1015D000826089BD89B5982F917080FFFBCF809183
:1015E000D8008F7D8093D8008091E1008F7E80931A
:1015F000E1008091E2008F7E8093E2008091E20022
:1016000081608093E20080913301811194E0909396
:1016100034010E94BF008091E10083FF28C08091C7
:10162000E20083FF24C08091E100877F8093E10086
:1016300082E080933401109233018091E1008E7F2B
:101640008093E1008091E2008E7F8093E2008091A0
:10165000E20080618093E200DCDC42E060E080E058
:10166000C5DC8091F00088608093F0005BDF8091A2
:10167000E10082FF0AC08091E20082FF06C08091F3
:10168000E1008B7F8093E1004DDFFF91EF91BF91EF
:10169000AF919F918F917F916F915F914F913F910A
:1016A0002F910F900FBE0F901F9018951F920F92C1
:1016B0000FB60F9211240F931F932F933F934F93C5
:1016C0005F936F937F938F939F93AF93BF93CF93CA
:1016D000EF93FF9309EE10E0F801C081C77023DF9C
:1016E000E8EEF0E08081877F8083F801C083FF917E
:1016F000EF91CF91BF91AF919F918F917F916F911A
:101700005F914F913F912F911F910F910F900FBEBD
:101710000F901F90189532DB982F82FB882780F955
:1017200021E0822793FF826094FF846008951F93D5
:10173000CF93DF93D82FC62F19EC20DB8D238C138A
:1017400002C0115059F41ADB982F9D2381E09C139D
:1017500001C080E0DF91CF911F91089585E38A95C4
:10176000F1F70000EACFCF93DF93D62FE82FF0E018
:10177000E25DFE4FC4916111DC2F00DB8C238D17DD
:1017800021F081E0DF91CF9108950E9431018823FB
:10179000C9F385E38A95F1F70000EFCF0F931F930C
:1017A000CF93C82F84B1837E84B9269A2FEF81EE20
:1017B00094E0215080409040E1F700C0000026985E
:1017C0000CE41DE184B1837A84B987EC90E0019741
:1017D000F1F700C000001A9910C087E592E0019768
:1017E000F1F700C000000E943101882339F1015057
:1017F000110941F7C111E6CF21C087EC90E00197B4
:10180000F1F700C000001A9905C08FE891E0019738
:10181000F1F7E7CF249A8FE891E00197F1F700C044
:1018200000001A9B02C02498DECF24988FE891E034
:101830000197F1F700C000001A9BD5CFCF911F91FF
:101840000F910895CF92DF92EF92FF920F931F9323
:10185000CF93DF937C0161E00E947E0210E000E004
:10186000CC24C394C1E5D3EC1B9B4FC0D091200185
:10187000D11151C0229889EC1B9B03C0815009F003
:101880005DC01B9B0AC0C0922001229A87E191E0B3
:101890000197F1F700C000002298F89468E088E012
:1018A00046DFC82F88E0D82ECC2381F060E088E0A6
:1018B0003EDFC82F882339F0D6951A99D06868E0A2
:1018C00088E035DFC82FDA94D110EECF7894CC239E
:1018D00071F0229A8D2F0E94C402811113C00F5FF4
:1018E0001F4F87EC90E00197F1F700C00000A8952A
:1018F0000E151F0541F1CC2341F180912001882371
:1019000009F4B0CF0E9491020AC0219721F00E94F1
:10191000310181110EC00E94910210E000E0C80167
:10192000DF91CF911F910F91FF90EF90DF90CF90BB
:1019300008958AE68A95F1F700C096CF9AE09A95C5
:10194000F1F700C099CFC111DDCF10E000E0DACF90
:10195000CF92DF92EF92FF920F931F93CF93DF937B
:101960000F92CDB7DEB78C01F62E109220010097B2
:1019700069F410E000E0C8010F90DF91CF911F9152
:101980000F91FF90EF90DF90CF90089560E00E945C
:101990007E0260E080E5CBDE811103C00E949102EF
:1019A000E8CF22982F2D2270E22E88E0F1FC88E10A
:1019B00094B1892B84B98AE08A95F1F700C064E07C
:1019C00084E0B5DE811104C084B1877E84B9E6CF9E
:1019D00095ED9A95F1F7000068011A995CC023987B
:1019E0001A9B55C091E0C916D10441F4E11006C01C
:1019F00064E084E09CDE60E084E099DE239ACE011E
:101A000001960E94FE02811146C0998188E0EBE2B6
:101A1000F1E03197F1F700C0000090FD05C0229A77
:101A2000FAE0FA95F1F700C023982AE62A95F1F733
:101A300000C0239A22989695815049F764E084E08B
:101A400076DE882341F181E0C81AD108EFE8F1E0A1
:101A50003197F1F700C00000A895C114D10409F036
:101A6000BCCF0E949102F0FE20C0229A249825E06B
:101A70002A95F1F7000023988AE08A95F1F700C0D3
:101A80001B9B79CF0E9431018111FACF72CF0E9446
:101A900031018111A5CF0E949102FAE6FA95F1F782
:101AA00000C084B1877E84B964CF249864CF61116B
:101AB00009C0E82FF0E0E25DFE4FE49184B18E2B87
:101AC00084B90895E62FF0E0E25DFE4F811106C073
:101AD000E49184B1E095E823E4B908956491E82F96
:101AE000F0E0E25DFE4FE49184B1E82BE4B984B10B
:101AF000E62FF0CF84B1837A84B985E38A95F1F734
:101B000000008EE091E00895CF93DF93C82FD8E0D6
:101B1000C7FF1DC0229A8AE08A95F1F700C023987A
:101B20008AE08A95F1F700C01B9913C0C7FF18C05F
:101B300022981B9B17C0239A22988AE08A95F1F776
:101B400000C01A9914C0CC0FD15039F0E1CF2298BF
:101B5000E2CF0E9431018111E7CFDF91CF9108954B
:101B6000229AE7CF0E9431018111E3CFF6CF0E9484
:101B700031018111E6CFF1CF0F931F93CF93DF9304
:101B800018E0D0E001E01A9B27C023988AE08A95EC
:101B9000F1F700C0C3B1C3FBCC27C0F9C027229A1C
:101BA00083B183FB882780F98027C817D9F0229852
:101BB0008AE08A95F1F700C01A9919C0D695C795A1
:101BC000CC27C795DC2B239A1150E9F68D2FDF9196
:101BD000CF911F910F9108950E9431018111D3CFB0
:101BE000DFEFF4CF0E9431018111DACFF9CF0E94EB
:101BF00031018111E1CFF4CFCF93DF93C82FD4E02F
:101C0000C0FF1CC0229A8AE08A95F1F700C0249890
:101C10001B9B16C0C1FF1BC0229A8AE08A95F1F770
:101C200000C0C695C695249A1B9913C0D15041F7A0
:101C300022988AE08A95F1F700C006C02298E3CF87
:101C40000E9431018111E4CFDF91CF910895229854
:101C5000E4CF0E9431018111E7CFF6CF0F931F939C
:101C6000CF93DF9314E0C0E001E01B9B28C08AE023
:101C70008A95F1F700C0D3B124981B9926C08AE059
:101C80008A95F1F700C0C695D2FBDD27D0F9D027A1
:101C9000D795DD27D795DC2BD695C3B1C2FBCC27D2
:101CA000C0F9C027C795CC27C795CD2B249A1150D2
:101CB000E1F68C2FDF91CF911F910F9108950E9433
:101CC00031018111D2CFCFEFF4CF0E9431018111C8
:101CD000D4CFF9CFCF93DF93EC011A9939C0888123
:101CE00097B1906F97B99AB19F609AB998B19F7068
:101CF00098B99BB1907F9BB928B1982F907F922B78
:101D000098B99BB18F70892B8BB982E08A95F1F7D6
:101D100000C023981A9B23C0898197B1906F97B90F
:101D20009AB19F609AB998B19F7098B99BB1907F12
:101D30009BB928B1982F907F922B98B99BB18F7047
:101D4000892B8BB982E08A95F1F700C0239A04C0F1
:101D50000E9431018111C1CFDF91CF9108950E947E
:101D600031018111D7CFF8CFCF93DF93EC011A99CE
:101D700029C087B18F7087B98AB1807F8AB988B14D
:101D80008F7088B98BB1807F8BB986B199B1807F14
:101D90009F70892B888323981A9B1BC087B18F70F3
:101DA00087B98AB1807F8AB988B18F7088B98BB1C1
:101DB000807F8BB986B199B1807F9F70892B898391
:101DC000239A04C00E9431018111D1CFDF91CF91BC
:101DD00008950E9431018111DFCFF8CF97B1906F44
:101DE00097B99AB19F609AB998B19F7098B99BB111
:101DF000907F9BB928B1982F907F922B98B99BB177
:101E00008F70892B8BB982E08A95F1F700C02398F7
:101E10001A9B08C0239A1A9B09C00E9431018111A4
:101E2000FACF04C00E9431018111F2CF0895CF93FF
:101E3000DF9323981A9B16C087B18F7087B98AB138
:101E4000807F8AB988B18F7088B98BB1807F8BB958
:101E5000C6B1D9B1239A1A990DC08C2F807FDF703B
:101E60008D2B05C00E9431018111E4CF8FEFDF91EE
:101E7000CF9108950E9431018111EDCFF7CF249ABF
:101E800084B1837F84B98AE18A95F1F700C01A9BF7
:101E9000FECF95E09A95F1F7000087B18F7087B972
:101EA0008AB1807F8AB988B18F7088B98BB1807F01
:101EB0008BB986B199B1807F9F70892B24981A992C
:101EC000FECF9AE19A95F1F700C00895FC0191E0E8
:101ED00083B182FB882780F989276813F9CF87B1FE
:101EE0008F7087B98AB1807F8AB988B18F7088B9BD
:101EF0008BB1807F8BB986B199B1807F9F70892B20
:101F0000808380E00895249A94B1937F94B99AE1F4
:101F10009A95F1F700C01A9BFECF97B1906F97B9D1
:101F20009AB19F609AB998B19F7098B99BB1907F10
:101F30009BB928B1982F907F922B98B99BB18F7045
:101F4000892B8BB985E08A95F1F70000249895E3F9
:101F50009A95F1F700001A99FECF87B18F7087B973
:101F60008AB1807F8AB988B18F7088B98BB1807F40
:101F70008BB986B189B1089521E093B192FB99277D
:101F800090F992276913F9CF97B1906F97B99AB1E9
:101F90009F609AB998B19F7098B99BB1907F9BB997
:101FA00028B1982F907F922B98B99BB18F70892B75
:101FB0008BB980E00895249A84B1837D84B925E0AB
:101FC0002A95F1F7000098E080E01D99FECF1D9B57
:101FD000FECF22E02A95F1F723B122FB222720F938
:101FE000880F822B915089F724981B9BFECF089570
:101FF000249A94B1937D94B99AE19A95F1F700C02F
:102000001B99FECF24B12071206238E0982F929561
:102010009695977090959470922B94B9880F00C004
:1020200000C00000259894E09A95F1F70000315027
:1020300069F785E08A95F1F7000024981B9BFECF95
:102040000895282F44E650E091E083B183FB882770
:1020500080F98927681318C034B13071306288E084
:10206000922F92959695977090959470932B94B922
:10207000220F00C000C00000259894E09A95F1F767
:102080000000815069F7089541505109F1F68FEF32
:102090000895AA1BBB1B51E107C0AA1FBB1FA617AF
:1020A000B70710F0A61BB70B881F991F5A95A9F701
:1020B00080959095BC01CD010895EE0FFF1F05900E
:1020C000F491E02D0994F999FECF92BD81BDF89A63
:1020D000992780B50895F894FFCF0804DA041C040A
:1020E0001C041C041C041C041C041C041C041C04F0
:1020F0001C041C041C041C04B205C105EE050406E6
:10210000D505C405DF052106270630063606020779
:102110002A07E0072A07E0075A078B07E007BA07F4
:02212000C607F0
:102122000304000F08033000300030000000CE0B23
:0E213200A80C220CB30B8B0B570D0055AAFF07
:00000001FF
