:10170000F89481E180935700E89581E08BBF1BBE80
:10171000E0E0F0E00995089580E090E0089583E22C
:1017200091E89093FF018093FE016AD00895C49AD6
:10173000BC9880E090E0FC01259134912F5F3F4FF1
:1017400039F487E493EF9093FF018093FE010DC07D
:101750008091FE019091FF0121E88332920729F0E8
:101760008754934F11F0B499CBDF899A919885B340
:101770008C7F85BB84B3836084BB80E395E701974E
:10178000F1F784B38C7F84BB81E08BBF82E08BBF99
:0C1790002ED27894C1D380E090E0089540
:1018000046C082C05FC05EC05DC05CC05BC05AC0E5
:1018100059C058C057C056C055C054C053C052C01C
:1018200051C050C04FC000CDD914F13C28E5A16C87
:1018300078B5509D89441A036F00700065006E00F2
:10184000630062006D0020007400650061006D009F
:101850001603780075003100350034003100620055
:101860006F006F00740012011001FF0000080304F4
:1018700032C60002010200010902120001010080CB
:101880000F0904000000FF000000040309041124F4
:101890001FBECFE5D4E0DEBFCDBF13E0A0E6B3E0CE
:1018A000EEE1FFE102C005900D92A236B107D9F733
:1018B00013E0A2E6B3E001C01D92A239B107E1F73F
:1018C00036DF2CC39DCFDC019FEF8FEF660FB9F0A1
:1018D00046E2F8E1229560FF2D91E82FE227EF70B4
:1018E000929582958F70392F307F832B9F70E40FF4
:1018F000359193273170932783276A9559F78095FF
:1019000090958D939D9308950F931F932F93DF933D
:10191000CF930FB70F939999FECF99990BC09999CF
:1019200009C0999907C0999905C0999903C000E425
:101930000ABFA8C0C0917A03DD27C558DC4F0BE071
:1019400013E022E0999BE9CF3F934F936F9363B3EA
:1019500030E803C063B3432B4993442763702627C1
:10196000215023B32370A9F137953C3FA0F562279E
:10197000615063B3637037953C3F98F5262721503B
:10198000379523B323703C3F90F56227615037951C
:101990003C3F63B36370A0F52627215037953C3F49
:1019A000C8F523B323706227615037953C3FB0F5EB
:1019B0000A9563B37AF063702627215037953C3F30
:1019C00088F523B323706227615037953C3F10F2AE
:1019D0002DC031C048C0612723B323703F774160D9
:1019E000C6CF3F77426063B363702127C7CF3F778D
:1019F0004460612723B32370622761503795C8CFB5
:101A00003F7748602127316063B3637026272150F8
:101A10003795C6CF3F7740616127C1CF3F7740629E
:101A20002127C4CF3F7740646127C9CF3F77406803
:101A3000212700C08FCF30E43ABF0B50019503300F
:101A400090F0C01B2881233C91F12B3481F1198146
:101A50001F7740919103141731F42936D9F02D32B4
:101A600049F0213E39F04427409362036F914F9132
:101A70003F9108C0209362036F914F913F910AB745
:101A800006FD49CF0F910FBFCF91DF912F911F918D
:101A90000F91189500916C030023F1F040917903A8
:101AA0004423D1F440936C03CDE6D3E018C02091D9
:101AB00062032223C1F240917903442369F4009325
:101AC00079032093780300917A034BE0401B409305
:101AD0007A03C0E6D3E002C0C1E6D3E001E025B35B
:101AE0002C7F216014B3136025BB14BB13E030E8D6
:101AF00030FF212725BB379547954C3FC0F530FF78
:101B00002127379525BB47954C3FA8F530FF212766
:101B10003795000025BB47954C3F78F530FF2127CE
:101B20003795000025BB47954C3F48F530FF2127EE
:101B3000699125BB379547954C3F18F530FF212714
:101B4000379525BB47954C3F00F530FF212737954A
:101B5000479525BB4C3FD8F430FF21273795362FCA
:101B6000479525BB4C3FA8F40A9512F614C02127CF
:101B7000442725BBC2CF2127C5CF2127CBCF212783
:101B8000D1CF2127442725BBD7CF2127DACF212743
:101B9000DFCF2127E5CF2C7F25BB6F914F913F9160
:101BA00000E40ABFDF91CF9114B3022F216025BB5F
:101BB0001C7FDFBFDF912F91000014BB05BB1F917D
:101BC0000F91189580916303882371F480916403C9
:101BD000882351F490E080916C03811191E081E0C1
:101BE0009827892F9927089580E090E0089585B778
:101BF000836085BF8BB780648BBF789408951F93F3
:101C0000CF93DF9360917903662309F477C08091C5
:101C10007A039927CC27DD27C81BD90BC957DC4F7E
:101C200091E090936303809178038D3209F057C05F
:101C30001E818F8181111FEF8881807609F03FC05E
:101C40008981882321F41882198292E040C085306E
:101C500021F48A8180936703BBC0863031F582E02E
:101C6000809363038B81813019F4C6E6D8E104C008
:101C7000823021F4C8E7D8E192E129C0833009F02D
:101C8000A7C08A81882321F4CAE8D8E194E01FC064
:101C9000813021F4C6E3D8E19AE119C0823009F01D
:101CA00097C0C0E5D8E196E112C0883011F498835E
:101CB00004C08A3009F08CC0188291E008C0CE01BF
:101CC00095D0982F8F3F19F483E080936303191701
:101CD00008F0192FD0936603C093650305C06350C5
:101CE00011F0CE01C0D010E01093640383EC809318
:101CF0006D0310926C031092790305C080916C0300
:101D0000882309F055C040916303442309F44CC073
:101D100080916D0398E8892780936D031091640387
:101D2000193010F018E003C0112309F453C04330F8
:101D300031F4612F8EE693E0EFDC182F23C0209161
:101D4000650330916603413029F0F90190E0AEE679
:101D5000B3E00FC0F90190E0AEE6B3E003C08191BB
:101D60008D939F5F9117D9F706C0849131968D931B
:101D70009F5F9117D1F7C901810F911D9093660361
:101D80008093650380916403811B80936403612FBA
:101D90008EE693E098DD1D5F10936C0313501830AE
:101DA00038F41092630304C0809167038093910319
:101DB0008AE002C0815019F0989BFCCF13C0F894C0
:101DC00010926C03109279031092670378940AC002
:101DD00010E080CF60E08EE693E075DD83E08093D5
:101DE0006C03DFCFDF91CF911F910895FC018181BA
:101DF000813081F48EED9CEB9093FF018093FE0186
:101E000088E190E029E00FB6F894A89581BD0FBE57
:101E100021BDFFCF8230E1F481E0809368038381AC
:101E200022819927982F88273327822B932B9093F1
:101E30006A038093690310926B03F89423E0FC011A
:101E400020935700E895789407B600FE09C0FCCFB0
:101E5000833031F4108280E4818382E090E0089541
:101E600080E090E00895FF920F931F93CF93DF934C
:101E7000EC01062F80916803813009F037C0A091F2
:101E80006903B0916A0370916B0360E011E0F5E0C3
:101E9000FF2E28C0F894FE01E60FF11D20818181FC
:101EA000AD01470F511D33279927982F8827282BDD
:101EB000392B0901FA0110935700E8951124789401
:101EC0007E5F703470F070936B03F894FD01F092B4
:101ED0005700E895789407B600FCFDCF1092680390
:101EE00005C06E5F6017B0F270936B03DF91CF9106
:101EF0001F910F91FF9008950A01FB0180935700F5
:101F0000E8951124813039F007B600FCFDCF81E15E
:0E1F100080935700E895089572DEFECFFFCF54
:021F1E00D25A95
:061FF000021095CB81CF29
:0400000300001800E1
:00000001FF
